{
	"BankableNFT_flat.sol": {
		"MyToken": {
			"abi": [
				{
					"inputs": [],
					"stateMutability": "nonpayable",
					"type": "constructor"
				},
				{
					"anonymous": false,
					"inputs": [
						{
							"indexed": true,
							"internalType": "address",
							"name": "owner",
							"type": "address"
						},
						{
							"indexed": true,
							"internalType": "address",
							"name": "approved",
							"type": "address"
						},
						{
							"indexed": true,
							"internalType": "uint256",
							"name": "tokenId",
							"type": "uint256"
						}
					],
					"name": "Approval",
					"type": "event"
				},
				{
					"anonymous": false,
					"inputs": [
						{
							"indexed": true,
							"internalType": "address",
							"name": "owner",
							"type": "address"
						},
						{
							"indexed": true,
							"internalType": "address",
							"name": "operator",
							"type": "address"
						},
						{
							"indexed": false,
							"internalType": "bool",
							"name": "approved",
							"type": "bool"
						}
					],
					"name": "ApprovalForAll",
					"type": "event"
				},
				{
					"anonymous": false,
					"inputs": [
						{
							"indexed": true,
							"internalType": "address",
							"name": "previousOwner",
							"type": "address"
						},
						{
							"indexed": true,
							"internalType": "address",
							"name": "newOwner",
							"type": "address"
						}
					],
					"name": "OwnershipTransferred",
					"type": "event"
				},
				{
					"anonymous": false,
					"inputs": [
						{
							"indexed": true,
							"internalType": "address",
							"name": "from",
							"type": "address"
						},
						{
							"indexed": true,
							"internalType": "address",
							"name": "to",
							"type": "address"
						},
						{
							"indexed": true,
							"internalType": "uint256",
							"name": "tokenId",
							"type": "uint256"
						}
					],
					"name": "Transfer",
					"type": "event"
				},
				{
					"inputs": [
						{
							"internalType": "address",
							"name": "to",
							"type": "address"
						},
						{
							"internalType": "uint256",
							"name": "tokenId",
							"type": "uint256"
						}
					],
					"name": "approve",
					"outputs": [],
					"stateMutability": "nonpayable",
					"type": "function"
				},
				{
					"inputs": [
						{
							"internalType": "address",
							"name": "owner",
							"type": "address"
						}
					],
					"name": "balanceOf",
					"outputs": [
						{
							"internalType": "uint256",
							"name": "",
							"type": "uint256"
						}
					],
					"stateMutability": "view",
					"type": "function"
				},
				{
					"inputs": [
						{
							"internalType": "uint256",
							"name": "tokenId",
							"type": "uint256"
						}
					],
					"name": "burn",
					"outputs": [],
					"stateMutability": "nonpayable",
					"type": "function"
				},
				{
					"inputs": [
						{
							"internalType": "uint256",
							"name": "tokenId",
							"type": "uint256"
						}
					],
					"name": "getApproved",
					"outputs": [
						{
							"internalType": "address",
							"name": "",
							"type": "address"
						}
					],
					"stateMutability": "view",
					"type": "function"
				},
				{
					"inputs": [
						{
							"internalType": "address",
							"name": "owner",
							"type": "address"
						},
						{
							"internalType": "address",
							"name": "operator",
							"type": "address"
						}
					],
					"name": "isApprovedForAll",
					"outputs": [
						{
							"internalType": "bool",
							"name": "",
							"type": "bool"
						}
					],
					"stateMutability": "view",
					"type": "function"
				},
				{
					"inputs": [],
					"name": "name",
					"outputs": [
						{
							"internalType": "string",
							"name": "",
							"type": "string"
						}
					],
					"stateMutability": "view",
					"type": "function"
				},
				{
					"inputs": [],
					"name": "owner",
					"outputs": [
						{
							"internalType": "address",
							"name": "",
							"type": "address"
						}
					],
					"stateMutability": "view",
					"type": "function"
				},
				{
					"inputs": [
						{
							"internalType": "uint256",
							"name": "tokenId",
							"type": "uint256"
						}
					],
					"name": "ownerOf",
					"outputs": [
						{
							"internalType": "address",
							"name": "",
							"type": "address"
						}
					],
					"stateMutability": "view",
					"type": "function"
				},
				{
					"inputs": [],
					"name": "renounceOwnership",
					"outputs": [],
					"stateMutability": "nonpayable",
					"type": "function"
				},
				{
					"inputs": [
						{
							"internalType": "address",
							"name": "to",
							"type": "address"
						},
						{
							"internalType": "string",
							"name": "uri",
							"type": "string"
						}
					],
					"name": "safeMint",
					"outputs": [],
					"stateMutability": "nonpayable",
					"type": "function"
				},
				{
					"inputs": [
						{
							"internalType": "address",
							"name": "from",
							"type": "address"
						},
						{
							"internalType": "address",
							"name": "to",
							"type": "address"
						},
						{
							"internalType": "uint256",
							"name": "tokenId",
							"type": "uint256"
						}
					],
					"name": "safeTransferFrom",
					"outputs": [],
					"stateMutability": "nonpayable",
					"type": "function"
				},
				{
					"inputs": [
						{
							"internalType": "address",
							"name": "from",
							"type": "address"
						},
						{
							"internalType": "address",
							"name": "to",
							"type": "address"
						},
						{
							"internalType": "uint256",
							"name": "tokenId",
							"type": "uint256"
						},
						{
							"internalType": "bytes",
							"name": "_data",
							"type": "bytes"
						}
					],
					"name": "safeTransferFrom",
					"outputs": [],
					"stateMutability": "nonpayable",
					"type": "function"
				},
				{
					"inputs": [
						{
							"internalType": "address",
							"name": "operator",
							"type": "address"
						},
						{
							"internalType": "bool",
							"name": "approved",
							"type": "bool"
						}
					],
					"name": "setApprovalForAll",
					"outputs": [],
					"stateMutability": "nonpayable",
					"type": "function"
				},
				{
					"inputs": [
						{
							"internalType": "bytes4",
							"name": "interfaceId",
							"type": "bytes4"
						}
					],
					"name": "supportsInterface",
					"outputs": [
						{
							"internalType": "bool",
							"name": "",
							"type": "bool"
						}
					],
					"stateMutability": "view",
					"type": "function"
				},
				{
					"inputs": [],
					"name": "symbol",
					"outputs": [
						{
							"internalType": "string",
							"name": "",
							"type": "string"
						}
					],
					"stateMutability": "view",
					"type": "function"
				},
				{
					"inputs": [
						{
							"internalType": "uint256",
							"name": "tokenId",
							"type": "uint256"
						}
					],
					"name": "tokenURI",
					"outputs": [
						{
							"internalType": "string",
							"name": "",
							"type": "string"
						}
					],
					"stateMutability": "view",
					"type": "function"
				},
				{
					"inputs": [
						{
							"internalType": "address",
							"name": "from",
							"type": "address"
						},
						{
							"internalType": "address",
							"name": "to",
							"type": "address"
						},
						{
							"internalType": "uint256",
							"name": "tokenId",
							"type": "uint256"
						}
					],
					"name": "transferFrom",
					"outputs": [],
					"stateMutability": "nonpayable",
					"type": "function"
				},
				{
					"inputs": [
						{
							"internalType": "address",
							"name": "newOwner",
							"type": "address"
						}
					],
					"name": "transferOwnership",
					"outputs": [],
					"stateMutability": "nonpayable",
					"type": "function"
				}
			],
			"devdoc": {
				"kind": "dev",
				"methods": {
					"approve(address,uint256)": {
						"details": "See {IERC721-approve}."
					},
					"balanceOf(address)": {
						"details": "See {IERC721-balanceOf}."
					},
					"burn(uint256)": {
						"details": "Burns `tokenId`. See {ERC721-_burn}. Requirements: - The caller must own `tokenId` or be an approved operator."
					},
					"getApproved(uint256)": {
						"details": "See {IERC721-getApproved}."
					},
					"isApprovedForAll(address,address)": {
						"details": "See {IERC721-isApprovedForAll}."
					},
					"name()": {
						"details": "See {IERC721Metadata-name}."
					},
					"owner()": {
						"details": "Returns the address of the current owner."
					},
					"ownerOf(uint256)": {
						"details": "See {IERC721-ownerOf}."
					},
					"renounceOwnership()": {
						"details": "Leaves the contract without owner. It will not be possible to call `onlyOwner` functions anymore. Can only be called by the current owner. NOTE: Renouncing ownership will leave the contract without an owner, thereby removing any functionality that is only available to the owner."
					},
					"safeTransferFrom(address,address,uint256)": {
						"details": "See {IERC721-safeTransferFrom}."
					},
					"safeTransferFrom(address,address,uint256,bytes)": {
						"details": "See {IERC721-safeTransferFrom}."
					},
					"setApprovalForAll(address,bool)": {
						"details": "See {IERC721-setApprovalForAll}."
					},
					"supportsInterface(bytes4)": {
						"details": "See {IERC165-supportsInterface}."
					},
					"symbol()": {
						"details": "See {IERC721Metadata-symbol}."
					},
					"transferFrom(address,address,uint256)": {
						"details": "See {IERC721-transferFrom}."
					},
					"transferOwnership(address)": {
						"details": "Transfers ownership of the contract to a new account (`newOwner`). Can only be called by the current owner."
					}
				},
				"version": 1
			},
			"evm": {
				"assembly": "    /* \"BankableNFT_flat.sol\":40402:41234  contract MyToken is ERC721, ERC721URIStorage, ERC721Burnable, Ownable {... */\n  mstore(0x40, 0x80)\n    /* \"BankableNFT_flat.sol\":40567:40613  constructor() ERC721(\"BankableNFT\", \"BNFT\") {} */\n  callvalue\n  dup1\n  iszero\n  tag_1\n  jumpi\n  0x00\n  dup1\n  revert\ntag_1:\n  pop\n    /* \"BankableNFT_flat.sol\":24730:24843  constructor(string memory name_, string memory symbol_) {... */\n  0x40\n  dup1\n  mload\n  dup1\n  dup3\n  add\n  dup3\n  mstore\n  0x0b\n  dup2\n  mstore\n  shl(0xaa, 0x10985b9ad8589b19539195)\n  0x20\n  dup1\n  dup4\n  add\n  swap2\n  dup3\n  mstore\n  dup4\n  mload\n  dup1\n  dup6\n  add\n  swap1\n  swap5\n  mstore\n  0x04\n  dup5\n  mstore\n  shl(0xe2, 0x10939195)\n  swap1\n  dup5\n  add\n  mstore\n    /* \"BankableNFT_flat.sol\":24796:24809  _name = name_ */\n  dup2\n  mload\n    /* \"BankableNFT_flat.sol\":24730:24843  constructor(string memory name_, string memory symbol_) {... */\n  swap2\n  swap3\n  swap2\n    /* \"BankableNFT_flat.sol\":24796:24809  _name = name_ */\n  tag_6\n  swap2\n  0x00\n  swap2\n  tag_7\n  jump\t// in\ntag_6:\n  pop\n    /* \"BankableNFT_flat.sol\":24819:24836  _symbol = symbol_ */\n  dup1\n  mload\n  tag_8\n  swap1\n    /* \"BankableNFT_flat.sol\":24819:24826  _symbol */\n  0x01\n  swap1\n    /* \"BankableNFT_flat.sol\":24819:24836  _symbol = symbol_ */\n  0x20\n  dup5\n  add\n  swap1\n  tag_7\n  jump\t// in\ntag_8:\n  pop\n    /* \"BankableNFT_flat.sol\":24730:24843  constructor(string memory name_, string memory symbol_) {... */\n  pop\n  pop\n    /* \"BankableNFT_flat.sol\":5306:5338  _transferOwnership(_msgSender()) */\n  tag_10\n    /* \"BankableNFT_flat.sol\":5325:5337  _msgSender() */\n  tag_11\n    /* \"BankableNFT_flat.sol\":5325:5335  _msgSender */\n  shl(0x20, tag_12)\n    /* \"BankableNFT_flat.sol\":5325:5337  _msgSender() */\n  0x20\n  shr\n  jump\t// in\ntag_11:\n    /* \"BankableNFT_flat.sol\":5306:5324  _transferOwnership */\n  tag_13\n    /* \"BankableNFT_flat.sol\":5306:5338  _transferOwnership(_msgSender()) */\n  jump\t// in\ntag_10:\n    /* \"BankableNFT_flat.sol\":40402:41234  contract MyToken is ERC721, ERC721URIStorage, ERC721Burnable, Ownable {... */\n  jump(tag_29)\n    /* \"BankableNFT_flat.sol\":4183:4279  function _msgSender() internal view virtual returns (address) {... */\ntag_12:\n    /* \"BankableNFT_flat.sol\":4262:4272  msg.sender */\n  caller\n  swap1\n    /* \"BankableNFT_flat.sol\":4183:4279  function _msgSender() internal view virtual returns (address) {... */\n  jump\t// out\n    /* \"BankableNFT_flat.sol\":6655:6842  function _transferOwnership(address newOwner) internal virtual {... */\ntag_13:\n    /* \"BankableNFT_flat.sol\":6747:6753  _owner */\n  0x07\n  dup1\n  sload\n  sub(shl(0xa0, 0x01), 0x01)\n    /* \"BankableNFT_flat.sol\":6763:6780  _owner = newOwner */\n  dup4\n  dup2\n  and\n  not(sub(shl(0xa0, 0x01), 0x01))\n  dup4\n  and\n  dup2\n  or\n  swap1\n  swap4\n  sstore\n    /* \"BankableNFT_flat.sol\":6795:6835  OwnershipTransferred(oldOwner, newOwner) */\n  mload(0x40)\n    /* \"BankableNFT_flat.sol\":6747:6753  _owner */\n  swap2\n  and\n  swap2\n    /* \"BankableNFT_flat.sol\":6763:6780  _owner = newOwner */\n  swap1\n    /* \"BankableNFT_flat.sol\":6747:6753  _owner */\n  dup3\n  swap1\n    /* \"BankableNFT_flat.sol\":6795:6835  OwnershipTransferred(oldOwner, newOwner) */\n  0x8be0079c531659141344cd1fd0a4f28419497f9722a3daafe3b4186f6b6457e0\n  swap1\n    /* \"BankableNFT_flat.sol\":6728:6744  address oldOwner */\n  0x00\n  swap1\n    /* \"BankableNFT_flat.sol\":6795:6835  OwnershipTransferred(oldOwner, newOwner) */\n  log3\n    /* \"BankableNFT_flat.sol\":6655:6842  function _transferOwnership(address newOwner) internal virtual {... */\n  pop\n  pop\n  jump\t// out\n    /* \"BankableNFT_flat.sol\":40402:41234  contract MyToken is ERC721, ERC721URIStorage, ERC721Burnable, Ownable {... */\ntag_7:\n  dup3\n  dup1\n  sload\n  tag_18\n  swap1\n  tag_19\n  jump\t// in\ntag_18:\n  swap1\n  0x00\n  mstore\n  keccak256(0x00, 0x20)\n  swap1\n  0x1f\n  add\n  0x20\n  swap1\n  div\n  dup2\n  add\n  swap3\n  dup3\n  tag_21\n  jumpi\n  0x00\n  dup6\n  sstore\n  jump(tag_24)\ntag_21:\n  dup3\n  0x1f\n  lt\n  tag_22\n  jumpi\n  dup1\n  mload\n  not(0xff)\n  and\n  dup4\n  dup1\n  add\n  or\n  dup6\n  sstore\n  jump(tag_24)\ntag_22:\n  dup3\n  dup1\n  add\n  0x01\n  add\n  dup6\n  sstore\n  dup3\n  iszero\n  tag_24\n  jumpi\n  swap2\n  dup3\n  add\ntag_23:\n  dup3\n  dup2\n  gt\n  iszero\n  tag_24\n  jumpi\n  dup3\n  mload\n  dup3\n  sstore\n  swap2\n  0x20\n  add\n  swap2\n  swap1\n  0x01\n  add\n  swap1\n  jump(tag_23)\ntag_24:\n  pop\n  tag_25\n  swap3\n  swap2\n  pop\n  tag_26\n  jump\t// in\ntag_25:\n  pop\n  swap1\n  jump\t// out\ntag_26:\ntag_27:\n  dup1\n  dup3\n  gt\n  iszero\n  tag_25\n  jumpi\n  0x00\n  dup2\n  sstore\n  0x01\n  add\n  jump(tag_27)\n    /* \"#utility.yul\":14:394   */\ntag_19:\n    /* \"#utility.yul\":93:94   */\n  0x01\n    /* \"#utility.yul\":89:101   */\n  dup2\n  dup2\n  shr\n  swap1\n    /* \"#utility.yul\":136:148   */\n  dup3\n  and\n  dup1\n    /* \"#utility.yul\":157:159   */\n  tag_31\n  jumpi\n    /* \"#utility.yul\":211:215   */\n  0x7f\n    /* \"#utility.yul\":203:209   */\n  dup3\n    /* \"#utility.yul\":199:216   */\n  and\n    /* \"#utility.yul\":189:216   */\n  swap2\n  pop\n    /* \"#utility.yul\":157:159   */\ntag_31:\n    /* \"#utility.yul\":264:266   */\n  0x20\n    /* \"#utility.yul\":256:262   */\n  dup3\n    /* \"#utility.yul\":253:267   */\n  lt\n    /* \"#utility.yul\":233:251   */\n  dup2\n    /* \"#utility.yul\":230:268   */\n  eq\n    /* \"#utility.yul\":227:229   */\n  iszero\n  tag_32\n  jumpi\n    /* \"#utility.yul\":310:320   */\n  0x4e487b71\n    /* \"#utility.yul\":305:308   */\n  0xe0\n    /* \"#utility.yul\":301:321   */\n  shl\n    /* \"#utility.yul\":298:299   */\n  0x00\n    /* \"#utility.yul\":291:322   */\n  mstore\n    /* \"#utility.yul\":345:349   */\n  0x22\n    /* \"#utility.yul\":342:343   */\n  0x04\n    /* \"#utility.yul\":335:350   */\n  mstore\n    /* \"#utility.yul\":373:377   */\n  0x24\n    /* \"#utility.yul\":370:371   */\n  0x00\n    /* \"#utility.yul\":363:378   */\n  revert\n    /* \"#utility.yul\":227:229   */\ntag_32:\n  pop\n    /* \"#utility.yul\":69:394   */\n  swap2\n  swap1\n  pop\n  jump\t// out\ntag_29:\n    /* \"BankableNFT_flat.sol\":40402:41234  contract MyToken is ERC721, ERC721URIStorage, ERC721Burnable, Ownable {... */\n  dataSize(sub_0)\n  dup1\n  dataOffset(sub_0)\n  0x00\n  codecopy\n  0x00\n  return\nstop\n\nsub_0: assembly {\n        /* \"BankableNFT_flat.sol\":40402:41234  contract MyToken is ERC721, ERC721URIStorage, ERC721Burnable, Ownable {... */\n      mstore(0x40, 0x80)\n      callvalue\n      dup1\n      iszero\n      tag_1\n      jumpi\n      0x00\n      dup1\n      revert\n    tag_1:\n      pop\n      jumpi(tag_2, lt(calldatasize, 0x04))\n      shr(0xe0, calldataload(0x00))\n      dup1\n      0x715018a6\n      gt\n      tag_21\n      jumpi\n      dup1\n      0xb88d4fde\n      gt\n      tag_22\n      jumpi\n      dup1\n      0xb88d4fde\n      eq\n      tag_16\n      jumpi\n      dup1\n      0xc87b56dd\n      eq\n      tag_17\n      jumpi\n      dup1\n      0xd204c45e\n      eq\n      tag_18\n      jumpi\n      dup1\n      0xe985e9c5\n      eq\n      tag_19\n      jumpi\n      dup1\n      0xf2fde38b\n      eq\n      tag_20\n      jumpi\n      0x00\n      dup1\n      revert\n    tag_22:\n      dup1\n      0x715018a6\n      eq\n      tag_12\n      jumpi\n      dup1\n      0x8da5cb5b\n      eq\n      tag_13\n      jumpi\n      dup1\n      0x95d89b41\n      eq\n      tag_14\n      jumpi\n      dup1\n      0xa22cb465\n      eq\n      tag_15\n      jumpi\n      0x00\n      dup1\n      revert\n    tag_21:\n      dup1\n      0x23b872dd\n      gt\n      tag_23\n      jumpi\n      dup1\n      0x23b872dd\n      eq\n      tag_7\n      jumpi\n      dup1\n      0x42842e0e\n      eq\n      tag_8\n      jumpi\n      dup1\n      0x42966c68\n      eq\n      tag_9\n      jumpi\n      dup1\n      0x6352211e\n      eq\n      tag_10\n      jumpi\n      dup1\n      0x70a08231\n      eq\n      tag_11\n      jumpi\n      0x00\n      dup1\n      revert\n    tag_23:\n      dup1\n      0x01ffc9a7\n      eq\n      tag_3\n      jumpi\n      dup1\n      0x06fdde03\n      eq\n      tag_4\n      jumpi\n      dup1\n      0x081812fc\n      eq\n      tag_5\n      jumpi\n      dup1\n      0x095ea7b3\n      eq\n      tag_6\n      jumpi\n    tag_2:\n      0x00\n      dup1\n      revert\n        /* \"BankableNFT_flat.sol\":24910:25210  function supportsInterface(bytes4 interfaceId) public view virtual override(ERC165, IERC165) returns (bool) {... */\n    tag_3:\n      tag_24\n      tag_25\n      calldatasize\n      0x04\n      tag_26\n      jump\t// in\n    tag_25:\n      tag_27\n      jump\t// in\n    tag_24:\n      mload(0x40)\n        /* \"#utility.yul\":5870:5884   */\n      swap1\n      iszero\n        /* \"#utility.yul\":5863:5885   */\n      iszero\n        /* \"#utility.yul\":5845:5886   */\n      dup2\n      mstore\n        /* \"#utility.yul\":5833:5835   */\n      0x20\n        /* \"#utility.yul\":5818:5836   */\n      add\n        /* \"BankableNFT_flat.sol\":24910:25210  function supportsInterface(bytes4 interfaceId) public view virtual override(ERC165, IERC165) returns (bool) {... */\n    tag_28:\n      mload(0x40)\n      dup1\n      swap2\n      sub\n      swap1\n      return\n        /* \"BankableNFT_flat.sol\":25828:25926  function name() public view virtual override returns (string memory) {... */\n    tag_4:\n      tag_30\n      tag_31\n      jump\t// in\n    tag_30:\n      mload(0x40)\n      tag_28\n      swap2\n      swap1\n      tag_33\n      jump\t// in\n        /* \"BankableNFT_flat.sol\":27339:27556  function getApproved(uint256 tokenId) public view virtual override returns (address) {... */\n    tag_5:\n      tag_34\n      tag_35\n      calldatasize\n      0x04\n      tag_36\n      jump\t// in\n    tag_35:\n      tag_37\n      jump\t// in\n    tag_34:\n      mload(0x40)\n      sub(shl(0xa0, 0x01), 0x01)\n        /* \"#utility.yul\":5168:5200   */\n      swap1\n      swap2\n      and\n        /* \"#utility.yul\":5150:5201   */\n      dup2\n      mstore\n        /* \"#utility.yul\":5138:5140   */\n      0x20\n        /* \"#utility.yul\":5123:5141   */\n      add\n        /* \"BankableNFT_flat.sol\":27339:27556  function getApproved(uint256 tokenId) public view virtual override returns (address) {... */\n      tag_28\n        /* \"#utility.yul\":5105:5207   */\n      jump\n        /* \"BankableNFT_flat.sol\":26877:27278  function approve(address to, uint256 tokenId) public virtual override {... */\n    tag_6:\n      tag_40\n      tag_41\n      calldatasize\n      0x04\n      tag_42\n      jump\t// in\n    tag_41:\n      tag_43\n      jump\t// in\n    tag_40:\n      stop\n        /* \"BankableNFT_flat.sol\":28066:28396  function transferFrom(... */\n    tag_7:\n      tag_40\n      tag_45\n      calldatasize\n      0x04\n      tag_46\n      jump\t// in\n    tag_45:\n      tag_47\n      jump\t// in\n        /* \"BankableNFT_flat.sol\":28462:28641  function safeTransferFrom(... */\n    tag_8:\n      tag_40\n      tag_49\n      calldatasize\n      0x04\n      tag_46\n      jump\t// in\n    tag_49:\n      tag_50\n      jump\t// in\n        /* \"BankableNFT_flat.sol\":38148:38389  function burn(uint256 tokenId) public virtual {... */\n    tag_9:\n      tag_40\n      tag_52\n      calldatasize\n      0x04\n      tag_36\n      jump\t// in\n    tag_52:\n      tag_53\n      jump\t// in\n        /* \"BankableNFT_flat.sol\":25531:25766  function ownerOf(uint256 tokenId) public view virtual override returns (address) {... */\n    tag_10:\n      tag_34\n      tag_55\n      calldatasize\n      0x04\n      tag_36\n      jump\t// in\n    tag_55:\n      tag_56\n      jump\t// in\n        /* \"BankableNFT_flat.sol\":25269:25474  function balanceOf(address owner) public view virtual override returns (uint256) {... */\n    tag_11:\n      tag_58\n      tag_59\n      calldatasize\n      0x04\n      tag_60\n      jump\t// in\n    tag_59:\n      tag_61\n      jump\t// in\n    tag_58:\n      mload(0x40)\n        /* \"#utility.yul\":13895:13920   */\n      swap1\n      dup2\n      mstore\n        /* \"#utility.yul\":13883:13885   */\n      0x20\n        /* \"#utility.yul\":13868:13886   */\n      add\n        /* \"BankableNFT_flat.sol\":25269:25474  function balanceOf(address owner) public view virtual override returns (uint256) {... */\n      tag_28\n        /* \"#utility.yul\":13850:13926   */\n      jump\n        /* \"BankableNFT_flat.sol\":6053:6154  function renounceOwnership() public virtual onlyOwner {... */\n    tag_12:\n      tag_40\n      tag_65\n      jump\t// in\n        /* \"BankableNFT_flat.sol\":5421:5506  function owner() public view virtual returns (address) {... */\n    tag_13:\n        /* \"BankableNFT_flat.sol\":5493:5499  _owner */\n      and(sub(shl(0xa0, 0x01), 0x01), sload(0x07))\n        /* \"BankableNFT_flat.sol\":5421:5506  function owner() public view virtual returns (address) {... */\n      jump(tag_34)\n        /* \"BankableNFT_flat.sol\":25990:26092  function symbol() public view virtual override returns (string memory) {... */\n    tag_14:\n      tag_30\n      tag_70\n      jump\t// in\n        /* \"BankableNFT_flat.sol\":27623:27776  function setApprovalForAll(address operator, bool approved) public virtual override {... */\n    tag_15:\n      tag_40\n      tag_73\n      calldatasize\n      0x04\n      tag_74\n      jump\t// in\n    tag_73:\n      tag_75\n      jump\t// in\n        /* \"BankableNFT_flat.sol\":28707:29027  function safeTransferFrom(... */\n    tag_16:\n      tag_40\n      tag_77\n      calldatasize\n      0x04\n      tag_78\n      jump\t// in\n    tag_77:\n      tag_79\n      jump\t// in\n        /* \"BankableNFT_flat.sol\":41043:41232  function tokenURI(uint256 tokenId)... */\n    tag_17:\n      tag_30\n      tag_81\n      calldatasize\n      0x04\n      tag_36\n      jump\t// in\n    tag_81:\n      tag_82\n      jump\t// in\n        /* \"BankableNFT_flat.sol\":40619:40850  function safeMint(address to, string memory uri) public onlyOwner {... */\n    tag_18:\n      tag_40\n      tag_85\n      calldatasize\n      0x04\n      tag_86\n      jump\t// in\n    tag_85:\n      tag_87\n      jump\t// in\n        /* \"BankableNFT_flat.sol\":27842:28004  function isApprovedForAll(address owner, address operator) public view virtual override returns (bool) {... */\n    tag_19:\n      tag_24\n      tag_89\n      calldatasize\n      0x04\n      tag_90\n      jump\t// in\n    tag_89:\n      sub(shl(0xa0, 0x01), 0x01)\n        /* \"BankableNFT_flat.sol\":27962:27987  _operatorApprovals[owner] */\n      swap2\n      dup3\n      and\n        /* \"BankableNFT_flat.sol\":27939:27943  bool */\n      0x00\n        /* \"BankableNFT_flat.sol\":27962:27987  _operatorApprovals[owner] */\n      swap1\n      dup2\n      mstore\n        /* \"BankableNFT_flat.sol\":27962:27980  _operatorApprovals */\n      0x05\n        /* \"BankableNFT_flat.sol\":27962:27987  _operatorApprovals[owner] */\n      0x20\n      swap1\n      dup2\n      mstore\n      0x40\n      dup1\n      dup4\n      keccak256\n        /* \"BankableNFT_flat.sol\":27962:27997  _operatorApprovals[owner][operator] */\n      swap4\n      swap1\n      swap5\n      and\n      dup3\n      mstore\n      swap2\n      swap1\n      swap2\n      mstore\n      keccak256\n      sload\n      0xff\n      and\n      swap1\n        /* \"BankableNFT_flat.sol\":27842:28004  function isApprovedForAll(address owner, address operator) public view virtual override returns (bool) {... */\n      jump\n        /* \"BankableNFT_flat.sol\":6303:6501  function transferOwnership(address newOwner) public virtual onlyOwner {... */\n    tag_20:\n      tag_40\n      tag_94\n      calldatasize\n      0x04\n      tag_60\n      jump\t// in\n    tag_94:\n      tag_95\n      jump\t// in\n        /* \"BankableNFT_flat.sol\":24910:25210  function supportsInterface(bytes4 interfaceId) public view virtual override(ERC165, IERC165) returns (bool) {... */\n    tag_27:\n        /* \"BankableNFT_flat.sol\":25012:25016  bool */\n      0x00\n      not(sub(shl(0xe0, 0x01), 0x01))\n        /* \"BankableNFT_flat.sol\":25047:25087  interfaceId == type(IERC721).interfaceId */\n      dup3\n      and\n      shl(0xe0, 0x80ac58cd)\n      eq\n      dup1\n        /* \"BankableNFT_flat.sol\":25047:25151  interfaceId == type(IERC721).interfaceId ||... */\n      tag_97\n      jumpi\n      pop\n      not(sub(shl(0xe0, 0x01), 0x01))\n        /* \"BankableNFT_flat.sol\":25103:25151  interfaceId == type(IERC721Metadata).interfaceId */\n      dup3\n      and\n      shl(0xe0, 0x5b5e139f)\n      eq\n        /* \"BankableNFT_flat.sol\":25047:25151  interfaceId == type(IERC721).interfaceId ||... */\n    tag_97:\n        /* \"BankableNFT_flat.sol\":25047:25203  interfaceId == type(IERC721).interfaceId ||... */\n      dup1\n      tag_99\n      jumpi\n      pop\n      shl(0xe0, 0x01ffc9a7)\n      not(sub(shl(0xe0, 0x01), 0x01))\n        /* \"BankableNFT_flat.sol\":17985:18025  interfaceId == type(IERC165).interfaceId */\n      dup4\n      and\n      eq\n        /* \"BankableNFT_flat.sol\":25167:25203  super.supportsInterface(interfaceId) */\n    tag_99:\n        /* \"BankableNFT_flat.sol\":25028:25203  return... */\n      swap3\n        /* \"BankableNFT_flat.sol\":24910:25210  function supportsInterface(bytes4 interfaceId) public view virtual override(ERC165, IERC165) returns (bool) {... */\n      swap2\n      pop\n      pop\n      jump\t// out\n        /* \"BankableNFT_flat.sol\":25828:25926  function name() public view virtual override returns (string memory) {... */\n    tag_31:\n        /* \"BankableNFT_flat.sol\":25882:25895  string memory */\n      0x60\n        /* \"BankableNFT_flat.sol\":25914:25919  _name */\n      0x00\n        /* \"BankableNFT_flat.sol\":25907:25919  return _name */\n      dup1\n      sload\n      tag_102\n      swap1\n      tag_103\n      jump\t// in\n    tag_102:\n      dup1\n      0x1f\n      add\n      0x20\n      dup1\n      swap2\n      div\n      mul\n      0x20\n      add\n      mload(0x40)\n      swap1\n      dup2\n      add\n      0x40\n      mstore\n      dup1\n      swap3\n      swap2\n      swap1\n      dup2\n      dup2\n      mstore\n      0x20\n      add\n      dup3\n      dup1\n      sload\n      tag_104\n      swap1\n      tag_103\n      jump\t// in\n    tag_104:\n      dup1\n      iszero\n      tag_105\n      jumpi\n      dup1\n      0x1f\n      lt\n      tag_106\n      jumpi\n      0x0100\n      dup1\n      dup4\n      sload\n      div\n      mul\n      dup4\n      mstore\n      swap2\n      0x20\n      add\n      swap2\n      jump(tag_105)\n    tag_106:\n      dup3\n      add\n      swap2\n      swap1\n      0x00\n      mstore\n      keccak256(0x00, 0x20)\n      swap1\n    tag_107:\n      dup2\n      sload\n      dup2\n      mstore\n      swap1\n      0x01\n      add\n      swap1\n      0x20\n      add\n      dup1\n      dup4\n      gt\n      tag_107\n      jumpi\n      dup3\n      swap1\n      sub\n      0x1f\n      and\n      dup3\n      add\n      swap2\n    tag_105:\n      pop\n      pop\n      pop\n      pop\n      pop\n      swap1\n      pop\n        /* \"BankableNFT_flat.sol\":25828:25926  function name() public view virtual override returns (string memory) {... */\n      swap1\n      jump\t// out\n        /* \"BankableNFT_flat.sol\":27339:27556  function getApproved(uint256 tokenId) public view virtual override returns (address) {... */\n    tag_37:\n        /* \"BankableNFT_flat.sol\":27415:27422  address */\n      0x00\n        /* \"BankableNFT_flat.sol\":27442:27458  _exists(tokenId) */\n      tag_109\n        /* \"BankableNFT_flat.sol\":27450:27457  tokenId */\n      dup3\n        /* \"BankableNFT_flat.sol\":27442:27449  _exists */\n      tag_110\n        /* \"BankableNFT_flat.sol\":27442:27458  _exists(tokenId) */\n      jump\t// in\n    tag_109:\n        /* \"BankableNFT_flat.sol\":27434:27507  require(_exists(tokenId), \"ERC721: approved query for nonexistent token\") */\n      tag_111\n      jumpi\n      mload(0x40)\n      shl(0xe5, 0x461bcd)\n      dup2\n      mstore\n        /* \"#utility.yul\":11524:11526   */\n      0x20\n        /* \"BankableNFT_flat.sol\":27434:27507  require(_exists(tokenId), \"ERC721: approved query for nonexistent token\") */\n      0x04\n      dup3\n      add\n        /* \"#utility.yul\":11506:11527   */\n      mstore\n        /* \"#utility.yul\":11563:11565   */\n      0x2c\n        /* \"#utility.yul\":11543:11561   */\n      0x24\n      dup3\n      add\n        /* \"#utility.yul\":11536:11566   */\n      mstore\n        /* \"#utility.yul\":11602:11636   */\n      0x4552433732313a20617070726f76656420717565727920666f72206e6f6e6578\n        /* \"#utility.yul\":11582:11600   */\n      0x44\n      dup3\n      add\n        /* \"#utility.yul\":11575:11637   */\n      mstore\n      shl(0xa1, 0x34b9ba32b73a103a37b5b2b7)\n        /* \"#utility.yul\":11653:11671   */\n      0x64\n      dup3\n      add\n        /* \"#utility.yul\":11646:11688   */\n      mstore\n        /* \"#utility.yul\":11705:11724   */\n      0x84\n      add\n        /* \"BankableNFT_flat.sol\":27434:27507  require(_exists(tokenId), \"ERC721: approved query for nonexistent token\") */\n    tag_112:\n      mload(0x40)\n      dup1\n      swap2\n      sub\n      swap1\n      revert\n    tag_111:\n      pop\n        /* \"BankableNFT_flat.sol\":27525:27549  _tokenApprovals[tokenId] */\n      0x00\n      swap1\n      dup2\n      mstore\n        /* \"BankableNFT_flat.sol\":27525:27540  _tokenApprovals */\n      0x04\n        /* \"BankableNFT_flat.sol\":27525:27549  _tokenApprovals[tokenId] */\n      0x20\n      mstore\n      0x40\n      swap1\n      keccak256\n      sload\n      sub(shl(0xa0, 0x01), 0x01)\n      and\n      swap1\n        /* \"BankableNFT_flat.sol\":27339:27556  function getApproved(uint256 tokenId) public view virtual override returns (address) {... */\n      jump\t// out\n        /* \"BankableNFT_flat.sol\":26877:27278  function approve(address to, uint256 tokenId) public virtual override {... */\n    tag_43:\n        /* \"BankableNFT_flat.sol\":26957:26970  address owner */\n      0x00\n        /* \"BankableNFT_flat.sol\":26973:26996  ERC721.ownerOf(tokenId) */\n      tag_115\n        /* \"BankableNFT_flat.sol\":26988:26995  tokenId */\n      dup3\n        /* \"BankableNFT_flat.sol\":26973:26987  ERC721.ownerOf */\n      tag_56\n        /* \"BankableNFT_flat.sol\":26973:26996  ERC721.ownerOf(tokenId) */\n      jump\t// in\n    tag_115:\n        /* \"BankableNFT_flat.sol\":26957:26996  address owner = ERC721.ownerOf(tokenId) */\n      swap1\n      pop\n        /* \"BankableNFT_flat.sol\":27020:27025  owner */\n      dup1\n      sub(shl(0xa0, 0x01), 0x01)\n        /* \"BankableNFT_flat.sol\":27014:27025  to != owner */\n      and\n        /* \"BankableNFT_flat.sol\":27014:27016  to */\n      dup4\n      sub(shl(0xa0, 0x01), 0x01)\n        /* \"BankableNFT_flat.sol\":27014:27025  to != owner */\n      and\n      eq\n      iszero\n        /* \"BankableNFT_flat.sol\":27006:27063  require(to != owner, \"ERC721: approval to current owner\") */\n      tag_116\n      jumpi\n      mload(0x40)\n      shl(0xe5, 0x461bcd)\n      dup2\n      mstore\n        /* \"#utility.yul\":12714:12716   */\n      0x20\n        /* \"BankableNFT_flat.sol\":27006:27063  require(to != owner, \"ERC721: approval to current owner\") */\n      0x04\n      dup3\n      add\n        /* \"#utility.yul\":12696:12717   */\n      mstore\n        /* \"#utility.yul\":12753:12755   */\n      0x21\n        /* \"#utility.yul\":12733:12751   */\n      0x24\n      dup3\n      add\n        /* \"#utility.yul\":12726:12756   */\n      mstore\n        /* \"#utility.yul\":12792:12826   */\n      0x4552433732313a20617070726f76616c20746f2063757272656e74206f776e65\n        /* \"#utility.yul\":12772:12790   */\n      0x44\n      dup3\n      add\n        /* \"#utility.yul\":12765:12827   */\n      mstore\n      shl(0xf9, 0x39)\n        /* \"#utility.yul\":12843:12861   */\n      0x64\n      dup3\n      add\n        /* \"#utility.yul\":12836:12867   */\n      mstore\n        /* \"#utility.yul\":12884:12903   */\n      0x84\n      add\n        /* \"BankableNFT_flat.sol\":27006:27063  require(to != owner, \"ERC721: approval to current owner\") */\n      tag_112\n        /* \"#utility.yul\":12686:12909   */\n      jump\n        /* \"BankableNFT_flat.sol\":27006:27063  require(to != owner, \"ERC721: approval to current owner\") */\n    tag_116:\n        /* \"BankableNFT_flat.sol\":4262:4272  msg.sender */\n      caller\n      sub(shl(0xa0, 0x01), 0x01)\n        /* \"BankableNFT_flat.sol\":27095:27116  _msgSender() == owner */\n      dup3\n      and\n      eq\n      dup1\n        /* \"BankableNFT_flat.sol\":27095:27157  _msgSender() == owner || isApprovedForAll(owner, _msgSender()) */\n      tag_122\n      jumpi\n      pop\n        /* \"BankableNFT_flat.sol\":27120:27157  isApprovedForAll(owner, _msgSender()) */\n      tag_122\n        /* \"BankableNFT_flat.sol\":27137:27142  owner */\n      dup2\n        /* \"BankableNFT_flat.sol\":4262:4272  msg.sender */\n      caller\n        /* \"BankableNFT_flat.sol\":27842:28004  function isApprovedForAll(address owner, address operator) public view virtual override returns (bool) {... */\n      tag_89\n      jump\t// in\n        /* \"BankableNFT_flat.sol\":27120:27157  isApprovedForAll(owner, _msgSender()) */\n    tag_122:\n        /* \"BankableNFT_flat.sol\":27074:27239  require(... */\n      tag_124\n      jumpi\n      mload(0x40)\n      shl(0xe5, 0x461bcd)\n      dup2\n      mstore\n        /* \"#utility.yul\":9084:9086   */\n      0x20\n        /* \"BankableNFT_flat.sol\":27074:27239  require(... */\n      0x04\n      dup3\n      add\n        /* \"#utility.yul\":9066:9087   */\n      mstore\n        /* \"#utility.yul\":9123:9125   */\n      0x38\n        /* \"#utility.yul\":9103:9121   */\n      0x24\n      dup3\n      add\n        /* \"#utility.yul\":9096:9126   */\n      mstore\n        /* \"#utility.yul\":9162:9196   */\n      0x4552433732313a20617070726f76652063616c6c6572206973206e6f74206f77\n        /* \"#utility.yul\":9142:9160   */\n      0x44\n      dup3\n      add\n        /* \"#utility.yul\":9135:9197   */\n      mstore\n        /* \"#utility.yul\":9233:9259   */\n      0x6e6572206e6f7220617070726f76656420666f7220616c6c0000000000000000\n        /* \"#utility.yul\":9213:9231   */\n      0x64\n      dup3\n      add\n        /* \"#utility.yul\":9206:9260   */\n      mstore\n        /* \"#utility.yul\":9277:9296   */\n      0x84\n      add\n        /* \"BankableNFT_flat.sol\":27074:27239  require(... */\n      tag_112\n        /* \"#utility.yul\":9056:9302   */\n      jump\n        /* \"BankableNFT_flat.sol\":27074:27239  require(... */\n    tag_124:\n        /* \"BankableNFT_flat.sol\":27250:27271  _approve(to, tokenId) */\n      tag_127\n        /* \"BankableNFT_flat.sol\":27259:27261  to */\n      dup4\n        /* \"BankableNFT_flat.sol\":27263:27270  tokenId */\n      dup4\n        /* \"BankableNFT_flat.sol\":27250:27258  _approve */\n      tag_128\n        /* \"BankableNFT_flat.sol\":27250:27271  _approve(to, tokenId) */\n      jump\t// in\n    tag_127:\n        /* \"BankableNFT_flat.sol\":26877:27278  function approve(address to, uint256 tokenId) public virtual override {... */\n      pop\n      pop\n      pop\n      jump\t// out\n        /* \"BankableNFT_flat.sol\":28066:28396  function transferFrom(... */\n    tag_47:\n        /* \"BankableNFT_flat.sol\":28255:28296  _isApprovedOrOwner(_msgSender(), tokenId) */\n      tag_130\n        /* \"BankableNFT_flat.sol\":4262:4272  msg.sender */\n      caller\n        /* \"BankableNFT_flat.sol\":28274:28286  _msgSender() */\n    tag_131:\n        /* \"BankableNFT_flat.sol\":28288:28295  tokenId */\n      dup3\n        /* \"BankableNFT_flat.sol\":28255:28273  _isApprovedOrOwner */\n      tag_132\n        /* \"BankableNFT_flat.sol\":28255:28296  _isApprovedOrOwner(_msgSender(), tokenId) */\n      jump\t// in\n    tag_130:\n        /* \"BankableNFT_flat.sol\":28247:28350  require(_isApprovedOrOwner(_msgSender(), tokenId), \"ERC721: transfer caller is not owner nor approved\") */\n      tag_133\n      jumpi\n      mload(0x40)\n      shl(0xe5, 0x461bcd)\n      dup2\n      mstore\n      0x04\n      add\n      tag_112\n      swap1\n      tag_135\n      jump\t// in\n    tag_133:\n        /* \"BankableNFT_flat.sol\":28361:28389  _transfer(from, to, tokenId) */\n      tag_127\n        /* \"BankableNFT_flat.sol\":28371:28375  from */\n      dup4\n        /* \"BankableNFT_flat.sol\":28377:28379  to */\n      dup4\n        /* \"BankableNFT_flat.sol\":28381:28388  tokenId */\n      dup4\n        /* \"BankableNFT_flat.sol\":28361:28370  _transfer */\n      tag_137\n        /* \"BankableNFT_flat.sol\":28361:28389  _transfer(from, to, tokenId) */\n      jump\t// in\n        /* \"BankableNFT_flat.sol\":28462:28641  function safeTransferFrom(... */\n    tag_50:\n        /* \"BankableNFT_flat.sol\":28595:28634  safeTransferFrom(from, to, tokenId, \"\") */\n      tag_127\n        /* \"BankableNFT_flat.sol\":28612:28616  from */\n      dup4\n        /* \"BankableNFT_flat.sol\":28618:28620  to */\n      dup4\n        /* \"BankableNFT_flat.sol\":28622:28629  tokenId */\n      dup4\n        /* \"BankableNFT_flat.sol\":28595:28634  safeTransferFrom(from, to, tokenId, \"\") */\n      mload(0x40)\n      dup1\n      0x20\n      add\n      0x40\n      mstore\n      dup1\n      0x00\n      dup2\n      mstore\n      pop\n        /* \"BankableNFT_flat.sol\":28595:28611  safeTransferFrom */\n      tag_79\n        /* \"BankableNFT_flat.sol\":28595:28634  safeTransferFrom(from, to, tokenId, \"\") */\n      jump\t// in\n        /* \"BankableNFT_flat.sol\":38148:38389  function burn(uint256 tokenId) public virtual {... */\n    tag_53:\n        /* \"BankableNFT_flat.sol\":38264:38305  _isApprovedOrOwner(_msgSender(), tokenId) */\n      tag_141\n        /* \"BankableNFT_flat.sol\":4262:4272  msg.sender */\n      caller\n        /* \"BankableNFT_flat.sol\":38283:38295  _msgSender() */\n      tag_131\n        /* \"BankableNFT_flat.sol\":4183:4279  function _msgSender() internal view virtual returns (address) {... */\n      jump\n        /* \"BankableNFT_flat.sol\":38264:38305  _isApprovedOrOwner(_msgSender(), tokenId) */\n    tag_141:\n        /* \"BankableNFT_flat.sol\":38256:38358  require(_isApprovedOrOwner(_msgSender(), tokenId), \"ERC721Burnable: caller is not owner nor approved\") */\n      tag_143\n      jumpi\n      mload(0x40)\n      shl(0xe5, 0x461bcd)\n      dup2\n      mstore\n        /* \"#utility.yul\":13534:13536   */\n      0x20\n        /* \"BankableNFT_flat.sol\":38256:38358  require(_isApprovedOrOwner(_msgSender(), tokenId), \"ERC721Burnable: caller is not owner nor approved\") */\n      0x04\n      dup3\n      add\n        /* \"#utility.yul\":13516:13537   */\n      mstore\n        /* \"#utility.yul\":13573:13575   */\n      0x30\n        /* \"#utility.yul\":13553:13571   */\n      0x24\n      dup3\n      add\n        /* \"#utility.yul\":13546:13576   */\n      mstore\n        /* \"#utility.yul\":13612:13646   */\n      0x4552433732314275726e61626c653a2063616c6c6572206973206e6f74206f77\n        /* \"#utility.yul\":13592:13610   */\n      0x44\n      dup3\n      add\n        /* \"#utility.yul\":13585:13647   */\n      mstore\n      shl(0x82, 0x1b995c881b9bdc88185c1c1c9bdd9959)\n        /* \"#utility.yul\":13663:13681   */\n      0x64\n      dup3\n      add\n        /* \"#utility.yul\":13656:13702   */\n      mstore\n        /* \"#utility.yul\":13719:13738   */\n      0x84\n      add\n        /* \"BankableNFT_flat.sol\":38256:38358  require(_isApprovedOrOwner(_msgSender(), tokenId), \"ERC721Burnable: caller is not owner nor approved\") */\n      tag_112\n        /* \"#utility.yul\":13506:13744   */\n      jump\n        /* \"BankableNFT_flat.sol\":38256:38358  require(_isApprovedOrOwner(_msgSender(), tokenId), \"ERC721Burnable: caller is not owner nor approved\") */\n    tag_143:\n        /* \"BankableNFT_flat.sol\":38368:38382  _burn(tokenId) */\n      tag_146\n        /* \"BankableNFT_flat.sol\":38374:38381  tokenId */\n      dup2\n        /* \"BankableNFT_flat.sol\":38368:38373  _burn */\n      tag_147\n        /* \"BankableNFT_flat.sol\":38368:38382  _burn(tokenId) */\n      jump\t// in\n    tag_146:\n        /* \"BankableNFT_flat.sol\":38148:38389  function burn(uint256 tokenId) public virtual {... */\n      pop\n      jump\t// out\n        /* \"BankableNFT_flat.sol\":25531:25766  function ownerOf(uint256 tokenId) public view virtual override returns (address) {... */\n    tag_56:\n        /* \"BankableNFT_flat.sol\":25603:25610  address */\n      0x00\n        /* \"BankableNFT_flat.sol\":25638:25654  _owners[tokenId] */\n      dup2\n      dup2\n      mstore\n        /* \"BankableNFT_flat.sol\":25638:25645  _owners */\n      0x02\n        /* \"BankableNFT_flat.sol\":25638:25654  _owners[tokenId] */\n      0x20\n      mstore\n      0x40\n      dup2\n      keccak256\n      sload\n      sub(shl(0xa0, 0x01), 0x01)\n      and\n        /* \"BankableNFT_flat.sol\":25672:25691  owner != address(0) */\n      dup1\n        /* \"BankableNFT_flat.sol\":25664:25737  require(owner != address(0), \"ERC721: owner query for nonexistent token\") */\n      tag_99\n      jumpi\n      mload(0x40)\n      shl(0xe5, 0x461bcd)\n      dup2\n      mstore\n        /* \"#utility.yul\":9920:9922   */\n      0x20\n        /* \"BankableNFT_flat.sol\":25664:25737  require(owner != address(0), \"ERC721: owner query for nonexistent token\") */\n      0x04\n      dup3\n      add\n        /* \"#utility.yul\":9902:9923   */\n      mstore\n        /* \"#utility.yul\":9959:9961   */\n      0x29\n        /* \"#utility.yul\":9939:9957   */\n      0x24\n      dup3\n      add\n        /* \"#utility.yul\":9932:9962   */\n      mstore\n        /* \"#utility.yul\":9998:10032   */\n      0x4552433732313a206f776e657220717565727920666f72206e6f6e6578697374\n        /* \"#utility.yul\":9978:9996   */\n      0x44\n      dup3\n      add\n        /* \"#utility.yul\":9971:10033   */\n      mstore\n      shl(0xb9, 0x32b73a103a37b5b2b7)\n        /* \"#utility.yul\":10049:10067   */\n      0x64\n      dup3\n      add\n        /* \"#utility.yul\":10042:10081   */\n      mstore\n        /* \"#utility.yul\":10098:10117   */\n      0x84\n      add\n        /* \"BankableNFT_flat.sol\":25664:25737  require(owner != address(0), \"ERC721: owner query for nonexistent token\") */\n      tag_112\n        /* \"#utility.yul\":9892:10123   */\n      jump\n        /* \"BankableNFT_flat.sol\":25269:25474  function balanceOf(address owner) public view virtual override returns (uint256) {... */\n    tag_61:\n        /* \"BankableNFT_flat.sol\":25341:25348  uint256 */\n      0x00\n      sub(shl(0xa0, 0x01), 0x01)\n        /* \"BankableNFT_flat.sol\":25368:25387  owner != address(0) */\n      dup3\n      and\n        /* \"BankableNFT_flat.sol\":25360:25434  require(owner != address(0), \"ERC721: balance query for the zero address\") */\n      tag_153\n      jumpi\n      mload(0x40)\n      shl(0xe5, 0x461bcd)\n      dup2\n      mstore\n        /* \"#utility.yul\":9509:9511   */\n      0x20\n        /* \"BankableNFT_flat.sol\":25360:25434  require(owner != address(0), \"ERC721: balance query for the zero address\") */\n      0x04\n      dup3\n      add\n        /* \"#utility.yul\":9491:9512   */\n      mstore\n        /* \"#utility.yul\":9548:9550   */\n      0x2a\n        /* \"#utility.yul\":9528:9546   */\n      0x24\n      dup3\n      add\n        /* \"#utility.yul\":9521:9551   */\n      mstore\n        /* \"#utility.yul\":9587:9621   */\n      0x4552433732313a2062616c616e636520717565727920666f7220746865207a65\n        /* \"#utility.yul\":9567:9585   */\n      0x44\n      dup3\n      add\n        /* \"#utility.yul\":9560:9622   */\n      mstore\n      shl(0xb0, 0x726f2061646472657373)\n        /* \"#utility.yul\":9638:9656   */\n      0x64\n      dup3\n      add\n        /* \"#utility.yul\":9631:9671   */\n      mstore\n        /* \"#utility.yul\":9688:9707   */\n      0x84\n      add\n        /* \"BankableNFT_flat.sol\":25360:25434  require(owner != address(0), \"ERC721: balance query for the zero address\") */\n      tag_112\n        /* \"#utility.yul\":9481:9713   */\n      jump\n        /* \"BankableNFT_flat.sol\":25360:25434  require(owner != address(0), \"ERC721: balance query for the zero address\") */\n    tag_153:\n      pop\n      sub(shl(0xa0, 0x01), 0x01)\n        /* \"BankableNFT_flat.sol\":25451:25467  _balances[owner] */\n      and\n      0x00\n      swap1\n      dup2\n      mstore\n        /* \"BankableNFT_flat.sol\":25451:25460  _balances */\n      0x03\n        /* \"BankableNFT_flat.sol\":25451:25467  _balances[owner] */\n      0x20\n      mstore\n      0x40\n      swap1\n      keccak256\n      sload\n      swap1\n        /* \"BankableNFT_flat.sol\":25269:25474  function balanceOf(address owner) public view virtual override returns (uint256) {... */\n      jump\t// out\n        /* \"BankableNFT_flat.sol\":6053:6154  function renounceOwnership() public virtual onlyOwner {... */\n    tag_65:\n        /* \"BankableNFT_flat.sol\":5493:5499  _owner */\n      and(sub(shl(0xa0, 0x01), 0x01), sload(0x07))\n        /* \"BankableNFT_flat.sol\":4262:4272  msg.sender */\n      caller\n        /* \"BankableNFT_flat.sol\":5633:5656  owner() == _msgSender() */\n      eq\n        /* \"BankableNFT_flat.sol\":5625:5693  require(owner() == _msgSender(), \"Ownable: caller is not the owner\") */\n      tag_159\n      jumpi\n      mload(0x40)\n      shl(0xe5, 0x461bcd)\n      dup2\n      mstore\n      0x04\n      add\n      tag_112\n      swap1\n      tag_161\n      jump\t// in\n    tag_159:\n        /* \"BankableNFT_flat.sol\":6117:6147  _transferOwnership(address(0)) */\n      tag_163\n        /* \"BankableNFT_flat.sol\":6144:6145  0 */\n      0x00\n        /* \"BankableNFT_flat.sol\":6117:6135  _transferOwnership */\n      tag_164\n        /* \"BankableNFT_flat.sol\":6117:6147  _transferOwnership(address(0)) */\n      jump\t// in\n    tag_163:\n        /* \"BankableNFT_flat.sol\":6053:6154  function renounceOwnership() public virtual onlyOwner {... */\n      jump\t// out\n        /* \"BankableNFT_flat.sol\":25990:26092  function symbol() public view virtual override returns (string memory) {... */\n    tag_70:\n        /* \"BankableNFT_flat.sol\":26046:26059  string memory */\n      0x60\n        /* \"BankableNFT_flat.sol\":26078:26085  _symbol */\n      0x01\n        /* \"BankableNFT_flat.sol\":26071:26085  return _symbol */\n      dup1\n      sload\n      tag_102\n      swap1\n      tag_103\n      jump\t// in\n        /* \"BankableNFT_flat.sol\":27623:27776  function setApprovalForAll(address operator, bool approved) public virtual override {... */\n    tag_75:\n        /* \"BankableNFT_flat.sol\":27717:27769  _setApprovalForAll(_msgSender(), operator, approved) */\n      tag_173\n        /* \"BankableNFT_flat.sol\":4262:4272  msg.sender */\n      caller\n        /* \"BankableNFT_flat.sol\":27750:27758  operator */\n      dup4\n        /* \"BankableNFT_flat.sol\":27760:27768  approved */\n      dup4\n        /* \"BankableNFT_flat.sol\":27717:27735  _setApprovalForAll */\n      tag_175\n        /* \"BankableNFT_flat.sol\":27717:27769  _setApprovalForAll(_msgSender(), operator, approved) */\n      jump\t// in\n    tag_173:\n        /* \"BankableNFT_flat.sol\":27623:27776  function setApprovalForAll(address operator, bool approved) public virtual override {... */\n      pop\n      pop\n      jump\t// out\n        /* \"BankableNFT_flat.sol\":28707:29027  function safeTransferFrom(... */\n    tag_79:\n        /* \"BankableNFT_flat.sol\":28876:28917  _isApprovedOrOwner(_msgSender(), tokenId) */\n      tag_177\n        /* \"BankableNFT_flat.sol\":4262:4272  msg.sender */\n      caller\n        /* \"BankableNFT_flat.sol\":28909:28916  tokenId */\n      dup4\n        /* \"BankableNFT_flat.sol\":28876:28894  _isApprovedOrOwner */\n      tag_132\n        /* \"BankableNFT_flat.sol\":28876:28917  _isApprovedOrOwner(_msgSender(), tokenId) */\n      jump\t// in\n    tag_177:\n        /* \"BankableNFT_flat.sol\":28868:28971  require(_isApprovedOrOwner(_msgSender(), tokenId), \"ERC721: transfer caller is not owner nor approved\") */\n      tag_179\n      jumpi\n      mload(0x40)\n      shl(0xe5, 0x461bcd)\n      dup2\n      mstore\n      0x04\n      add\n      tag_112\n      swap1\n      tag_135\n      jump\t// in\n    tag_179:\n        /* \"BankableNFT_flat.sol\":28981:29020  _safeTransfer(from, to, tokenId, _data) */\n      tag_181\n        /* \"BankableNFT_flat.sol\":28995:28999  from */\n      dup5\n        /* \"BankableNFT_flat.sol\":29001:29003  to */\n      dup5\n        /* \"BankableNFT_flat.sol\":29005:29012  tokenId */\n      dup5\n        /* \"BankableNFT_flat.sol\":29014:29019  _data */\n      dup5\n        /* \"BankableNFT_flat.sol\":28981:28994  _safeTransfer */\n      tag_182\n        /* \"BankableNFT_flat.sol\":28981:29020  _safeTransfer(from, to, tokenId, _data) */\n      jump\t// in\n    tag_181:\n        /* \"BankableNFT_flat.sol\":28707:29027  function safeTransferFrom(... */\n      pop\n      pop\n      pop\n      pop\n      jump\t// out\n        /* \"BankableNFT_flat.sol\":41043:41232  function tokenURI(uint256 tokenId)... */\n    tag_82:\n        /* \"BankableNFT_flat.sol\":41166:41179  string memory */\n      0x60\n        /* \"BankableNFT_flat.sol\":41202:41225  super.tokenURI(tokenId) */\n      tag_99\n        /* \"BankableNFT_flat.sol\":41217:41224  tokenId */\n      dup3\n        /* \"BankableNFT_flat.sol\":41202:41216  super.tokenURI */\n      tag_185\n        /* \"BankableNFT_flat.sol\":41202:41225  super.tokenURI(tokenId) */\n      jump\t// in\n        /* \"BankableNFT_flat.sol\":40619:40850  function safeMint(address to, string memory uri) public onlyOwner {... */\n    tag_87:\n        /* \"BankableNFT_flat.sol\":5493:5499  _owner */\n      and(sub(shl(0xa0, 0x01), 0x01), sload(0x07))\n        /* \"BankableNFT_flat.sol\":4262:4272  msg.sender */\n      caller\n        /* \"BankableNFT_flat.sol\":5633:5656  owner() == _msgSender() */\n      eq\n        /* \"BankableNFT_flat.sol\":5625:5693  require(owner() == _msgSender(), \"Ownable: caller is not the owner\") */\n      tag_189\n      jumpi\n      mload(0x40)\n      shl(0xe5, 0x461bcd)\n      dup2\n      mstore\n      0x04\n      add\n      tag_112\n      swap1\n      tag_161\n      jump\t// in\n    tag_189:\n        /* \"BankableNFT_flat.sol\":40695:40710  uint256 tokenId */\n      0x00\n        /* \"BankableNFT_flat.sol\":40713:40738  _tokenIdCounter.current() */\n      tag_192\n        /* \"BankableNFT_flat.sol\":40713:40728  _tokenIdCounter */\n      0x08\n        /* \"BankableNFT_flat.sol\":977:991  counter._value */\n      sload\n      swap1\n        /* \"BankableNFT_flat.sol\":886:998  function current(Counter storage counter) internal view returns (uint256) {... */\n      jump\n        /* \"BankableNFT_flat.sol\":40713:40738  _tokenIdCounter.current() */\n    tag_192:\n        /* \"BankableNFT_flat.sol\":40695:40738  uint256 tokenId = _tokenIdCounter.current() */\n      swap1\n      pop\n        /* \"BankableNFT_flat.sol\":40748:40775  _tokenIdCounter.increment() */\n      tag_194\n        /* \"BankableNFT_flat.sol\":40748:40763  _tokenIdCounter */\n      0x08\n        /* \"BankableNFT_flat.sol\":1091:1110  counter._value += 1 */\n      dup1\n      sload\n        /* \"BankableNFT_flat.sol\":1109:1110  1 */\n      0x01\n        /* \"BankableNFT_flat.sol\":1091:1110  counter._value += 1 */\n      add\n      swap1\n      sstore\n        /* \"BankableNFT_flat.sol\":1004:1127  function increment(Counter storage counter) internal {... */\n      jump\n        /* \"BankableNFT_flat.sol\":40748:40775  _tokenIdCounter.increment() */\n    tag_194:\n        /* \"BankableNFT_flat.sol\":40785:40807  _safeMint(to, tokenId) */\n      tag_196\n        /* \"BankableNFT_flat.sol\":40795:40797  to */\n      dup4\n        /* \"BankableNFT_flat.sol\":40799:40806  tokenId */\n      dup3\n        /* \"BankableNFT_flat.sol\":40785:40794  _safeMint */\n      tag_197\n        /* \"BankableNFT_flat.sol\":40785:40807  _safeMint(to, tokenId) */\n      jump\t// in\n    tag_196:\n        /* \"BankableNFT_flat.sol\":40817:40843  _setTokenURI(tokenId, uri) */\n      tag_127\n        /* \"BankableNFT_flat.sol\":40830:40837  tokenId */\n      dup2\n        /* \"BankableNFT_flat.sol\":40839:40842  uri */\n      dup4\n        /* \"BankableNFT_flat.sol\":40817:40829  _setTokenURI */\n      tag_199\n        /* \"BankableNFT_flat.sol\":40817:40843  _setTokenURI(tokenId, uri) */\n      jump\t// in\n        /* \"BankableNFT_flat.sol\":6303:6501  function transferOwnership(address newOwner) public virtual onlyOwner {... */\n    tag_95:\n        /* \"BankableNFT_flat.sol\":5493:5499  _owner */\n      and(sub(shl(0xa0, 0x01), 0x01), sload(0x07))\n        /* \"BankableNFT_flat.sol\":4262:4272  msg.sender */\n      caller\n        /* \"BankableNFT_flat.sol\":5633:5656  owner() == _msgSender() */\n      eq\n        /* \"BankableNFT_flat.sol\":5625:5693  require(owner() == _msgSender(), \"Ownable: caller is not the owner\") */\n      tag_204\n      jumpi\n      mload(0x40)\n      shl(0xe5, 0x461bcd)\n      dup2\n      mstore\n      0x04\n      add\n      tag_112\n      swap1\n      tag_161\n      jump\t// in\n    tag_204:\n      sub(shl(0xa0, 0x01), 0x01)\n        /* \"BankableNFT_flat.sol\":6391:6413  newOwner != address(0) */\n      dup2\n      and\n        /* \"BankableNFT_flat.sol\":6383:6456  require(newOwner != address(0), \"Ownable: new owner is the zero address\") */\n      tag_207\n      jumpi\n      mload(0x40)\n      shl(0xe5, 0x461bcd)\n      dup2\n      mstore\n        /* \"#utility.yul\":6742:6744   */\n      0x20\n        /* \"BankableNFT_flat.sol\":6383:6456  require(newOwner != address(0), \"Ownable: new owner is the zero address\") */\n      0x04\n      dup3\n      add\n        /* \"#utility.yul\":6724:6745   */\n      mstore\n        /* \"#utility.yul\":6781:6783   */\n      0x26\n        /* \"#utility.yul\":6761:6779   */\n      0x24\n      dup3\n      add\n        /* \"#utility.yul\":6754:6784   */\n      mstore\n        /* \"#utility.yul\":6820:6854   */\n      0x4f776e61626c653a206e6577206f776e657220697320746865207a65726f2061\n        /* \"#utility.yul\":6800:6818   */\n      0x44\n      dup3\n      add\n        /* \"#utility.yul\":6793:6855   */\n      mstore\n      shl(0xd0, 0x646472657373)\n        /* \"#utility.yul\":6871:6889   */\n      0x64\n      dup3\n      add\n        /* \"#utility.yul\":6864:6900   */\n      mstore\n        /* \"#utility.yul\":6917:6936   */\n      0x84\n      add\n        /* \"BankableNFT_flat.sol\":6383:6456  require(newOwner != address(0), \"Ownable: new owner is the zero address\") */\n      tag_112\n        /* \"#utility.yul\":6714:6942   */\n      jump\n        /* \"BankableNFT_flat.sol\":6383:6456  require(newOwner != address(0), \"Ownable: new owner is the zero address\") */\n    tag_207:\n        /* \"BankableNFT_flat.sol\":6466:6494  _transferOwnership(newOwner) */\n      tag_146\n        /* \"BankableNFT_flat.sol\":6485:6493  newOwner */\n      dup2\n        /* \"BankableNFT_flat.sol\":6466:6484  _transferOwnership */\n      tag_164\n        /* \"BankableNFT_flat.sol\":6466:6494  _transferOwnership(newOwner) */\n      jump\t// in\n        /* \"BankableNFT_flat.sol\":30499:30624  function _exists(uint256 tokenId) internal view virtual returns (bool) {... */\n    tag_110:\n        /* \"BankableNFT_flat.sol\":30564:30568  bool */\n      0x00\n        /* \"BankableNFT_flat.sol\":30587:30603  _owners[tokenId] */\n      swap1\n      dup2\n      mstore\n        /* \"BankableNFT_flat.sol\":30587:30594  _owners */\n      0x02\n        /* \"BankableNFT_flat.sol\":30587:30603  _owners[tokenId] */\n      0x20\n      mstore\n      0x40\n      swap1\n      keccak256\n      sload\n      sub(shl(0xa0, 0x01), 0x01)\n      and\n        /* \"BankableNFT_flat.sol\":30587:30617  _owners[tokenId] != address(0) */\n      iszero\n      iszero\n      swap1\n        /* \"BankableNFT_flat.sol\":30499:30624  function _exists(uint256 tokenId) internal view virtual returns (bool) {... */\n      jump\t// out\n        /* \"BankableNFT_flat.sol\":34508:34679  function _approve(address to, uint256 tokenId) internal virtual {... */\n    tag_128:\n        /* \"BankableNFT_flat.sol\":34582:34606  _tokenApprovals[tokenId] */\n      0x00\n      dup2\n      dup2\n      mstore\n        /* \"BankableNFT_flat.sol\":34582:34597  _tokenApprovals */\n      0x04\n        /* \"BankableNFT_flat.sol\":34582:34606  _tokenApprovals[tokenId] */\n      0x20\n      mstore\n      0x40\n      swap1\n      keccak256\n        /* \"BankableNFT_flat.sol\":34582:34611  _tokenApprovals[tokenId] = to */\n      dup1\n      sload\n      not(sub(shl(0xa0, 0x01), 0x01))\n      and\n      sub(shl(0xa0, 0x01), 0x01)\n      dup5\n      and\n      swap1\n      dup2\n      or\n      swap1\n      swap2\n      sstore\n        /* \"BankableNFT_flat.sol\":34582:34606  _tokenApprovals[tokenId] */\n      dup2\n      swap1\n        /* \"BankableNFT_flat.sol\":34635:34658  ERC721.ownerOf(tokenId) */\n      tag_215\n        /* \"BankableNFT_flat.sol\":34582:34606  _tokenApprovals[tokenId] */\n      dup3\n        /* \"BankableNFT_flat.sol\":34635:34649  ERC721.ownerOf */\n      tag_56\n        /* \"BankableNFT_flat.sol\":34635:34658  ERC721.ownerOf(tokenId) */\n      jump\t// in\n    tag_215:\n      sub(shl(0xa0, 0x01), 0x01)\n        /* \"BankableNFT_flat.sol\":34626:34672  Approval(ERC721.ownerOf(tokenId), to, tokenId) */\n      and\n      0x8c5be1e5ebec7d5bd14f71427d1e84f3dd0314c0f7b2291e5b200ac8c7c3b925\n      mload(0x40)\n      mload(0x40)\n      dup1\n      swap2\n      sub\n      swap1\n      log4\n        /* \"BankableNFT_flat.sol\":34508:34679  function _approve(address to, uint256 tokenId) internal virtual {... */\n      pop\n      pop\n      jump\t// out\n        /* \"BankableNFT_flat.sol\":30782:31126  function _isApprovedOrOwner(address spender, uint256 tokenId) internal view virtual returns (bool) {... */\n    tag_132:\n        /* \"BankableNFT_flat.sol\":30875:30879  bool */\n      0x00\n        /* \"BankableNFT_flat.sol\":30899:30915  _exists(tokenId) */\n      tag_217\n        /* \"BankableNFT_flat.sol\":30907:30914  tokenId */\n      dup3\n        /* \"BankableNFT_flat.sol\":30899:30906  _exists */\n      tag_110\n        /* \"BankableNFT_flat.sol\":30899:30915  _exists(tokenId) */\n      jump\t// in\n    tag_217:\n        /* \"BankableNFT_flat.sol\":30891:30964  require(_exists(tokenId), \"ERC721: operator query for nonexistent token\") */\n      tag_218\n      jumpi\n      mload(0x40)\n      shl(0xe5, 0x461bcd)\n      dup2\n      mstore\n        /* \"#utility.yul\":8671:8673   */\n      0x20\n        /* \"BankableNFT_flat.sol\":30891:30964  require(_exists(tokenId), \"ERC721: operator query for nonexistent token\") */\n      0x04\n      dup3\n      add\n        /* \"#utility.yul\":8653:8674   */\n      mstore\n        /* \"#utility.yul\":8710:8712   */\n      0x2c\n        /* \"#utility.yul\":8690:8708   */\n      0x24\n      dup3\n      add\n        /* \"#utility.yul\":8683:8713   */\n      mstore\n        /* \"#utility.yul\":8749:8783   */\n      0x4552433732313a206f70657261746f7220717565727920666f72206e6f6e6578\n        /* \"#utility.yul\":8729:8747   */\n      0x44\n      dup3\n      add\n        /* \"#utility.yul\":8722:8784   */\n      mstore\n      shl(0xa1, 0x34b9ba32b73a103a37b5b2b7)\n        /* \"#utility.yul\":8800:8818   */\n      0x64\n      dup3\n      add\n        /* \"#utility.yul\":8793:8835   */\n      mstore\n        /* \"#utility.yul\":8852:8871   */\n      0x84\n      add\n        /* \"BankableNFT_flat.sol\":30891:30964  require(_exists(tokenId), \"ERC721: operator query for nonexistent token\") */\n      tag_112\n        /* \"#utility.yul\":8643:8877   */\n      jump\n        /* \"BankableNFT_flat.sol\":30891:30964  require(_exists(tokenId), \"ERC721: operator query for nonexistent token\") */\n    tag_218:\n        /* \"BankableNFT_flat.sol\":30974:30987  address owner */\n      0x00\n        /* \"BankableNFT_flat.sol\":30990:31013  ERC721.ownerOf(tokenId) */\n      tag_221\n        /* \"BankableNFT_flat.sol\":31005:31012  tokenId */\n      dup4\n        /* \"BankableNFT_flat.sol\":30990:31004  ERC721.ownerOf */\n      tag_56\n        /* \"BankableNFT_flat.sol\":30990:31013  ERC721.ownerOf(tokenId) */\n      jump\t// in\n    tag_221:\n        /* \"BankableNFT_flat.sol\":30974:31013  address owner = ERC721.ownerOf(tokenId) */\n      swap1\n      pop\n        /* \"BankableNFT_flat.sol\":31042:31047  owner */\n      dup1\n      sub(shl(0xa0, 0x01), 0x01)\n        /* \"BankableNFT_flat.sol\":31031:31047  spender == owner */\n      and\n        /* \"BankableNFT_flat.sol\":31031:31038  spender */\n      dup5\n      sub(shl(0xa0, 0x01), 0x01)\n        /* \"BankableNFT_flat.sol\":31031:31047  spender == owner */\n      and\n      eq\n        /* \"BankableNFT_flat.sol\":31031:31082  spender == owner || getApproved(tokenId) == spender */\n      dup1\n      tag_222\n      jumpi\n      pop\n        /* \"BankableNFT_flat.sol\":31075:31082  spender */\n      dup4\n      sub(shl(0xa0, 0x01), 0x01)\n        /* \"BankableNFT_flat.sol\":31051:31082  getApproved(tokenId) == spender */\n      and\n        /* \"BankableNFT_flat.sol\":31051:31071  getApproved(tokenId) */\n      tag_223\n        /* \"BankableNFT_flat.sol\":31063:31070  tokenId */\n      dup5\n        /* \"BankableNFT_flat.sol\":31051:31062  getApproved */\n      tag_37\n        /* \"BankableNFT_flat.sol\":31051:31071  getApproved(tokenId) */\n      jump\t// in\n    tag_223:\n      sub(shl(0xa0, 0x01), 0x01)\n        /* \"BankableNFT_flat.sol\":31051:31082  getApproved(tokenId) == spender */\n      and\n      eq\n        /* \"BankableNFT_flat.sol\":31031:31082  spender == owner || getApproved(tokenId) == spender */\n    tag_222:\n        /* \"BankableNFT_flat.sol\":31031:31118  spender == owner || getApproved(tokenId) == spender || isApprovedForAll(owner, spender) */\n      dup1\n      tag_225\n      jumpi\n      pop\n      sub(shl(0xa0, 0x01), 0x01)\n        /* \"BankableNFT_flat.sol\":27962:27987  _operatorApprovals[owner] */\n      dup1\n      dup3\n      and\n        /* \"BankableNFT_flat.sol\":27939:27943  bool */\n      0x00\n        /* \"BankableNFT_flat.sol\":27962:27987  _operatorApprovals[owner] */\n      swap1\n      dup2\n      mstore\n        /* \"BankableNFT_flat.sol\":27962:27980  _operatorApprovals */\n      0x05\n        /* \"BankableNFT_flat.sol\":27962:27987  _operatorApprovals[owner] */\n      0x20\n      swap1\n      dup2\n      mstore\n      0x40\n      dup1\n      dup4\n      keccak256\n        /* \"BankableNFT_flat.sol\":27962:27997  _operatorApprovals[owner][operator] */\n      swap4\n      dup9\n      and\n      dup4\n      mstore\n      swap3\n      swap1\n      mstore\n      keccak256\n      sload\n      0xff\n      and\n        /* \"BankableNFT_flat.sol\":31086:31118  isApprovedForAll(owner, spender) */\n    tag_225:\n        /* \"BankableNFT_flat.sol\":31023:31119  return (spender == owner || getApproved(tokenId) == spender || isApprovedForAll(owner, spender)) */\n      swap5\n        /* \"BankableNFT_flat.sol\":30782:31126  function _isApprovedOrOwner(address spender, uint256 tokenId) internal view virtual returns (bool) {... */\n      swap4\n      pop\n      pop\n      pop\n      pop\n      jump\t// out\n        /* \"BankableNFT_flat.sol\":33792:34397  function _transfer(... */\n    tag_137:\n        /* \"BankableNFT_flat.sol\":33946:33950  from */\n      dup3\n      sub(shl(0xa0, 0x01), 0x01)\n        /* \"BankableNFT_flat.sol\":33919:33950  ERC721.ownerOf(tokenId) == from */\n      and\n        /* \"BankableNFT_flat.sol\":33919:33942  ERC721.ownerOf(tokenId) */\n      tag_227\n        /* \"BankableNFT_flat.sol\":33934:33941  tokenId */\n      dup3\n        /* \"BankableNFT_flat.sol\":33919:33933  ERC721.ownerOf */\n      tag_56\n        /* \"BankableNFT_flat.sol\":33919:33942  ERC721.ownerOf(tokenId) */\n      jump\t// in\n    tag_227:\n      sub(shl(0xa0, 0x01), 0x01)\n        /* \"BankableNFT_flat.sol\":33919:33950  ERC721.ownerOf(tokenId) == from */\n      and\n      eq\n        /* \"BankableNFT_flat.sol\":33911:33992  require(ERC721.ownerOf(tokenId) == from, \"ERC721: transfer from incorrect owner\") */\n      tag_228\n      jumpi\n      mload(0x40)\n      shl(0xe5, 0x461bcd)\n      dup2\n      mstore\n        /* \"#utility.yul\":7149:7151   */\n      0x20\n        /* \"BankableNFT_flat.sol\":33911:33992  require(ERC721.ownerOf(tokenId) == from, \"ERC721: transfer from incorrect owner\") */\n      0x04\n      dup3\n      add\n        /* \"#utility.yul\":7131:7152   */\n      mstore\n        /* \"#utility.yul\":7188:7190   */\n      0x25\n        /* \"#utility.yul\":7168:7186   */\n      0x24\n      dup3\n      add\n        /* \"#utility.yul\":7161:7191   */\n      mstore\n        /* \"#utility.yul\":7227:7261   */\n      0x4552433732313a207472616e736665722066726f6d20696e636f727265637420\n        /* \"#utility.yul\":7207:7225   */\n      0x44\n      dup3\n      add\n        /* \"#utility.yul\":7200:7262   */\n      mstore\n      shl(0xd9, 0x37bbb732b9)\n        /* \"#utility.yul\":7278:7296   */\n      0x64\n      dup3\n      add\n        /* \"#utility.yul\":7271:7306   */\n      mstore\n        /* \"#utility.yul\":7323:7342   */\n      0x84\n      add\n        /* \"BankableNFT_flat.sol\":33911:33992  require(ERC721.ownerOf(tokenId) == from, \"ERC721: transfer from incorrect owner\") */\n      tag_112\n        /* \"#utility.yul\":7121:7348   */\n      jump\n        /* \"BankableNFT_flat.sol\":33911:33992  require(ERC721.ownerOf(tokenId) == from, \"ERC721: transfer from incorrect owner\") */\n    tag_228:\n      sub(shl(0xa0, 0x01), 0x01)\n        /* \"BankableNFT_flat.sol\":34010:34026  to != address(0) */\n      dup3\n      and\n        /* \"BankableNFT_flat.sol\":34002:34067  require(to != address(0), \"ERC721: transfer to the zero address\") */\n      tag_231\n      jumpi\n      mload(0x40)\n      shl(0xe5, 0x461bcd)\n      dup2\n      mstore\n        /* \"#utility.yul\":7912:7914   */\n      0x20\n        /* \"BankableNFT_flat.sol\":34002:34067  require(to != address(0), \"ERC721: transfer to the zero address\") */\n      0x04\n      dup3\n      add\n        /* \"#utility.yul\":7894:7915   */\n      mstore\n        /* \"#utility.yul\":7951:7953   */\n      0x24\n        /* \"#utility.yul\":7931:7949   */\n      dup1\n      dup3\n      add\n        /* \"#utility.yul\":7924:7954   */\n      mstore\n        /* \"#utility.yul\":7990:8024   */\n      0x4552433732313a207472616e7366657220746f20746865207a65726f20616464\n        /* \"#utility.yul\":7970:7988   */\n      0x44\n      dup3\n      add\n        /* \"#utility.yul\":7963:8025   */\n      mstore\n      shl(0xe0, 0x72657373)\n        /* \"#utility.yul\":8041:8059   */\n      0x64\n      dup3\n      add\n        /* \"#utility.yul\":8034:8068   */\n      mstore\n        /* \"#utility.yul\":8085:8104   */\n      0x84\n      add\n        /* \"BankableNFT_flat.sol\":34002:34067  require(to != address(0), \"ERC721: transfer to the zero address\") */\n      tag_112\n        /* \"#utility.yul\":7884:8110   */\n      jump\n        /* \"BankableNFT_flat.sol\":34002:34067  require(to != address(0), \"ERC721: transfer to the zero address\") */\n    tag_231:\n        /* \"BankableNFT_flat.sol\":34179:34208  _approve(address(0), tokenId) */\n      tag_236\n        /* \"BankableNFT_flat.sol\":34196:34197  0 */\n      0x00\n        /* \"BankableNFT_flat.sol\":34200:34207  tokenId */\n      dup3\n        /* \"BankableNFT_flat.sol\":34179:34187  _approve */\n      tag_128\n        /* \"BankableNFT_flat.sol\":34179:34208  _approve(address(0), tokenId) */\n      jump\t// in\n    tag_236:\n      sub(shl(0xa0, 0x01), 0x01)\n        /* \"BankableNFT_flat.sol\":34219:34234  _balances[from] */\n      dup4\n      and\n      0x00\n      swap1\n      dup2\n      mstore\n        /* \"BankableNFT_flat.sol\":34219:34228  _balances */\n      0x03\n        /* \"BankableNFT_flat.sol\":34219:34234  _balances[from] */\n      0x20\n      mstore\n      0x40\n      dup2\n      keccak256\n        /* \"BankableNFT_flat.sol\":34219:34239  _balances[from] -= 1 */\n      dup1\n      sload\n        /* \"BankableNFT_flat.sol\":34238:34239  1 */\n      0x01\n      swap3\n        /* \"BankableNFT_flat.sol\":34219:34234  _balances[from] */\n      swap1\n        /* \"BankableNFT_flat.sol\":34219:34239  _balances[from] -= 1 */\n      tag_237\n      swap1\n        /* \"BankableNFT_flat.sol\":34238:34239  1 */\n      dup5\n      swap1\n        /* \"BankableNFT_flat.sol\":34219:34239  _balances[from] -= 1 */\n      tag_238\n      jump\t// in\n    tag_237:\n      swap1\n      swap2\n      sstore\n      pop\n      pop\n      sub(shl(0xa0, 0x01), 0x01)\n        /* \"BankableNFT_flat.sol\":34249:34262  _balances[to] */\n      dup3\n      and\n      0x00\n      swap1\n      dup2\n      mstore\n        /* \"BankableNFT_flat.sol\":34249:34258  _balances */\n      0x03\n        /* \"BankableNFT_flat.sol\":34249:34262  _balances[to] */\n      0x20\n      mstore\n      0x40\n      dup2\n      keccak256\n        /* \"BankableNFT_flat.sol\":34249:34267  _balances[to] += 1 */\n      dup1\n      sload\n        /* \"BankableNFT_flat.sol\":34266:34267  1 */\n      0x01\n      swap3\n        /* \"BankableNFT_flat.sol\":34249:34262  _balances[to] */\n      swap1\n        /* \"BankableNFT_flat.sol\":34249:34267  _balances[to] += 1 */\n      tag_239\n      swap1\n        /* \"BankableNFT_flat.sol\":34266:34267  1 */\n      dup5\n      swap1\n        /* \"BankableNFT_flat.sol\":34249:34267  _balances[to] += 1 */\n      tag_240\n      jump\t// in\n    tag_239:\n      swap1\n      swap2\n      sstore\n      pop\n      pop\n        /* \"BankableNFT_flat.sol\":34277:34293  _owners[tokenId] */\n      0x00\n      dup2\n      dup2\n      mstore\n        /* \"BankableNFT_flat.sol\":34277:34284  _owners */\n      0x02\n        /* \"BankableNFT_flat.sol\":34277:34293  _owners[tokenId] */\n      0x20\n      mstore\n      0x40\n      dup1\n      dup3\n      keccak256\n        /* \"BankableNFT_flat.sol\":34277:34298  _owners[tokenId] = to */\n      dup1\n      sload\n      not(sub(shl(0xa0, 0x01), 0x01))\n      and\n      sub(shl(0xa0, 0x01), 0x01)\n      dup7\n      dup2\n      and\n      swap2\n      dup3\n      or\n      swap1\n      swap3\n      sstore\n        /* \"BankableNFT_flat.sol\":34314:34341  Transfer(from, to, tokenId) */\n      swap2\n      mload\n        /* \"BankableNFT_flat.sol\":34277:34293  _owners[tokenId] */\n      dup5\n      swap4\n        /* \"BankableNFT_flat.sol\":34314:34341  Transfer(from, to, tokenId) */\n      swap2\n      dup8\n      and\n      swap2\n      0xddf252ad1be2c89b69c2b068fc378daa952ba7f163c4a11628f55a4df523b3ef\n      swap2\n      log4\n        /* \"BankableNFT_flat.sol\":26877:27278  function approve(address to, uint256 tokenId) public virtual override {... */\n      pop\n      pop\n      pop\n      jump\t// out\n        /* \"BankableNFT_flat.sol\":40924:41037  function _burn(uint256 tokenId) internal override(ERC721, ERC721URIStorage) {... */\n    tag_147:\n        /* \"BankableNFT_flat.sol\":41010:41030  super._burn(tokenId) */\n      tag_146\n        /* \"BankableNFT_flat.sol\":41022:41029  tokenId */\n      dup2\n        /* \"BankableNFT_flat.sol\":41010:41021  super._burn */\n      tag_245\n        /* \"BankableNFT_flat.sol\":41010:41030  super._burn(tokenId) */\n      jump\t// in\n        /* \"BankableNFT_flat.sol\":6655:6842  function _transferOwnership(address newOwner) internal virtual {... */\n    tag_164:\n        /* \"BankableNFT_flat.sol\":6747:6753  _owner */\n      0x07\n      dup1\n      sload\n      sub(shl(0xa0, 0x01), 0x01)\n        /* \"BankableNFT_flat.sol\":6763:6780  _owner = newOwner */\n      dup4\n      dup2\n      and\n      not(sub(shl(0xa0, 0x01), 0x01))\n      dup4\n      and\n      dup2\n      or\n      swap1\n      swap4\n      sstore\n        /* \"BankableNFT_flat.sol\":6795:6835  OwnershipTransferred(oldOwner, newOwner) */\n      mload(0x40)\n        /* \"BankableNFT_flat.sol\":6747:6753  _owner */\n      swap2\n      and\n      swap2\n        /* \"BankableNFT_flat.sol\":6763:6780  _owner = newOwner */\n      swap1\n        /* \"BankableNFT_flat.sol\":6747:6753  _owner */\n      dup3\n      swap1\n        /* \"BankableNFT_flat.sol\":6795:6835  OwnershipTransferred(oldOwner, newOwner) */\n      0x8be0079c531659141344cd1fd0a4f28419497f9722a3daafe3b4186f6b6457e0\n      swap1\n        /* \"BankableNFT_flat.sol\":6728:6744  address oldOwner */\n      0x00\n      swap1\n        /* \"BankableNFT_flat.sol\":6795:6835  OwnershipTransferred(oldOwner, newOwner) */\n      log3\n        /* \"BankableNFT_flat.sol\":6655:6842  function _transferOwnership(address newOwner) internal virtual {... */\n      pop\n      pop\n      jump\t// out\n        /* \"BankableNFT_flat.sol\":34814:35121  function _setApprovalForAll(... */\n    tag_175:\n        /* \"BankableNFT_flat.sol\":34964:34972  operator */\n      dup2\n      sub(shl(0xa0, 0x01), 0x01)\n        /* \"BankableNFT_flat.sol\":34955:34972  owner != operator */\n      and\n        /* \"BankableNFT_flat.sol\":34955:34960  owner */\n      dup4\n      sub(shl(0xa0, 0x01), 0x01)\n        /* \"BankableNFT_flat.sol\":34955:34972  owner != operator */\n      and\n      eq\n      iszero\n        /* \"BankableNFT_flat.sol\":34947:35002  require(owner != operator, \"ERC721: approve to caller\") */\n      tag_248\n      jumpi\n      mload(0x40)\n      shl(0xe5, 0x461bcd)\n      dup2\n      mstore\n        /* \"#utility.yul\":8317:8319   */\n      0x20\n        /* \"BankableNFT_flat.sol\":34947:35002  require(owner != operator, \"ERC721: approve to caller\") */\n      0x04\n      dup3\n      add\n        /* \"#utility.yul\":8299:8320   */\n      mstore\n        /* \"#utility.yul\":8356:8358   */\n      0x19\n        /* \"#utility.yul\":8336:8354   */\n      0x24\n      dup3\n      add\n        /* \"#utility.yul\":8329:8359   */\n      mstore\n        /* \"#utility.yul\":8395:8422   */\n      0x4552433732313a20617070726f766520746f2063616c6c657200000000000000\n        /* \"#utility.yul\":8375:8393   */\n      0x44\n      dup3\n      add\n        /* \"#utility.yul\":8368:8423   */\n      mstore\n        /* \"#utility.yul\":8440:8458   */\n      0x64\n      add\n        /* \"BankableNFT_flat.sol\":34947:35002  require(owner != operator, \"ERC721: approve to caller\") */\n      tag_112\n        /* \"#utility.yul\":8289:8464   */\n      jump\n        /* \"BankableNFT_flat.sol\":34947:35002  require(owner != operator, \"ERC721: approve to caller\") */\n    tag_248:\n      sub(shl(0xa0, 0x01), 0x01)\n        /* \"BankableNFT_flat.sol\":35012:35037  _operatorApprovals[owner] */\n      dup4\n      dup2\n      and\n      0x00\n      dup2\n      dup2\n      mstore\n        /* \"BankableNFT_flat.sol\":35012:35030  _operatorApprovals */\n      0x05\n        /* \"BankableNFT_flat.sol\":35012:35037  _operatorApprovals[owner] */\n      0x20\n      swap1\n      dup2\n      mstore\n      0x40\n      dup1\n      dup4\n      keccak256\n        /* \"BankableNFT_flat.sol\":35012:35047  _operatorApprovals[owner][operator] */\n      swap5\n      dup8\n      and\n      dup1\n      dup5\n      mstore\n      swap5\n      dup3\n      mstore\n      swap2\n      dup3\n      swap1\n      keccak256\n        /* \"BankableNFT_flat.sol\":35012:35058  _operatorApprovals[owner][operator] = approved */\n      dup1\n      sload\n      not(0xff)\n      and\n      dup7\n      iszero\n      iszero\n      swap1\n      dup2\n      or\n      swap1\n      swap2\n      sstore\n        /* \"BankableNFT_flat.sol\":35073:35114  ApprovalForAll(owner, operator, approved) */\n      swap2\n      mload\n        /* \"#utility.yul\":5845:5886   */\n      swap2\n      dup3\n      mstore\n        /* \"BankableNFT_flat.sol\":35073:35114  ApprovalForAll(owner, operator, approved) */\n      0x17307eab39ab6107e8899845ad3d59bd9653f200f220920489ca2b5937696c31\n      swap2\n        /* \"#utility.yul\":5818:5836   */\n      add\n        /* \"BankableNFT_flat.sol\":35073:35114  ApprovalForAll(owner, operator, approved) */\n      mload(0x40)\n      dup1\n      swap2\n      sub\n      swap1\n      log3\n        /* \"BankableNFT_flat.sol\":34814:35121  function _setApprovalForAll(... */\n      pop\n      pop\n      pop\n      jump\t// out\n        /* \"BankableNFT_flat.sol\":29889:30196  function _safeTransfer(... */\n    tag_182:\n        /* \"BankableNFT_flat.sol\":30040:30068  _transfer(from, to, tokenId) */\n      tag_253\n        /* \"BankableNFT_flat.sol\":30050:30054  from */\n      dup5\n        /* \"BankableNFT_flat.sol\":30056:30058  to */\n      dup5\n        /* \"BankableNFT_flat.sol\":30060:30067  tokenId */\n      dup5\n        /* \"BankableNFT_flat.sol\":30040:30049  _transfer */\n      tag_137\n        /* \"BankableNFT_flat.sol\":30040:30068  _transfer(from, to, tokenId) */\n      jump\t// in\n    tag_253:\n        /* \"BankableNFT_flat.sol\":30086:30134  _checkOnERC721Received(from, to, tokenId, _data) */\n      tag_254\n        /* \"BankableNFT_flat.sol\":30109:30113  from */\n      dup5\n        /* \"BankableNFT_flat.sol\":30115:30117  to */\n      dup5\n        /* \"BankableNFT_flat.sol\":30119:30126  tokenId */\n      dup5\n        /* \"BankableNFT_flat.sol\":30128:30133  _data */\n      dup5\n        /* \"BankableNFT_flat.sol\":30086:30108  _checkOnERC721Received */\n      tag_255\n        /* \"BankableNFT_flat.sol\":30086:30134  _checkOnERC721Received(from, to, tokenId, _data) */\n      jump\t// in\n    tag_254:\n        /* \"BankableNFT_flat.sol\":30078:30189  require(_checkOnERC721Received(from, to, tokenId, _data), \"ERC721: transfer to non ERC721Receiver implementer\") */\n      tag_181\n      jumpi\n      mload(0x40)\n      shl(0xe5, 0x461bcd)\n      dup2\n      mstore\n      0x04\n      add\n      tag_112\n      swap1\n      tag_258\n      jump\t// in\n        /* \"BankableNFT_flat.sol\":38890:39553  function tokenURI(uint256 tokenId) public view virtual override returns (string memory) {... */\n    tag_185:\n        /* \"BankableNFT_flat.sol\":38963:38976  string memory */\n      0x60\n        /* \"BankableNFT_flat.sol\":38996:39012  _exists(tokenId) */\n      tag_260\n        /* \"BankableNFT_flat.sol\":39004:39011  tokenId */\n      dup3\n        /* \"BankableNFT_flat.sol\":38996:39003  _exists */\n      tag_110\n        /* \"BankableNFT_flat.sol\":38996:39012  _exists(tokenId) */\n      jump\t// in\n    tag_260:\n        /* \"BankableNFT_flat.sol\":38988:39066  require(_exists(tokenId), \"ERC721URIStorage: URI query for nonexistent token\") */\n      tag_261\n      jumpi\n      mload(0x40)\n      shl(0xe5, 0x461bcd)\n      dup2\n      mstore\n        /* \"#utility.yul\":11106:11108   */\n      0x20\n        /* \"BankableNFT_flat.sol\":38988:39066  require(_exists(tokenId), \"ERC721URIStorage: URI query for nonexistent token\") */\n      0x04\n      dup3\n      add\n        /* \"#utility.yul\":11088:11109   */\n      mstore\n        /* \"#utility.yul\":11145:11147   */\n      0x31\n        /* \"#utility.yul\":11125:11143   */\n      0x24\n      dup3\n      add\n        /* \"#utility.yul\":11118:11148   */\n      mstore\n        /* \"#utility.yul\":11184:11218   */\n      0x45524337323155524953746f726167653a2055524920717565727920666f7220\n        /* \"#utility.yul\":11164:11182   */\n      0x44\n      dup3\n      add\n        /* \"#utility.yul\":11157:11219   */\n      mstore\n      shl(0x79, 0x3737b732bc34b9ba32b73a103a37b5b2b7)\n        /* \"#utility.yul\":11235:11253   */\n      0x64\n      dup3\n      add\n        /* \"#utility.yul\":11228:11275   */\n      mstore\n        /* \"#utility.yul\":11292:11311   */\n      0x84\n      add\n        /* \"BankableNFT_flat.sol\":38988:39066  require(_exists(tokenId), \"ERC721URIStorage: URI query for nonexistent token\") */\n      tag_112\n        /* \"#utility.yul\":11078:11317   */\n      jump\n        /* \"BankableNFT_flat.sol\":38988:39066  require(_exists(tokenId), \"ERC721URIStorage: URI query for nonexistent token\") */\n    tag_261:\n        /* \"BankableNFT_flat.sol\":39077:39100  string memory _tokenURI */\n      0x00\n        /* \"BankableNFT_flat.sol\":39103:39122  _tokenURIs[tokenId] */\n      dup3\n      dup2\n      mstore\n        /* \"BankableNFT_flat.sol\":39103:39113  _tokenURIs */\n      0x06\n        /* \"BankableNFT_flat.sol\":39103:39122  _tokenURIs[tokenId] */\n      0x20\n      mstore\n      0x40\n      dup2\n      keccak256\n        /* \"BankableNFT_flat.sol\":39077:39122  string memory _tokenURI = _tokenURIs[tokenId] */\n      dup1\n      sload\n      tag_264\n      swap1\n      tag_103\n      jump\t// in\n    tag_264:\n      dup1\n      0x1f\n      add\n      0x20\n      dup1\n      swap2\n      div\n      mul\n      0x20\n      add\n      mload(0x40)\n      swap1\n      dup2\n      add\n      0x40\n      mstore\n      dup1\n      swap3\n      swap2\n      swap1\n      dup2\n      dup2\n      mstore\n      0x20\n      add\n      dup3\n      dup1\n      sload\n      tag_265\n      swap1\n      tag_103\n      jump\t// in\n    tag_265:\n      dup1\n      iszero\n      tag_266\n      jumpi\n      dup1\n      0x1f\n      lt\n      tag_267\n      jumpi\n      0x0100\n      dup1\n      dup4\n      sload\n      div\n      mul\n      dup4\n      mstore\n      swap2\n      0x20\n      add\n      swap2\n      jump(tag_266)\n    tag_267:\n      dup3\n      add\n      swap2\n      swap1\n      0x00\n      mstore\n      keccak256(0x00, 0x20)\n      swap1\n    tag_268:\n      dup2\n      sload\n      dup2\n      mstore\n      swap1\n      0x01\n      add\n      swap1\n      0x20\n      add\n      dup1\n      dup4\n      gt\n      tag_268\n      jumpi\n      dup3\n      swap1\n      sub\n      0x1f\n      and\n      dup3\n      add\n      swap2\n    tag_266:\n      pop\n      pop\n      pop\n      pop\n      pop\n      swap1\n      pop\n        /* \"BankableNFT_flat.sol\":39132:39150  string memory base */\n      0x00\n        /* \"BankableNFT_flat.sol\":39153:39163  _baseURI() */\n      tag_269\n        /* \"BankableNFT_flat.sol\":26804:26813  return \"\" */\n      0x40\n      dup1\n      mload\n      0x20\n      dup2\n      add\n      swap1\n      swap2\n      mstore\n      0x00\n      dup2\n      mstore\n      swap1\n        /* \"BankableNFT_flat.sol\":26728:26820  function _baseURI() internal view virtual returns (string memory) {... */\n      jump\n        /* \"BankableNFT_flat.sol\":39153:39163  _baseURI() */\n    tag_269:\n        /* \"BankableNFT_flat.sol\":39132:39163  string memory base = _baseURI() */\n      swap1\n      pop\n        /* \"BankableNFT_flat.sol\":39242:39246  base */\n      dup1\n        /* \"BankableNFT_flat.sol\":39236:39254  bytes(base).length */\n      mload\n        /* \"BankableNFT_flat.sol\":39258:39259  0 */\n      0x00\n        /* \"BankableNFT_flat.sol\":39236:39259  bytes(base).length == 0 */\n      eq\n        /* \"BankableNFT_flat.sol\":39232:39302  if (bytes(base).length == 0) {... */\n      iszero\n      tag_271\n      jumpi\n      pop\n        /* \"BankableNFT_flat.sol\":39282:39291  _tokenURI */\n      swap3\n        /* \"BankableNFT_flat.sol\":38890:39553  function tokenURI(uint256 tokenId) public view virtual override returns (string memory) {... */\n      swap2\n      pop\n      pop\n      jump\t// out\n        /* \"BankableNFT_flat.sol\":39232:39302  if (bytes(base).length == 0) {... */\n    tag_271:\n        /* \"BankableNFT_flat.sol\":39404:39427  bytes(_tokenURI).length */\n      dup2\n      mload\n        /* \"BankableNFT_flat.sol\":39404:39431  bytes(_tokenURI).length > 0 */\n      iszero\n        /* \"BankableNFT_flat.sol\":39400:39506  if (bytes(_tokenURI).length > 0) {... */\n      tag_272\n      jumpi\n        /* \"BankableNFT_flat.sol\":39478:39482  base */\n      dup1\n        /* \"BankableNFT_flat.sol\":39484:39493  _tokenURI */\n      dup3\n        /* \"BankableNFT_flat.sol\":39461:39494  abi.encodePacked(base, _tokenURI) */\n      add(0x20, mload(0x40))\n      tag_273\n      swap3\n      swap2\n      swap1\n      tag_274\n      jump\t// in\n    tag_273:\n      mload(0x40)\n      0x20\n      dup2\n      dup4\n      sub\n      sub\n      dup2\n      mstore\n      swap1\n      0x40\n      mstore\n        /* \"BankableNFT_flat.sol\":39447:39495  return string(abi.encodePacked(base, _tokenURI)) */\n      swap3\n      pop\n      pop\n      pop\n        /* \"BankableNFT_flat.sol\":38890:39553  function tokenURI(uint256 tokenId) public view virtual override returns (string memory) {... */\n      swap2\n      swap1\n      pop\n      jump\t// out\n        /* \"BankableNFT_flat.sol\":39400:39506  if (bytes(_tokenURI).length > 0) {... */\n    tag_272:\n        /* \"BankableNFT_flat.sol\":39523:39546  super.tokenURI(tokenId) */\n      tag_225\n        /* \"BankableNFT_flat.sol\":39538:39545  tokenId */\n      dup5\n        /* \"BankableNFT_flat.sol\":39523:39537  super.tokenURI */\n      tag_276\n        /* \"BankableNFT_flat.sol\":39523:39546  super.tokenURI(tokenId) */\n      jump\t// in\n        /* \"BankableNFT_flat.sol\":31456:31564  function _safeMint(address to, uint256 tokenId) internal virtual {... */\n    tag_197:\n        /* \"BankableNFT_flat.sol\":31531:31557  _safeMint(to, tokenId, \"\") */\n      tag_173\n        /* \"BankableNFT_flat.sol\":31541:31543  to */\n      dup3\n        /* \"BankableNFT_flat.sol\":31545:31552  tokenId */\n      dup3\n        /* \"BankableNFT_flat.sol\":31531:31557  _safeMint(to, tokenId, \"\") */\n      mload(0x40)\n      dup1\n      0x20\n      add\n      0x40\n      mstore\n      dup1\n      0x00\n      dup2\n      mstore\n      pop\n        /* \"BankableNFT_flat.sol\":31531:31540  _safeMint */\n      tag_281\n        /* \"BankableNFT_flat.sol\":31531:31557  _safeMint(to, tokenId, \"\") */\n      jump\t// in\n        /* \"BankableNFT_flat.sol\":39700:39914  function _setTokenURI(uint256 tokenId, string memory _tokenURI) internal virtual {... */\n    tag_199:\n        /* \"BankableNFT_flat.sol\":39799:39815  _exists(tokenId) */\n      tag_283\n        /* \"BankableNFT_flat.sol\":39807:39814  tokenId */\n      dup3\n        /* \"BankableNFT_flat.sol\":39799:39806  _exists */\n      tag_110\n        /* \"BankableNFT_flat.sol\":39799:39815  _exists(tokenId) */\n      jump\t// in\n    tag_283:\n        /* \"BankableNFT_flat.sol\":39791:39866  require(_exists(tokenId), \"ERC721URIStorage: URI set of nonexistent token\") */\n      tag_284\n      jumpi\n      mload(0x40)\n      shl(0xe5, 0x461bcd)\n      dup2\n      mstore\n        /* \"#utility.yul\":10330:10332   */\n      0x20\n        /* \"BankableNFT_flat.sol\":39791:39866  require(_exists(tokenId), \"ERC721URIStorage: URI set of nonexistent token\") */\n      0x04\n      dup3\n      add\n        /* \"#utility.yul\":10312:10333   */\n      mstore\n        /* \"#utility.yul\":10369:10371   */\n      0x2e\n        /* \"#utility.yul\":10349:10367   */\n      0x24\n      dup3\n      add\n        /* \"#utility.yul\":10342:10372   */\n      mstore\n        /* \"#utility.yul\":10408:10442   */\n      0x45524337323155524953746f726167653a2055524920736574206f66206e6f6e\n        /* \"#utility.yul\":10388:10406   */\n      0x44\n      dup3\n      add\n        /* \"#utility.yul\":10381:10443   */\n      mstore\n      shl(0x91, 0x32bc34b9ba32b73a103a37b5b2b7)\n        /* \"#utility.yul\":10459:10477   */\n      0x64\n      dup3\n      add\n        /* \"#utility.yul\":10452:10496   */\n      mstore\n        /* \"#utility.yul\":10513:10532   */\n      0x84\n      add\n        /* \"BankableNFT_flat.sol\":39791:39866  require(_exists(tokenId), \"ERC721URIStorage: URI set of nonexistent token\") */\n      tag_112\n        /* \"#utility.yul\":10302:10538   */\n      jump\n        /* \"BankableNFT_flat.sol\":39791:39866  require(_exists(tokenId), \"ERC721URIStorage: URI set of nonexistent token\") */\n    tag_284:\n        /* \"BankableNFT_flat.sol\":39876:39895  _tokenURIs[tokenId] */\n      0x00\n      dup3\n      dup2\n      mstore\n        /* \"BankableNFT_flat.sol\":39876:39886  _tokenURIs */\n      0x06\n        /* \"BankableNFT_flat.sol\":39876:39895  _tokenURIs[tokenId] */\n      0x20\n      swap1\n      dup2\n      mstore\n      0x40\n      swap1\n      swap2\n      keccak256\n        /* \"BankableNFT_flat.sol\":39876:39907  _tokenURIs[tokenId] = _tokenURI */\n      dup3\n      mload\n      tag_127\n      swap3\n      dup5\n      add\n      swap1\n      tag_288\n      jump\t// in\n        /* \"BankableNFT_flat.sol\":40131:40331  function _burn(uint256 tokenId) internal virtual override {... */\n    tag_245:\n        /* \"BankableNFT_flat.sol\":40199:40219  super._burn(tokenId) */\n      tag_292\n        /* \"BankableNFT_flat.sol\":40211:40218  tokenId */\n      dup2\n        /* \"BankableNFT_flat.sol\":40199:40210  super._burn */\n      tag_293\n        /* \"BankableNFT_flat.sol\":40199:40219  super._burn(tokenId) */\n      jump\t// in\n    tag_292:\n        /* \"BankableNFT_flat.sol\":40240:40259  _tokenURIs[tokenId] */\n      0x00\n      dup2\n      dup2\n      mstore\n        /* \"BankableNFT_flat.sol\":40240:40250  _tokenURIs */\n      0x06\n        /* \"BankableNFT_flat.sol\":40240:40259  _tokenURIs[tokenId] */\n      0x20\n      mstore\n      0x40\n      swap1\n      keccak256\n        /* \"BankableNFT_flat.sol\":40234:40267  bytes(_tokenURIs[tokenId]).length */\n      dup1\n      sload\n      tag_294\n      swap1\n      tag_103\n      jump\t// in\n    tag_294:\n        /* \"BankableNFT_flat.sol\":40234:40272  bytes(_tokenURIs[tokenId]).length != 0 */\n      iszero\n      swap1\n      pop\n        /* \"BankableNFT_flat.sol\":40230:40325  if (bytes(_tokenURIs[tokenId]).length != 0) {... */\n      tag_146\n      jumpi\n        /* \"BankableNFT_flat.sol\":40295:40314  _tokenURIs[tokenId] */\n      0x00\n      dup2\n      dup2\n      mstore\n        /* \"BankableNFT_flat.sol\":40295:40305  _tokenURIs */\n      0x06\n        /* \"BankableNFT_flat.sol\":40295:40314  _tokenURIs[tokenId] */\n      0x20\n      mstore\n      0x40\n      dup2\n      keccak256\n        /* \"BankableNFT_flat.sol\":40288:40314  delete _tokenURIs[tokenId] */\n      tag_146\n      swap2\n      tag_297\n      jump\t// in\n        /* \"BankableNFT_flat.sol\":35674:36452  function _checkOnERC721Received(... */\n    tag_255:\n        /* \"BankableNFT_flat.sol\":35824:35828  bool */\n      0x00\n      sub(shl(0xa0, 0x01), 0x01)\n        /* \"BankableNFT_flat.sol\":35844:35857  to.isContract */\n      dup5\n      and\n        /* \"BankableNFT_flat.sol\":8338:8357  account.code.length */\n      extcodesize\n        /* \"BankableNFT_flat.sol\":8338:8361  account.code.length > 0 */\n      iszero\n        /* \"BankableNFT_flat.sol\":35840:36446  if (to.isContract()) {... */\n      tag_301\n      jumpi\n        /* \"BankableNFT_flat.sol\":35879:35951  IERC721Receiver(to).onERC721Received(_msgSender(), from, tokenId, _data) */\n      mload(0x40)\n      shl(0xe1, 0x0a85bd01)\n      dup2\n      mstore\n      sub(shl(0xa0, 0x01), 0x01)\n        /* \"BankableNFT_flat.sol\":35879:35915  IERC721Receiver(to).onERC721Received */\n      dup6\n      and\n      swap1\n      0x150b7a02\n      swap1\n        /* \"BankableNFT_flat.sol\":35879:35951  IERC721Receiver(to).onERC721Received(_msgSender(), from, tokenId, _data) */\n      tag_303\n      swap1\n        /* \"BankableNFT_flat.sol\":4262:4272  msg.sender */\n      caller\n      swap1\n        /* \"BankableNFT_flat.sol\":35930:35934  from */\n      dup10\n      swap1\n        /* \"BankableNFT_flat.sol\":35936:35943  tokenId */\n      dup9\n      swap1\n        /* \"BankableNFT_flat.sol\":35945:35950  _data */\n      dup9\n      swap1\n        /* \"BankableNFT_flat.sol\":35879:35951  IERC721Receiver(to).onERC721Received(_msgSender(), from, tokenId, _data) */\n      0x04\n      add\n      tag_304\n      jump\t// in\n    tag_303:\n      0x20\n      mload(0x40)\n      dup1\n      dup4\n      sub\n      dup2\n      0x00\n      dup8\n      dup1\n      extcodesize\n      iszero\n      dup1\n      iszero\n      tag_305\n      jumpi\n      0x00\n      dup1\n      revert\n    tag_305:\n      pop\n      gas\n      call\n      swap3\n      pop\n      pop\n      pop\n      dup1\n      iszero\n      tag_306\n      jumpi\n      pop\n      0x40\n      dup1\n      mload\n      0x1f\n      returndatasize\n      swap1\n      dup2\n      add\n      not(0x1f)\n      and\n      dup3\n      add\n      swap1\n      swap3\n      mstore\n      tag_307\n      swap2\n      dup2\n      add\n      swap1\n      tag_308\n      jump\t// in\n    tag_307:\n      0x01\n    tag_306:\n        /* \"BankableNFT_flat.sol\":35875:36394  try IERC721Receiver(to).onERC721Received(_msgSender(), from, tokenId, _data) returns (bytes4 retval) {... */\n      tag_309\n      jumpi\n      returndatasize\n      dup1\n      dup1\n      iszero\n      tag_314\n      jumpi\n      mload(0x40)\n      swap2\n      pop\n      and(add(returndatasize, 0x3f), not(0x1f))\n      dup3\n      add\n      0x40\n      mstore\n      returndatasize\n      dup3\n      mstore\n      returndatasize\n      0x00\n      0x20\n      dup5\n      add\n      returndatacopy\n      jump(tag_313)\n    tag_314:\n      0x60\n      swap2\n      pop\n    tag_313:\n      pop\n        /* \"BankableNFT_flat.sol\":36118:36131  reason.length */\n      dup1\n      mload\n        /* \"BankableNFT_flat.sol\":36114:36380  if (reason.length == 0) {... */\n      tag_315\n      jumpi\n        /* \"BankableNFT_flat.sol\":36160:36220  revert(\"ERC721: transfer to non ERC721Receiver implementer\") */\n      mload(0x40)\n      shl(0xe5, 0x461bcd)\n      dup2\n      mstore\n      0x04\n      add\n      tag_112\n      swap1\n      tag_258\n      jump\t// in\n        /* \"BankableNFT_flat.sol\":36114:36380  if (reason.length == 0) {... */\n    tag_315:\n        /* \"BankableNFT_flat.sol\":36332:36338  reason */\n      dup1\n        /* \"BankableNFT_flat.sol\":36326:36339  mload(reason) */\n      mload\n        /* \"BankableNFT_flat.sol\":36317:36323  reason */\n      dup2\n        /* \"BankableNFT_flat.sol\":36313:36315  32 */\n      0x20\n        /* \"BankableNFT_flat.sol\":36309:36324  add(32, reason) */\n      add\n        /* \"BankableNFT_flat.sol\":36302:36340  revert(add(32, reason), mload(reason)) */\n      revert\n        /* \"BankableNFT_flat.sol\":35875:36394  try IERC721Receiver(to).onERC721Received(_msgSender(), from, tokenId, _data) returns (bytes4 retval) {... */\n    tag_309:\n      not(sub(shl(0xe0, 0x01), 0x01))\n        /* \"BankableNFT_flat.sol\":36001:36052  retval == IERC721Receiver.onERC721Received.selector */\n      and\n      shl(0xe1, 0x0a85bd01)\n      eq\n      swap1\n      pop\n        /* \"BankableNFT_flat.sol\":35994:36052  return retval == IERC721Receiver.onERC721Received.selector */\n      jump(tag_225)\n        /* \"BankableNFT_flat.sol\":35840:36446  if (to.isContract()) {... */\n    tag_301:\n      pop\n        /* \"BankableNFT_flat.sol\":36431:36435  true */\n      0x01\n        /* \"BankableNFT_flat.sol\":35674:36452  function _checkOnERC721Received(... */\n      swap5\n      swap4\n      pop\n      pop\n      pop\n      pop\n      jump\t// out\n        /* \"BankableNFT_flat.sol\":26158:26487  function tokenURI(uint256 tokenId) public view virtual override returns (string memory) {... */\n    tag_276:\n        /* \"BankableNFT_flat.sol\":26231:26244  string memory */\n      0x60\n        /* \"BankableNFT_flat.sol\":26264:26280  _exists(tokenId) */\n      tag_322\n        /* \"BankableNFT_flat.sol\":26272:26279  tokenId */\n      dup3\n        /* \"BankableNFT_flat.sol\":26264:26271  _exists */\n      tag_110\n        /* \"BankableNFT_flat.sol\":26264:26280  _exists(tokenId) */\n      jump\t// in\n    tag_322:\n        /* \"BankableNFT_flat.sol\":26256:26332  require(_exists(tokenId), \"ERC721Metadata: URI query for nonexistent token\") */\n      tag_323\n      jumpi\n      mload(0x40)\n      shl(0xe5, 0x461bcd)\n      dup2\n      mstore\n        /* \"#utility.yul\":12298:12300   */\n      0x20\n        /* \"BankableNFT_flat.sol\":26256:26332  require(_exists(tokenId), \"ERC721Metadata: URI query for nonexistent token\") */\n      0x04\n      dup3\n      add\n        /* \"#utility.yul\":12280:12301   */\n      mstore\n        /* \"#utility.yul\":12337:12339   */\n      0x2f\n        /* \"#utility.yul\":12317:12335   */\n      0x24\n      dup3\n      add\n        /* \"#utility.yul\":12310:12340   */\n      mstore\n        /* \"#utility.yul\":12376:12410   */\n      0x4552433732314d657461646174613a2055524920717565727920666f72206e6f\n        /* \"#utility.yul\":12356:12374   */\n      0x44\n      dup3\n      add\n        /* \"#utility.yul\":12349:12411   */\n      mstore\n      shl(0x89, 0x3732bc34b9ba32b73a103a37b5b2b7)\n        /* \"#utility.yul\":12427:12445   */\n      0x64\n      dup3\n      add\n        /* \"#utility.yul\":12420:12465   */\n      mstore\n        /* \"#utility.yul\":12482:12501   */\n      0x84\n      add\n        /* \"BankableNFT_flat.sol\":26256:26332  require(_exists(tokenId), \"ERC721Metadata: URI query for nonexistent token\") */\n      tag_112\n        /* \"#utility.yul\":12270:12507   */\n      jump\n        /* \"BankableNFT_flat.sol\":26256:26332  require(_exists(tokenId), \"ERC721Metadata: URI query for nonexistent token\") */\n    tag_323:\n        /* \"BankableNFT_flat.sol\":26343:26364  string memory baseURI */\n      0x00\n        /* \"BankableNFT_flat.sol\":26367:26377  _baseURI() */\n      tag_326\n        /* \"BankableNFT_flat.sol\":26804:26813  return \"\" */\n      0x40\n      dup1\n      mload\n      0x20\n      dup2\n      add\n      swap1\n      swap2\n      mstore\n      0x00\n      dup2\n      mstore\n      swap1\n        /* \"BankableNFT_flat.sol\":26728:26820  function _baseURI() internal view virtual returns (string memory) {... */\n      jump\n        /* \"BankableNFT_flat.sol\":26367:26377  _baseURI() */\n    tag_326:\n        /* \"BankableNFT_flat.sol\":26343:26377  string memory baseURI = _baseURI() */\n      swap1\n      pop\n        /* \"BankableNFT_flat.sol\":26418:26419  0 */\n      0x00\n        /* \"BankableNFT_flat.sol\":26400:26407  baseURI */\n      dup2\n        /* \"BankableNFT_flat.sol\":26394:26415  bytes(baseURI).length */\n      mload\n        /* \"BankableNFT_flat.sol\":26394:26419  bytes(baseURI).length > 0 */\n      gt\n        /* \"BankableNFT_flat.sol\":26394:26480  bytes(baseURI).length > 0 ? string(abi.encodePacked(baseURI, tokenId.toString())) : \"\" */\n      tag_327\n      jumpi\n      mload(0x40)\n      dup1\n      0x20\n      add\n      0x40\n      mstore\n      dup1\n      0x00\n      dup2\n      mstore\n      pop\n      jump(tag_328)\n    tag_327:\n        /* \"BankableNFT_flat.sol\":26446:26453  baseURI */\n      dup1\n        /* \"BankableNFT_flat.sol\":26455:26473  tokenId.toString() */\n      tag_329\n        /* \"BankableNFT_flat.sol\":26455:26462  tokenId */\n      dup5\n        /* \"BankableNFT_flat.sol\":26455:26471  tokenId.toString */\n      tag_330\n        /* \"BankableNFT_flat.sol\":26455:26473  tokenId.toString() */\n      jump\t// in\n    tag_329:\n        /* \"BankableNFT_flat.sol\":26429:26474  abi.encodePacked(baseURI, tokenId.toString()) */\n      add(0x20, mload(0x40))\n      tag_331\n      swap3\n      swap2\n      swap1\n      tag_274\n      jump\t// in\n    tag_331:\n      mload(0x40)\n      0x20\n      dup2\n      dup4\n      sub\n      sub\n      dup2\n      mstore\n      swap1\n      0x40\n      mstore\n        /* \"BankableNFT_flat.sol\":26394:26480  bytes(baseURI).length > 0 ? string(abi.encodePacked(baseURI, tokenId.toString())) : \"\" */\n    tag_328:\n        /* \"BankableNFT_flat.sol\":26387:26480  return bytes(baseURI).length > 0 ? string(abi.encodePacked(baseURI, tokenId.toString())) : \"\" */\n      swap4\n        /* \"BankableNFT_flat.sol\":26158:26487  function tokenURI(uint256 tokenId) public view virtual override returns (string memory) {... */\n      swap3\n      pop\n      pop\n      pop\n      jump\t// out\n        /* \"BankableNFT_flat.sol\":31785:32096  function _safeMint(... */\n    tag_281:\n        /* \"BankableNFT_flat.sol\":31910:31928  _mint(to, tokenId) */\n      tag_333\n        /* \"BankableNFT_flat.sol\":31916:31918  to */\n      dup4\n        /* \"BankableNFT_flat.sol\":31920:31927  tokenId */\n      dup4\n        /* \"BankableNFT_flat.sol\":31910:31915  _mint */\n      tag_334\n        /* \"BankableNFT_flat.sol\":31910:31928  _mint(to, tokenId) */\n      jump\t// in\n    tag_333:\n        /* \"BankableNFT_flat.sol\":31959:32013  _checkOnERC721Received(address(0), to, tokenId, _data) */\n      tag_335\n        /* \"BankableNFT_flat.sol\":31990:31991  0 */\n      0x00\n        /* \"BankableNFT_flat.sol\":31994:31996  to */\n      dup5\n        /* \"BankableNFT_flat.sol\":31998:32005  tokenId */\n      dup5\n        /* \"BankableNFT_flat.sol\":32007:32012  _data */\n      dup5\n        /* \"BankableNFT_flat.sol\":31959:31981  _checkOnERC721Received */\n      tag_255\n        /* \"BankableNFT_flat.sol\":31959:32013  _checkOnERC721Received(address(0), to, tokenId, _data) */\n      jump\t// in\n    tag_335:\n        /* \"BankableNFT_flat.sol\":31938:32089  require(... */\n      tag_127\n      jumpi\n      mload(0x40)\n      shl(0xe5, 0x461bcd)\n      dup2\n      mstore\n      0x04\n      add\n      tag_112\n      swap1\n      tag_258\n      jump\t// in\n        /* \"BankableNFT_flat.sol\":33062:33468  function _burn(uint256 tokenId) internal virtual {... */\n    tag_293:\n        /* \"BankableNFT_flat.sol\":33121:33134  address owner */\n      0x00\n        /* \"BankableNFT_flat.sol\":33137:33160  ERC721.ownerOf(tokenId) */\n      tag_339\n        /* \"BankableNFT_flat.sol\":33152:33159  tokenId */\n      dup3\n        /* \"BankableNFT_flat.sol\":33137:33151  ERC721.ownerOf */\n      tag_56\n        /* \"BankableNFT_flat.sol\":33137:33160  ERC721.ownerOf(tokenId) */\n      jump\t// in\n    tag_339:\n        /* \"BankableNFT_flat.sol\":33121:33160  address owner = ERC721.ownerOf(tokenId) */\n      swap1\n      pop\n        /* \"BankableNFT_flat.sol\":33257:33286  _approve(address(0), tokenId) */\n      tag_341\n        /* \"BankableNFT_flat.sol\":33274:33275  0 */\n      0x00\n        /* \"BankableNFT_flat.sol\":33278:33285  tokenId */\n      dup4\n        /* \"BankableNFT_flat.sol\":33257:33265  _approve */\n      tag_128\n        /* \"BankableNFT_flat.sol\":33257:33286  _approve(address(0), tokenId) */\n      jump\t// in\n    tag_341:\n      sub(shl(0xa0, 0x01), 0x01)\n        /* \"BankableNFT_flat.sol\":33297:33313  _balances[owner] */\n      dup2\n      and\n      0x00\n      swap1\n      dup2\n      mstore\n        /* \"BankableNFT_flat.sol\":33297:33306  _balances */\n      0x03\n        /* \"BankableNFT_flat.sol\":33297:33313  _balances[owner] */\n      0x20\n      mstore\n      0x40\n      dup2\n      keccak256\n        /* \"BankableNFT_flat.sol\":33297:33318  _balances[owner] -= 1 */\n      dup1\n      sload\n        /* \"BankableNFT_flat.sol\":33317:33318  1 */\n      0x01\n      swap3\n        /* \"BankableNFT_flat.sol\":33297:33313  _balances[owner] */\n      swap1\n        /* \"BankableNFT_flat.sol\":33297:33318  _balances[owner] -= 1 */\n      tag_342\n      swap1\n        /* \"BankableNFT_flat.sol\":33317:33318  1 */\n      dup5\n      swap1\n        /* \"BankableNFT_flat.sol\":33297:33318  _balances[owner] -= 1 */\n      tag_238\n      jump\t// in\n    tag_342:\n      swap1\n      swap2\n      sstore\n      pop\n      pop\n        /* \"BankableNFT_flat.sol\":33335:33351  _owners[tokenId] */\n      0x00\n      dup3\n      dup2\n      mstore\n        /* \"BankableNFT_flat.sol\":33335:33342  _owners */\n      0x02\n        /* \"BankableNFT_flat.sol\":33335:33351  _owners[tokenId] */\n      0x20\n      mstore\n      0x40\n      dup1\n      dup3\n      keccak256\n        /* \"BankableNFT_flat.sol\":33328:33351  delete _owners[tokenId] */\n      dup1\n      sload\n      not(sub(shl(0xa0, 0x01), 0x01))\n      and\n      swap1\n      sstore\n        /* \"BankableNFT_flat.sol\":33367:33403  Transfer(owner, address(0), tokenId) */\n      mload\n        /* \"BankableNFT_flat.sol\":33343:33350  tokenId */\n      dup4\n      swap2\n        /* \"BankableNFT_flat.sol\":33335:33351  _owners[tokenId] */\n      swap1\n      sub(shl(0xa0, 0x01), 0x01)\n        /* \"BankableNFT_flat.sol\":33367:33403  Transfer(owner, address(0), tokenId) */\n      dup5\n      and\n      swap1\n      0xddf252ad1be2c89b69c2b068fc378daa952ba7f163c4a11628f55a4df523b3ef\n      swap1\n        /* \"BankableNFT_flat.sol\":33335:33351  _owners[tokenId] */\n      dup4\n      swap1\n        /* \"BankableNFT_flat.sol\":33367:33403  Transfer(owner, address(0), tokenId) */\n      log4\n        /* \"BankableNFT_flat.sol\":27623:27776  function setApprovalForAll(address operator, bool approved) public virtual override {... */\n      pop\n      pop\n      jump\t// out\n        /* \"BankableNFT_flat.sol\":1811:2514  function toString(uint256 value) internal pure returns (string memory) {... */\n    tag_330:\n        /* \"BankableNFT_flat.sol\":1867:1880  string memory */\n      0x60\n        /* \"BankableNFT_flat.sol\":2084:2094  value == 0 */\n      dup2\n        /* \"BankableNFT_flat.sol\":2080:2131  if (value == 0) {... */\n      tag_346\n      jumpi\n      pop\n      pop\n        /* \"BankableNFT_flat.sol\":2110:2120  return \"0\" */\n      0x40\n      dup1\n      mload\n      dup1\n      dup3\n      add\n      swap1\n      swap2\n      mstore\n      0x01\n      dup2\n      mstore\n      shl(0xfc, 0x03)\n      0x20\n      dup3\n      add\n      mstore\n      swap1\n        /* \"BankableNFT_flat.sol\":1811:2514  function toString(uint256 value) internal pure returns (string memory) {... */\n      jump\t// out\n        /* \"BankableNFT_flat.sol\":2080:2131  if (value == 0) {... */\n    tag_346:\n        /* \"BankableNFT_flat.sol\":2155:2160  value */\n      dup2\n        /* \"BankableNFT_flat.sol\":2140:2152  uint256 temp */\n      0x00\n        /* \"BankableNFT_flat.sol\":2194:2269  while (temp != 0) {... */\n    tag_347:\n        /* \"BankableNFT_flat.sol\":2201:2210  temp != 0 */\n      dup2\n      iszero\n        /* \"BankableNFT_flat.sol\":2194:2269  while (temp != 0) {... */\n      tag_348\n      jumpi\n        /* \"BankableNFT_flat.sol\":2226:2234  digits++ */\n      dup1\n      tag_349\n      dup2\n      tag_350\n      jump\t// in\n    tag_349:\n      swap2\n      pop\n        /* \"BankableNFT_flat.sol\":2248:2258  temp /= 10 */\n      tag_351\n      swap1\n      pop\n        /* \"BankableNFT_flat.sol\":2256:2258  10 */\n      0x0a\n        /* \"BankableNFT_flat.sol\":2248:2258  temp /= 10 */\n      dup4\n      tag_352\n      jump\t// in\n    tag_351:\n      swap2\n      pop\n        /* \"BankableNFT_flat.sol\":2194:2269  while (temp != 0) {... */\n      jump(tag_347)\n    tag_348:\n        /* \"BankableNFT_flat.sol\":2278:2297  bytes memory buffer */\n      0x00\n        /* \"BankableNFT_flat.sol\":2310:2316  digits */\n      dup2\n        /* \"BankableNFT_flat.sol\":2300:2317  new bytes(digits) */\n      0xffffffffffffffff\n      dup2\n      gt\n      iszero\n      tag_353\n      jumpi\n      mstore(0x00, shl(0xe0, 0x4e487b71))\n      mstore(0x04, 0x41)\n      revert(0x00, 0x24)\n    tag_353:\n      mload(0x40)\n      swap1\n      dup1\n      dup3\n      mstore\n      dup1\n      0x1f\n      add\n      not(0x1f)\n      and\n      0x20\n      add\n      dup3\n      add\n      0x40\n      mstore\n      dup1\n      iszero\n      tag_354\n      jumpi\n      0x20\n      dup3\n      add\n      dup2\n      dup1\n      calldatasize\n      dup4\n      calldatacopy\n      add\n      swap1\n      pop\n    tag_354:\n      pop\n        /* \"BankableNFT_flat.sol\":2278:2317  bytes memory buffer = new bytes(digits) */\n      swap1\n      pop\n        /* \"BankableNFT_flat.sol\":2327:2477  while (value != 0) {... */\n    tag_355:\n        /* \"BankableNFT_flat.sol\":2334:2344  value != 0 */\n      dup5\n      iszero\n        /* \"BankableNFT_flat.sol\":2327:2477  while (value != 0) {... */\n      tag_225\n      jumpi\n        /* \"BankableNFT_flat.sol\":2360:2371  digits -= 1 */\n      tag_357\n        /* \"BankableNFT_flat.sol\":2370:2371  1 */\n      0x01\n        /* \"BankableNFT_flat.sol\":2360:2371  digits -= 1 */\n      dup4\n      tag_238\n      jump\t// in\n    tag_357:\n      swap2\n      pop\n        /* \"BankableNFT_flat.sol\":2428:2438  value % 10 */\n      tag_358\n        /* \"BankableNFT_flat.sol\":2436:2438  10 */\n      0x0a\n        /* \"BankableNFT_flat.sol\":2428:2433  value */\n      dup7\n        /* \"BankableNFT_flat.sol\":2428:2438  value % 10 */\n      tag_359\n      jump\t// in\n    tag_358:\n        /* \"BankableNFT_flat.sol\":2415:2439  48 + uint256(value % 10) */\n      tag_360\n      swap1\n        /* \"BankableNFT_flat.sol\":2415:2417  48 */\n      0x30\n        /* \"BankableNFT_flat.sol\":2415:2439  48 + uint256(value % 10) */\n      tag_240\n      jump\t// in\n    tag_360:\n        /* \"BankableNFT_flat.sol\":2402:2441  bytes1(uint8(48 + uint256(value % 10))) */\n      0xf8\n      shl\n        /* \"BankableNFT_flat.sol\":2385:2391  buffer */\n      dup2\n        /* \"BankableNFT_flat.sol\":2392:2398  digits */\n      dup4\n        /* \"BankableNFT_flat.sol\":2385:2399  buffer[digits] */\n      dup2\n      mload\n      dup2\n      lt\n      tag_361\n      jumpi\n      mstore(0x00, shl(0xe0, 0x4e487b71))\n      mstore(0x04, 0x32)\n      revert(0x00, 0x24)\n    tag_361:\n      0x20\n      add\n      add\n        /* \"BankableNFT_flat.sol\":2385:2441  buffer[digits] = bytes1(uint8(48 + uint256(value % 10))) */\n      swap1\n      not(sub(shl(0xf8, 0x01), 0x01))\n      and\n      swap1\n      dup2\n      0x00\n      byte\n      swap1\n      mstore8\n      pop\n        /* \"BankableNFT_flat.sol\":2455:2466  value /= 10 */\n      tag_362\n        /* \"BankableNFT_flat.sol\":2464:2466  10 */\n      0x0a\n        /* \"BankableNFT_flat.sol\":2455:2466  value /= 10 */\n      dup7\n      tag_352\n      jump\t// in\n    tag_362:\n      swap5\n      pop\n        /* \"BankableNFT_flat.sol\":2327:2477  while (value != 0) {... */\n      jump(tag_355)\n        /* \"BankableNFT_flat.sol\":32418:32845  function _mint(address to, uint256 tokenId) internal virtual {... */\n    tag_334:\n      sub(shl(0xa0, 0x01), 0x01)\n        /* \"BankableNFT_flat.sol\":32497:32513  to != address(0) */\n      dup3\n      and\n        /* \"BankableNFT_flat.sol\":32489:32550  require(to != address(0), \"ERC721: mint to the zero address\") */\n      tag_364\n      jumpi\n      mload(0x40)\n      shl(0xe5, 0x461bcd)\n      dup2\n      mstore\n        /* \"#utility.yul\":10745:10747   */\n      0x20\n        /* \"BankableNFT_flat.sol\":32489:32550  require(to != address(0), \"ERC721: mint to the zero address\") */\n      0x04\n      dup3\n      add\n        /* \"#utility.yul\":10727:10748   */\n      dup2\n      swap1\n      mstore\n        /* \"#utility.yul\":10764:10782   */\n      0x24\n      dup3\n      add\n        /* \"#utility.yul\":10757:10787   */\n      mstore\n        /* \"#utility.yul\":10823:10857   */\n      0x4552433732313a206d696e7420746f20746865207a65726f2061646472657373\n        /* \"#utility.yul\":10803:10821   */\n      0x44\n      dup3\n      add\n        /* \"#utility.yul\":10796:10858   */\n      mstore\n        /* \"#utility.yul\":10875:10893   */\n      0x64\n      add\n        /* \"BankableNFT_flat.sol\":32489:32550  require(to != address(0), \"ERC721: mint to the zero address\") */\n      tag_112\n        /* \"#utility.yul\":10717:10899   */\n      jump\n        /* \"BankableNFT_flat.sol\":32489:32550  require(to != address(0), \"ERC721: mint to the zero address\") */\n    tag_364:\n        /* \"BankableNFT_flat.sol\":32569:32585  _exists(tokenId) */\n      tag_367\n        /* \"BankableNFT_flat.sol\":32577:32584  tokenId */\n      dup2\n        /* \"BankableNFT_flat.sol\":32569:32576  _exists */\n      tag_110\n        /* \"BankableNFT_flat.sol\":32569:32585  _exists(tokenId) */\n      jump\t// in\n    tag_367:\n        /* \"BankableNFT_flat.sol\":32568:32585  !_exists(tokenId) */\n      iszero\n        /* \"BankableNFT_flat.sol\":32560:32618  require(!_exists(tokenId), \"ERC721: token already minted\") */\n      tag_368\n      jumpi\n      mload(0x40)\n      shl(0xe5, 0x461bcd)\n      dup2\n      mstore\n        /* \"#utility.yul\":7555:7557   */\n      0x20\n        /* \"BankableNFT_flat.sol\":32560:32618  require(!_exists(tokenId), \"ERC721: token already minted\") */\n      0x04\n      dup3\n      add\n        /* \"#utility.yul\":7537:7558   */\n      mstore\n        /* \"#utility.yul\":7594:7596   */\n      0x1c\n        /* \"#utility.yul\":7574:7592   */\n      0x24\n      dup3\n      add\n        /* \"#utility.yul\":7567:7597   */\n      mstore\n        /* \"#utility.yul\":7633:7663   */\n      0x4552433732313a20746f6b656e20616c7265616479206d696e74656400000000\n        /* \"#utility.yul\":7613:7631   */\n      0x44\n      dup3\n      add\n        /* \"#utility.yul\":7606:7664   */\n      mstore\n        /* \"#utility.yul\":7681:7699   */\n      0x64\n      add\n        /* \"BankableNFT_flat.sol\":32560:32618  require(!_exists(tokenId), \"ERC721: token already minted\") */\n      tag_112\n        /* \"#utility.yul\":7527:7705   */\n      jump\n        /* \"BankableNFT_flat.sol\":32560:32618  require(!_exists(tokenId), \"ERC721: token already minted\") */\n    tag_368:\n      sub(shl(0xa0, 0x01), 0x01)\n        /* \"BankableNFT_flat.sol\":32685:32698  _balances[to] */\n      dup3\n      and\n      0x00\n      swap1\n      dup2\n      mstore\n        /* \"BankableNFT_flat.sol\":32685:32694  _balances */\n      0x03\n        /* \"BankableNFT_flat.sol\":32685:32698  _balances[to] */\n      0x20\n      mstore\n      0x40\n      dup2\n      keccak256\n        /* \"BankableNFT_flat.sol\":32685:32703  _balances[to] += 1 */\n      dup1\n      sload\n        /* \"BankableNFT_flat.sol\":32702:32703  1 */\n      0x01\n      swap3\n        /* \"BankableNFT_flat.sol\":32685:32698  _balances[to] */\n      swap1\n        /* \"BankableNFT_flat.sol\":32685:32703  _balances[to] += 1 */\n      tag_372\n      swap1\n        /* \"BankableNFT_flat.sol\":32702:32703  1 */\n      dup5\n      swap1\n        /* \"BankableNFT_flat.sol\":32685:32703  _balances[to] += 1 */\n      tag_240\n      jump\t// in\n    tag_372:\n      swap1\n      swap2\n      sstore\n      pop\n      pop\n        /* \"BankableNFT_flat.sol\":32713:32729  _owners[tokenId] */\n      0x00\n      dup2\n      dup2\n      mstore\n        /* \"BankableNFT_flat.sol\":32713:32720  _owners */\n      0x02\n        /* \"BankableNFT_flat.sol\":32713:32729  _owners[tokenId] */\n      0x20\n      mstore\n      0x40\n      dup1\n      dup3\n      keccak256\n        /* \"BankableNFT_flat.sol\":32713:32734  _owners[tokenId] = to */\n      dup1\n      sload\n      not(sub(shl(0xa0, 0x01), 0x01))\n      and\n      sub(shl(0xa0, 0x01), 0x01)\n      dup7\n      and\n      swap1\n      dup2\n      or\n      swap1\n      swap2\n      sstore\n        /* \"BankableNFT_flat.sol\":32750:32783  Transfer(address(0), to, tokenId) */\n      swap1\n      mload\n        /* \"BankableNFT_flat.sol\":32713:32729  _owners[tokenId] */\n      dup4\n      swap3\n      swap1\n        /* \"BankableNFT_flat.sol\":32750:32783  Transfer(address(0), to, tokenId) */\n      0xddf252ad1be2c89b69c2b068fc378daa952ba7f163c4a11628f55a4df523b3ef\n      swap1\n        /* \"BankableNFT_flat.sol\":32713:32729  _owners[tokenId] */\n      dup3\n      swap1\n        /* \"BankableNFT_flat.sol\":32750:32783  Transfer(address(0), to, tokenId) */\n      log4\n        /* \"BankableNFT_flat.sol\":27623:27776  function setApprovalForAll(address operator, bool approved) public virtual override {... */\n      pop\n      pop\n      jump\t// out\n    tag_288:\n      dup3\n      dup1\n      sload\n      tag_374\n      swap1\n      tag_103\n      jump\t// in\n    tag_374:\n      swap1\n      0x00\n      mstore\n      keccak256(0x00, 0x20)\n      swap1\n      0x1f\n      add\n      0x20\n      swap1\n      div\n      dup2\n      add\n      swap3\n      dup3\n      tag_376\n      jumpi\n      0x00\n      dup6\n      sstore\n      jump(tag_379)\n    tag_376:\n      dup3\n      0x1f\n      lt\n      tag_377\n      jumpi\n      dup1\n      mload\n      not(0xff)\n      and\n      dup4\n      dup1\n      add\n      or\n      dup6\n      sstore\n      jump(tag_379)\n    tag_377:\n      dup3\n      dup1\n      add\n      0x01\n      add\n      dup6\n      sstore\n      dup3\n      iszero\n      tag_379\n      jumpi\n      swap2\n      dup3\n      add\n    tag_378:\n      dup3\n      dup2\n      gt\n      iszero\n      tag_379\n      jumpi\n      dup3\n      mload\n      dup3\n      sstore\n      swap2\n      0x20\n      add\n      swap2\n      swap1\n      0x01\n      add\n      swap1\n      jump(tag_378)\n    tag_379:\n      pop\n      tag_380\n      swap3\n      swap2\n      pop\n      tag_381\n      jump\t// in\n    tag_380:\n      pop\n      swap1\n      jump\t// out\n    tag_297:\n      pop\n      dup1\n      sload\n      tag_382\n      swap1\n      tag_103\n      jump\t// in\n    tag_382:\n      0x00\n      dup3\n      sstore\n      dup1\n      0x1f\n      lt\n      tag_384\n      jumpi\n      pop\n      pop\n      jump\t// out\n    tag_384:\n      0x1f\n      add\n      0x20\n      swap1\n      div\n      swap1\n      0x00\n      mstore\n      keccak256(0x00, 0x20)\n      swap1\n      dup2\n      add\n      swap1\n      tag_146\n      swap2\n      swap1\n    tag_381:\n    tag_386:\n      dup1\n      dup3\n      gt\n      iszero\n      tag_380\n      jumpi\n      0x00\n      dup2\n      sstore\n      0x01\n      add\n      jump(tag_386)\n        /* \"#utility.yul\":14:645   */\n    tag_389:\n        /* \"#utility.yul\":78:83   */\n      0x00\n        /* \"#utility.yul\":108:126   */\n      0xffffffffffffffff\n        /* \"#utility.yul\":149:151   */\n      dup1\n        /* \"#utility.yul\":141:147   */\n      dup5\n        /* \"#utility.yul\":138:152   */\n      gt\n        /* \"#utility.yul\":135:137   */\n      iszero\n      tag_392\n      jumpi\n        /* \"#utility.yul\":155:173   */\n      tag_392\n      tag_393\n      jump\t// in\n    tag_392:\n        /* \"#utility.yul\":230:232   */\n      0x40\n        /* \"#utility.yul\":224:233   */\n      mload\n        /* \"#utility.yul\":198:200   */\n      0x1f\n        /* \"#utility.yul\":284:299   */\n      dup6\n      add\n      not(0x1f)\n        /* \"#utility.yul\":280:304   */\n      swap1\n      dup2\n      and\n        /* \"#utility.yul\":306:308   */\n      0x3f\n        /* \"#utility.yul\":276:309   */\n      add\n        /* \"#utility.yul\":272:314   */\n      and\n        /* \"#utility.yul\":260:315   */\n      dup2\n      add\n      swap1\n        /* \"#utility.yul\":330:348   */\n      dup3\n      dup3\n      gt\n        /* \"#utility.yul\":350:372   */\n      dup2\n      dup4\n      lt\n        /* \"#utility.yul\":327:373   */\n      or\n        /* \"#utility.yul\":324:326   */\n      iszero\n      tag_395\n      jumpi\n        /* \"#utility.yul\":376:394   */\n      tag_395\n      tag_393\n      jump\t// in\n    tag_395:\n        /* \"#utility.yul\":416:426   */\n      dup2\n        /* \"#utility.yul\":412:414   */\n      0x40\n        /* \"#utility.yul\":405:427   */\n      mstore\n        /* \"#utility.yul\":445:451   */\n      dup1\n        /* \"#utility.yul\":436:451   */\n      swap4\n      pop\n        /* \"#utility.yul\":475:481   */\n      dup6\n        /* \"#utility.yul\":467:473   */\n      dup2\n        /* \"#utility.yul\":460:482   */\n      mstore\n        /* \"#utility.yul\":515:518   */\n      dup7\n        /* \"#utility.yul\":506:512   */\n      dup7\n        /* \"#utility.yul\":501:504   */\n      dup7\n        /* \"#utility.yul\":497:513   */\n      add\n        /* \"#utility.yul\":494:519   */\n      gt\n        /* \"#utility.yul\":491:493   */\n      iszero\n      tag_396\n      jumpi\n        /* \"#utility.yul\":532:533   */\n      0x00\n        /* \"#utility.yul\":529:530   */\n      dup1\n        /* \"#utility.yul\":522:534   */\n      revert\n        /* \"#utility.yul\":491:493   */\n    tag_396:\n        /* \"#utility.yul\":582:588   */\n      dup6\n        /* \"#utility.yul\":577:580   */\n      dup6\n        /* \"#utility.yul\":570:574   */\n      0x20\n        /* \"#utility.yul\":562:568   */\n      dup4\n        /* \"#utility.yul\":558:575   */\n      add\n        /* \"#utility.yul\":545:589   */\n      calldatacopy\n        /* \"#utility.yul\":637:638   */\n      0x00\n        /* \"#utility.yul\":630:634   */\n      0x20\n        /* \"#utility.yul\":621:627   */\n      dup8\n        /* \"#utility.yul\":613:619   */\n      dup4\n        /* \"#utility.yul\":609:628   */\n      add\n        /* \"#utility.yul\":605:635   */\n      add\n        /* \"#utility.yul\":598:639   */\n      mstore\n      pop\n      pop\n      pop\n        /* \"#utility.yul\":88:645   */\n      swap4\n      swap3\n      pop\n      pop\n      pop\n      jump\t// out\n        /* \"#utility.yul\":650:823   */\n    tag_397:\n        /* \"#utility.yul\":718:738   */\n      dup1\n      calldataload\n      sub(shl(0xa0, 0x01), 0x01)\n        /* \"#utility.yul\":767:798   */\n      dup2\n      and\n        /* \"#utility.yul\":757:799   */\n      dup2\n      eq\n        /* \"#utility.yul\":747:749   */\n      tag_399\n      jumpi\n        /* \"#utility.yul\":813:814   */\n      0x00\n        /* \"#utility.yul\":810:811   */\n      dup1\n        /* \"#utility.yul\":803:815   */\n      revert\n        /* \"#utility.yul\":747:749   */\n    tag_399:\n        /* \"#utility.yul\":699:823   */\n      swap2\n      swap1\n      pop\n      jump\t// out\n        /* \"#utility.yul\":828:1024   */\n    tag_60:\n        /* \"#utility.yul\":887:893   */\n      0x00\n        /* \"#utility.yul\":940:942   */\n      0x20\n        /* \"#utility.yul\":928:937   */\n      dup3\n        /* \"#utility.yul\":919:926   */\n      dup5\n        /* \"#utility.yul\":915:938   */\n      sub\n        /* \"#utility.yul\":911:943   */\n      slt\n        /* \"#utility.yul\":908:910   */\n      iszero\n      tag_401\n      jumpi\n        /* \"#utility.yul\":961:967   */\n      dup1\n        /* \"#utility.yul\":953:959   */\n      dup2\n        /* \"#utility.yul\":946:968   */\n      revert\n        /* \"#utility.yul\":908:910   */\n    tag_401:\n        /* \"#utility.yul\":989:1018   */\n      tag_328\n        /* \"#utility.yul\":1008:1017   */\n      dup3\n        /* \"#utility.yul\":989:1018   */\n      tag_397\n      jump\t// in\n        /* \"#utility.yul\":1029:1299   */\n    tag_90:\n        /* \"#utility.yul\":1097:1103   */\n      0x00\n        /* \"#utility.yul\":1105:1111   */\n      dup1\n        /* \"#utility.yul\":1158:1160   */\n      0x40\n        /* \"#utility.yul\":1146:1155   */\n      dup4\n        /* \"#utility.yul\":1137:1144   */\n      dup6\n        /* \"#utility.yul\":1133:1156   */\n      sub\n        /* \"#utility.yul\":1129:1161   */\n      slt\n        /* \"#utility.yul\":1126:1128   */\n      iszero\n      tag_404\n      jumpi\n        /* \"#utility.yul\":1179:1185   */\n      dup1\n        /* \"#utility.yul\":1171:1177   */\n      dup2\n        /* \"#utility.yul\":1164:1186   */\n      revert\n        /* \"#utility.yul\":1126:1128   */\n    tag_404:\n        /* \"#utility.yul\":1207:1236   */\n      tag_405\n        /* \"#utility.yul\":1226:1235   */\n      dup4\n        /* \"#utility.yul\":1207:1236   */\n      tag_397\n      jump\t// in\n    tag_405:\n        /* \"#utility.yul\":1197:1236   */\n      swap2\n      pop\n        /* \"#utility.yul\":1255:1293   */\n      tag_406\n        /* \"#utility.yul\":1289:1291   */\n      0x20\n        /* \"#utility.yul\":1278:1287   */\n      dup5\n        /* \"#utility.yul\":1274:1292   */\n      add\n        /* \"#utility.yul\":1255:1293   */\n      tag_397\n      jump\t// in\n    tag_406:\n        /* \"#utility.yul\":1245:1293   */\n      swap1\n      pop\n        /* \"#utility.yul\":1116:1299   */\n      swap3\n      pop\n      swap3\n      swap1\n      pop\n      jump\t// out\n        /* \"#utility.yul\":1304:1642   */\n    tag_46:\n        /* \"#utility.yul\":1381:1387   */\n      0x00\n        /* \"#utility.yul\":1389:1395   */\n      dup1\n        /* \"#utility.yul\":1397:1403   */\n      0x00\n        /* \"#utility.yul\":1450:1452   */\n      0x60\n        /* \"#utility.yul\":1438:1447   */\n      dup5\n        /* \"#utility.yul\":1429:1436   */\n      dup7\n        /* \"#utility.yul\":1425:1448   */\n      sub\n        /* \"#utility.yul\":1421:1453   */\n      slt\n        /* \"#utility.yul\":1418:1420   */\n      iszero\n      tag_408\n      jumpi\n        /* \"#utility.yul\":1471:1477   */\n      dup1\n        /* \"#utility.yul\":1463:1469   */\n      dup2\n        /* \"#utility.yul\":1456:1478   */\n      revert\n        /* \"#utility.yul\":1418:1420   */\n    tag_408:\n        /* \"#utility.yul\":1499:1528   */\n      tag_409\n        /* \"#utility.yul\":1518:1527   */\n      dup5\n        /* \"#utility.yul\":1499:1528   */\n      tag_397\n      jump\t// in\n    tag_409:\n        /* \"#utility.yul\":1489:1528   */\n      swap3\n      pop\n        /* \"#utility.yul\":1547:1585   */\n      tag_410\n        /* \"#utility.yul\":1581:1583   */\n      0x20\n        /* \"#utility.yul\":1570:1579   */\n      dup6\n        /* \"#utility.yul\":1566:1584   */\n      add\n        /* \"#utility.yul\":1547:1585   */\n      tag_397\n      jump\t// in\n    tag_410:\n        /* \"#utility.yul\":1537:1585   */\n      swap2\n      pop\n        /* \"#utility.yul\":1632:1634   */\n      0x40\n        /* \"#utility.yul\":1621:1630   */\n      dup5\n        /* \"#utility.yul\":1617:1635   */\n      add\n        /* \"#utility.yul\":1604:1636   */\n      calldataload\n        /* \"#utility.yul\":1594:1636   */\n      swap1\n      pop\n        /* \"#utility.yul\":1408:1642   */\n      swap3\n      pop\n      swap3\n      pop\n      swap3\n      jump\t// out\n        /* \"#utility.yul\":1647:2343   */\n    tag_78:\n        /* \"#utility.yul\":1742:1748   */\n      0x00\n        /* \"#utility.yul\":1750:1756   */\n      dup1\n        /* \"#utility.yul\":1758:1764   */\n      0x00\n        /* \"#utility.yul\":1766:1772   */\n      dup1\n        /* \"#utility.yul\":1819:1822   */\n      0x80\n        /* \"#utility.yul\":1807:1816   */\n      dup6\n        /* \"#utility.yul\":1798:1805   */\n      dup8\n        /* \"#utility.yul\":1794:1817   */\n      sub\n        /* \"#utility.yul\":1790:1823   */\n      slt\n        /* \"#utility.yul\":1787:1789   */\n      iszero\n      tag_412\n      jumpi\n        /* \"#utility.yul\":1841:1847   */\n      dup1\n        /* \"#utility.yul\":1833:1839   */\n      dup2\n        /* \"#utility.yul\":1826:1848   */\n      revert\n        /* \"#utility.yul\":1787:1789   */\n    tag_412:\n        /* \"#utility.yul\":1869:1898   */\n      tag_413\n        /* \"#utility.yul\":1888:1897   */\n      dup6\n        /* \"#utility.yul\":1869:1898   */\n      tag_397\n      jump\t// in\n    tag_413:\n        /* \"#utility.yul\":1859:1898   */\n      swap4\n      pop\n        /* \"#utility.yul\":1917:1955   */\n      tag_414\n        /* \"#utility.yul\":1951:1953   */\n      0x20\n        /* \"#utility.yul\":1940:1949   */\n      dup7\n        /* \"#utility.yul\":1936:1954   */\n      add\n        /* \"#utility.yul\":1917:1955   */\n      tag_397\n      jump\t// in\n    tag_414:\n        /* \"#utility.yul\":1907:1955   */\n      swap3\n      pop\n        /* \"#utility.yul\":2002:2004   */\n      0x40\n        /* \"#utility.yul\":1991:2000   */\n      dup6\n        /* \"#utility.yul\":1987:2005   */\n      add\n        /* \"#utility.yul\":1974:2006   */\n      calldataload\n        /* \"#utility.yul\":1964:2006   */\n      swap2\n      pop\n        /* \"#utility.yul\":2057:2059   */\n      0x60\n        /* \"#utility.yul\":2046:2055   */\n      dup6\n        /* \"#utility.yul\":2042:2060   */\n      add\n        /* \"#utility.yul\":2029:2061   */\n      calldataload\n        /* \"#utility.yul\":2084:2102   */\n      0xffffffffffffffff\n        /* \"#utility.yul\":2076:2082   */\n      dup2\n        /* \"#utility.yul\":2073:2103   */\n      gt\n        /* \"#utility.yul\":2070:2072   */\n      iszero\n      tag_415\n      jumpi\n        /* \"#utility.yul\":2121:2127   */\n      dup2\n        /* \"#utility.yul\":2113:2119   */\n      dup3\n        /* \"#utility.yul\":2106:2128   */\n      revert\n        /* \"#utility.yul\":2070:2072   */\n    tag_415:\n        /* \"#utility.yul\":2149:2171   */\n      dup6\n      add\n        /* \"#utility.yul\":2202:2206   */\n      0x1f\n        /* \"#utility.yul\":2194:2207   */\n      dup2\n      add\n        /* \"#utility.yul\":2190:2217   */\n      dup8\n      sgt\n        /* \"#utility.yul\":2180:2182   */\n      tag_416\n      jumpi\n        /* \"#utility.yul\":2236:2242   */\n      dup2\n        /* \"#utility.yul\":2228:2234   */\n      dup3\n        /* \"#utility.yul\":2221:2243   */\n      revert\n        /* \"#utility.yul\":2180:2182   */\n    tag_416:\n        /* \"#utility.yul\":2264:2337   */\n      tag_417\n        /* \"#utility.yul\":2329:2336   */\n      dup8\n        /* \"#utility.yul\":2324:2326   */\n      dup3\n        /* \"#utility.yul\":2311:2327   */\n      calldataload\n        /* \"#utility.yul\":2306:2308   */\n      0x20\n        /* \"#utility.yul\":2302:2304   */\n      dup5\n        /* \"#utility.yul\":2298:2309   */\n      add\n        /* \"#utility.yul\":2264:2337   */\n      tag_389\n      jump\t// in\n    tag_417:\n        /* \"#utility.yul\":2254:2337   */\n      swap2\n      pop\n      pop\n        /* \"#utility.yul\":1777:2343   */\n      swap3\n      swap6\n      swap2\n      swap5\n      pop\n      swap3\n      pop\n      jump\t// out\n        /* \"#utility.yul\":2348:2715   */\n    tag_74:\n        /* \"#utility.yul\":2413:2419   */\n      0x00\n        /* \"#utility.yul\":2421:2427   */\n      dup1\n        /* \"#utility.yul\":2474:2476   */\n      0x40\n        /* \"#utility.yul\":2462:2471   */\n      dup4\n        /* \"#utility.yul\":2453:2460   */\n      dup6\n        /* \"#utility.yul\":2449:2472   */\n      sub\n        /* \"#utility.yul\":2445:2477   */\n      slt\n        /* \"#utility.yul\":2442:2444   */\n      iszero\n      tag_419\n      jumpi\n        /* \"#utility.yul\":2495:2501   */\n      dup2\n        /* \"#utility.yul\":2487:2493   */\n      dup3\n        /* \"#utility.yul\":2480:2502   */\n      revert\n        /* \"#utility.yul\":2442:2444   */\n    tag_419:\n        /* \"#utility.yul\":2523:2552   */\n      tag_420\n        /* \"#utility.yul\":2542:2551   */\n      dup4\n        /* \"#utility.yul\":2523:2552   */\n      tag_397\n      jump\t// in\n    tag_420:\n        /* \"#utility.yul\":2513:2552   */\n      swap2\n      pop\n        /* \"#utility.yul\":2602:2604   */\n      0x20\n        /* \"#utility.yul\":2591:2600   */\n      dup4\n        /* \"#utility.yul\":2587:2605   */\n      add\n        /* \"#utility.yul\":2574:2606   */\n      calldataload\n        /* \"#utility.yul\":2649:2654   */\n      dup1\n        /* \"#utility.yul\":2642:2655   */\n      iszero\n        /* \"#utility.yul\":2635:2656   */\n      iszero\n        /* \"#utility.yul\":2628:2633   */\n      dup2\n        /* \"#utility.yul\":2625:2657   */\n      eq\n        /* \"#utility.yul\":2615:2617   */\n      tag_421\n      jumpi\n        /* \"#utility.yul\":2676:2682   */\n      dup2\n        /* \"#utility.yul\":2668:2674   */\n      dup3\n        /* \"#utility.yul\":2661:2683   */\n      revert\n        /* \"#utility.yul\":2615:2617   */\n    tag_421:\n        /* \"#utility.yul\":2704:2709   */\n      dup1\n        /* \"#utility.yul\":2694:2709   */\n      swap2\n      pop\n      pop\n        /* \"#utility.yul\":2432:2715   */\n      swap3\n      pop\n      swap3\n      swap1\n      pop\n      jump\t// out\n        /* \"#utility.yul\":2720:3274   */\n    tag_86:\n        /* \"#utility.yul\":2798:2804   */\n      0x00\n        /* \"#utility.yul\":2806:2812   */\n      dup1\n        /* \"#utility.yul\":2859:2861   */\n      0x40\n        /* \"#utility.yul\":2847:2856   */\n      dup4\n        /* \"#utility.yul\":2838:2845   */\n      dup6\n        /* \"#utility.yul\":2834:2857   */\n      sub\n        /* \"#utility.yul\":2830:2862   */\n      slt\n        /* \"#utility.yul\":2827:2829   */\n      iszero\n      tag_423\n      jumpi\n        /* \"#utility.yul\":2880:2886   */\n      dup2\n        /* \"#utility.yul\":2872:2878   */\n      dup3\n        /* \"#utility.yul\":2865:2887   */\n      revert\n        /* \"#utility.yul\":2827:2829   */\n    tag_423:\n        /* \"#utility.yul\":2908:2937   */\n      tag_424\n        /* \"#utility.yul\":2927:2936   */\n      dup4\n        /* \"#utility.yul\":2908:2937   */\n      tag_397\n      jump\t// in\n    tag_424:\n        /* \"#utility.yul\":2898:2937   */\n      swap2\n      pop\n        /* \"#utility.yul\":2988:2990   */\n      0x20\n        /* \"#utility.yul\":2977:2986   */\n      dup4\n        /* \"#utility.yul\":2973:2991   */\n      add\n        /* \"#utility.yul\":2960:2992   */\n      calldataload\n        /* \"#utility.yul\":3015:3033   */\n      0xffffffffffffffff\n        /* \"#utility.yul\":3007:3013   */\n      dup2\n        /* \"#utility.yul\":3004:3034   */\n      gt\n        /* \"#utility.yul\":3001:3003   */\n      iszero\n      tag_425\n      jumpi\n        /* \"#utility.yul\":3052:3058   */\n      dup2\n        /* \"#utility.yul\":3044:3050   */\n      dup3\n        /* \"#utility.yul\":3037:3059   */\n      revert\n        /* \"#utility.yul\":3001:3003   */\n    tag_425:\n        /* \"#utility.yul\":3080:3102   */\n      dup4\n      add\n        /* \"#utility.yul\":3133:3137   */\n      0x1f\n        /* \"#utility.yul\":3125:3138   */\n      dup2\n      add\n        /* \"#utility.yul\":3121:3148   */\n      dup6\n      sgt\n        /* \"#utility.yul\":3111:3113   */\n      tag_426\n      jumpi\n        /* \"#utility.yul\":3167:3173   */\n      dup2\n        /* \"#utility.yul\":3159:3165   */\n      dup3\n        /* \"#utility.yul\":3152:3174   */\n      revert\n        /* \"#utility.yul\":3111:3113   */\n    tag_426:\n        /* \"#utility.yul\":3195:3268   */\n      tag_427\n        /* \"#utility.yul\":3260:3267   */\n      dup6\n        /* \"#utility.yul\":3255:3257   */\n      dup3\n        /* \"#utility.yul\":3242:3258   */\n      calldataload\n        /* \"#utility.yul\":3237:3239   */\n      0x20\n        /* \"#utility.yul\":3233:3235   */\n      dup5\n        /* \"#utility.yul\":3229:3240   */\n      add\n        /* \"#utility.yul\":3195:3268   */\n      tag_389\n      jump\t// in\n    tag_427:\n        /* \"#utility.yul\":3185:3268   */\n      swap2\n      pop\n      pop\n        /* \"#utility.yul\":2817:3274   */\n      swap3\n      pop\n      swap3\n      swap1\n      pop\n      jump\t// out\n        /* \"#utility.yul\":3279:3543   */\n    tag_42:\n        /* \"#utility.yul\":3347:3353   */\n      0x00\n        /* \"#utility.yul\":3355:3361   */\n      dup1\n        /* \"#utility.yul\":3408:3410   */\n      0x40\n        /* \"#utility.yul\":3396:3405   */\n      dup4\n        /* \"#utility.yul\":3387:3394   */\n      dup6\n        /* \"#utility.yul\":3383:3406   */\n      sub\n        /* \"#utility.yul\":3379:3411   */\n      slt\n        /* \"#utility.yul\":3376:3378   */\n      iszero\n      tag_429\n      jumpi\n        /* \"#utility.yul\":3429:3435   */\n      dup2\n        /* \"#utility.yul\":3421:3427   */\n      dup3\n        /* \"#utility.yul\":3414:3436   */\n      revert\n        /* \"#utility.yul\":3376:3378   */\n    tag_429:\n        /* \"#utility.yul\":3457:3486   */\n      tag_430\n        /* \"#utility.yul\":3476:3485   */\n      dup4\n        /* \"#utility.yul\":3457:3486   */\n      tag_397\n      jump\t// in\n    tag_430:\n        /* \"#utility.yul\":3447:3486   */\n      swap5\n        /* \"#utility.yul\":3533:3535   */\n      0x20\n        /* \"#utility.yul\":3518:3536   */\n      swap4\n      swap1\n      swap4\n      add\n        /* \"#utility.yul\":3505:3537   */\n      calldataload\n      swap4\n      pop\n      pop\n      pop\n        /* \"#utility.yul\":3366:3543   */\n      jump\t// out\n        /* \"#utility.yul\":3548:3803   */\n    tag_26:\n        /* \"#utility.yul\":3606:3612   */\n      0x00\n        /* \"#utility.yul\":3659:3661   */\n      0x20\n        /* \"#utility.yul\":3647:3656   */\n      dup3\n        /* \"#utility.yul\":3638:3645   */\n      dup5\n        /* \"#utility.yul\":3634:3657   */\n      sub\n        /* \"#utility.yul\":3630:3662   */\n      slt\n        /* \"#utility.yul\":3627:3629   */\n      iszero\n      tag_432\n      jumpi\n        /* \"#utility.yul\":3680:3686   */\n      dup1\n        /* \"#utility.yul\":3672:3678   */\n      dup2\n        /* \"#utility.yul\":3665:3687   */\n      revert\n        /* \"#utility.yul\":3627:3629   */\n    tag_432:\n        /* \"#utility.yul\":3724:3733   */\n      dup2\n        /* \"#utility.yul\":3711:3734   */\n      calldataload\n        /* \"#utility.yul\":3743:3773   */\n      tag_328\n        /* \"#utility.yul\":3767:3772   */\n      dup2\n        /* \"#utility.yul\":3743:3773   */\n      tag_434\n      jump\t// in\n        /* \"#utility.yul\":3808:4067   */\n    tag_308:\n        /* \"#utility.yul\":3877:3883   */\n      0x00\n        /* \"#utility.yul\":3930:3932   */\n      0x20\n        /* \"#utility.yul\":3918:3927   */\n      dup3\n        /* \"#utility.yul\":3909:3916   */\n      dup5\n        /* \"#utility.yul\":3905:3928   */\n      sub\n        /* \"#utility.yul\":3901:3933   */\n      slt\n        /* \"#utility.yul\":3898:3900   */\n      iszero\n      tag_436\n      jumpi\n        /* \"#utility.yul\":3951:3957   */\n      dup1\n        /* \"#utility.yul\":3943:3949   */\n      dup2\n        /* \"#utility.yul\":3936:3958   */\n      revert\n        /* \"#utility.yul\":3898:3900   */\n    tag_436:\n        /* \"#utility.yul\":3988:3997   */\n      dup2\n        /* \"#utility.yul\":3982:3998   */\n      mload\n        /* \"#utility.yul\":4007:4037   */\n      tag_328\n        /* \"#utility.yul\":4031:4036   */\n      dup2\n        /* \"#utility.yul\":4007:4037   */\n      tag_434\n      jump\t// in\n        /* \"#utility.yul\":4072:4262   */\n    tag_36:\n        /* \"#utility.yul\":4131:4137   */\n      0x00\n        /* \"#utility.yul\":4184:4186   */\n      0x20\n        /* \"#utility.yul\":4172:4181   */\n      dup3\n        /* \"#utility.yul\":4163:4170   */\n      dup5\n        /* \"#utility.yul\":4159:4182   */\n      sub\n        /* \"#utility.yul\":4155:4187   */\n      slt\n        /* \"#utility.yul\":4152:4154   */\n      iszero\n      tag_439\n      jumpi\n        /* \"#utility.yul\":4205:4211   */\n      dup1\n        /* \"#utility.yul\":4197:4203   */\n      dup2\n        /* \"#utility.yul\":4190:4212   */\n      revert\n        /* \"#utility.yul\":4152:4154   */\n    tag_439:\n      pop\n        /* \"#utility.yul\":4233:4256   */\n      calldataload\n      swap2\n        /* \"#utility.yul\":4142:4262   */\n      swap1\n      pop\n      jump\t// out\n        /* \"#utility.yul\":4267:4524   */\n    tag_440:\n        /* \"#utility.yul\":4308:4311   */\n      0x00\n        /* \"#utility.yul\":4346:4351   */\n      dup2\n        /* \"#utility.yul\":4340:4352   */\n      mload\n        /* \"#utility.yul\":4373:4379   */\n      dup1\n        /* \"#utility.yul\":4368:4371   */\n      dup5\n        /* \"#utility.yul\":4361:4380   */\n      mstore\n        /* \"#utility.yul\":4389:4452   */\n      tag_442\n        /* \"#utility.yul\":4445:4451   */\n      dup2\n        /* \"#utility.yul\":4438:4442   */\n      0x20\n        /* \"#utility.yul\":4433:4436   */\n      dup7\n        /* \"#utility.yul\":4429:4443   */\n      add\n        /* \"#utility.yul\":4422:4426   */\n      0x20\n        /* \"#utility.yul\":4415:4420   */\n      dup7\n        /* \"#utility.yul\":4411:4427   */\n      add\n        /* \"#utility.yul\":4389:4452   */\n      tag_443\n      jump\t// in\n    tag_442:\n        /* \"#utility.yul\":4506:4508   */\n      0x1f\n        /* \"#utility.yul\":4485:4500   */\n      add\n      not(0x1f)\n        /* \"#utility.yul\":4481:4510   */\n      and\n        /* \"#utility.yul\":4472:4511   */\n      swap3\n      swap1\n      swap3\n      add\n        /* \"#utility.yul\":4513:4517   */\n      0x20\n        /* \"#utility.yul\":4468:4518   */\n      add\n      swap3\n        /* \"#utility.yul\":4316:4524   */\n      swap2\n      pop\n      pop\n      jump\t// out\n        /* \"#utility.yul\":4529:4999   */\n    tag_274:\n        /* \"#utility.yul\":4708:4711   */\n      0x00\n        /* \"#utility.yul\":4746:4752   */\n      dup4\n        /* \"#utility.yul\":4740:4753   */\n      mload\n        /* \"#utility.yul\":4762:4815   */\n      tag_445\n        /* \"#utility.yul\":4808:4814   */\n      dup2\n        /* \"#utility.yul\":4803:4806   */\n      dup5\n        /* \"#utility.yul\":4796:4800   */\n      0x20\n        /* \"#utility.yul\":4788:4794   */\n      dup9\n        /* \"#utility.yul\":4784:4801   */\n      add\n        /* \"#utility.yul\":4762:4815   */\n      tag_443\n      jump\t// in\n    tag_445:\n        /* \"#utility.yul\":4878:4891   */\n      dup4\n      mload\n        /* \"#utility.yul\":4837:4853   */\n      swap1\n      dup4\n      add\n      swap1\n        /* \"#utility.yul\":4900:4957   */\n      tag_446\n        /* \"#utility.yul\":4878:4891   */\n      dup2\n        /* \"#utility.yul\":4837:4853   */\n      dup4\n        /* \"#utility.yul\":4934:4938   */\n      0x20\n        /* \"#utility.yul\":4922:4939   */\n      dup9\n      add\n        /* \"#utility.yul\":4900:4957   */\n      tag_443\n      jump\t// in\n    tag_446:\n        /* \"#utility.yul\":4973:4993   */\n      add\n      swap5\n        /* \"#utility.yul\":4716:4999   */\n      swap4\n      pop\n      pop\n      pop\n      pop\n      jump\t// out\n        /* \"#utility.yul\":5212:5700   */\n    tag_304:\n      sub(shl(0xa0, 0x01), 0x01)\n        /* \"#utility.yul\":5481:5496   */\n      dup6\n      dup2\n      and\n        /* \"#utility.yul\":5463:5497   */\n      dup3\n      mstore\n        /* \"#utility.yul\":5533:5548   */\n      dup5\n      and\n        /* \"#utility.yul\":5528:5530   */\n      0x20\n        /* \"#utility.yul\":5513:5531   */\n      dup3\n      add\n        /* \"#utility.yul\":5506:5549   */\n      mstore\n        /* \"#utility.yul\":5580:5582   */\n      0x40\n        /* \"#utility.yul\":5565:5583   */\n      dup2\n      add\n        /* \"#utility.yul\":5558:5592   */\n      dup4\n      swap1\n      mstore\n        /* \"#utility.yul\":5628:5631   */\n      0x80\n        /* \"#utility.yul\":5623:5625   */\n      0x60\n        /* \"#utility.yul\":5608:5626   */\n      dup3\n      add\n        /* \"#utility.yul\":5601:5632   */\n      dup2\n      swap1\n      mstore\n        /* \"#utility.yul\":5406:5410   */\n      0x00\n      swap1\n        /* \"#utility.yul\":5649:5694   */\n      tag_449\n      swap1\n        /* \"#utility.yul\":5674:5693   */\n      dup4\n      add\n        /* \"#utility.yul\":5666:5672   */\n      dup5\n        /* \"#utility.yul\":5649:5694   */\n      tag_440\n      jump\t// in\n    tag_449:\n        /* \"#utility.yul\":5641:5694   */\n      swap7\n        /* \"#utility.yul\":5415:5700   */\n      swap6\n      pop\n      pop\n      pop\n      pop\n      pop\n      pop\n      jump\t// out\n        /* \"#utility.yul\":5897:6116   */\n    tag_33:\n        /* \"#utility.yul\":6046:6048   */\n      0x20\n        /* \"#utility.yul\":6035:6044   */\n      dup2\n        /* \"#utility.yul\":6028:6049   */\n      mstore\n        /* \"#utility.yul\":6009:6013   */\n      0x00\n        /* \"#utility.yul\":6066:6110   */\n      tag_328\n        /* \"#utility.yul\":6106:6108   */\n      0x20\n        /* \"#utility.yul\":6095:6104   */\n      dup4\n        /* \"#utility.yul\":6091:6109   */\n      add\n        /* \"#utility.yul\":6083:6089   */\n      dup5\n        /* \"#utility.yul\":6066:6110   */\n      tag_440\n      jump\t// in\n        /* \"#utility.yul\":6121:6535   */\n    tag_258:\n        /* \"#utility.yul\":6323:6325   */\n      0x20\n        /* \"#utility.yul\":6305:6326   */\n      dup1\n      dup3\n      mstore\n        /* \"#utility.yul\":6362:6364   */\n      0x32\n        /* \"#utility.yul\":6342:6360   */\n      swap1\n      dup3\n      add\n        /* \"#utility.yul\":6335:6365   */\n      mstore\n        /* \"#utility.yul\":6401:6435   */\n      0x4552433732313a207472616e7366657220746f206e6f6e204552433732315265\n        /* \"#utility.yul\":6396:6398   */\n      0x40\n        /* \"#utility.yul\":6381:6399   */\n      dup3\n      add\n        /* \"#utility.yul\":6374:6436   */\n      mstore\n      shl(0x71, 0x31b2b4bb32b91034b6b83632b6b2b73a32b9)\n        /* \"#utility.yul\":6467:6469   */\n      0x60\n        /* \"#utility.yul\":6452:6470   */\n      dup3\n      add\n        /* \"#utility.yul\":6445:6493   */\n      mstore\n        /* \"#utility.yul\":6525:6528   */\n      0x80\n        /* \"#utility.yul\":6510:6529   */\n      add\n      swap1\n        /* \"#utility.yul\":6295:6535   */\n      jump\t// out\n        /* \"#utility.yul\":11735:12091   */\n    tag_161:\n        /* \"#utility.yul\":11937:11939   */\n      0x20\n        /* \"#utility.yul\":11919:11940   */\n      dup1\n      dup3\n      mstore\n        /* \"#utility.yul\":11956:11974   */\n      dup2\n      dup2\n      add\n        /* \"#utility.yul\":11949:11979   */\n      mstore\n        /* \"#utility.yul\":12015:12049   */\n      0x4f776e61626c653a2063616c6c6572206973206e6f7420746865206f776e6572\n        /* \"#utility.yul\":12010:12012   */\n      0x40\n        /* \"#utility.yul\":11995:12013   */\n      dup3\n      add\n        /* \"#utility.yul\":11988:12050   */\n      mstore\n        /* \"#utility.yul\":12082:12084   */\n      0x60\n        /* \"#utility.yul\":12067:12085   */\n      add\n      swap1\n        /* \"#utility.yul\":11909:12091   */\n      jump\t// out\n        /* \"#utility.yul\":12914:13327   */\n    tag_135:\n        /* \"#utility.yul\":13116:13118   */\n      0x20\n        /* \"#utility.yul\":13098:13119   */\n      dup1\n      dup3\n      mstore\n        /* \"#utility.yul\":13155:13157   */\n      0x31\n        /* \"#utility.yul\":13135:13153   */\n      swap1\n      dup3\n      add\n        /* \"#utility.yul\":13128:13158   */\n      mstore\n        /* \"#utility.yul\":13194:13228   */\n      0x4552433732313a207472616e736665722063616c6c6572206973206e6f74206f\n        /* \"#utility.yul\":13189:13191   */\n      0x40\n        /* \"#utility.yul\":13174:13192   */\n      dup3\n      add\n        /* \"#utility.yul\":13167:13229   */\n      mstore\n      shl(0x7a, 0x1ddb995c881b9bdc88185c1c1c9bdd9959)\n        /* \"#utility.yul\":13260:13262   */\n      0x60\n        /* \"#utility.yul\":13245:13263   */\n      dup3\n      add\n        /* \"#utility.yul\":13238:13285   */\n      mstore\n        /* \"#utility.yul\":13317:13320   */\n      0x80\n        /* \"#utility.yul\":13302:13321   */\n      add\n      swap1\n        /* \"#utility.yul\":13088:13327   */\n      jump\t// out\n        /* \"#utility.yul\":13931:14059   */\n    tag_240:\n        /* \"#utility.yul\":13971:13974   */\n      0x00\n        /* \"#utility.yul\":14002:14003   */\n      dup3\n        /* \"#utility.yul\":13998:14004   */\n      not\n        /* \"#utility.yul\":13995:13996   */\n      dup3\n        /* \"#utility.yul\":13992:14005   */\n      gt\n        /* \"#utility.yul\":13989:13991   */\n      iszero\n      tag_475\n      jumpi\n        /* \"#utility.yul\":14008:14026   */\n      tag_475\n      tag_476\n      jump\t// in\n    tag_475:\n      pop\n        /* \"#utility.yul\":14044:14053   */\n      add\n      swap1\n        /* \"#utility.yul\":13979:14059   */\n      jump\t// out\n        /* \"#utility.yul\":14064:14184   */\n    tag_352:\n        /* \"#utility.yul\":14104:14105   */\n      0x00\n        /* \"#utility.yul\":14130:14131   */\n      dup3\n        /* \"#utility.yul\":14120:14122   */\n      tag_479\n      jumpi\n        /* \"#utility.yul\":14135:14153   */\n      tag_479\n      tag_480\n      jump\t// in\n    tag_479:\n      pop\n        /* \"#utility.yul\":14169:14178   */\n      div\n      swap1\n        /* \"#utility.yul\":14110:14184   */\n      jump\t// out\n        /* \"#utility.yul\":14189:14314   */\n    tag_238:\n        /* \"#utility.yul\":14229:14233   */\n      0x00\n        /* \"#utility.yul\":14257:14258   */\n      dup3\n        /* \"#utility.yul\":14254:14255   */\n      dup3\n        /* \"#utility.yul\":14251:14259   */\n      lt\n        /* \"#utility.yul\":14248:14250   */\n      iszero\n      tag_483\n      jumpi\n        /* \"#utility.yul\":14262:14280   */\n      tag_483\n      tag_476\n      jump\t// in\n    tag_483:\n      pop\n        /* \"#utility.yul\":14299:14308   */\n      sub\n      swap1\n        /* \"#utility.yul\":14238:14314   */\n      jump\t// out\n        /* \"#utility.yul\":14319:14577   */\n    tag_443:\n        /* \"#utility.yul\":14391:14392   */\n      0x00\n        /* \"#utility.yul\":14401:14514   */\n    tag_485:\n        /* \"#utility.yul\":14415:14421   */\n      dup4\n        /* \"#utility.yul\":14412:14413   */\n      dup2\n        /* \"#utility.yul\":14409:14422   */\n      lt\n        /* \"#utility.yul\":14401:14514   */\n      iszero\n      tag_487\n      jumpi\n        /* \"#utility.yul\":14491:14502   */\n      dup2\n      dup2\n      add\n        /* \"#utility.yul\":14485:14503   */\n      mload\n        /* \"#utility.yul\":14472:14483   */\n      dup4\n      dup3\n      add\n        /* \"#utility.yul\":14465:14504   */\n      mstore\n        /* \"#utility.yul\":14437:14439   */\n      0x20\n        /* \"#utility.yul\":14430:14440   */\n      add\n        /* \"#utility.yul\":14401:14514   */\n      jump(tag_485)\n    tag_487:\n        /* \"#utility.yul\":14532:14538   */\n      dup4\n        /* \"#utility.yul\":14529:14530   */\n      dup2\n        /* \"#utility.yul\":14526:14539   */\n      gt\n        /* \"#utility.yul\":14523:14525   */\n      iszero\n      tag_181\n      jumpi\n      pop\n      pop\n        /* \"#utility.yul\":14567:14568   */\n      0x00\n        /* \"#utility.yul\":14549:14565   */\n      swap2\n      add\n        /* \"#utility.yul\":14542:14569   */\n      mstore\n        /* \"#utility.yul\":14372:14577   */\n      jump\t// out\n        /* \"#utility.yul\":14582:14962   */\n    tag_103:\n        /* \"#utility.yul\":14661:14662   */\n      0x01\n        /* \"#utility.yul\":14657:14669   */\n      dup2\n      dup2\n      shr\n      swap1\n        /* \"#utility.yul\":14704:14716   */\n      dup3\n      and\n      dup1\n        /* \"#utility.yul\":14725:14727   */\n      tag_490\n      jumpi\n        /* \"#utility.yul\":14779:14783   */\n      0x7f\n        /* \"#utility.yul\":14771:14777   */\n      dup3\n        /* \"#utility.yul\":14767:14784   */\n      and\n        /* \"#utility.yul\":14757:14784   */\n      swap2\n      pop\n        /* \"#utility.yul\":14725:14727   */\n    tag_490:\n        /* \"#utility.yul\":14832:14834   */\n      0x20\n        /* \"#utility.yul\":14824:14830   */\n      dup3\n        /* \"#utility.yul\":14821:14835   */\n      lt\n        /* \"#utility.yul\":14801:14819   */\n      dup2\n        /* \"#utility.yul\":14798:14836   */\n      eq\n        /* \"#utility.yul\":14795:14797   */\n      iszero\n      tag_491\n      jumpi\n        /* \"#utility.yul\":14878:14888   */\n      0x4e487b71\n        /* \"#utility.yul\":14873:14876   */\n      0xe0\n        /* \"#utility.yul\":14869:14889   */\n      shl\n        /* \"#utility.yul\":14866:14867   */\n      0x00\n        /* \"#utility.yul\":14859:14890   */\n      mstore\n        /* \"#utility.yul\":14913:14917   */\n      0x22\n        /* \"#utility.yul\":14910:14911   */\n      0x04\n        /* \"#utility.yul\":14903:14918   */\n      mstore\n        /* \"#utility.yul\":14941:14945   */\n      0x24\n        /* \"#utility.yul\":14938:14939   */\n      0x00\n        /* \"#utility.yul\":14931:14946   */\n      revert\n        /* \"#utility.yul\":14795:14797   */\n    tag_491:\n      pop\n        /* \"#utility.yul\":14637:14962   */\n      swap2\n      swap1\n      pop\n      jump\t// out\n        /* \"#utility.yul\":14967:15102   */\n    tag_350:\n        /* \"#utility.yul\":15006:15009   */\n      0x00\n      not(0x00)\n        /* \"#utility.yul\":15027:15044   */\n      dup3\n      eq\n        /* \"#utility.yul\":15024:15026   */\n      iszero\n      tag_494\n      jumpi\n        /* \"#utility.yul\":15047:15065   */\n      tag_494\n      tag_476\n      jump\t// in\n    tag_494:\n      pop\n        /* \"#utility.yul\":15094:15095   */\n      0x01\n        /* \"#utility.yul\":15083:15096   */\n      add\n      swap1\n        /* \"#utility.yul\":15014:15102   */\n      jump\t// out\n        /* \"#utility.yul\":15107:15219   */\n    tag_359:\n        /* \"#utility.yul\":15139:15140   */\n      0x00\n        /* \"#utility.yul\":15165:15166   */\n      dup3\n        /* \"#utility.yul\":15155:15157   */\n      tag_497\n      jumpi\n        /* \"#utility.yul\":15170:15188   */\n      tag_497\n      tag_480\n      jump\t// in\n    tag_497:\n      pop\n        /* \"#utility.yul\":15204:15213   */\n      mod\n      swap1\n        /* \"#utility.yul\":15145:15219   */\n      jump\t// out\n        /* \"#utility.yul\":15224:15351   */\n    tag_476:\n        /* \"#utility.yul\":15285:15295   */\n      0x4e487b71\n        /* \"#utility.yul\":15280:15283   */\n      0xe0\n        /* \"#utility.yul\":15276:15296   */\n      shl\n        /* \"#utility.yul\":15273:15274   */\n      0x00\n        /* \"#utility.yul\":15266:15297   */\n      mstore\n        /* \"#utility.yul\":15316:15320   */\n      0x11\n        /* \"#utility.yul\":15313:15314   */\n      0x04\n        /* \"#utility.yul\":15306:15321   */\n      mstore\n        /* \"#utility.yul\":15340:15344   */\n      0x24\n        /* \"#utility.yul\":15337:15338   */\n      0x00\n        /* \"#utility.yul\":15330:15345   */\n      revert\n        /* \"#utility.yul\":15356:15483   */\n    tag_480:\n        /* \"#utility.yul\":15417:15427   */\n      0x4e487b71\n        /* \"#utility.yul\":15412:15415   */\n      0xe0\n        /* \"#utility.yul\":15408:15428   */\n      shl\n        /* \"#utility.yul\":15405:15406   */\n      0x00\n        /* \"#utility.yul\":15398:15429   */\n      mstore\n        /* \"#utility.yul\":15448:15452   */\n      0x12\n        /* \"#utility.yul\":15445:15446   */\n      0x04\n        /* \"#utility.yul\":15438:15453   */\n      mstore\n        /* \"#utility.yul\":15472:15476   */\n      0x24\n        /* \"#utility.yul\":15469:15470   */\n      0x00\n        /* \"#utility.yul\":15462:15477   */\n      revert\n        /* \"#utility.yul\":15488:15615   */\n    tag_393:\n        /* \"#utility.yul\":15549:15559   */\n      0x4e487b71\n        /* \"#utility.yul\":15544:15547   */\n      0xe0\n        /* \"#utility.yul\":15540:15560   */\n      shl\n        /* \"#utility.yul\":15537:15538   */\n      0x00\n        /* \"#utility.yul\":15530:15561   */\n      mstore\n        /* \"#utility.yul\":15580:15584   */\n      0x41\n        /* \"#utility.yul\":15577:15578   */\n      0x04\n        /* \"#utility.yul\":15570:15585   */\n      mstore\n        /* \"#utility.yul\":15604:15608   */\n      0x24\n        /* \"#utility.yul\":15601:15602   */\n      0x00\n        /* \"#utility.yul\":15594:15609   */\n      revert\n        /* \"#utility.yul\":15620:15751   */\n    tag_434:\n      not(sub(shl(0xe0, 0x01), 0x01))\n        /* \"#utility.yul\":15694:15726   */\n      dup2\n      and\n        /* \"#utility.yul\":15684:15727   */\n      dup2\n      eq\n        /* \"#utility.yul\":15674:15676   */\n      tag_146\n      jumpi\n        /* \"#utility.yul\":15741:15742   */\n      0x00\n        /* \"#utility.yul\":15738:15739   */\n      dup1\n        /* \"#utility.yul\":15731:15743   */\n      revert\n\n    auxdata: 0xa2646970667358221220a9666abf8f19421d30beac4a563898225c071e76b0b5b6760812f14cf944113664736f6c63430008040033\n}\n",
				"bytecode": {
					"linkReferences": {},
					"object": "60806040523480156200001157600080fd5b50604080518082018252600b81526a10985b9ad8589b1953919560aa1b6020808301918252835180850190945260048452631093919560e21b9084015281519192916200006191600091620000f0565b50805162000077906001906020840190620000f0565b505050620000946200008e6200009a60201b60201c565b6200009e565b620001d3565b3390565b600780546001600160a01b038381166001600160a01b0319831681179093556040519116919082907f8be0079c531659141344cd1fd0a4f28419497f9722a3daafe3b4186f6b6457e090600090a35050565b828054620000fe9062000196565b90600052602060002090601f0160209004810192826200012257600085556200016d565b82601f106200013d57805160ff19168380011785556200016d565b828001600101855582156200016d579182015b828111156200016d57825182559160200191906001019062000150565b506200017b9291506200017f565b5090565b5b808211156200017b576000815560010162000180565b600181811c90821680620001ab57607f821691505b60208210811415620001cd57634e487b7160e01b600052602260045260246000fd5b50919050565b611ab480620001e36000396000f3fe608060405234801561001057600080fd5b50600436106101165760003560e01c8063715018a6116100a2578063b88d4fde11610071578063b88d4fde14610239578063c87b56dd1461024c578063d204c45e1461025f578063e985e9c514610272578063f2fde38b146102ae57600080fd5b8063715018a6146102055780638da5cb5b1461020d57806395d89b411461021e578063a22cb4651461022657600080fd5b806323b872dd116100e957806323b872dd1461019857806342842e0e146101ab57806342966c68146101be5780636352211e146101d157806370a08231146101e457600080fd5b806301ffc9a71461011b57806306fdde0314610143578063081812fc14610158578063095ea7b314610183575b600080fd5b61012e61012936600461177a565b6102c1565b60405190151581526020015b60405180910390f35b61014b610313565b60405161013a9190611862565b61016b6101663660046117b2565b6103a5565b6040516001600160a01b03909116815260200161013a565b610196610191366004611751565b610432565b005b6101966101a6366004611604565b610548565b6101966101b9366004611604565b61057a565b6101966101cc3660046117b2565b610595565b61016b6101df3660046117b2565b61060f565b6101f76101f23660046115b8565b610686565b60405190815260200161013a565b61019661070d565b6007546001600160a01b031661016b565b61014b610743565b6101966102343660046116b8565b610752565b61019661024736600461163f565b610761565b61014b61025a3660046117b2565b610799565b61019661026d3660046116f2565b6107a4565b61012e6102803660046115d2565b6001600160a01b03918216600090815260056020908152604080832093909416825291909152205460ff1690565b6101966102bc3660046115b8565b6107fd565b60006001600160e01b031982166380ac58cd60e01b14806102f257506001600160e01b03198216635b5e139f60e01b145b8061030d57506301ffc9a760e01b6001600160e01b03198316145b92915050565b606060008054610322906119bc565b80601f016020809104026020016040519081016040528092919081815260200182805461034e906119bc565b801561039b5780601f106103705761010080835404028352916020019161039b565b820191906000526020600020905b81548152906001019060200180831161037e57829003601f168201915b5050505050905090565b60006103b082610895565b6104165760405162461bcd60e51b815260206004820152602c60248201527f4552433732313a20617070726f76656420717565727920666f72206e6f6e657860448201526b34b9ba32b73a103a37b5b2b760a11b60648201526084015b60405180910390fd5b506000908152600460205260409020546001600160a01b031690565b600061043d8261060f565b9050806001600160a01b0316836001600160a01b031614156104ab5760405162461bcd60e51b815260206004820152602160248201527f4552433732313a20617070726f76616c20746f2063757272656e74206f776e656044820152603960f91b606482015260840161040d565b336001600160a01b03821614806104c757506104c78133610280565b6105395760405162461bcd60e51b815260206004820152603860248201527f4552433732313a20617070726f76652063616c6c6572206973206e6f74206f7760448201527f6e6572206e6f7220617070726f76656420666f7220616c6c0000000000000000606482015260840161040d565b61054383836108b2565b505050565b610553335b82610920565b61056f5760405162461bcd60e51b815260040161040d906118fc565b610543838383610a0a565b61054383838360405180602001604052806000815250610761565b61059e3361054d565b6106035760405162461bcd60e51b815260206004820152603060248201527f4552433732314275726e61626c653a2063616c6c6572206973206e6f74206f7760448201526f1b995c881b9bdc88185c1c1c9bdd995960821b606482015260840161040d565b61060c81610ba6565b50565b6000818152600260205260408120546001600160a01b03168061030d5760405162461bcd60e51b815260206004820152602960248201527f4552433732313a206f776e657220717565727920666f72206e6f6e657869737460448201526832b73a103a37b5b2b760b91b606482015260840161040d565b60006001600160a01b0382166106f15760405162461bcd60e51b815260206004820152602a60248201527f4552433732313a2062616c616e636520717565727920666f7220746865207a65604482015269726f206164647265737360b01b606482015260840161040d565b506001600160a01b031660009081526003602052604090205490565b6007546001600160a01b031633146107375760405162461bcd60e51b815260040161040d906118c7565b6107416000610baf565b565b606060018054610322906119bc565b61075d338383610c01565b5050565b61076b3383610920565b6107875760405162461bcd60e51b815260040161040d906118fc565b61079384848484610cd0565b50505050565b606061030d82610d03565b6007546001600160a01b031633146107ce5760405162461bcd60e51b815260040161040d906118c7565b60006107d960085490565b90506107e9600880546001019055565b6107f38382610e72565b6105438183610e8c565b6007546001600160a01b031633146108275760405162461bcd60e51b815260040161040d906118c7565b6001600160a01b03811661088c5760405162461bcd60e51b815260206004820152602660248201527f4f776e61626c653a206e6577206f776e657220697320746865207a65726f206160448201526564647265737360d01b606482015260840161040d565b61060c81610baf565b6000908152600260205260409020546001600160a01b0316151590565b600081815260046020526040902080546001600160a01b0319166001600160a01b03841690811790915581906108e78261060f565b6001600160a01b03167f8c5be1e5ebec7d5bd14f71427d1e84f3dd0314c0f7b2291e5b200ac8c7c3b92560405160405180910390a45050565b600061092b82610895565b61098c5760405162461bcd60e51b815260206004820152602c60248201527f4552433732313a206f70657261746f7220717565727920666f72206e6f6e657860448201526b34b9ba32b73a103a37b5b2b760a11b606482015260840161040d565b60006109978361060f565b9050806001600160a01b0316846001600160a01b031614806109d25750836001600160a01b03166109c7846103a5565b6001600160a01b0316145b80610a0257506001600160a01b0380821660009081526005602090815260408083209388168352929052205460ff165b949350505050565b826001600160a01b0316610a1d8261060f565b6001600160a01b031614610a815760405162461bcd60e51b815260206004820152602560248201527f4552433732313a207472616e736665722066726f6d20696e636f72726563742060448201526437bbb732b960d91b606482015260840161040d565b6001600160a01b038216610ae35760405162461bcd60e51b8152602060048201526024808201527f4552433732313a207472616e7366657220746f20746865207a65726f206164646044820152637265737360e01b606482015260840161040d565b610aee6000826108b2565b6001600160a01b0383166000908152600360205260408120805460019290610b17908490611979565b90915550506001600160a01b0382166000908152600360205260408120805460019290610b4590849061194d565b909155505060008181526002602052604080822080546001600160a01b0319166001600160a01b0386811691821790925591518493918716917fddf252ad1be2c89b69c2b068fc378daa952ba7f163c4a11628f55a4df523b3ef91a4505050565b61060c81610f17565b600780546001600160a01b038381166001600160a01b0319831681179093556040519116919082907f8be0079c531659141344cd1fd0a4f28419497f9722a3daafe3b4186f6b6457e090600090a35050565b816001600160a01b0316836001600160a01b03161415610c635760405162461bcd60e51b815260206004820152601960248201527f4552433732313a20617070726f766520746f2063616c6c657200000000000000604482015260640161040d565b6001600160a01b03838116600081815260056020908152604080832094871680845294825291829020805460ff191686151590811790915591519182527f17307eab39ab6107e8899845ad3d59bd9653f200f220920489ca2b5937696c31910160405180910390a3505050565b610cdb848484610a0a565b610ce784848484610f57565b6107935760405162461bcd60e51b815260040161040d90611875565b6060610d0e82610895565b610d745760405162461bcd60e51b815260206004820152603160248201527f45524337323155524953746f726167653a2055524920717565727920666f72206044820152703737b732bc34b9ba32b73a103a37b5b2b760791b606482015260840161040d565b60008281526006602052604081208054610d8d906119bc565b80601f0160208091040260200160405190810160405280929190818152602001828054610db9906119bc565b8015610e065780601f10610ddb57610100808354040283529160200191610e06565b820191906000526020600020905b815481529060010190602001808311610de957829003601f168201915b505050505090506000610e2460408051602081019091526000815290565b9050805160001415610e37575092915050565b815115610e69578082604051602001610e519291906117f6565b60405160208183030381529060405292505050919050565b610a0284611064565b61075d82826040518060200160405280600081525061113c565b610e9582610895565b610ef85760405162461bcd60e51b815260206004820152602e60248201527f45524337323155524953746f726167653a2055524920736574206f66206e6f6e60448201526d32bc34b9ba32b73a103a37b5b2b760911b606482015260840161040d565b6000828152600660209081526040909120825161054392840190611457565b610f208161116f565b60008181526006602052604090208054610f39906119bc565b15905061060c57600081815260066020526040812061060c916114db565b60006001600160a01b0384163b1561105957604051630a85bd0160e11b81526001600160a01b0385169063150b7a0290610f9b903390899088908890600401611825565b602060405180830381600087803b158015610fb557600080fd5b505af1925050508015610fe5575060408051601f3d908101601f19168201909252610fe291810190611796565b60015b61103f573d808015611013576040519150601f19603f3d011682016040523d82523d6000602084013e611018565b606091505b5080516110375760405162461bcd60e51b815260040161040d90611875565b805181602001fd5b6001600160e01b031916630a85bd0160e11b149050610a02565b506001949350505050565b606061106f82610895565b6110d35760405162461bcd60e51b815260206004820152602f60248201527f4552433732314d657461646174613a2055524920717565727920666f72206e6f60448201526e3732bc34b9ba32b73a103a37b5b2b760891b606482015260840161040d565b60006110ea60408051602081019091526000815290565b9050600081511161110a5760405180602001604052806000815250611135565b806111148461120a565b6040516020016111259291906117f6565b6040516020818303038152906040525b9392505050565b6111468383611324565b6111536000848484610f57565b6105435760405162461bcd60e51b815260040161040d90611875565b600061117a8261060f565b90506111876000836108b2565b6001600160a01b03811660009081526003602052604081208054600192906111b0908490611979565b909155505060008281526002602052604080822080546001600160a01b0319169055518391906001600160a01b038416907fddf252ad1be2c89b69c2b068fc378daa952ba7f163c4a11628f55a4df523b3ef908390a45050565b60608161122e5750506040805180820190915260018152600360fc1b602082015290565b8160005b81156112585780611242816119f7565b91506112519050600a83611965565b9150611232565b60008167ffffffffffffffff81111561128157634e487b7160e01b600052604160045260246000fd5b6040519080825280601f01601f1916602001820160405280156112ab576020820181803683370190505b5090505b8415610a02576112c0600183611979565b91506112cd600a86611a12565b6112d890603061194d565b60f81b8183815181106112fb57634e487b7160e01b600052603260045260246000fd5b60200101906001600160f81b031916908160001a90535061131d600a86611965565b94506112af565b6001600160a01b03821661137a5760405162461bcd60e51b815260206004820181905260248201527f4552433732313a206d696e7420746f20746865207a65726f2061646472657373604482015260640161040d565b61138381610895565b156113d05760405162461bcd60e51b815260206004820152601c60248201527f4552433732313a20746f6b656e20616c7265616479206d696e74656400000000604482015260640161040d565b6001600160a01b03821660009081526003602052604081208054600192906113f990849061194d565b909155505060008181526002602052604080822080546001600160a01b0319166001600160a01b03861690811790915590518392907fddf252ad1be2c89b69c2b068fc378daa952ba7f163c4a11628f55a4df523b3ef908290a45050565b828054611463906119bc565b90600052602060002090601f01602090048101928261148557600085556114cb565b82601f1061149e57805160ff19168380011785556114cb565b828001600101855582156114cb579182015b828111156114cb5782518255916020019190600101906114b0565b506114d7929150611511565b5090565b5080546114e7906119bc565b6000825580601f106114f7575050565b601f01602090049060005260206000209081019061060c91905b5b808211156114d75760008155600101611512565b600067ffffffffffffffff8084111561154157611541611a52565b604051601f8501601f19908116603f0116810190828211818310171561156957611569611a52565b8160405280935085815286868601111561158257600080fd5b858560208301376000602087830101525050509392505050565b80356001600160a01b03811681146115b357600080fd5b919050565b6000602082840312156115c9578081fd5b6111358261159c565b600080604083850312156115e4578081fd5b6115ed8361159c565b91506115fb6020840161159c565b90509250929050565b600080600060608486031215611618578081fd5b6116218461159c565b925061162f6020850161159c565b9150604084013590509250925092565b60008060008060808587031215611654578081fd5b61165d8561159c565b935061166b6020860161159c565b925060408501359150606085013567ffffffffffffffff81111561168d578182fd5b8501601f8101871361169d578182fd5b6116ac87823560208401611526565b91505092959194509250565b600080604083850312156116ca578182fd5b6116d38361159c565b9150602083013580151581146116e7578182fd5b809150509250929050565b60008060408385031215611704578182fd5b61170d8361159c565b9150602083013567ffffffffffffffff811115611728578182fd5b8301601f81018513611738578182fd5b61174785823560208401611526565b9150509250929050565b60008060408385031215611763578182fd5b61176c8361159c565b946020939093013593505050565b60006020828403121561178b578081fd5b813561113581611a68565b6000602082840312156117a7578081fd5b815161113581611a68565b6000602082840312156117c3578081fd5b5035919050565b600081518084526117e2816020860160208601611990565b601f01601f19169290920160200192915050565b60008351611808818460208801611990565b83519083019061181c818360208801611990565b01949350505050565b6001600160a01b0385811682528416602082015260408101839052608060608201819052600090611858908301846117ca565b9695505050505050565b60208152600061113560208301846117ca565b60208082526032908201527f4552433732313a207472616e7366657220746f206e6f6e20455243373231526560408201527131b2b4bb32b91034b6b83632b6b2b73a32b960711b606082015260800190565b6020808252818101527f4f776e61626c653a2063616c6c6572206973206e6f7420746865206f776e6572604082015260600190565b60208082526031908201527f4552433732313a207472616e736665722063616c6c6572206973206e6f74206f6040820152701ddb995c881b9bdc88185c1c1c9bdd9959607a1b606082015260800190565b6000821982111561196057611960611a26565b500190565b60008261197457611974611a3c565b500490565b60008282101561198b5761198b611a26565b500390565b60005b838110156119ab578181015183820152602001611993565b838111156107935750506000910152565b600181811c908216806119d057607f821691505b602082108114156119f157634e487b7160e01b600052602260045260246000fd5b50919050565b6000600019821415611a0b57611a0b611a26565b5060010190565b600082611a2157611a21611a3c565b500690565b634e487b7160e01b600052601160045260246000fd5b634e487b7160e01b600052601260045260246000fd5b634e487b7160e01b600052604160045260246000fd5b6001600160e01b03198116811461060c57600080fdfea2646970667358221220a9666abf8f19421d30beac4a563898225c071e76b0b5b6760812f14cf944113664736f6c63430008040033",
					"opcodes": "PUSH1 0x80 PUSH1 0x40 MSTORE CALLVALUE DUP1 ISZERO PUSH3 0x11 JUMPI PUSH1 0x0 DUP1 REVERT JUMPDEST POP PUSH1 0x40 DUP1 MLOAD DUP1 DUP3 ADD DUP3 MSTORE PUSH1 0xB DUP2 MSTORE PUSH11 0x10985B9AD8589B19539195 PUSH1 0xAA SHL PUSH1 0x20 DUP1 DUP4 ADD SWAP2 DUP3 MSTORE DUP4 MLOAD DUP1 DUP6 ADD SWAP1 SWAP5 MSTORE PUSH1 0x4 DUP5 MSTORE PUSH4 0x10939195 PUSH1 0xE2 SHL SWAP1 DUP5 ADD MSTORE DUP2 MLOAD SWAP2 SWAP3 SWAP2 PUSH3 0x61 SWAP2 PUSH1 0x0 SWAP2 PUSH3 0xF0 JUMP JUMPDEST POP DUP1 MLOAD PUSH3 0x77 SWAP1 PUSH1 0x1 SWAP1 PUSH1 0x20 DUP5 ADD SWAP1 PUSH3 0xF0 JUMP JUMPDEST POP POP POP PUSH3 0x94 PUSH3 0x8E PUSH3 0x9A PUSH1 0x20 SHL PUSH1 0x20 SHR JUMP JUMPDEST PUSH3 0x9E JUMP JUMPDEST PUSH3 0x1D3 JUMP JUMPDEST CALLER SWAP1 JUMP JUMPDEST PUSH1 0x7 DUP1 SLOAD PUSH1 0x1 PUSH1 0x1 PUSH1 0xA0 SHL SUB DUP4 DUP2 AND PUSH1 0x1 PUSH1 0x1 PUSH1 0xA0 SHL SUB NOT DUP4 AND DUP2 OR SWAP1 SWAP4 SSTORE PUSH1 0x40 MLOAD SWAP2 AND SWAP2 SWAP1 DUP3 SWAP1 PUSH32 0x8BE0079C531659141344CD1FD0A4F28419497F9722A3DAAFE3B4186F6B6457E0 SWAP1 PUSH1 0x0 SWAP1 LOG3 POP POP JUMP JUMPDEST DUP3 DUP1 SLOAD PUSH3 0xFE SWAP1 PUSH3 0x196 JUMP JUMPDEST SWAP1 PUSH1 0x0 MSTORE PUSH1 0x20 PUSH1 0x0 KECCAK256 SWAP1 PUSH1 0x1F ADD PUSH1 0x20 SWAP1 DIV DUP2 ADD SWAP3 DUP3 PUSH3 0x122 JUMPI PUSH1 0x0 DUP6 SSTORE PUSH3 0x16D JUMP JUMPDEST DUP3 PUSH1 0x1F LT PUSH3 0x13D JUMPI DUP1 MLOAD PUSH1 0xFF NOT AND DUP4 DUP1 ADD OR DUP6 SSTORE PUSH3 0x16D JUMP JUMPDEST DUP3 DUP1 ADD PUSH1 0x1 ADD DUP6 SSTORE DUP3 ISZERO PUSH3 0x16D JUMPI SWAP2 DUP3 ADD JUMPDEST DUP3 DUP2 GT ISZERO PUSH3 0x16D JUMPI DUP3 MLOAD DUP3 SSTORE SWAP2 PUSH1 0x20 ADD SWAP2 SWAP1 PUSH1 0x1 ADD SWAP1 PUSH3 0x150 JUMP JUMPDEST POP PUSH3 0x17B SWAP3 SWAP2 POP PUSH3 0x17F JUMP JUMPDEST POP SWAP1 JUMP JUMPDEST JUMPDEST DUP1 DUP3 GT ISZERO PUSH3 0x17B JUMPI PUSH1 0x0 DUP2 SSTORE PUSH1 0x1 ADD PUSH3 0x180 JUMP JUMPDEST PUSH1 0x1 DUP2 DUP2 SHR SWAP1 DUP3 AND DUP1 PUSH3 0x1AB JUMPI PUSH1 0x7F DUP3 AND SWAP2 POP JUMPDEST PUSH1 0x20 DUP3 LT DUP2 EQ ISZERO PUSH3 0x1CD JUMPI PUSH4 0x4E487B71 PUSH1 0xE0 SHL PUSH1 0x0 MSTORE PUSH1 0x22 PUSH1 0x4 MSTORE PUSH1 0x24 PUSH1 0x0 REVERT JUMPDEST POP SWAP2 SWAP1 POP JUMP JUMPDEST PUSH2 0x1AB4 DUP1 PUSH3 0x1E3 PUSH1 0x0 CODECOPY PUSH1 0x0 RETURN INVALID PUSH1 0x80 PUSH1 0x40 MSTORE CALLVALUE DUP1 ISZERO PUSH2 0x10 JUMPI PUSH1 0x0 DUP1 REVERT JUMPDEST POP PUSH1 0x4 CALLDATASIZE LT PUSH2 0x116 JUMPI PUSH1 0x0 CALLDATALOAD PUSH1 0xE0 SHR DUP1 PUSH4 0x715018A6 GT PUSH2 0xA2 JUMPI DUP1 PUSH4 0xB88D4FDE GT PUSH2 0x71 JUMPI DUP1 PUSH4 0xB88D4FDE EQ PUSH2 0x239 JUMPI DUP1 PUSH4 0xC87B56DD EQ PUSH2 0x24C JUMPI DUP1 PUSH4 0xD204C45E EQ PUSH2 0x25F JUMPI DUP1 PUSH4 0xE985E9C5 EQ PUSH2 0x272 JUMPI DUP1 PUSH4 0xF2FDE38B EQ PUSH2 0x2AE JUMPI PUSH1 0x0 DUP1 REVERT JUMPDEST DUP1 PUSH4 0x715018A6 EQ PUSH2 0x205 JUMPI DUP1 PUSH4 0x8DA5CB5B EQ PUSH2 0x20D JUMPI DUP1 PUSH4 0x95D89B41 EQ PUSH2 0x21E JUMPI DUP1 PUSH4 0xA22CB465 EQ PUSH2 0x226 JUMPI PUSH1 0x0 DUP1 REVERT JUMPDEST DUP1 PUSH4 0x23B872DD GT PUSH2 0xE9 JUMPI DUP1 PUSH4 0x23B872DD EQ PUSH2 0x198 JUMPI DUP1 PUSH4 0x42842E0E EQ PUSH2 0x1AB JUMPI DUP1 PUSH4 0x42966C68 EQ PUSH2 0x1BE JUMPI DUP1 PUSH4 0x6352211E EQ PUSH2 0x1D1 JUMPI DUP1 PUSH4 0x70A08231 EQ PUSH2 0x1E4 JUMPI PUSH1 0x0 DUP1 REVERT JUMPDEST DUP1 PUSH4 0x1FFC9A7 EQ PUSH2 0x11B JUMPI DUP1 PUSH4 0x6FDDE03 EQ PUSH2 0x143 JUMPI DUP1 PUSH4 0x81812FC EQ PUSH2 0x158 JUMPI DUP1 PUSH4 0x95EA7B3 EQ PUSH2 0x183 JUMPI JUMPDEST PUSH1 0x0 DUP1 REVERT JUMPDEST PUSH2 0x12E PUSH2 0x129 CALLDATASIZE PUSH1 0x4 PUSH2 0x177A JUMP JUMPDEST PUSH2 0x2C1 JUMP JUMPDEST PUSH1 0x40 MLOAD SWAP1 ISZERO ISZERO DUP2 MSTORE PUSH1 0x20 ADD JUMPDEST PUSH1 0x40 MLOAD DUP1 SWAP2 SUB SWAP1 RETURN JUMPDEST PUSH2 0x14B PUSH2 0x313 JUMP JUMPDEST PUSH1 0x40 MLOAD PUSH2 0x13A SWAP2 SWAP1 PUSH2 0x1862 JUMP JUMPDEST PUSH2 0x16B PUSH2 0x166 CALLDATASIZE PUSH1 0x4 PUSH2 0x17B2 JUMP JUMPDEST PUSH2 0x3A5 JUMP JUMPDEST PUSH1 0x40 MLOAD PUSH1 0x1 PUSH1 0x1 PUSH1 0xA0 SHL SUB SWAP1 SWAP2 AND DUP2 MSTORE PUSH1 0x20 ADD PUSH2 0x13A JUMP JUMPDEST PUSH2 0x196 PUSH2 0x191 CALLDATASIZE PUSH1 0x4 PUSH2 0x1751 JUMP JUMPDEST PUSH2 0x432 JUMP JUMPDEST STOP JUMPDEST PUSH2 0x196 PUSH2 0x1A6 CALLDATASIZE PUSH1 0x4 PUSH2 0x1604 JUMP JUMPDEST PUSH2 0x548 JUMP JUMPDEST PUSH2 0x196 PUSH2 0x1B9 CALLDATASIZE PUSH1 0x4 PUSH2 0x1604 JUMP JUMPDEST PUSH2 0x57A JUMP JUMPDEST PUSH2 0x196 PUSH2 0x1CC CALLDATASIZE PUSH1 0x4 PUSH2 0x17B2 JUMP JUMPDEST PUSH2 0x595 JUMP JUMPDEST PUSH2 0x16B PUSH2 0x1DF CALLDATASIZE PUSH1 0x4 PUSH2 0x17B2 JUMP JUMPDEST PUSH2 0x60F JUMP JUMPDEST PUSH2 0x1F7 PUSH2 0x1F2 CALLDATASIZE PUSH1 0x4 PUSH2 0x15B8 JUMP JUMPDEST PUSH2 0x686 JUMP JUMPDEST PUSH1 0x40 MLOAD SWAP1 DUP2 MSTORE PUSH1 0x20 ADD PUSH2 0x13A JUMP JUMPDEST PUSH2 0x196 PUSH2 0x70D JUMP JUMPDEST PUSH1 0x7 SLOAD PUSH1 0x1 PUSH1 0x1 PUSH1 0xA0 SHL SUB AND PUSH2 0x16B JUMP JUMPDEST PUSH2 0x14B PUSH2 0x743 JUMP JUMPDEST PUSH2 0x196 PUSH2 0x234 CALLDATASIZE PUSH1 0x4 PUSH2 0x16B8 JUMP JUMPDEST PUSH2 0x752 JUMP JUMPDEST PUSH2 0x196 PUSH2 0x247 CALLDATASIZE PUSH1 0x4 PUSH2 0x163F JUMP JUMPDEST PUSH2 0x761 JUMP JUMPDEST PUSH2 0x14B PUSH2 0x25A CALLDATASIZE PUSH1 0x4 PUSH2 0x17B2 JUMP JUMPDEST PUSH2 0x799 JUMP JUMPDEST PUSH2 0x196 PUSH2 0x26D CALLDATASIZE PUSH1 0x4 PUSH2 0x16F2 JUMP JUMPDEST PUSH2 0x7A4 JUMP JUMPDEST PUSH2 0x12E PUSH2 0x280 CALLDATASIZE PUSH1 0x4 PUSH2 0x15D2 JUMP JUMPDEST PUSH1 0x1 PUSH1 0x1 PUSH1 0xA0 SHL SUB SWAP2 DUP3 AND PUSH1 0x0 SWAP1 DUP2 MSTORE PUSH1 0x5 PUSH1 0x20 SWAP1 DUP2 MSTORE PUSH1 0x40 DUP1 DUP4 KECCAK256 SWAP4 SWAP1 SWAP5 AND DUP3 MSTORE SWAP2 SWAP1 SWAP2 MSTORE KECCAK256 SLOAD PUSH1 0xFF AND SWAP1 JUMP JUMPDEST PUSH2 0x196 PUSH2 0x2BC CALLDATASIZE PUSH1 0x4 PUSH2 0x15B8 JUMP JUMPDEST PUSH2 0x7FD JUMP JUMPDEST PUSH1 0x0 PUSH1 0x1 PUSH1 0x1 PUSH1 0xE0 SHL SUB NOT DUP3 AND PUSH4 0x80AC58CD PUSH1 0xE0 SHL EQ DUP1 PUSH2 0x2F2 JUMPI POP PUSH1 0x1 PUSH1 0x1 PUSH1 0xE0 SHL SUB NOT DUP3 AND PUSH4 0x5B5E139F PUSH1 0xE0 SHL EQ JUMPDEST DUP1 PUSH2 0x30D JUMPI POP PUSH4 0x1FFC9A7 PUSH1 0xE0 SHL PUSH1 0x1 PUSH1 0x1 PUSH1 0xE0 SHL SUB NOT DUP4 AND EQ JUMPDEST SWAP3 SWAP2 POP POP JUMP JUMPDEST PUSH1 0x60 PUSH1 0x0 DUP1 SLOAD PUSH2 0x322 SWAP1 PUSH2 0x19BC JUMP JUMPDEST DUP1 PUSH1 0x1F ADD PUSH1 0x20 DUP1 SWAP2 DIV MUL PUSH1 0x20 ADD PUSH1 0x40 MLOAD SWAP1 DUP2 ADD PUSH1 0x40 MSTORE DUP1 SWAP3 SWAP2 SWAP1 DUP2 DUP2 MSTORE PUSH1 0x20 ADD DUP3 DUP1 SLOAD PUSH2 0x34E SWAP1 PUSH2 0x19BC JUMP JUMPDEST DUP1 ISZERO PUSH2 0x39B JUMPI DUP1 PUSH1 0x1F LT PUSH2 0x370 JUMPI PUSH2 0x100 DUP1 DUP4 SLOAD DIV MUL DUP4 MSTORE SWAP2 PUSH1 0x20 ADD SWAP2 PUSH2 0x39B JUMP JUMPDEST DUP3 ADD SWAP2 SWAP1 PUSH1 0x0 MSTORE PUSH1 0x20 PUSH1 0x0 KECCAK256 SWAP1 JUMPDEST DUP2 SLOAD DUP2 MSTORE SWAP1 PUSH1 0x1 ADD SWAP1 PUSH1 0x20 ADD DUP1 DUP4 GT PUSH2 0x37E JUMPI DUP3 SWAP1 SUB PUSH1 0x1F AND DUP3 ADD SWAP2 JUMPDEST POP POP POP POP POP SWAP1 POP SWAP1 JUMP JUMPDEST PUSH1 0x0 PUSH2 0x3B0 DUP3 PUSH2 0x895 JUMP JUMPDEST PUSH2 0x416 JUMPI PUSH1 0x40 MLOAD PUSH3 0x461BCD PUSH1 0xE5 SHL DUP2 MSTORE PUSH1 0x20 PUSH1 0x4 DUP3 ADD MSTORE PUSH1 0x2C PUSH1 0x24 DUP3 ADD MSTORE PUSH32 0x4552433732313A20617070726F76656420717565727920666F72206E6F6E6578 PUSH1 0x44 DUP3 ADD MSTORE PUSH12 0x34B9BA32B73A103A37B5B2B7 PUSH1 0xA1 SHL PUSH1 0x64 DUP3 ADD MSTORE PUSH1 0x84 ADD JUMPDEST PUSH1 0x40 MLOAD DUP1 SWAP2 SUB SWAP1 REVERT JUMPDEST POP PUSH1 0x0 SWAP1 DUP2 MSTORE PUSH1 0x4 PUSH1 0x20 MSTORE PUSH1 0x40 SWAP1 KECCAK256 SLOAD PUSH1 0x1 PUSH1 0x1 PUSH1 0xA0 SHL SUB AND SWAP1 JUMP JUMPDEST PUSH1 0x0 PUSH2 0x43D DUP3 PUSH2 0x60F JUMP JUMPDEST SWAP1 POP DUP1 PUSH1 0x1 PUSH1 0x1 PUSH1 0xA0 SHL SUB AND DUP4 PUSH1 0x1 PUSH1 0x1 PUSH1 0xA0 SHL SUB AND EQ ISZERO PUSH2 0x4AB JUMPI PUSH1 0x40 MLOAD PUSH3 0x461BCD PUSH1 0xE5 SHL DUP2 MSTORE PUSH1 0x20 PUSH1 0x4 DUP3 ADD MSTORE PUSH1 0x21 PUSH1 0x24 DUP3 ADD MSTORE PUSH32 0x4552433732313A20617070726F76616C20746F2063757272656E74206F776E65 PUSH1 0x44 DUP3 ADD MSTORE PUSH1 0x39 PUSH1 0xF9 SHL PUSH1 0x64 DUP3 ADD MSTORE PUSH1 0x84 ADD PUSH2 0x40D JUMP JUMPDEST CALLER PUSH1 0x1 PUSH1 0x1 PUSH1 0xA0 SHL SUB DUP3 AND EQ DUP1 PUSH2 0x4C7 JUMPI POP PUSH2 0x4C7 DUP2 CALLER PUSH2 0x280 JUMP JUMPDEST PUSH2 0x539 JUMPI PUSH1 0x40 MLOAD PUSH3 0x461BCD PUSH1 0xE5 SHL DUP2 MSTORE PUSH1 0x20 PUSH1 0x4 DUP3 ADD MSTORE PUSH1 0x38 PUSH1 0x24 DUP3 ADD MSTORE PUSH32 0x4552433732313A20617070726F76652063616C6C6572206973206E6F74206F77 PUSH1 0x44 DUP3 ADD MSTORE PUSH32 0x6E6572206E6F7220617070726F76656420666F7220616C6C0000000000000000 PUSH1 0x64 DUP3 ADD MSTORE PUSH1 0x84 ADD PUSH2 0x40D JUMP JUMPDEST PUSH2 0x543 DUP4 DUP4 PUSH2 0x8B2 JUMP JUMPDEST POP POP POP JUMP JUMPDEST PUSH2 0x553 CALLER JUMPDEST DUP3 PUSH2 0x920 JUMP JUMPDEST PUSH2 0x56F JUMPI PUSH1 0x40 MLOAD PUSH3 0x461BCD PUSH1 0xE5 SHL DUP2 MSTORE PUSH1 0x4 ADD PUSH2 0x40D SWAP1 PUSH2 0x18FC JUMP JUMPDEST PUSH2 0x543 DUP4 DUP4 DUP4 PUSH2 0xA0A JUMP JUMPDEST PUSH2 0x543 DUP4 DUP4 DUP4 PUSH1 0x40 MLOAD DUP1 PUSH1 0x20 ADD PUSH1 0x40 MSTORE DUP1 PUSH1 0x0 DUP2 MSTORE POP PUSH2 0x761 JUMP JUMPDEST PUSH2 0x59E CALLER PUSH2 0x54D JUMP JUMPDEST PUSH2 0x603 JUMPI PUSH1 0x40 MLOAD PUSH3 0x461BCD PUSH1 0xE5 SHL DUP2 MSTORE PUSH1 0x20 PUSH1 0x4 DUP3 ADD MSTORE PUSH1 0x30 PUSH1 0x24 DUP3 ADD MSTORE PUSH32 0x4552433732314275726E61626C653A2063616C6C6572206973206E6F74206F77 PUSH1 0x44 DUP3 ADD MSTORE PUSH16 0x1B995C881B9BDC88185C1C1C9BDD9959 PUSH1 0x82 SHL PUSH1 0x64 DUP3 ADD MSTORE PUSH1 0x84 ADD PUSH2 0x40D JUMP JUMPDEST PUSH2 0x60C DUP2 PUSH2 0xBA6 JUMP JUMPDEST POP JUMP JUMPDEST PUSH1 0x0 DUP2 DUP2 MSTORE PUSH1 0x2 PUSH1 0x20 MSTORE PUSH1 0x40 DUP2 KECCAK256 SLOAD PUSH1 0x1 PUSH1 0x1 PUSH1 0xA0 SHL SUB AND DUP1 PUSH2 0x30D JUMPI PUSH1 0x40 MLOAD PUSH3 0x461BCD PUSH1 0xE5 SHL DUP2 MSTORE PUSH1 0x20 PUSH1 0x4 DUP3 ADD MSTORE PUSH1 0x29 PUSH1 0x24 DUP3 ADD MSTORE PUSH32 0x4552433732313A206F776E657220717565727920666F72206E6F6E6578697374 PUSH1 0x44 DUP3 ADD MSTORE PUSH9 0x32B73A103A37B5B2B7 PUSH1 0xB9 SHL PUSH1 0x64 DUP3 ADD MSTORE PUSH1 0x84 ADD PUSH2 0x40D JUMP JUMPDEST PUSH1 0x0 PUSH1 0x1 PUSH1 0x1 PUSH1 0xA0 SHL SUB DUP3 AND PUSH2 0x6F1 JUMPI PUSH1 0x40 MLOAD PUSH3 0x461BCD PUSH1 0xE5 SHL DUP2 MSTORE PUSH1 0x20 PUSH1 0x4 DUP3 ADD MSTORE PUSH1 0x2A PUSH1 0x24 DUP3 ADD MSTORE PUSH32 0x4552433732313A2062616C616E636520717565727920666F7220746865207A65 PUSH1 0x44 DUP3 ADD MSTORE PUSH10 0x726F2061646472657373 PUSH1 0xB0 SHL PUSH1 0x64 DUP3 ADD MSTORE PUSH1 0x84 ADD PUSH2 0x40D JUMP JUMPDEST POP PUSH1 0x1 PUSH1 0x1 PUSH1 0xA0 SHL SUB AND PUSH1 0x0 SWAP1 DUP2 MSTORE PUSH1 0x3 PUSH1 0x20 MSTORE PUSH1 0x40 SWAP1 KECCAK256 SLOAD SWAP1 JUMP JUMPDEST PUSH1 0x7 SLOAD PUSH1 0x1 PUSH1 0x1 PUSH1 0xA0 SHL SUB AND CALLER EQ PUSH2 0x737 JUMPI PUSH1 0x40 MLOAD PUSH3 0x461BCD PUSH1 0xE5 SHL DUP2 MSTORE PUSH1 0x4 ADD PUSH2 0x40D SWAP1 PUSH2 0x18C7 JUMP JUMPDEST PUSH2 0x741 PUSH1 0x0 PUSH2 0xBAF JUMP JUMPDEST JUMP JUMPDEST PUSH1 0x60 PUSH1 0x1 DUP1 SLOAD PUSH2 0x322 SWAP1 PUSH2 0x19BC JUMP JUMPDEST PUSH2 0x75D CALLER DUP4 DUP4 PUSH2 0xC01 JUMP JUMPDEST POP POP JUMP JUMPDEST PUSH2 0x76B CALLER DUP4 PUSH2 0x920 JUMP JUMPDEST PUSH2 0x787 JUMPI PUSH1 0x40 MLOAD PUSH3 0x461BCD PUSH1 0xE5 SHL DUP2 MSTORE PUSH1 0x4 ADD PUSH2 0x40D SWAP1 PUSH2 0x18FC JUMP JUMPDEST PUSH2 0x793 DUP5 DUP5 DUP5 DUP5 PUSH2 0xCD0 JUMP JUMPDEST POP POP POP POP JUMP JUMPDEST PUSH1 0x60 PUSH2 0x30D DUP3 PUSH2 0xD03 JUMP JUMPDEST PUSH1 0x7 SLOAD PUSH1 0x1 PUSH1 0x1 PUSH1 0xA0 SHL SUB AND CALLER EQ PUSH2 0x7CE JUMPI PUSH1 0x40 MLOAD PUSH3 0x461BCD PUSH1 0xE5 SHL DUP2 MSTORE PUSH1 0x4 ADD PUSH2 0x40D SWAP1 PUSH2 0x18C7 JUMP JUMPDEST PUSH1 0x0 PUSH2 0x7D9 PUSH1 0x8 SLOAD SWAP1 JUMP JUMPDEST SWAP1 POP PUSH2 0x7E9 PUSH1 0x8 DUP1 SLOAD PUSH1 0x1 ADD SWAP1 SSTORE JUMP JUMPDEST PUSH2 0x7F3 DUP4 DUP3 PUSH2 0xE72 JUMP JUMPDEST PUSH2 0x543 DUP2 DUP4 PUSH2 0xE8C JUMP JUMPDEST PUSH1 0x7 SLOAD PUSH1 0x1 PUSH1 0x1 PUSH1 0xA0 SHL SUB AND CALLER EQ PUSH2 0x827 JUMPI PUSH1 0x40 MLOAD PUSH3 0x461BCD PUSH1 0xE5 SHL DUP2 MSTORE PUSH1 0x4 ADD PUSH2 0x40D SWAP1 PUSH2 0x18C7 JUMP JUMPDEST PUSH1 0x1 PUSH1 0x1 PUSH1 0xA0 SHL SUB DUP2 AND PUSH2 0x88C JUMPI PUSH1 0x40 MLOAD PUSH3 0x461BCD PUSH1 0xE5 SHL DUP2 MSTORE PUSH1 0x20 PUSH1 0x4 DUP3 ADD MSTORE PUSH1 0x26 PUSH1 0x24 DUP3 ADD MSTORE PUSH32 0x4F776E61626C653A206E6577206F776E657220697320746865207A65726F2061 PUSH1 0x44 DUP3 ADD MSTORE PUSH6 0x646472657373 PUSH1 0xD0 SHL PUSH1 0x64 DUP3 ADD MSTORE PUSH1 0x84 ADD PUSH2 0x40D JUMP JUMPDEST PUSH2 0x60C DUP2 PUSH2 0xBAF JUMP JUMPDEST PUSH1 0x0 SWAP1 DUP2 MSTORE PUSH1 0x2 PUSH1 0x20 MSTORE PUSH1 0x40 SWAP1 KECCAK256 SLOAD PUSH1 0x1 PUSH1 0x1 PUSH1 0xA0 SHL SUB AND ISZERO ISZERO SWAP1 JUMP JUMPDEST PUSH1 0x0 DUP2 DUP2 MSTORE PUSH1 0x4 PUSH1 0x20 MSTORE PUSH1 0x40 SWAP1 KECCAK256 DUP1 SLOAD PUSH1 0x1 PUSH1 0x1 PUSH1 0xA0 SHL SUB NOT AND PUSH1 0x1 PUSH1 0x1 PUSH1 0xA0 SHL SUB DUP5 AND SWAP1 DUP2 OR SWAP1 SWAP2 SSTORE DUP2 SWAP1 PUSH2 0x8E7 DUP3 PUSH2 0x60F JUMP JUMPDEST PUSH1 0x1 PUSH1 0x1 PUSH1 0xA0 SHL SUB AND PUSH32 0x8C5BE1E5EBEC7D5BD14F71427D1E84F3DD0314C0F7B2291E5B200AC8C7C3B925 PUSH1 0x40 MLOAD PUSH1 0x40 MLOAD DUP1 SWAP2 SUB SWAP1 LOG4 POP POP JUMP JUMPDEST PUSH1 0x0 PUSH2 0x92B DUP3 PUSH2 0x895 JUMP JUMPDEST PUSH2 0x98C JUMPI PUSH1 0x40 MLOAD PUSH3 0x461BCD PUSH1 0xE5 SHL DUP2 MSTORE PUSH1 0x20 PUSH1 0x4 DUP3 ADD MSTORE PUSH1 0x2C PUSH1 0x24 DUP3 ADD MSTORE PUSH32 0x4552433732313A206F70657261746F7220717565727920666F72206E6F6E6578 PUSH1 0x44 DUP3 ADD MSTORE PUSH12 0x34B9BA32B73A103A37B5B2B7 PUSH1 0xA1 SHL PUSH1 0x64 DUP3 ADD MSTORE PUSH1 0x84 ADD PUSH2 0x40D JUMP JUMPDEST PUSH1 0x0 PUSH2 0x997 DUP4 PUSH2 0x60F JUMP JUMPDEST SWAP1 POP DUP1 PUSH1 0x1 PUSH1 0x1 PUSH1 0xA0 SHL SUB AND DUP5 PUSH1 0x1 PUSH1 0x1 PUSH1 0xA0 SHL SUB AND EQ DUP1 PUSH2 0x9D2 JUMPI POP DUP4 PUSH1 0x1 PUSH1 0x1 PUSH1 0xA0 SHL SUB AND PUSH2 0x9C7 DUP5 PUSH2 0x3A5 JUMP JUMPDEST PUSH1 0x1 PUSH1 0x1 PUSH1 0xA0 SHL SUB AND EQ JUMPDEST DUP1 PUSH2 0xA02 JUMPI POP PUSH1 0x1 PUSH1 0x1 PUSH1 0xA0 SHL SUB DUP1 DUP3 AND PUSH1 0x0 SWAP1 DUP2 MSTORE PUSH1 0x5 PUSH1 0x20 SWAP1 DUP2 MSTORE PUSH1 0x40 DUP1 DUP4 KECCAK256 SWAP4 DUP9 AND DUP4 MSTORE SWAP3 SWAP1 MSTORE KECCAK256 SLOAD PUSH1 0xFF AND JUMPDEST SWAP5 SWAP4 POP POP POP POP JUMP JUMPDEST DUP3 PUSH1 0x1 PUSH1 0x1 PUSH1 0xA0 SHL SUB AND PUSH2 0xA1D DUP3 PUSH2 0x60F JUMP JUMPDEST PUSH1 0x1 PUSH1 0x1 PUSH1 0xA0 SHL SUB AND EQ PUSH2 0xA81 JUMPI PUSH1 0x40 MLOAD PUSH3 0x461BCD PUSH1 0xE5 SHL DUP2 MSTORE PUSH1 0x20 PUSH1 0x4 DUP3 ADD MSTORE PUSH1 0x25 PUSH1 0x24 DUP3 ADD MSTORE PUSH32 0x4552433732313A207472616E736665722066726F6D20696E636F727265637420 PUSH1 0x44 DUP3 ADD MSTORE PUSH5 0x37BBB732B9 PUSH1 0xD9 SHL PUSH1 0x64 DUP3 ADD MSTORE PUSH1 0x84 ADD PUSH2 0x40D JUMP JUMPDEST PUSH1 0x1 PUSH1 0x1 PUSH1 0xA0 SHL SUB DUP3 AND PUSH2 0xAE3 JUMPI PUSH1 0x40 MLOAD PUSH3 0x461BCD PUSH1 0xE5 SHL DUP2 MSTORE PUSH1 0x20 PUSH1 0x4 DUP3 ADD MSTORE PUSH1 0x24 DUP1 DUP3 ADD MSTORE PUSH32 0x4552433732313A207472616E7366657220746F20746865207A65726F20616464 PUSH1 0x44 DUP3 ADD MSTORE PUSH4 0x72657373 PUSH1 0xE0 SHL PUSH1 0x64 DUP3 ADD MSTORE PUSH1 0x84 ADD PUSH2 0x40D JUMP JUMPDEST PUSH2 0xAEE PUSH1 0x0 DUP3 PUSH2 0x8B2 JUMP JUMPDEST PUSH1 0x1 PUSH1 0x1 PUSH1 0xA0 SHL SUB DUP4 AND PUSH1 0x0 SWAP1 DUP2 MSTORE PUSH1 0x3 PUSH1 0x20 MSTORE PUSH1 0x40 DUP2 KECCAK256 DUP1 SLOAD PUSH1 0x1 SWAP3 SWAP1 PUSH2 0xB17 SWAP1 DUP5 SWAP1 PUSH2 0x1979 JUMP JUMPDEST SWAP1 SWAP2 SSTORE POP POP PUSH1 0x1 PUSH1 0x1 PUSH1 0xA0 SHL SUB DUP3 AND PUSH1 0x0 SWAP1 DUP2 MSTORE PUSH1 0x3 PUSH1 0x20 MSTORE PUSH1 0x40 DUP2 KECCAK256 DUP1 SLOAD PUSH1 0x1 SWAP3 SWAP1 PUSH2 0xB45 SWAP1 DUP5 SWAP1 PUSH2 0x194D JUMP JUMPDEST SWAP1 SWAP2 SSTORE POP POP PUSH1 0x0 DUP2 DUP2 MSTORE PUSH1 0x2 PUSH1 0x20 MSTORE PUSH1 0x40 DUP1 DUP3 KECCAK256 DUP1 SLOAD PUSH1 0x1 PUSH1 0x1 PUSH1 0xA0 SHL SUB NOT AND PUSH1 0x1 PUSH1 0x1 PUSH1 0xA0 SHL SUB DUP7 DUP2 AND SWAP2 DUP3 OR SWAP1 SWAP3 SSTORE SWAP2 MLOAD DUP5 SWAP4 SWAP2 DUP8 AND SWAP2 PUSH32 0xDDF252AD1BE2C89B69C2B068FC378DAA952BA7F163C4A11628F55A4DF523B3EF SWAP2 LOG4 POP POP POP JUMP JUMPDEST PUSH2 0x60C DUP2 PUSH2 0xF17 JUMP JUMPDEST PUSH1 0x7 DUP1 SLOAD PUSH1 0x1 PUSH1 0x1 PUSH1 0xA0 SHL SUB DUP4 DUP2 AND PUSH1 0x1 PUSH1 0x1 PUSH1 0xA0 SHL SUB NOT DUP4 AND DUP2 OR SWAP1 SWAP4 SSTORE PUSH1 0x40 MLOAD SWAP2 AND SWAP2 SWAP1 DUP3 SWAP1 PUSH32 0x8BE0079C531659141344CD1FD0A4F28419497F9722A3DAAFE3B4186F6B6457E0 SWAP1 PUSH1 0x0 SWAP1 LOG3 POP POP JUMP JUMPDEST DUP2 PUSH1 0x1 PUSH1 0x1 PUSH1 0xA0 SHL SUB AND DUP4 PUSH1 0x1 PUSH1 0x1 PUSH1 0xA0 SHL SUB AND EQ ISZERO PUSH2 0xC63 JUMPI PUSH1 0x40 MLOAD PUSH3 0x461BCD PUSH1 0xE5 SHL DUP2 MSTORE PUSH1 0x20 PUSH1 0x4 DUP3 ADD MSTORE PUSH1 0x19 PUSH1 0x24 DUP3 ADD MSTORE PUSH32 0x4552433732313A20617070726F766520746F2063616C6C657200000000000000 PUSH1 0x44 DUP3 ADD MSTORE PUSH1 0x64 ADD PUSH2 0x40D JUMP JUMPDEST PUSH1 0x1 PUSH1 0x1 PUSH1 0xA0 SHL SUB DUP4 DUP2 AND PUSH1 0x0 DUP2 DUP2 MSTORE PUSH1 0x5 PUSH1 0x20 SWAP1 DUP2 MSTORE PUSH1 0x40 DUP1 DUP4 KECCAK256 SWAP5 DUP8 AND DUP1 DUP5 MSTORE SWAP5 DUP3 MSTORE SWAP2 DUP3 SWAP1 KECCAK256 DUP1 SLOAD PUSH1 0xFF NOT AND DUP7 ISZERO ISZERO SWAP1 DUP2 OR SWAP1 SWAP2 SSTORE SWAP2 MLOAD SWAP2 DUP3 MSTORE PUSH32 0x17307EAB39AB6107E8899845AD3D59BD9653F200F220920489CA2B5937696C31 SWAP2 ADD PUSH1 0x40 MLOAD DUP1 SWAP2 SUB SWAP1 LOG3 POP POP POP JUMP JUMPDEST PUSH2 0xCDB DUP5 DUP5 DUP5 PUSH2 0xA0A JUMP JUMPDEST PUSH2 0xCE7 DUP5 DUP5 DUP5 DUP5 PUSH2 0xF57 JUMP JUMPDEST PUSH2 0x793 JUMPI PUSH1 0x40 MLOAD PUSH3 0x461BCD PUSH1 0xE5 SHL DUP2 MSTORE PUSH1 0x4 ADD PUSH2 0x40D SWAP1 PUSH2 0x1875 JUMP JUMPDEST PUSH1 0x60 PUSH2 0xD0E DUP3 PUSH2 0x895 JUMP JUMPDEST PUSH2 0xD74 JUMPI PUSH1 0x40 MLOAD PUSH3 0x461BCD PUSH1 0xE5 SHL DUP2 MSTORE PUSH1 0x20 PUSH1 0x4 DUP3 ADD MSTORE PUSH1 0x31 PUSH1 0x24 DUP3 ADD MSTORE PUSH32 0x45524337323155524953746F726167653A2055524920717565727920666F7220 PUSH1 0x44 DUP3 ADD MSTORE PUSH17 0x3737B732BC34B9BA32B73A103A37B5B2B7 PUSH1 0x79 SHL PUSH1 0x64 DUP3 ADD MSTORE PUSH1 0x84 ADD PUSH2 0x40D JUMP JUMPDEST PUSH1 0x0 DUP3 DUP2 MSTORE PUSH1 0x6 PUSH1 0x20 MSTORE PUSH1 0x40 DUP2 KECCAK256 DUP1 SLOAD PUSH2 0xD8D SWAP1 PUSH2 0x19BC JUMP JUMPDEST DUP1 PUSH1 0x1F ADD PUSH1 0x20 DUP1 SWAP2 DIV MUL PUSH1 0x20 ADD PUSH1 0x40 MLOAD SWAP1 DUP2 ADD PUSH1 0x40 MSTORE DUP1 SWAP3 SWAP2 SWAP1 DUP2 DUP2 MSTORE PUSH1 0x20 ADD DUP3 DUP1 SLOAD PUSH2 0xDB9 SWAP1 PUSH2 0x19BC JUMP JUMPDEST DUP1 ISZERO PUSH2 0xE06 JUMPI DUP1 PUSH1 0x1F LT PUSH2 0xDDB JUMPI PUSH2 0x100 DUP1 DUP4 SLOAD DIV MUL DUP4 MSTORE SWAP2 PUSH1 0x20 ADD SWAP2 PUSH2 0xE06 JUMP JUMPDEST DUP3 ADD SWAP2 SWAP1 PUSH1 0x0 MSTORE PUSH1 0x20 PUSH1 0x0 KECCAK256 SWAP1 JUMPDEST DUP2 SLOAD DUP2 MSTORE SWAP1 PUSH1 0x1 ADD SWAP1 PUSH1 0x20 ADD DUP1 DUP4 GT PUSH2 0xDE9 JUMPI DUP3 SWAP1 SUB PUSH1 0x1F AND DUP3 ADD SWAP2 JUMPDEST POP POP POP POP POP SWAP1 POP PUSH1 0x0 PUSH2 0xE24 PUSH1 0x40 DUP1 MLOAD PUSH1 0x20 DUP2 ADD SWAP1 SWAP2 MSTORE PUSH1 0x0 DUP2 MSTORE SWAP1 JUMP JUMPDEST SWAP1 POP DUP1 MLOAD PUSH1 0x0 EQ ISZERO PUSH2 0xE37 JUMPI POP SWAP3 SWAP2 POP POP JUMP JUMPDEST DUP2 MLOAD ISZERO PUSH2 0xE69 JUMPI DUP1 DUP3 PUSH1 0x40 MLOAD PUSH1 0x20 ADD PUSH2 0xE51 SWAP3 SWAP2 SWAP1 PUSH2 0x17F6 JUMP JUMPDEST PUSH1 0x40 MLOAD PUSH1 0x20 DUP2 DUP4 SUB SUB DUP2 MSTORE SWAP1 PUSH1 0x40 MSTORE SWAP3 POP POP POP SWAP2 SWAP1 POP JUMP JUMPDEST PUSH2 0xA02 DUP5 PUSH2 0x1064 JUMP JUMPDEST PUSH2 0x75D DUP3 DUP3 PUSH1 0x40 MLOAD DUP1 PUSH1 0x20 ADD PUSH1 0x40 MSTORE DUP1 PUSH1 0x0 DUP2 MSTORE POP PUSH2 0x113C JUMP JUMPDEST PUSH2 0xE95 DUP3 PUSH2 0x895 JUMP JUMPDEST PUSH2 0xEF8 JUMPI PUSH1 0x40 MLOAD PUSH3 0x461BCD PUSH1 0xE5 SHL DUP2 MSTORE PUSH1 0x20 PUSH1 0x4 DUP3 ADD MSTORE PUSH1 0x2E PUSH1 0x24 DUP3 ADD MSTORE PUSH32 0x45524337323155524953746F726167653A2055524920736574206F66206E6F6E PUSH1 0x44 DUP3 ADD MSTORE PUSH14 0x32BC34B9BA32B73A103A37B5B2B7 PUSH1 0x91 SHL PUSH1 0x64 DUP3 ADD MSTORE PUSH1 0x84 ADD PUSH2 0x40D JUMP JUMPDEST PUSH1 0x0 DUP3 DUP2 MSTORE PUSH1 0x6 PUSH1 0x20 SWAP1 DUP2 MSTORE PUSH1 0x40 SWAP1 SWAP2 KECCAK256 DUP3 MLOAD PUSH2 0x543 SWAP3 DUP5 ADD SWAP1 PUSH2 0x1457 JUMP JUMPDEST PUSH2 0xF20 DUP2 PUSH2 0x116F JUMP JUMPDEST PUSH1 0x0 DUP2 DUP2 MSTORE PUSH1 0x6 PUSH1 0x20 MSTORE PUSH1 0x40 SWAP1 KECCAK256 DUP1 SLOAD PUSH2 0xF39 SWAP1 PUSH2 0x19BC JUMP JUMPDEST ISZERO SWAP1 POP PUSH2 0x60C JUMPI PUSH1 0x0 DUP2 DUP2 MSTORE PUSH1 0x6 PUSH1 0x20 MSTORE PUSH1 0x40 DUP2 KECCAK256 PUSH2 0x60C SWAP2 PUSH2 0x14DB JUMP JUMPDEST PUSH1 0x0 PUSH1 0x1 PUSH1 0x1 PUSH1 0xA0 SHL SUB DUP5 AND EXTCODESIZE ISZERO PUSH2 0x1059 JUMPI PUSH1 0x40 MLOAD PUSH4 0xA85BD01 PUSH1 0xE1 SHL DUP2 MSTORE PUSH1 0x1 PUSH1 0x1 PUSH1 0xA0 SHL SUB DUP6 AND SWAP1 PUSH4 0x150B7A02 SWAP1 PUSH2 0xF9B SWAP1 CALLER SWAP1 DUP10 SWAP1 DUP9 SWAP1 DUP9 SWAP1 PUSH1 0x4 ADD PUSH2 0x1825 JUMP JUMPDEST PUSH1 0x20 PUSH1 0x40 MLOAD DUP1 DUP4 SUB DUP2 PUSH1 0x0 DUP8 DUP1 EXTCODESIZE ISZERO DUP1 ISZERO PUSH2 0xFB5 JUMPI PUSH1 0x0 DUP1 REVERT JUMPDEST POP GAS CALL SWAP3 POP POP POP DUP1 ISZERO PUSH2 0xFE5 JUMPI POP PUSH1 0x40 DUP1 MLOAD PUSH1 0x1F RETURNDATASIZE SWAP1 DUP2 ADD PUSH1 0x1F NOT AND DUP3 ADD SWAP1 SWAP3 MSTORE PUSH2 0xFE2 SWAP2 DUP2 ADD SWAP1 PUSH2 0x1796 JUMP JUMPDEST PUSH1 0x1 JUMPDEST PUSH2 0x103F JUMPI RETURNDATASIZE DUP1 DUP1 ISZERO PUSH2 0x1013 JUMPI PUSH1 0x40 MLOAD SWAP2 POP PUSH1 0x1F NOT PUSH1 0x3F RETURNDATASIZE ADD AND DUP3 ADD PUSH1 0x40 MSTORE RETURNDATASIZE DUP3 MSTORE RETURNDATASIZE PUSH1 0x0 PUSH1 0x20 DUP5 ADD RETURNDATACOPY PUSH2 0x1018 JUMP JUMPDEST PUSH1 0x60 SWAP2 POP JUMPDEST POP DUP1 MLOAD PUSH2 0x1037 JUMPI PUSH1 0x40 MLOAD PUSH3 0x461BCD PUSH1 0xE5 SHL DUP2 MSTORE PUSH1 0x4 ADD PUSH2 0x40D SWAP1 PUSH2 0x1875 JUMP JUMPDEST DUP1 MLOAD DUP2 PUSH1 0x20 ADD REVERT JUMPDEST PUSH1 0x1 PUSH1 0x1 PUSH1 0xE0 SHL SUB NOT AND PUSH4 0xA85BD01 PUSH1 0xE1 SHL EQ SWAP1 POP PUSH2 0xA02 JUMP JUMPDEST POP PUSH1 0x1 SWAP5 SWAP4 POP POP POP POP JUMP JUMPDEST PUSH1 0x60 PUSH2 0x106F DUP3 PUSH2 0x895 JUMP JUMPDEST PUSH2 0x10D3 JUMPI PUSH1 0x40 MLOAD PUSH3 0x461BCD PUSH1 0xE5 SHL DUP2 MSTORE PUSH1 0x20 PUSH1 0x4 DUP3 ADD MSTORE PUSH1 0x2F PUSH1 0x24 DUP3 ADD MSTORE PUSH32 0x4552433732314D657461646174613A2055524920717565727920666F72206E6F PUSH1 0x44 DUP3 ADD MSTORE PUSH15 0x3732BC34B9BA32B73A103A37B5B2B7 PUSH1 0x89 SHL PUSH1 0x64 DUP3 ADD MSTORE PUSH1 0x84 ADD PUSH2 0x40D JUMP JUMPDEST PUSH1 0x0 PUSH2 0x10EA PUSH1 0x40 DUP1 MLOAD PUSH1 0x20 DUP2 ADD SWAP1 SWAP2 MSTORE PUSH1 0x0 DUP2 MSTORE SWAP1 JUMP JUMPDEST SWAP1 POP PUSH1 0x0 DUP2 MLOAD GT PUSH2 0x110A JUMPI PUSH1 0x40 MLOAD DUP1 PUSH1 0x20 ADD PUSH1 0x40 MSTORE DUP1 PUSH1 0x0 DUP2 MSTORE POP PUSH2 0x1135 JUMP JUMPDEST DUP1 PUSH2 0x1114 DUP5 PUSH2 0x120A JUMP JUMPDEST PUSH1 0x40 MLOAD PUSH1 0x20 ADD PUSH2 0x1125 SWAP3 SWAP2 SWAP1 PUSH2 0x17F6 JUMP JUMPDEST PUSH1 0x40 MLOAD PUSH1 0x20 DUP2 DUP4 SUB SUB DUP2 MSTORE SWAP1 PUSH1 0x40 MSTORE JUMPDEST SWAP4 SWAP3 POP POP POP JUMP JUMPDEST PUSH2 0x1146 DUP4 DUP4 PUSH2 0x1324 JUMP JUMPDEST PUSH2 0x1153 PUSH1 0x0 DUP5 DUP5 DUP5 PUSH2 0xF57 JUMP JUMPDEST PUSH2 0x543 JUMPI PUSH1 0x40 MLOAD PUSH3 0x461BCD PUSH1 0xE5 SHL DUP2 MSTORE PUSH1 0x4 ADD PUSH2 0x40D SWAP1 PUSH2 0x1875 JUMP JUMPDEST PUSH1 0x0 PUSH2 0x117A DUP3 PUSH2 0x60F JUMP JUMPDEST SWAP1 POP PUSH2 0x1187 PUSH1 0x0 DUP4 PUSH2 0x8B2 JUMP JUMPDEST PUSH1 0x1 PUSH1 0x1 PUSH1 0xA0 SHL SUB DUP2 AND PUSH1 0x0 SWAP1 DUP2 MSTORE PUSH1 0x3 PUSH1 0x20 MSTORE PUSH1 0x40 DUP2 KECCAK256 DUP1 SLOAD PUSH1 0x1 SWAP3 SWAP1 PUSH2 0x11B0 SWAP1 DUP5 SWAP1 PUSH2 0x1979 JUMP JUMPDEST SWAP1 SWAP2 SSTORE POP POP PUSH1 0x0 DUP3 DUP2 MSTORE PUSH1 0x2 PUSH1 0x20 MSTORE PUSH1 0x40 DUP1 DUP3 KECCAK256 DUP1 SLOAD PUSH1 0x1 PUSH1 0x1 PUSH1 0xA0 SHL SUB NOT AND SWAP1 SSTORE MLOAD DUP4 SWAP2 SWAP1 PUSH1 0x1 PUSH1 0x1 PUSH1 0xA0 SHL SUB DUP5 AND SWAP1 PUSH32 0xDDF252AD1BE2C89B69C2B068FC378DAA952BA7F163C4A11628F55A4DF523B3EF SWAP1 DUP4 SWAP1 LOG4 POP POP JUMP JUMPDEST PUSH1 0x60 DUP2 PUSH2 0x122E JUMPI POP POP PUSH1 0x40 DUP1 MLOAD DUP1 DUP3 ADD SWAP1 SWAP2 MSTORE PUSH1 0x1 DUP2 MSTORE PUSH1 0x3 PUSH1 0xFC SHL PUSH1 0x20 DUP3 ADD MSTORE SWAP1 JUMP JUMPDEST DUP2 PUSH1 0x0 JUMPDEST DUP2 ISZERO PUSH2 0x1258 JUMPI DUP1 PUSH2 0x1242 DUP2 PUSH2 0x19F7 JUMP JUMPDEST SWAP2 POP PUSH2 0x1251 SWAP1 POP PUSH1 0xA DUP4 PUSH2 0x1965 JUMP JUMPDEST SWAP2 POP PUSH2 0x1232 JUMP JUMPDEST PUSH1 0x0 DUP2 PUSH8 0xFFFFFFFFFFFFFFFF DUP2 GT ISZERO PUSH2 0x1281 JUMPI PUSH4 0x4E487B71 PUSH1 0xE0 SHL PUSH1 0x0 MSTORE PUSH1 0x41 PUSH1 0x4 MSTORE PUSH1 0x24 PUSH1 0x0 REVERT JUMPDEST PUSH1 0x40 MLOAD SWAP1 DUP1 DUP3 MSTORE DUP1 PUSH1 0x1F ADD PUSH1 0x1F NOT AND PUSH1 0x20 ADD DUP3 ADD PUSH1 0x40 MSTORE DUP1 ISZERO PUSH2 0x12AB JUMPI PUSH1 0x20 DUP3 ADD DUP2 DUP1 CALLDATASIZE DUP4 CALLDATACOPY ADD SWAP1 POP JUMPDEST POP SWAP1 POP JUMPDEST DUP5 ISZERO PUSH2 0xA02 JUMPI PUSH2 0x12C0 PUSH1 0x1 DUP4 PUSH2 0x1979 JUMP JUMPDEST SWAP2 POP PUSH2 0x12CD PUSH1 0xA DUP7 PUSH2 0x1A12 JUMP JUMPDEST PUSH2 0x12D8 SWAP1 PUSH1 0x30 PUSH2 0x194D JUMP JUMPDEST PUSH1 0xF8 SHL DUP2 DUP4 DUP2 MLOAD DUP2 LT PUSH2 0x12FB JUMPI PUSH4 0x4E487B71 PUSH1 0xE0 SHL PUSH1 0x0 MSTORE PUSH1 0x32 PUSH1 0x4 MSTORE PUSH1 0x24 PUSH1 0x0 REVERT JUMPDEST PUSH1 0x20 ADD ADD SWAP1 PUSH1 0x1 PUSH1 0x1 PUSH1 0xF8 SHL SUB NOT AND SWAP1 DUP2 PUSH1 0x0 BYTE SWAP1 MSTORE8 POP PUSH2 0x131D PUSH1 0xA DUP7 PUSH2 0x1965 JUMP JUMPDEST SWAP5 POP PUSH2 0x12AF JUMP JUMPDEST PUSH1 0x1 PUSH1 0x1 PUSH1 0xA0 SHL SUB DUP3 AND PUSH2 0x137A JUMPI PUSH1 0x40 MLOAD PUSH3 0x461BCD PUSH1 0xE5 SHL DUP2 MSTORE PUSH1 0x20 PUSH1 0x4 DUP3 ADD DUP2 SWAP1 MSTORE PUSH1 0x24 DUP3 ADD MSTORE PUSH32 0x4552433732313A206D696E7420746F20746865207A65726F2061646472657373 PUSH1 0x44 DUP3 ADD MSTORE PUSH1 0x64 ADD PUSH2 0x40D JUMP JUMPDEST PUSH2 0x1383 DUP2 PUSH2 0x895 JUMP JUMPDEST ISZERO PUSH2 0x13D0 JUMPI PUSH1 0x40 MLOAD PUSH3 0x461BCD PUSH1 0xE5 SHL DUP2 MSTORE PUSH1 0x20 PUSH1 0x4 DUP3 ADD MSTORE PUSH1 0x1C PUSH1 0x24 DUP3 ADD MSTORE PUSH32 0x4552433732313A20746F6B656E20616C7265616479206D696E74656400000000 PUSH1 0x44 DUP3 ADD MSTORE PUSH1 0x64 ADD PUSH2 0x40D JUMP JUMPDEST PUSH1 0x1 PUSH1 0x1 PUSH1 0xA0 SHL SUB DUP3 AND PUSH1 0x0 SWAP1 DUP2 MSTORE PUSH1 0x3 PUSH1 0x20 MSTORE PUSH1 0x40 DUP2 KECCAK256 DUP1 SLOAD PUSH1 0x1 SWAP3 SWAP1 PUSH2 0x13F9 SWAP1 DUP5 SWAP1 PUSH2 0x194D JUMP JUMPDEST SWAP1 SWAP2 SSTORE POP POP PUSH1 0x0 DUP2 DUP2 MSTORE PUSH1 0x2 PUSH1 0x20 MSTORE PUSH1 0x40 DUP1 DUP3 KECCAK256 DUP1 SLOAD PUSH1 0x1 PUSH1 0x1 PUSH1 0xA0 SHL SUB NOT AND PUSH1 0x1 PUSH1 0x1 PUSH1 0xA0 SHL SUB DUP7 AND SWAP1 DUP2 OR SWAP1 SWAP2 SSTORE SWAP1 MLOAD DUP4 SWAP3 SWAP1 PUSH32 0xDDF252AD1BE2C89B69C2B068FC378DAA952BA7F163C4A11628F55A4DF523B3EF SWAP1 DUP3 SWAP1 LOG4 POP POP JUMP JUMPDEST DUP3 DUP1 SLOAD PUSH2 0x1463 SWAP1 PUSH2 0x19BC JUMP JUMPDEST SWAP1 PUSH1 0x0 MSTORE PUSH1 0x20 PUSH1 0x0 KECCAK256 SWAP1 PUSH1 0x1F ADD PUSH1 0x20 SWAP1 DIV DUP2 ADD SWAP3 DUP3 PUSH2 0x1485 JUMPI PUSH1 0x0 DUP6 SSTORE PUSH2 0x14CB JUMP JUMPDEST DUP3 PUSH1 0x1F LT PUSH2 0x149E JUMPI DUP1 MLOAD PUSH1 0xFF NOT AND DUP4 DUP1 ADD OR DUP6 SSTORE PUSH2 0x14CB JUMP JUMPDEST DUP3 DUP1 ADD PUSH1 0x1 ADD DUP6 SSTORE DUP3 ISZERO PUSH2 0x14CB JUMPI SWAP2 DUP3 ADD JUMPDEST DUP3 DUP2 GT ISZERO PUSH2 0x14CB JUMPI DUP3 MLOAD DUP3 SSTORE SWAP2 PUSH1 0x20 ADD SWAP2 SWAP1 PUSH1 0x1 ADD SWAP1 PUSH2 0x14B0 JUMP JUMPDEST POP PUSH2 0x14D7 SWAP3 SWAP2 POP PUSH2 0x1511 JUMP JUMPDEST POP SWAP1 JUMP JUMPDEST POP DUP1 SLOAD PUSH2 0x14E7 SWAP1 PUSH2 0x19BC JUMP JUMPDEST PUSH1 0x0 DUP3 SSTORE DUP1 PUSH1 0x1F LT PUSH2 0x14F7 JUMPI POP POP JUMP JUMPDEST PUSH1 0x1F ADD PUSH1 0x20 SWAP1 DIV SWAP1 PUSH1 0x0 MSTORE PUSH1 0x20 PUSH1 0x0 KECCAK256 SWAP1 DUP2 ADD SWAP1 PUSH2 0x60C SWAP2 SWAP1 JUMPDEST JUMPDEST DUP1 DUP3 GT ISZERO PUSH2 0x14D7 JUMPI PUSH1 0x0 DUP2 SSTORE PUSH1 0x1 ADD PUSH2 0x1512 JUMP JUMPDEST PUSH1 0x0 PUSH8 0xFFFFFFFFFFFFFFFF DUP1 DUP5 GT ISZERO PUSH2 0x1541 JUMPI PUSH2 0x1541 PUSH2 0x1A52 JUMP JUMPDEST PUSH1 0x40 MLOAD PUSH1 0x1F DUP6 ADD PUSH1 0x1F NOT SWAP1 DUP2 AND PUSH1 0x3F ADD AND DUP2 ADD SWAP1 DUP3 DUP3 GT DUP2 DUP4 LT OR ISZERO PUSH2 0x1569 JUMPI PUSH2 0x1569 PUSH2 0x1A52 JUMP JUMPDEST DUP2 PUSH1 0x40 MSTORE DUP1 SWAP4 POP DUP6 DUP2 MSTORE DUP7 DUP7 DUP7 ADD GT ISZERO PUSH2 0x1582 JUMPI PUSH1 0x0 DUP1 REVERT JUMPDEST DUP6 DUP6 PUSH1 0x20 DUP4 ADD CALLDATACOPY PUSH1 0x0 PUSH1 0x20 DUP8 DUP4 ADD ADD MSTORE POP POP POP SWAP4 SWAP3 POP POP POP JUMP JUMPDEST DUP1 CALLDATALOAD PUSH1 0x1 PUSH1 0x1 PUSH1 0xA0 SHL SUB DUP2 AND DUP2 EQ PUSH2 0x15B3 JUMPI PUSH1 0x0 DUP1 REVERT JUMPDEST SWAP2 SWAP1 POP JUMP JUMPDEST PUSH1 0x0 PUSH1 0x20 DUP3 DUP5 SUB SLT ISZERO PUSH2 0x15C9 JUMPI DUP1 DUP2 REVERT JUMPDEST PUSH2 0x1135 DUP3 PUSH2 0x159C JUMP JUMPDEST PUSH1 0x0 DUP1 PUSH1 0x40 DUP4 DUP6 SUB SLT ISZERO PUSH2 0x15E4 JUMPI DUP1 DUP2 REVERT JUMPDEST PUSH2 0x15ED DUP4 PUSH2 0x159C JUMP JUMPDEST SWAP2 POP PUSH2 0x15FB PUSH1 0x20 DUP5 ADD PUSH2 0x159C JUMP JUMPDEST SWAP1 POP SWAP3 POP SWAP3 SWAP1 POP JUMP JUMPDEST PUSH1 0x0 DUP1 PUSH1 0x0 PUSH1 0x60 DUP5 DUP7 SUB SLT ISZERO PUSH2 0x1618 JUMPI DUP1 DUP2 REVERT JUMPDEST PUSH2 0x1621 DUP5 PUSH2 0x159C JUMP JUMPDEST SWAP3 POP PUSH2 0x162F PUSH1 0x20 DUP6 ADD PUSH2 0x159C JUMP JUMPDEST SWAP2 POP PUSH1 0x40 DUP5 ADD CALLDATALOAD SWAP1 POP SWAP3 POP SWAP3 POP SWAP3 JUMP JUMPDEST PUSH1 0x0 DUP1 PUSH1 0x0 DUP1 PUSH1 0x80 DUP6 DUP8 SUB SLT ISZERO PUSH2 0x1654 JUMPI DUP1 DUP2 REVERT JUMPDEST PUSH2 0x165D DUP6 PUSH2 0x159C JUMP JUMPDEST SWAP4 POP PUSH2 0x166B PUSH1 0x20 DUP7 ADD PUSH2 0x159C JUMP JUMPDEST SWAP3 POP PUSH1 0x40 DUP6 ADD CALLDATALOAD SWAP2 POP PUSH1 0x60 DUP6 ADD CALLDATALOAD PUSH8 0xFFFFFFFFFFFFFFFF DUP2 GT ISZERO PUSH2 0x168D JUMPI DUP2 DUP3 REVERT JUMPDEST DUP6 ADD PUSH1 0x1F DUP2 ADD DUP8 SGT PUSH2 0x169D JUMPI DUP2 DUP3 REVERT JUMPDEST PUSH2 0x16AC DUP8 DUP3 CALLDATALOAD PUSH1 0x20 DUP5 ADD PUSH2 0x1526 JUMP JUMPDEST SWAP2 POP POP SWAP3 SWAP6 SWAP2 SWAP5 POP SWAP3 POP JUMP JUMPDEST PUSH1 0x0 DUP1 PUSH1 0x40 DUP4 DUP6 SUB SLT ISZERO PUSH2 0x16CA JUMPI DUP2 DUP3 REVERT JUMPDEST PUSH2 0x16D3 DUP4 PUSH2 0x159C JUMP JUMPDEST SWAP2 POP PUSH1 0x20 DUP4 ADD CALLDATALOAD DUP1 ISZERO ISZERO DUP2 EQ PUSH2 0x16E7 JUMPI DUP2 DUP3 REVERT JUMPDEST DUP1 SWAP2 POP POP SWAP3 POP SWAP3 SWAP1 POP JUMP JUMPDEST PUSH1 0x0 DUP1 PUSH1 0x40 DUP4 DUP6 SUB SLT ISZERO PUSH2 0x1704 JUMPI DUP2 DUP3 REVERT JUMPDEST PUSH2 0x170D DUP4 PUSH2 0x159C JUMP JUMPDEST SWAP2 POP PUSH1 0x20 DUP4 ADD CALLDATALOAD PUSH8 0xFFFFFFFFFFFFFFFF DUP2 GT ISZERO PUSH2 0x1728 JUMPI DUP2 DUP3 REVERT JUMPDEST DUP4 ADD PUSH1 0x1F DUP2 ADD DUP6 SGT PUSH2 0x1738 JUMPI DUP2 DUP3 REVERT JUMPDEST PUSH2 0x1747 DUP6 DUP3 CALLDATALOAD PUSH1 0x20 DUP5 ADD PUSH2 0x1526 JUMP JUMPDEST SWAP2 POP POP SWAP3 POP SWAP3 SWAP1 POP JUMP JUMPDEST PUSH1 0x0 DUP1 PUSH1 0x40 DUP4 DUP6 SUB SLT ISZERO PUSH2 0x1763 JUMPI DUP2 DUP3 REVERT JUMPDEST PUSH2 0x176C DUP4 PUSH2 0x159C JUMP JUMPDEST SWAP5 PUSH1 0x20 SWAP4 SWAP1 SWAP4 ADD CALLDATALOAD SWAP4 POP POP POP JUMP JUMPDEST PUSH1 0x0 PUSH1 0x20 DUP3 DUP5 SUB SLT ISZERO PUSH2 0x178B JUMPI DUP1 DUP2 REVERT JUMPDEST DUP2 CALLDATALOAD PUSH2 0x1135 DUP2 PUSH2 0x1A68 JUMP JUMPDEST PUSH1 0x0 PUSH1 0x20 DUP3 DUP5 SUB SLT ISZERO PUSH2 0x17A7 JUMPI DUP1 DUP2 REVERT JUMPDEST DUP2 MLOAD PUSH2 0x1135 DUP2 PUSH2 0x1A68 JUMP JUMPDEST PUSH1 0x0 PUSH1 0x20 DUP3 DUP5 SUB SLT ISZERO PUSH2 0x17C3 JUMPI DUP1 DUP2 REVERT JUMPDEST POP CALLDATALOAD SWAP2 SWAP1 POP JUMP JUMPDEST PUSH1 0x0 DUP2 MLOAD DUP1 DUP5 MSTORE PUSH2 0x17E2 DUP2 PUSH1 0x20 DUP7 ADD PUSH1 0x20 DUP7 ADD PUSH2 0x1990 JUMP JUMPDEST PUSH1 0x1F ADD PUSH1 0x1F NOT AND SWAP3 SWAP1 SWAP3 ADD PUSH1 0x20 ADD SWAP3 SWAP2 POP POP JUMP JUMPDEST PUSH1 0x0 DUP4 MLOAD PUSH2 0x1808 DUP2 DUP5 PUSH1 0x20 DUP9 ADD PUSH2 0x1990 JUMP JUMPDEST DUP4 MLOAD SWAP1 DUP4 ADD SWAP1 PUSH2 0x181C DUP2 DUP4 PUSH1 0x20 DUP9 ADD PUSH2 0x1990 JUMP JUMPDEST ADD SWAP5 SWAP4 POP POP POP POP JUMP JUMPDEST PUSH1 0x1 PUSH1 0x1 PUSH1 0xA0 SHL SUB DUP6 DUP2 AND DUP3 MSTORE DUP5 AND PUSH1 0x20 DUP3 ADD MSTORE PUSH1 0x40 DUP2 ADD DUP4 SWAP1 MSTORE PUSH1 0x80 PUSH1 0x60 DUP3 ADD DUP2 SWAP1 MSTORE PUSH1 0x0 SWAP1 PUSH2 0x1858 SWAP1 DUP4 ADD DUP5 PUSH2 0x17CA JUMP JUMPDEST SWAP7 SWAP6 POP POP POP POP POP POP JUMP JUMPDEST PUSH1 0x20 DUP2 MSTORE PUSH1 0x0 PUSH2 0x1135 PUSH1 0x20 DUP4 ADD DUP5 PUSH2 0x17CA JUMP JUMPDEST PUSH1 0x20 DUP1 DUP3 MSTORE PUSH1 0x32 SWAP1 DUP3 ADD MSTORE PUSH32 0x4552433732313A207472616E7366657220746F206E6F6E204552433732315265 PUSH1 0x40 DUP3 ADD MSTORE PUSH18 0x31B2B4BB32B91034B6B83632B6B2B73A32B9 PUSH1 0x71 SHL PUSH1 0x60 DUP3 ADD MSTORE PUSH1 0x80 ADD SWAP1 JUMP JUMPDEST PUSH1 0x20 DUP1 DUP3 MSTORE DUP2 DUP2 ADD MSTORE PUSH32 0x4F776E61626C653A2063616C6C6572206973206E6F7420746865206F776E6572 PUSH1 0x40 DUP3 ADD MSTORE PUSH1 0x60 ADD SWAP1 JUMP JUMPDEST PUSH1 0x20 DUP1 DUP3 MSTORE PUSH1 0x31 SWAP1 DUP3 ADD MSTORE PUSH32 0x4552433732313A207472616E736665722063616C6C6572206973206E6F74206F PUSH1 0x40 DUP3 ADD MSTORE PUSH17 0x1DDB995C881B9BDC88185C1C1C9BDD9959 PUSH1 0x7A SHL PUSH1 0x60 DUP3 ADD MSTORE PUSH1 0x80 ADD SWAP1 JUMP JUMPDEST PUSH1 0x0 DUP3 NOT DUP3 GT ISZERO PUSH2 0x1960 JUMPI PUSH2 0x1960 PUSH2 0x1A26 JUMP JUMPDEST POP ADD SWAP1 JUMP JUMPDEST PUSH1 0x0 DUP3 PUSH2 0x1974 JUMPI PUSH2 0x1974 PUSH2 0x1A3C JUMP JUMPDEST POP DIV SWAP1 JUMP JUMPDEST PUSH1 0x0 DUP3 DUP3 LT ISZERO PUSH2 0x198B JUMPI PUSH2 0x198B PUSH2 0x1A26 JUMP JUMPDEST POP SUB SWAP1 JUMP JUMPDEST PUSH1 0x0 JUMPDEST DUP4 DUP2 LT ISZERO PUSH2 0x19AB JUMPI DUP2 DUP2 ADD MLOAD DUP4 DUP3 ADD MSTORE PUSH1 0x20 ADD PUSH2 0x1993 JUMP JUMPDEST DUP4 DUP2 GT ISZERO PUSH2 0x793 JUMPI POP POP PUSH1 0x0 SWAP2 ADD MSTORE JUMP JUMPDEST PUSH1 0x1 DUP2 DUP2 SHR SWAP1 DUP3 AND DUP1 PUSH2 0x19D0 JUMPI PUSH1 0x7F DUP3 AND SWAP2 POP JUMPDEST PUSH1 0x20 DUP3 LT DUP2 EQ ISZERO PUSH2 0x19F1 JUMPI PUSH4 0x4E487B71 PUSH1 0xE0 SHL PUSH1 0x0 MSTORE PUSH1 0x22 PUSH1 0x4 MSTORE PUSH1 0x24 PUSH1 0x0 REVERT JUMPDEST POP SWAP2 SWAP1 POP JUMP JUMPDEST PUSH1 0x0 PUSH1 0x0 NOT DUP3 EQ ISZERO PUSH2 0x1A0B JUMPI PUSH2 0x1A0B PUSH2 0x1A26 JUMP JUMPDEST POP PUSH1 0x1 ADD SWAP1 JUMP JUMPDEST PUSH1 0x0 DUP3 PUSH2 0x1A21 JUMPI PUSH2 0x1A21 PUSH2 0x1A3C JUMP JUMPDEST POP MOD SWAP1 JUMP JUMPDEST PUSH4 0x4E487B71 PUSH1 0xE0 SHL PUSH1 0x0 MSTORE PUSH1 0x11 PUSH1 0x4 MSTORE PUSH1 0x24 PUSH1 0x0 REVERT JUMPDEST PUSH4 0x4E487B71 PUSH1 0xE0 SHL PUSH1 0x0 MSTORE PUSH1 0x12 PUSH1 0x4 MSTORE PUSH1 0x24 PUSH1 0x0 REVERT JUMPDEST PUSH4 0x4E487B71 PUSH1 0xE0 SHL PUSH1 0x0 MSTORE PUSH1 0x41 PUSH1 0x4 MSTORE PUSH1 0x24 PUSH1 0x0 REVERT JUMPDEST PUSH1 0x1 PUSH1 0x1 PUSH1 0xE0 SHL SUB NOT DUP2 AND DUP2 EQ PUSH2 0x60C JUMPI PUSH1 0x0 DUP1 REVERT INVALID LOG2 PUSH5 0x6970667358 0x22 SLT KECCAK256 0xA9 PUSH7 0x6ABF8F19421D30 0xBE 0xAC 0x4A JUMP CODESIZE SWAP9 0x22 0x5C SMOD 0x1E PUSH23 0xB0B5B6760812F14CF944113664736F6C63430008040033 "
				},
				"gasEstimates": {
					"creation": {
						"codeDepositCost": "1367200",
						"executionCost": "infinite",
						"totalCost": "infinite"
					},
					"external": {
						"approve(address,uint256)": "infinite",
						"balanceOf(address)": "1400",
						"burn(uint256)": "infinite",
						"getApproved(uint256)": "2199",
						"isApprovedForAll(address,address)": "infinite",
						"name()": "infinite",
						"owner()": "1076",
						"ownerOf(uint256)": "1345",
						"renounceOwnership()": "23440",
						"safeMint(address,string)": "infinite",
						"safeTransferFrom(address,address,uint256)": "infinite",
						"safeTransferFrom(address,address,uint256,bytes)": "infinite",
						"setApprovalForAll(address,bool)": "23375",
						"supportsInterface(bytes4)": "534",
						"symbol()": "infinite",
						"tokenURI(uint256)": "infinite",
						"transferFrom(address,address,uint256)": "infinite",
						"transferOwnership(address)": "23722"
					},
					"internal": {
						"_burn(uint256)": "infinite"
					}
				},
				"methodIdentifiers": {
					"approve(address,uint256)": "095ea7b3",
					"balanceOf(address)": "70a08231",
					"burn(uint256)": "42966c68",
					"getApproved(uint256)": "081812fc",
					"isApprovedForAll(address,address)": "e985e9c5",
					"name()": "06fdde03",
					"owner()": "8da5cb5b",
					"ownerOf(uint256)": "6352211e",
					"renounceOwnership()": "715018a6",
					"safeMint(address,string)": "d204c45e",
					"safeTransferFrom(address,address,uint256)": "42842e0e",
					"safeTransferFrom(address,address,uint256,bytes)": "b88d4fde",
					"setApprovalForAll(address,bool)": "a22cb465",
					"supportsInterface(bytes4)": "01ffc9a7",
					"symbol()": "95d89b41",
					"tokenURI(uint256)": "c87b56dd",
					"transferFrom(address,address,uint256)": "23b872dd",
					"transferOwnership(address)": "f2fde38b"
				}
			},
			"userdoc": {
				"kind": "user",
				"methods": {},
				"version": 1
			}
		}
	}
}