{
	"RabaToken_flat.sol": {
		"RabaToken": {
			"abi": [
				{
					"inputs": [],
					"stateMutability": "nonpayable",
					"type": "constructor"
				},
				{
					"anonymous": false,
					"inputs": [
						{
							"indexed": true,
							"internalType": "address",
							"name": "owner",
							"type": "address"
						},
						{
							"indexed": true,
							"internalType": "address",
							"name": "spender",
							"type": "address"
						},
						{
							"indexed": false,
							"internalType": "uint256",
							"name": "value",
							"type": "uint256"
						}
					],
					"name": "Approval",
					"type": "event"
				},
				{
					"anonymous": false,
					"inputs": [
						{
							"indexed": true,
							"internalType": "address",
							"name": "previousOwner",
							"type": "address"
						},
						{
							"indexed": true,
							"internalType": "address",
							"name": "newOwner",
							"type": "address"
						}
					],
					"name": "OwnershipTransferred",
					"type": "event"
				},
				{
					"anonymous": false,
					"inputs": [
						{
							"indexed": true,
							"internalType": "address",
							"name": "from",
							"type": "address"
						},
						{
							"indexed": true,
							"internalType": "address",
							"name": "to",
							"type": "address"
						},
						{
							"indexed": false,
							"internalType": "uint256",
							"name": "value",
							"type": "uint256"
						}
					],
					"name": "Transfer",
					"type": "event"
				},
				{
					"inputs": [
						{
							"internalType": "address",
							"name": "owner",
							"type": "address"
						},
						{
							"internalType": "address",
							"name": "spender",
							"type": "address"
						}
					],
					"name": "allowance",
					"outputs": [
						{
							"internalType": "uint256",
							"name": "",
							"type": "uint256"
						}
					],
					"stateMutability": "view",
					"type": "function"
				},
				{
					"inputs": [
						{
							"internalType": "address",
							"name": "spender",
							"type": "address"
						},
						{
							"internalType": "uint256",
							"name": "amount",
							"type": "uint256"
						}
					],
					"name": "approve",
					"outputs": [
						{
							"internalType": "bool",
							"name": "",
							"type": "bool"
						}
					],
					"stateMutability": "nonpayable",
					"type": "function"
				},
				{
					"inputs": [
						{
							"internalType": "address",
							"name": "account",
							"type": "address"
						}
					],
					"name": "balanceOf",
					"outputs": [
						{
							"internalType": "uint256",
							"name": "",
							"type": "uint256"
						}
					],
					"stateMutability": "view",
					"type": "function"
				},
				{
					"inputs": [
						{
							"internalType": "address",
							"name": "to",
							"type": "address"
						}
					],
					"name": "buyToken",
					"outputs": [],
					"stateMutability": "payable",
					"type": "function"
				},
				{
					"inputs": [],
					"name": "decimals",
					"outputs": [
						{
							"internalType": "uint8",
							"name": "",
							"type": "uint8"
						}
					],
					"stateMutability": "view",
					"type": "function"
				},
				{
					"inputs": [
						{
							"internalType": "address",
							"name": "spender",
							"type": "address"
						},
						{
							"internalType": "uint256",
							"name": "subtractedValue",
							"type": "uint256"
						}
					],
					"name": "decreaseAllowance",
					"outputs": [
						{
							"internalType": "bool",
							"name": "",
							"type": "bool"
						}
					],
					"stateMutability": "nonpayable",
					"type": "function"
				},
				{
					"inputs": [
						{
							"internalType": "address",
							"name": "spender",
							"type": "address"
						},
						{
							"internalType": "uint256",
							"name": "addedValue",
							"type": "uint256"
						}
					],
					"name": "increaseAllowance",
					"outputs": [
						{
							"internalType": "bool",
							"name": "",
							"type": "bool"
						}
					],
					"stateMutability": "nonpayable",
					"type": "function"
				},
				{
					"inputs": [
						{
							"internalType": "address",
							"name": "to",
							"type": "address"
						},
						{
							"internalType": "uint256",
							"name": "amount",
							"type": "uint256"
						}
					],
					"name": "mint",
					"outputs": [],
					"stateMutability": "nonpayable",
					"type": "function"
				},
				{
					"inputs": [],
					"name": "name",
					"outputs": [
						{
							"internalType": "string",
							"name": "",
							"type": "string"
						}
					],
					"stateMutability": "view",
					"type": "function"
				},
				{
					"inputs": [],
					"name": "owner",
					"outputs": [
						{
							"internalType": "address",
							"name": "",
							"type": "address"
						}
					],
					"stateMutability": "view",
					"type": "function"
				},
				{
					"inputs": [],
					"name": "rate",
					"outputs": [
						{
							"internalType": "uint256",
							"name": "",
							"type": "uint256"
						}
					],
					"stateMutability": "view",
					"type": "function"
				},
				{
					"inputs": [],
					"name": "renounceOwnership",
					"outputs": [],
					"stateMutability": "nonpayable",
					"type": "function"
				},
				{
					"inputs": [],
					"name": "symbol",
					"outputs": [
						{
							"internalType": "string",
							"name": "",
							"type": "string"
						}
					],
					"stateMutability": "view",
					"type": "function"
				},
				{
					"inputs": [],
					"name": "totalSupply",
					"outputs": [
						{
							"internalType": "uint256",
							"name": "",
							"type": "uint256"
						}
					],
					"stateMutability": "view",
					"type": "function"
				},
				{
					"inputs": [
						{
							"internalType": "address",
							"name": "to",
							"type": "address"
						},
						{
							"internalType": "uint256",
							"name": "amount",
							"type": "uint256"
						}
					],
					"name": "transfer",
					"outputs": [
						{
							"internalType": "bool",
							"name": "",
							"type": "bool"
						}
					],
					"stateMutability": "nonpayable",
					"type": "function"
				},
				{
					"inputs": [
						{
							"internalType": "address",
							"name": "from",
							"type": "address"
						},
						{
							"internalType": "address",
							"name": "to",
							"type": "address"
						},
						{
							"internalType": "uint256",
							"name": "amount",
							"type": "uint256"
						}
					],
					"name": "transferFrom",
					"outputs": [
						{
							"internalType": "bool",
							"name": "",
							"type": "bool"
						}
					],
					"stateMutability": "nonpayable",
					"type": "function"
				},
				{
					"inputs": [
						{
							"internalType": "address",
							"name": "newOwner",
							"type": "address"
						}
					],
					"name": "transferOwnership",
					"outputs": [],
					"stateMutability": "nonpayable",
					"type": "function"
				}
			],
			"devdoc": {
				"kind": "dev",
				"methods": {
					"allowance(address,address)": {
						"details": "See {IERC20-allowance}."
					},
					"approve(address,uint256)": {
						"details": "See {IERC20-approve}. NOTE: If `amount` is the maximum `uint256`, the allowance is not updated on `transferFrom`. This is semantically equivalent to an infinite approval. Requirements: - `spender` cannot be the zero address."
					},
					"balanceOf(address)": {
						"details": "See {IERC20-balanceOf}."
					},
					"decimals()": {
						"details": "Returns the number of decimals used to get its user representation. For example, if `decimals` equals `2`, a balance of `505` tokens should be displayed to a user as `5.05` (`505 / 10 ** 2`). Tokens usually opt for a value of 18, imitating the relationship between Ether and Wei. This is the value {ERC20} uses, unless this function is overridden; NOTE: This information is only used for _display_ purposes: it in no way affects any of the arithmetic of the contract, including {IERC20-balanceOf} and {IERC20-transfer}."
					},
					"decreaseAllowance(address,uint256)": {
						"details": "Atomically decreases the allowance granted to `spender` by the caller. This is an alternative to {approve} that can be used as a mitigation for problems described in {IERC20-approve}. Emits an {Approval} event indicating the updated allowance. Requirements: - `spender` cannot be the zero address. - `spender` must have allowance for the caller of at least `subtractedValue`."
					},
					"increaseAllowance(address,uint256)": {
						"details": "Atomically increases the allowance granted to `spender` by the caller. This is an alternative to {approve} that can be used as a mitigation for problems described in {IERC20-approve}. Emits an {Approval} event indicating the updated allowance. Requirements: - `spender` cannot be the zero address."
					},
					"name()": {
						"details": "Returns the name of the token."
					},
					"owner()": {
						"details": "Returns the address of the current owner."
					},
					"renounceOwnership()": {
						"details": "Leaves the contract without owner. It will not be possible to call `onlyOwner` functions anymore. Can only be called by the current owner. NOTE: Renouncing ownership will leave the contract without an owner, thereby removing any functionality that is only available to the owner."
					},
					"symbol()": {
						"details": "Returns the symbol of the token, usually a shorter version of the name."
					},
					"totalSupply()": {
						"details": "See {IERC20-totalSupply}."
					},
					"transfer(address,uint256)": {
						"details": "See {IERC20-transfer}. Requirements: - `to` cannot be the zero address. - the caller must have a balance of at least `amount`."
					},
					"transferFrom(address,address,uint256)": {
						"details": "See {IERC20-transferFrom}. Emits an {Approval} event indicating the updated allowance. This is not required by the EIP. See the note at the beginning of {ERC20}. NOTE: Does not update the allowance if the current allowance is the maximum `uint256`. Requirements: - `from` and `to` cannot be the zero address. - `from` must have a balance of at least `amount`. - the caller must have allowance for ``from``'s tokens of at least `amount`."
					},
					"transferOwnership(address)": {
						"details": "Transfers ownership of the contract to a new account (`newOwner`). Can only be called by the current owner."
					}
				},
				"version": 1
			},
			"evm": {
				"assembly": "    /* \"RabaToken_flat.sol\":19436:20119  contract RabaToken is ERC20, Ownable {... */\n  mstore(0x40, 0x80)\n    /* \"RabaToken_flat.sol\":19561:19735  constructor() ERC20(\"RabaToken\", \"RTK\") {... */\n  callvalue\n  dup1\n  iszero\n  tag_1\n  jumpi\n  0x00\n  dup1\n  revert\ntag_1:\n  pop\n    /* \"RabaToken_flat.sol\":8724:8837  constructor(string memory name_, string memory symbol_) {... */\n  mload(0x40)\n  dup1\n  0x40\n  add\n  0x40\n  mstore\n  dup1\n  0x09\n  dup2\n  mstore\n  0x20\n  add\n  shl(0xb9, 0x2930b130aa37b5b2b7)\n  dup2\n  mstore\n  pop\n  mload(0x40)\n  dup1\n  0x40\n  add\n  0x40\n  mstore\n  dup1\n  0x03\n  dup2\n  mstore\n  0x20\n  add\n  shl(0xe8, 0x52544b)\n  dup2\n  mstore\n  pop\n    /* \"RabaToken_flat.sol\":8798:8803  name_ */\n  dup2\n    /* \"RabaToken_flat.sol\":8790:8795  _name */\n  0x03\n    /* \"RabaToken_flat.sol\":8790:8803  _name = name_ */\n  swap1\n  dup1\n  mload\n  swap1\n  0x20\n  add\n  swap1\n  tag_6\n  swap3\n  swap2\n  swap1\n  tag_7\n  jump\t// in\ntag_6:\n  pop\n    /* \"RabaToken_flat.sol\":8813:8830  _symbol = symbol_ */\n  dup1\n  mload\n  tag_8\n  swap1\n    /* \"RabaToken_flat.sol\":8813:8820  _symbol */\n  0x04\n  swap1\n    /* \"RabaToken_flat.sol\":8813:8830  _symbol = symbol_ */\n  0x20\n  dup5\n  add\n  swap1\n  tag_7\n  jump\t// in\ntag_8:\n  pop\n    /* \"RabaToken_flat.sol\":8724:8837  constructor(string memory name_, string memory symbol_) {... */\n  pop\n  pop\n    /* \"RabaToken_flat.sol\":1779:1811  _transferOwnership(_msgSender()) */\n  tag_10\n    /* \"RabaToken_flat.sol\":1798:1810  _msgSender() */\n  tag_11\n    /* \"RabaToken_flat.sol\":1798:1808  _msgSender */\n  shl(0x20, tag_12)\n    /* \"RabaToken_flat.sol\":1798:1810  _msgSender() */\n  0x20\n  shr\n  jump\t// in\ntag_11:\n    /* \"RabaToken_flat.sol\":1779:1797  _transferOwnership */\n  tag_13\n    /* \"RabaToken_flat.sol\":1779:1811  _transferOwnership(_msgSender()) */\n  jump\t// in\ntag_10:\n    /* \"RabaToken_flat.sol\":19618:19623  10000 */\n  0x2710\n    /* \"RabaToken_flat.sol\":19611:19615  rate */\n  0x06\n    /* \"RabaToken_flat.sol\":19611:19623  rate = 10000 */\n  sstore\n    /* \"RabaToken_flat.sol\":19657:19673  10 ** decimals() */\n  tag_17\n    /* \"RabaToken_flat.sol\":9921:9923  18 */\n  0x12\n    /* \"RabaToken_flat.sol\":19657:19659  10 */\n  0x0a\n    /* \"RabaToken_flat.sol\":19657:19673  10 ** decimals() */\n  tag_18\n  jump\t// in\ntag_17:\n    /* \"RabaToken_flat.sol\":19647:19673  1000000 * 10 ** decimals() */\n  tag_19\n  swap1\n    /* \"RabaToken_flat.sol\":19647:19654  1000000 */\n  0x0f4240\n    /* \"RabaToken_flat.sol\":19647:19673  1000000 * 10 ** decimals() */\n  tag_20\n  jump\t// in\ntag_19:\n    /* \"RabaToken_flat.sol\":19633:19644  FixedSupply */\n  0x07\n    /* \"RabaToken_flat.sol\":19633:19673  FixedSupply = 1000000 * 10 ** decimals() */\n  sstore\n    /* \"RabaToken_flat.sol\":19683:19728  _mint(msg.sender, 1000000 * 10 ** decimals()) */\n  tag_21\n    /* \"RabaToken_flat.sol\":19689:19699  msg.sender */\n  caller\n    /* \"RabaToken_flat.sol\":19711:19727  10 ** decimals() */\n  tag_23\n    /* \"RabaToken_flat.sol\":9921:9923  18 */\n  0x12\n    /* \"RabaToken_flat.sol\":19711:19713  10 */\n  0x0a\n    /* \"RabaToken_flat.sol\":19711:19727  10 ** decimals() */\n  tag_18\n  jump\t// in\ntag_23:\n    /* \"RabaToken_flat.sol\":19701:19727  1000000 * 10 ** decimals() */\n  tag_24\n  swap1\n    /* \"RabaToken_flat.sol\":19701:19708  1000000 */\n  0x0f4240\n    /* \"RabaToken_flat.sol\":19701:19727  1000000 * 10 ** decimals() */\n  tag_20\n  jump\t// in\ntag_24:\n    /* \"RabaToken_flat.sol\":19683:19688  _mint */\n  tag_25\n    /* \"RabaToken_flat.sol\":19683:19728  _mint(msg.sender, 1000000 * 10 ** decimals()) */\n  jump\t// in\ntag_21:\n    /* \"RabaToken_flat.sol\":19436:20119  contract RabaToken is ERC20, Ownable {... */\n  jump(tag_56)\n    /* \"RabaToken_flat.sol\":662:758  function _msgSender() internal view virtual returns (address) {... */\ntag_12:\n    /* \"RabaToken_flat.sol\":741:751  msg.sender */\n  caller\n  swap1\n    /* \"RabaToken_flat.sol\":662:758  function _msgSender() internal view virtual returns (address) {... */\n  jump\t// out\n    /* \"RabaToken_flat.sol\":3128:3315  function _transferOwnership(address newOwner) internal virtual {... */\ntag_13:\n    /* \"RabaToken_flat.sol\":3220:3226  _owner */\n  0x05\n  dup1\n  sload\n  sub(shl(0xa0, 0x01), 0x01)\n    /* \"RabaToken_flat.sol\":3236:3253  _owner = newOwner */\n  dup4\n  dup2\n  and\n  not(sub(shl(0xa0, 0x01), 0x01))\n  dup4\n  and\n  dup2\n  or\n  swap1\n  swap4\n  sstore\n    /* \"RabaToken_flat.sol\":3268:3308  OwnershipTransferred(oldOwner, newOwner) */\n  mload(0x40)\n    /* \"RabaToken_flat.sol\":3220:3226  _owner */\n  swap2\n  and\n  swap2\n    /* \"RabaToken_flat.sol\":3236:3253  _owner = newOwner */\n  swap1\n    /* \"RabaToken_flat.sol\":3220:3226  _owner */\n  dup3\n  swap1\n    /* \"RabaToken_flat.sol\":3268:3308  OwnershipTransferred(oldOwner, newOwner) */\n  0x8be0079c531659141344cd1fd0a4f28419497f9722a3daafe3b4186f6b6457e0\n  swap1\n    /* \"RabaToken_flat.sol\":3201:3217  address oldOwner */\n  0x00\n  swap1\n    /* \"RabaToken_flat.sol\":3268:3308  OwnershipTransferred(oldOwner, newOwner) */\n  log3\n    /* \"RabaToken_flat.sol\":3128:3315  function _transferOwnership(address newOwner) internal virtual {... */\n  pop\n  pop\n  jump\t// out\n    /* \"RabaToken_flat.sol\":15161:15550  function _mint(address account, uint256 amount) internal virtual {... */\ntag_25:\n  sub(shl(0xa0, 0x01), 0x01)\n    /* \"RabaToken_flat.sol\":15244:15265  account != address(0) */\n  dup3\n  and\n    /* \"RabaToken_flat.sol\":15236:15301  require(account != address(0), \"ERC20: mint to the zero address\") */\n  tag_31\n  jumpi\n  mload(0x40)\n  shl(0xe5, 0x461bcd)\n  dup2\n  mstore\n    /* \"#utility.yul\":216:218   */\n  0x20\n    /* \"RabaToken_flat.sol\":15236:15301  require(account != address(0), \"ERC20: mint to the zero address\") */\n  0x04\n  dup3\n  add\n    /* \"#utility.yul\":198:219   */\n  mstore\n    /* \"#utility.yul\":255:257   */\n  0x1f\n    /* \"#utility.yul\":235:253   */\n  0x24\n  dup3\n  add\n    /* \"#utility.yul\":228:258   */\n  mstore\n    /* \"#utility.yul\":294:327   */\n  0x45524332303a206d696e7420746f20746865207a65726f206164647265737300\n    /* \"#utility.yul\":274:292   */\n  0x44\n  dup3\n  add\n    /* \"#utility.yul\":267:328   */\n  mstore\n    /* \"#utility.yul\":345:363   */\n  0x64\n  add\n    /* \"RabaToken_flat.sol\":15236:15301  require(account != address(0), \"ERC20: mint to the zero address\") */\n  mload(0x40)\n  dup1\n  swap2\n  sub\n  swap1\n  revert\ntag_31:\n    /* \"RabaToken_flat.sol\":15388:15394  amount */\n  dup1\n    /* \"RabaToken_flat.sol\":15372:15384  _totalSupply */\n  0x02\n  0x00\n    /* \"RabaToken_flat.sol\":15372:15394  _totalSupply += amount */\n  dup3\n  dup3\n  sload\n  tag_36\n  swap2\n  swap1\n  tag_37\n  jump\t// in\ntag_36:\n  swap1\n  swap2\n  sstore\n  pop\n  pop\n  sub(shl(0xa0, 0x01), 0x01)\n    /* \"RabaToken_flat.sol\":15404:15422  _balances[account] */\n  dup3\n  and\n    /* \"RabaToken_flat.sol\":15404:15413  _balances */\n  0x00\n    /* \"RabaToken_flat.sol\":15404:15422  _balances[account] */\n  swap1\n  dup2\n  mstore\n  0x20\n  dup2\n  swap1\n  mstore\n  0x40\n  dup2\n  keccak256\n    /* \"RabaToken_flat.sol\":15404:15432  _balances[account] += amount */\n  dup1\n  sload\n    /* \"RabaToken_flat.sol\":15426:15432  amount */\n  dup4\n  swap3\n    /* \"RabaToken_flat.sol\":15404:15413  _balances */\n  swap1\n    /* \"RabaToken_flat.sol\":15404:15432  _balances[account] += amount */\n  tag_38\n  swap1\n    /* \"RabaToken_flat.sol\":15426:15432  amount */\n  dup5\n  swap1\n    /* \"RabaToken_flat.sol\":15404:15432  _balances[account] += amount */\n  tag_37\n  jump\t// in\ntag_38:\n  swap1\n  swap2\n  sstore\n  pop\n  pop\n    /* \"RabaToken_flat.sol\":15447:15484  Transfer(address(0), account, amount) */\n  mload(0x40)\n    /* \"#utility.yul\":520:545   */\n  dup2\n  dup2\n  mstore\n  sub(shl(0xa0, 0x01), 0x01)\n    /* \"RabaToken_flat.sol\":15447:15484  Transfer(address(0), account, amount) */\n  dup4\n  and\n  swap1\n    /* \"RabaToken_flat.sol\":15464:15465  0 */\n  0x00\n  swap1\n    /* \"RabaToken_flat.sol\":15447:15484  Transfer(address(0), account, amount) */\n  0xddf252ad1be2c89b69c2b068fc378daa952ba7f163c4a11628f55a4df523b3ef\n  swap1\n    /* \"#utility.yul\":508:510   */\n  0x20\n    /* \"#utility.yul\":493:511   */\n  add\n    /* \"RabaToken_flat.sol\":15447:15484  Transfer(address(0), account, amount) */\n  mload(0x40)\n  dup1\n  swap2\n  sub\n  swap1\n  log3\n    /* \"RabaToken_flat.sol\":15161:15550  function _mint(address account, uint256 amount) internal virtual {... */\n  pop\n  pop\n  jump\t// out\n    /* \"RabaToken_flat.sol\":19436:20119  contract RabaToken is ERC20, Ownable {... */\ntag_7:\n  dup3\n  dup1\n  sload\n  tag_45\n  swap1\n  tag_46\n  jump\t// in\ntag_45:\n  swap1\n  0x00\n  mstore\n  keccak256(0x00, 0x20)\n  swap1\n  0x1f\n  add\n  0x20\n  swap1\n  div\n  dup2\n  add\n  swap3\n  dup3\n  tag_48\n  jumpi\n  0x00\n  dup6\n  sstore\n  jump(tag_51)\ntag_48:\n  dup3\n  0x1f\n  lt\n  tag_49\n  jumpi\n  dup1\n  mload\n  not(0xff)\n  and\n  dup4\n  dup1\n  add\n  or\n  dup6\n  sstore\n  jump(tag_51)\ntag_49:\n  dup3\n  dup1\n  add\n  0x01\n  add\n  dup6\n  sstore\n  dup3\n  iszero\n  tag_51\n  jumpi\n  swap2\n  dup3\n  add\ntag_50:\n  dup3\n  dup2\n  gt\n  iszero\n  tag_51\n  jumpi\n  dup3\n  mload\n  dup3\n  sstore\n  swap2\n  0x20\n  add\n  swap2\n  swap1\n  0x01\n  add\n  swap1\n  jump(tag_50)\ntag_51:\n  pop\n  tag_52\n  swap3\n  swap2\n  pop\n  tag_53\n  jump\t// in\ntag_52:\n  pop\n  swap1\n  jump\t// out\ntag_53:\ntag_54:\n  dup1\n  dup3\n  gt\n  iszero\n  tag_52\n  jumpi\n  0x00\n  dup2\n  sstore\n  0x01\n  add\n  jump(tag_54)\n    /* \"#utility.yul\":556:684   */\ntag_37:\n    /* \"#utility.yul\":596:599   */\n  0x00\n    /* \"#utility.yul\":627:628   */\n  dup3\n    /* \"#utility.yul\":623:629   */\n  not\n    /* \"#utility.yul\":620:621   */\n  dup3\n    /* \"#utility.yul\":617:630   */\n  gt\n    /* \"#utility.yul\":614:616   */\n  iszero\n  tag_61\n  jumpi\n    /* \"#utility.yul\":633:651   */\n  tag_61\n  tag_62\n  jump\t// in\ntag_61:\n  pop\n    /* \"#utility.yul\":669:678   */\n  add\n  swap1\n    /* \"#utility.yul\":604:684   */\n  jump\t// out\n    /* \"#utility.yul\":689:1111   */\ntag_63:\n    /* \"#utility.yul\":778:779   */\n  0x01\n    /* \"#utility.yul\":821:826   */\n  dup2\n    /* \"#utility.yul\":778:779   */\n  dup2\n    /* \"#utility.yul\":835:1105   */\ntag_65:\n    /* \"#utility.yul\":856:863   */\n  dup1\n    /* \"#utility.yul\":846:854   */\n  dup6\n    /* \"#utility.yul\":843:864   */\n  gt\n    /* \"#utility.yul\":835:1105   */\n  iszero\n  tag_67\n  jumpi\n    /* \"#utility.yul\":915:919   */\n  dup2\n    /* \"#utility.yul\":911:912   */\n  0x00\n    /* \"#utility.yul\":907:913   */\n  not\n    /* \"#utility.yul\":903:920   */\n  div\n    /* \"#utility.yul\":897:901   */\n  dup3\n    /* \"#utility.yul\":894:921   */\n  gt\n    /* \"#utility.yul\":891:893   */\n  iszero\n  tag_69\n  jumpi\n    /* \"#utility.yul\":924:942   */\n  tag_69\n  tag_62\n  jump\t// in\ntag_69:\n    /* \"#utility.yul\":974:981   */\n  dup1\n    /* \"#utility.yul\":964:972   */\n  dup6\n    /* \"#utility.yul\":960:982   */\n  and\n    /* \"#utility.yul\":957:959   */\n  iszero\n  tag_70\n  jumpi\n    /* \"#utility.yul\":994:1010   */\n  swap2\n  dup2\n  mul\n  swap2\n    /* \"#utility.yul\":957:959   */\ntag_70:\n    /* \"#utility.yul\":1073:1095   */\n  swap4\n  dup5\n  shr\n  swap4\n    /* \"#utility.yul\":1033:1048   */\n  swap1\n  dup1\n  mul\n  swap1\n    /* \"#utility.yul\":835:1105   */\n  jump(tag_65)\ntag_67:\n    /* \"#utility.yul\":839:842   */\n  pop\n    /* \"#utility.yul\":753:1111   */\n  swap3\n  pop\n  swap3\n  swap1\n  pop\n  jump\t// out\n    /* \"#utility.yul\":1116:1256   */\ntag_18:\n    /* \"#utility.yul\":1174:1179   */\n  0x00\n    /* \"#utility.yul\":1203:1250   */\n  tag_72\n    /* \"#utility.yul\":1244:1248   */\n  0xff\n    /* \"#utility.yul\":1234:1242   */\n  dup5\n    /* \"#utility.yul\":1230:1249   */\n  and\n    /* \"#utility.yul\":1224:1228   */\n  dup4\n    /* \"#utility.yul\":1203:1250   */\n  tag_73\n  jump\t// in\ntag_72:\n    /* \"#utility.yul\":1194:1250   */\n  swap4\n    /* \"#utility.yul\":1184:1256   */\n  swap3\n  pop\n  pop\n  pop\n  jump\t// out\n    /* \"#utility.yul\":1261:2067   */\ntag_73:\n    /* \"#utility.yul\":1310:1315   */\n  0x00\n    /* \"#utility.yul\":1340:1348   */\n  dup3\n    /* \"#utility.yul\":1330:1332   */\n  tag_75\n  jumpi\n  pop\n    /* \"#utility.yul\":1381:1382   */\n  0x01\n    /* \"#utility.yul\":1395:1400   */\n  jump(tag_74)\n    /* \"#utility.yul\":1330:1332   */\ntag_75:\n    /* \"#utility.yul\":1429:1433   */\n  dup2\n    /* \"#utility.yul\":1419:1421   */\n  tag_76\n  jumpi\n  pop\n    /* \"#utility.yul\":1466:1467   */\n  0x00\n    /* \"#utility.yul\":1480:1485   */\n  jump(tag_74)\n    /* \"#utility.yul\":1419:1421   */\ntag_76:\n    /* \"#utility.yul\":1511:1515   */\n  dup2\n    /* \"#utility.yul\":1529:1530   */\n  0x01\n    /* \"#utility.yul\":1524:1583   */\n  dup2\n  eq\n  tag_78\n  jumpi\n    /* \"#utility.yul\":1597:1598   */\n  0x02\n    /* \"#utility.yul\":1592:1722   */\n  dup2\n  eq\n  tag_79\n  jumpi\n    /* \"#utility.yul\":1504:1722   */\n  jump(tag_77)\n    /* \"#utility.yul\":1524:1583   */\ntag_78:\n    /* \"#utility.yul\":1554:1555   */\n  0x01\n    /* \"#utility.yul\":1545:1555   */\n  swap2\n  pop\n    /* \"#utility.yul\":1568:1573   */\n  pop\n  jump(tag_74)\n    /* \"#utility.yul\":1592:1722   */\ntag_79:\n    /* \"#utility.yul\":1629:1632   */\n  0xff\n    /* \"#utility.yul\":1619:1627   */\n  dup5\n    /* \"#utility.yul\":1616:1633   */\n  gt\n    /* \"#utility.yul\":1613:1615   */\n  iszero\n  tag_81\n  jumpi\n    /* \"#utility.yul\":1636:1654   */\n  tag_81\n  tag_62\n  jump\t// in\ntag_81:\n  pop\n  pop\n    /* \"#utility.yul\":1692:1693   */\n  0x01\n    /* \"#utility.yul\":1678:1694   */\n  dup3\n  shl\n    /* \"#utility.yul\":1707:1712   */\n  jump(tag_74)\n    /* \"#utility.yul\":1504:1722   */\ntag_77:\n  pop\n    /* \"#utility.yul\":1806:1808   */\n  0x20\n    /* \"#utility.yul\":1796:1804   */\n  dup4\n    /* \"#utility.yul\":1793:1809   */\n  lt\n    /* \"#utility.yul\":1787:1790   */\n  0x0133\n    /* \"#utility.yul\":1781:1785   */\n  dup4\n    /* \"#utility.yul\":1778:1791   */\n  lt\n    /* \"#utility.yul\":1774:1810   */\n  and\n    /* \"#utility.yul\":1768:1770   */\n  0x4e\n    /* \"#utility.yul\":1758:1766   */\n  dup5\n    /* \"#utility.yul\":1755:1771   */\n  lt\n    /* \"#utility.yul\":1750:1752   */\n  0x0b\n    /* \"#utility.yul\":1744:1748   */\n  dup5\n    /* \"#utility.yul\":1741:1753   */\n  lt\n    /* \"#utility.yul\":1737:1772   */\n  and\n    /* \"#utility.yul\":1734:1811   */\n  or\n    /* \"#utility.yul\":1731:1733   */\n  iszero\n  tag_82\n  jumpi\n  pop\n    /* \"#utility.yul\":1843:1862   */\n  dup2\n  dup2\n  exp\n    /* \"#utility.yul\":1875:1880   */\n  jump(tag_74)\n    /* \"#utility.yul\":1731:1733   */\ntag_82:\n    /* \"#utility.yul\":1922:1956   */\n  tag_83\n    /* \"#utility.yul\":1947:1955   */\n  dup4\n    /* \"#utility.yul\":1941:1945   */\n  dup4\n    /* \"#utility.yul\":1922:1956   */\n  tag_63\n  jump\t// in\ntag_83:\n    /* \"#utility.yul\":1992:1998   */\n  dup1\n    /* \"#utility.yul\":1988:1989   */\n  0x00\n    /* \"#utility.yul\":1984:1990   */\n  not\n    /* \"#utility.yul\":1980:1999   */\n  div\n    /* \"#utility.yul\":1971:1978   */\n  dup3\n    /* \"#utility.yul\":1968:2000   */\n  gt\n    /* \"#utility.yul\":1965:1967   */\n  iszero\n  tag_85\n  jumpi\n    /* \"#utility.yul\":2003:2021   */\n  tag_85\n  tag_62\n  jump\t// in\ntag_85:\n    /* \"#utility.yul\":2041:2061   */\n  mul\n  swap1\n  pop\n    /* \"#utility.yul\":1320:2067   */\ntag_74:\n  swap3\n  swap2\n  pop\n  pop\n  jump\t// out\n    /* \"#utility.yul\":2072:2240   */\ntag_20:\n    /* \"#utility.yul\":2112:2119   */\n  0x00\n    /* \"#utility.yul\":2178:2179   */\n  dup2\n    /* \"#utility.yul\":2174:2175   */\n  0x00\n    /* \"#utility.yul\":2170:2176   */\n  not\n    /* \"#utility.yul\":2166:2180   */\n  div\n    /* \"#utility.yul\":2163:2164   */\n  dup4\n    /* \"#utility.yul\":2160:2181   */\n  gt\n    /* \"#utility.yul\":2155:2156   */\n  dup3\n    /* \"#utility.yul\":2148:2157   */\n  iszero\n    /* \"#utility.yul\":2141:2158   */\n  iszero\n    /* \"#utility.yul\":2137:2182   */\n  and\n    /* \"#utility.yul\":2134:2136   */\n  iszero\n  tag_88\n  jumpi\n    /* \"#utility.yul\":2185:2203   */\n  tag_88\n  tag_62\n  jump\t// in\ntag_88:\n  pop\n    /* \"#utility.yul\":2225:2234   */\n  mul\n  swap1\n    /* \"#utility.yul\":2124:2240   */\n  jump\t// out\n    /* \"#utility.yul\":2245:2625   */\ntag_46:\n    /* \"#utility.yul\":2324:2325   */\n  0x01\n    /* \"#utility.yul\":2320:2332   */\n  dup2\n  dup2\n  shr\n  swap1\n    /* \"#utility.yul\":2367:2379   */\n  dup3\n  and\n  dup1\n    /* \"#utility.yul\":2388:2390   */\n  tag_90\n  jumpi\n    /* \"#utility.yul\":2442:2446   */\n  0x7f\n    /* \"#utility.yul\":2434:2440   */\n  dup3\n    /* \"#utility.yul\":2430:2447   */\n  and\n    /* \"#utility.yul\":2420:2447   */\n  swap2\n  pop\n    /* \"#utility.yul\":2388:2390   */\ntag_90:\n    /* \"#utility.yul\":2495:2497   */\n  0x20\n    /* \"#utility.yul\":2487:2493   */\n  dup3\n    /* \"#utility.yul\":2484:2498   */\n  lt\n    /* \"#utility.yul\":2464:2482   */\n  dup2\n    /* \"#utility.yul\":2461:2499   */\n  eq\n    /* \"#utility.yul\":2458:2460   */\n  iszero\n  tag_91\n  jumpi\n    /* \"#utility.yul\":2541:2551   */\n  0x4e487b71\n    /* \"#utility.yul\":2536:2539   */\n  0xe0\n    /* \"#utility.yul\":2532:2552   */\n  shl\n    /* \"#utility.yul\":2529:2530   */\n  0x00\n    /* \"#utility.yul\":2522:2553   */\n  mstore\n    /* \"#utility.yul\":2576:2580   */\n  0x22\n    /* \"#utility.yul\":2573:2574   */\n  0x04\n    /* \"#utility.yul\":2566:2581   */\n  mstore\n    /* \"#utility.yul\":2604:2608   */\n  0x24\n    /* \"#utility.yul\":2601:2602   */\n  0x00\n    /* \"#utility.yul\":2594:2609   */\n  revert\n    /* \"#utility.yul\":2458:2460   */\ntag_91:\n  pop\n    /* \"#utility.yul\":2300:2625   */\n  swap2\n  swap1\n  pop\n  jump\t// out\n    /* \"#utility.yul\":2630:2757   */\ntag_62:\n    /* \"#utility.yul\":2691:2701   */\n  0x4e487b71\n    /* \"#utility.yul\":2686:2689   */\n  0xe0\n    /* \"#utility.yul\":2682:2702   */\n  shl\n    /* \"#utility.yul\":2679:2680   */\n  0x00\n    /* \"#utility.yul\":2672:2703   */\n  mstore\n    /* \"#utility.yul\":2722:2726   */\n  0x11\n    /* \"#utility.yul\":2719:2720   */\n  0x04\n    /* \"#utility.yul\":2712:2727   */\n  mstore\n    /* \"#utility.yul\":2746:2750   */\n  0x24\n    /* \"#utility.yul\":2743:2744   */\n  0x00\n    /* \"#utility.yul\":2736:2751   */\n  revert\n    /* \"#utility.yul\":2662:2757   */\ntag_56:\n    /* \"RabaToken_flat.sol\":19436:20119  contract RabaToken is ERC20, Ownable {... */\n  dataSize(sub_0)\n  dup1\n  dataOffset(sub_0)\n  0x00\n  codecopy\n  0x00\n  return\nstop\n\nsub_0: assembly {\n        /* \"RabaToken_flat.sol\":19436:20119  contract RabaToken is ERC20, Ownable {... */\n      mstore(0x40, 0x80)\n      jumpi(tag_1, lt(calldatasize, 0x04))\n      shr(0xe0, calldataload(0x00))\n      dup1\n      0x70a08231\n      gt\n      tag_19\n      jumpi\n      dup1\n      0x95d89b41\n      gt\n      tag_20\n      jumpi\n      dup1\n      0x95d89b41\n      eq\n      tag_14\n      jumpi\n      dup1\n      0xa457c2d7\n      eq\n      tag_15\n      jumpi\n      dup1\n      0xa9059cbb\n      eq\n      tag_16\n      jumpi\n      dup1\n      0xdd62ed3e\n      eq\n      tag_17\n      jumpi\n      dup1\n      0xf2fde38b\n      eq\n      tag_18\n      jumpi\n      0x00\n      dup1\n      revert\n    tag_20:\n      dup1\n      0x70a08231\n      eq\n      tag_10\n      jumpi\n      dup1\n      0x715018a6\n      eq\n      tag_11\n      jumpi\n      dup1\n      0x7e72fb52\n      eq\n      tag_12\n      jumpi\n      dup1\n      0x8da5cb5b\n      eq\n      tag_13\n      jumpi\n      0x00\n      dup1\n      revert\n    tag_19:\n      dup1\n      0x2c4e722e\n      gt\n      tag_21\n      jumpi\n      dup1\n      0x2c4e722e\n      eq\n      tag_6\n      jumpi\n      dup1\n      0x313ce567\n      eq\n      tag_7\n      jumpi\n      dup1\n      0x39509351\n      eq\n      tag_8\n      jumpi\n      dup1\n      0x40c10f19\n      eq\n      tag_9\n      jumpi\n      0x00\n      dup1\n      revert\n    tag_21:\n      dup1\n      0x06fdde03\n      eq\n      tag_2\n      jumpi\n      dup1\n      0x095ea7b3\n      eq\n      tag_3\n      jumpi\n      dup1\n      0x18160ddd\n      eq\n      tag_4\n      jumpi\n      dup1\n      0x23b872dd\n      eq\n      tag_5\n      jumpi\n    tag_1:\n      0x00\n      dup1\n      revert\n        /* \"RabaToken_flat.sol\":8902:9000  function name() public view virtual override returns (string memory) {... */\n    tag_2:\n      callvalue\n      dup1\n      iszero\n      tag_22\n      jumpi\n      0x00\n      dup1\n      revert\n    tag_22:\n      pop\n      tag_23\n      tag_24\n      jump\t// in\n    tag_23:\n      mload(0x40)\n      tag_25\n      swap2\n      swap1\n      tag_26\n      jump\t// in\n    tag_25:\n      mload(0x40)\n      dup1\n      swap2\n      sub\n      swap1\n      return\n        /* \"RabaToken_flat.sol\":11179:11376  function approve(address spender, uint256 amount) public virtual override returns (bool) {... */\n    tag_3:\n      callvalue\n      dup1\n      iszero\n      tag_27\n      jumpi\n      0x00\n      dup1\n      revert\n    tag_27:\n      pop\n      tag_28\n      tag_29\n      calldatasize\n      0x04\n      tag_30\n      jump\t// in\n    tag_29:\n      tag_31\n      jump\t// in\n    tag_28:\n      mload(0x40)\n        /* \"#utility.yul\":1653:1667   */\n      swap1\n      iszero\n        /* \"#utility.yul\":1646:1668   */\n      iszero\n        /* \"#utility.yul\":1628:1669   */\n      dup2\n      mstore\n        /* \"#utility.yul\":1616:1618   */\n      0x20\n        /* \"#utility.yul\":1601:1619   */\n      add\n        /* \"RabaToken_flat.sol\":11179:11376  function approve(address spender, uint256 amount) public virtual override returns (bool) {... */\n      tag_25\n        /* \"#utility.yul\":1583:1675   */\n      jump\n        /* \"RabaToken_flat.sol\":9990:10096  function totalSupply() public view virtual override returns (uint256) {... */\n    tag_4:\n      callvalue\n      dup1\n      iszero\n      tag_34\n      jumpi\n      0x00\n      dup1\n      revert\n    tag_34:\n      pop\n        /* \"RabaToken_flat.sol\":10077:10089  _totalSupply */\n      sload(0x02)\n        /* \"RabaToken_flat.sol\":9990:10096  function totalSupply() public view virtual override returns (uint256) {... */\n    tag_35:\n      mload(0x40)\n        /* \"#utility.yul\":7065:7090   */\n      swap1\n      dup2\n      mstore\n        /* \"#utility.yul\":7053:7055   */\n      0x20\n        /* \"#utility.yul\":7038:7056   */\n      add\n        /* \"RabaToken_flat.sol\":9990:10096  function totalSupply() public view virtual override returns (uint256) {... */\n      tag_25\n        /* \"#utility.yul\":7020:7096   */\n      jump\n        /* \"RabaToken_flat.sol\":11938:12224  function transferFrom(... */\n    tag_5:\n      callvalue\n      dup1\n      iszero\n      tag_39\n      jumpi\n      0x00\n      dup1\n      revert\n    tag_39:\n      pop\n      tag_28\n      tag_41\n      calldatasize\n      0x04\n      tag_42\n      jump\t// in\n    tag_41:\n      tag_43\n      jump\t// in\n        /* \"RabaToken_flat.sol\":19480:19496  uint public rate */\n    tag_6:\n      callvalue\n      dup1\n      iszero\n      tag_45\n      jumpi\n      0x00\n      dup1\n      revert\n    tag_45:\n      pop\n      tag_35\n      sload(0x06)\n      dup2\n      jump\n        /* \"RabaToken_flat.sol\":9839:9930  function decimals() public view virtual override returns (uint8) {... */\n    tag_7:\n      callvalue\n      dup1\n      iszero\n      tag_49\n      jumpi\n      0x00\n      dup1\n      revert\n    tag_49:\n      pop\n      mload(0x40)\n        /* \"RabaToken_flat.sol\":9921:9923  18 */\n      0x12\n        /* \"#utility.yul\":7243:7279   */\n      dup2\n      mstore\n        /* \"#utility.yul\":7231:7233   */\n      0x20\n        /* \"#utility.yul\":7216:7234   */\n      add\n        /* \"RabaToken_flat.sol\":9839:9930  function decimals() public view virtual override returns (uint8) {... */\n      tag_25\n        /* \"#utility.yul\":7198:7285   */\n      jump\n        /* \"RabaToken_flat.sol\":12619:12855  function increaseAllowance(address spender, uint256 addedValue) public virtual returns (bool) {... */\n    tag_8:\n      callvalue\n      dup1\n      iszero\n      tag_54\n      jumpi\n      0x00\n      dup1\n      revert\n    tag_54:\n      pop\n      tag_28\n      tag_56\n      calldatasize\n      0x04\n      tag_30\n      jump\t// in\n    tag_56:\n      tag_57\n      jump\t// in\n        /* \"RabaToken_flat.sol\":19741:19834  function mint(address to, uint256 amount) public onlyOwner {... */\n    tag_9:\n      callvalue\n      dup1\n      iszero\n      tag_59\n      jumpi\n      0x00\n      dup1\n      revert\n    tag_59:\n      pop\n      tag_60\n      tag_61\n      calldatasize\n      0x04\n      tag_30\n      jump\t// in\n    tag_61:\n      tag_62\n      jump\t// in\n    tag_60:\n      stop\n        /* \"RabaToken_flat.sol\":10154:10279  function balanceOf(address account) public view virtual override returns (uint256) {... */\n    tag_10:\n      callvalue\n      dup1\n      iszero\n      tag_63\n      jumpi\n      0x00\n      dup1\n      revert\n    tag_63:\n      pop\n      tag_35\n      tag_65\n      calldatasize\n      0x04\n      tag_66\n      jump\t// in\n    tag_65:\n      sub(shl(0xa0, 0x01), 0x01)\n        /* \"RabaToken_flat.sol\":10254:10272  _balances[account] */\n      and\n        /* \"RabaToken_flat.sol\":10228:10235  uint256 */\n      0x00\n        /* \"RabaToken_flat.sol\":10254:10272  _balances[account] */\n      swap1\n      dup2\n      mstore\n      0x20\n      dup2\n      swap1\n      mstore\n      0x40\n      swap1\n      keccak256\n      sload\n      swap1\n        /* \"RabaToken_flat.sol\":10154:10279  function balanceOf(address account) public view virtual override returns (uint256) {... */\n      jump\n        /* \"RabaToken_flat.sol\":2526:2627  function renounceOwnership() public virtual onlyOwner {... */\n    tag_11:\n      callvalue\n      dup1\n      iszero\n      tag_69\n      jumpi\n      0x00\n      dup1\n      revert\n    tag_69:\n      pop\n      tag_60\n      tag_71\n      jump\t// in\n        /* \"RabaToken_flat.sol\":19837:20117  function buyToken(address to) public payable {... */\n    tag_12:\n      tag_60\n      tag_73\n      calldatasize\n      0x04\n      tag_66\n      jump\t// in\n    tag_73:\n      tag_74\n      jump\t// in\n        /* \"RabaToken_flat.sol\":1894:1979  function owner() public view virtual returns (address) {... */\n    tag_13:\n      callvalue\n      dup1\n      iszero\n      tag_75\n      jumpi\n      0x00\n      dup1\n      revert\n    tag_75:\n      pop\n        /* \"RabaToken_flat.sol\":1966:1972  _owner */\n      sload(0x05)\n        /* \"RabaToken_flat.sol\":1894:1979  function owner() public view virtual returns (address) {... */\n      mload(0x40)\n      sub(shl(0xa0, 0x01), 0x01)\n        /* \"RabaToken_flat.sol\":1966:1972  _owner */\n      swap1\n      swap2\n      and\n        /* \"#utility.yul\":1426:1477   */\n      dup2\n      mstore\n        /* \"#utility.yul\":1414:1416   */\n      0x20\n        /* \"#utility.yul\":1399:1417   */\n      add\n        /* \"RabaToken_flat.sol\":1894:1979  function owner() public view virtual returns (address) {... */\n      tag_25\n        /* \"#utility.yul\":1381:1483   */\n      jump\n        /* \"RabaToken_flat.sol\":9113:9215  function symbol() public view virtual override returns (string memory) {... */\n    tag_14:\n      callvalue\n      dup1\n      iszero\n      tag_80\n      jumpi\n      0x00\n      dup1\n      revert\n    tag_80:\n      pop\n      tag_23\n      tag_82\n      jump\t// in\n        /* \"RabaToken_flat.sol\":13342:13771  function decreaseAllowance(address spender, uint256 subtractedValue) public virtual returns (bool) {... */\n    tag_15:\n      callvalue\n      dup1\n      iszero\n      tag_84\n      jumpi\n      0x00\n      dup1\n      revert\n    tag_84:\n      pop\n      tag_28\n      tag_86\n      calldatasize\n      0x04\n      tag_30\n      jump\t// in\n    tag_86:\n      tag_87\n      jump\t// in\n        /* \"RabaToken_flat.sol\":10475:10664  function transfer(address to, uint256 amount) public virtual override returns (bool) {... */\n    tag_16:\n      callvalue\n      dup1\n      iszero\n      tag_89\n      jumpi\n      0x00\n      dup1\n      revert\n    tag_89:\n      pop\n      tag_28\n      tag_91\n      calldatasize\n      0x04\n      tag_30\n      jump\t// in\n    tag_91:\n      tag_92\n      jump\t// in\n        /* \"RabaToken_flat.sol\":10722:10871  function allowance(address owner, address spender) public view virtual override returns (uint256) {... */\n    tag_17:\n      callvalue\n      dup1\n      iszero\n      tag_94\n      jumpi\n      0x00\n      dup1\n      revert\n    tag_94:\n      pop\n      tag_35\n      tag_96\n      calldatasize\n      0x04\n      tag_97\n      jump\t// in\n    tag_96:\n      sub(shl(0xa0, 0x01), 0x01)\n        /* \"RabaToken_flat.sol\":10837:10855  _allowances[owner] */\n      swap2\n      dup3\n      and\n        /* \"RabaToken_flat.sol\":10811:10818  uint256 */\n      0x00\n        /* \"RabaToken_flat.sol\":10837:10855  _allowances[owner] */\n      swap1\n      dup2\n      mstore\n        /* \"RabaToken_flat.sol\":10837:10848  _allowances */\n      0x01\n        /* \"RabaToken_flat.sol\":10837:10855  _allowances[owner] */\n      0x20\n      swap1\n      dup2\n      mstore\n      0x40\n      dup1\n      dup4\n      keccak256\n        /* \"RabaToken_flat.sol\":10837:10864  _allowances[owner][spender] */\n      swap4\n      swap1\n      swap5\n      and\n      dup3\n      mstore\n      swap2\n      swap1\n      swap2\n      mstore\n      keccak256\n      sload\n      swap1\n        /* \"RabaToken_flat.sol\":10722:10871  function allowance(address owner, address spender) public view virtual override returns (uint256) {... */\n      jump\n        /* \"RabaToken_flat.sol\":2776:2974  function transferOwnership(address newOwner) public virtual onlyOwner {... */\n    tag_18:\n      callvalue\n      dup1\n      iszero\n      tag_100\n      jumpi\n      0x00\n      dup1\n      revert\n    tag_100:\n      pop\n      tag_60\n      tag_102\n      calldatasize\n      0x04\n      tag_66\n      jump\t// in\n    tag_102:\n      tag_103\n      jump\t// in\n        /* \"RabaToken_flat.sol\":8902:9000  function name() public view virtual override returns (string memory) {... */\n    tag_24:\n        /* \"RabaToken_flat.sol\":8956:8969  string memory */\n      0x60\n        /* \"RabaToken_flat.sol\":8988:8993  _name */\n      0x03\n        /* \"RabaToken_flat.sol\":8981:8993  return _name */\n      dup1\n      sload\n      tag_105\n      swap1\n      tag_106\n      jump\t// in\n    tag_105:\n      dup1\n      0x1f\n      add\n      0x20\n      dup1\n      swap2\n      div\n      mul\n      0x20\n      add\n      mload(0x40)\n      swap1\n      dup2\n      add\n      0x40\n      mstore\n      dup1\n      swap3\n      swap2\n      swap1\n      dup2\n      dup2\n      mstore\n      0x20\n      add\n      dup3\n      dup1\n      sload\n      tag_107\n      swap1\n      tag_106\n      jump\t// in\n    tag_107:\n      dup1\n      iszero\n      tag_108\n      jumpi\n      dup1\n      0x1f\n      lt\n      tag_109\n      jumpi\n      0x0100\n      dup1\n      dup4\n      sload\n      div\n      mul\n      dup4\n      mstore\n      swap2\n      0x20\n      add\n      swap2\n      jump(tag_108)\n    tag_109:\n      dup3\n      add\n      swap2\n      swap1\n      0x00\n      mstore\n      keccak256(0x00, 0x20)\n      swap1\n    tag_110:\n      dup2\n      sload\n      dup2\n      mstore\n      swap1\n      0x01\n      add\n      swap1\n      0x20\n      add\n      dup1\n      dup4\n      gt\n      tag_110\n      jumpi\n      dup3\n      swap1\n      sub\n      0x1f\n      and\n      dup3\n      add\n      swap2\n    tag_108:\n      pop\n      pop\n      pop\n      pop\n      pop\n      swap1\n      pop\n        /* \"RabaToken_flat.sol\":8902:9000  function name() public view virtual override returns (string memory) {... */\n      swap1\n      jump\t// out\n        /* \"RabaToken_flat.sol\":11179:11376  function approve(address spender, uint256 amount) public virtual override returns (bool) {... */\n    tag_31:\n        /* \"RabaToken_flat.sol\":11262:11266  bool */\n      0x00\n        /* \"RabaToken_flat.sol\":741:751  msg.sender */\n      caller\n        /* \"RabaToken_flat.sol\":11316:11348  _approve(owner, spender, amount) */\n      tag_114\n        /* \"RabaToken_flat.sol\":741:751  msg.sender */\n      dup2\n        /* \"RabaToken_flat.sol\":11332:11339  spender */\n      dup6\n        /* \"RabaToken_flat.sol\":11341:11347  amount */\n      dup6\n        /* \"RabaToken_flat.sol\":11316:11324  _approve */\n      tag_115\n        /* \"RabaToken_flat.sol\":11316:11348  _approve(owner, spender, amount) */\n      jump\t// in\n    tag_114:\n      pop\n        /* \"RabaToken_flat.sol\":11365:11369  true */\n      0x01\n      swap4\n        /* \"RabaToken_flat.sol\":11179:11376  function approve(address spender, uint256 amount) public virtual override returns (bool) {... */\n      swap3\n      pop\n      pop\n      pop\n      jump\t// out\n        /* \"RabaToken_flat.sol\":11938:12224  function transferFrom(... */\n    tag_43:\n        /* \"RabaToken_flat.sol\":12065:12069  bool */\n      0x00\n        /* \"RabaToken_flat.sol\":741:751  msg.sender */\n      caller\n        /* \"RabaToken_flat.sol\":12121:12159  _spendAllowance(from, spender, amount) */\n      tag_119\n        /* \"RabaToken_flat.sol\":12137:12141  from */\n      dup6\n        /* \"RabaToken_flat.sol\":741:751  msg.sender */\n      dup3\n        /* \"RabaToken_flat.sol\":12152:12158  amount */\n      dup6\n        /* \"RabaToken_flat.sol\":12121:12136  _spendAllowance */\n      tag_120\n        /* \"RabaToken_flat.sol\":12121:12159  _spendAllowance(from, spender, amount) */\n      jump\t// in\n    tag_119:\n        /* \"RabaToken_flat.sol\":12169:12196  _transfer(from, to, amount) */\n      tag_121\n        /* \"RabaToken_flat.sol\":12179:12183  from */\n      dup6\n        /* \"RabaToken_flat.sol\":12185:12187  to */\n      dup6\n        /* \"RabaToken_flat.sol\":12189:12195  amount */\n      dup6\n        /* \"RabaToken_flat.sol\":12169:12178  _transfer */\n      tag_122\n        /* \"RabaToken_flat.sol\":12169:12196  _transfer(from, to, amount) */\n      jump\t// in\n    tag_121:\n      pop\n        /* \"RabaToken_flat.sol\":12213:12217  true */\n      0x01\n      swap5\n        /* \"RabaToken_flat.sol\":11938:12224  function transferFrom(... */\n      swap4\n      pop\n      pop\n      pop\n      pop\n      jump\t// out\n        /* \"RabaToken_flat.sol\":12619:12855  function increaseAllowance(address spender, uint256 addedValue) public virtual returns (bool) {... */\n    tag_57:\n        /* \"RabaToken_flat.sol\":741:751  msg.sender */\n      caller\n        /* \"RabaToken_flat.sol\":12707:12711  bool */\n      0x00\n        /* \"RabaToken_flat.sol\":12786:12804  _allowances[owner] */\n      dup2\n      dup2\n      mstore\n        /* \"RabaToken_flat.sol\":12786:12797  _allowances */\n      0x01\n        /* \"RabaToken_flat.sol\":12786:12804  _allowances[owner] */\n      0x20\n      swap1\n      dup2\n      mstore\n      0x40\n      dup1\n      dup4\n      keccak256\n      sub(shl(0xa0, 0x01), 0x01)\n        /* \"RabaToken_flat.sol\":12786:12813  _allowances[owner][spender] */\n      dup8\n      and\n      dup5\n      mstore\n      swap1\n      swap2\n      mstore\n      dup2\n      keccak256\n      sload\n        /* \"RabaToken_flat.sol\":12707:12711  bool */\n      swap1\n      swap2\n        /* \"RabaToken_flat.sol\":741:751  msg.sender */\n      swap1\n        /* \"RabaToken_flat.sol\":12761:12827  _approve(owner, spender, _allowances[owner][spender] + addedValue) */\n      tag_114\n      swap1\n        /* \"RabaToken_flat.sol\":741:751  msg.sender */\n      dup3\n      swap1\n        /* \"RabaToken_flat.sol\":12786:12813  _allowances[owner][spender] */\n      dup7\n      swap1\n        /* \"RabaToken_flat.sol\":12786:12826  _allowances[owner][spender] + addedValue */\n      tag_127\n      swap1\n        /* \"RabaToken_flat.sol\":12816:12826  addedValue */\n      dup8\n      swap1\n        /* \"RabaToken_flat.sol\":12786:12826  _allowances[owner][spender] + addedValue */\n      tag_128\n      jump\t// in\n    tag_127:\n        /* \"RabaToken_flat.sol\":12761:12769  _approve */\n      tag_115\n        /* \"RabaToken_flat.sol\":12761:12827  _approve(owner, spender, _allowances[owner][spender] + addedValue) */\n      jump\t// in\n        /* \"RabaToken_flat.sol\":19741:19834  function mint(address to, uint256 amount) public onlyOwner {... */\n    tag_62:\n        /* \"RabaToken_flat.sol\":1966:1972  _owner */\n      and(sub(shl(0xa0, 0x01), 0x01), sload(0x05))\n        /* \"RabaToken_flat.sol\":741:751  msg.sender */\n      caller\n        /* \"RabaToken_flat.sol\":2106:2129  owner() == _msgSender() */\n      eq\n        /* \"RabaToken_flat.sol\":2098:2166  require(owner() == _msgSender(), \"Ownable: caller is not the owner\") */\n      tag_132\n      jumpi\n      mload(0x40)\n      shl(0xe5, 0x461bcd)\n      dup2\n      mstore\n      0x04\n      add\n      tag_133\n      swap1\n      tag_134\n      jump\t// in\n    tag_133:\n      mload(0x40)\n      dup1\n      swap2\n      sub\n      swap1\n      revert\n    tag_132:\n        /* \"RabaToken_flat.sol\":19810:19827  _mint(to, amount) */\n      tag_136\n        /* \"RabaToken_flat.sol\":19816:19818  to */\n      dup3\n        /* \"RabaToken_flat.sol\":19820:19826  amount */\n      dup3\n        /* \"RabaToken_flat.sol\":19810:19815  _mint */\n      tag_137\n        /* \"RabaToken_flat.sol\":19810:19827  _mint(to, amount) */\n      jump\t// in\n    tag_136:\n        /* \"RabaToken_flat.sol\":19741:19834  function mint(address to, uint256 amount) public onlyOwner {... */\n      pop\n      pop\n      jump\t// out\n        /* \"RabaToken_flat.sol\":2526:2627  function renounceOwnership() public virtual onlyOwner {... */\n    tag_71:\n        /* \"RabaToken_flat.sol\":1966:1972  _owner */\n      and(sub(shl(0xa0, 0x01), 0x01), sload(0x05))\n        /* \"RabaToken_flat.sol\":741:751  msg.sender */\n      caller\n        /* \"RabaToken_flat.sol\":2106:2129  owner() == _msgSender() */\n      eq\n        /* \"RabaToken_flat.sol\":2098:2166  require(owner() == _msgSender(), \"Ownable: caller is not the owner\") */\n      tag_142\n      jumpi\n      mload(0x40)\n      shl(0xe5, 0x461bcd)\n      dup2\n      mstore\n      0x04\n      add\n      tag_133\n      swap1\n      tag_134\n      jump\t// in\n    tag_142:\n        /* \"RabaToken_flat.sol\":2590:2620  _transferOwnership(address(0)) */\n      tag_145\n        /* \"RabaToken_flat.sol\":2617:2618  0 */\n      0x00\n        /* \"RabaToken_flat.sol\":2590:2608  _transferOwnership */\n      tag_146\n        /* \"RabaToken_flat.sol\":2590:2620  _transferOwnership(address(0)) */\n      jump\t// in\n    tag_145:\n        /* \"RabaToken_flat.sol\":2526:2627  function renounceOwnership() public virtual onlyOwner {... */\n      jump\t// out\n        /* \"RabaToken_flat.sol\":19837:20117  function buyToken(address to) public payable {... */\n    tag_74:\n        /* \"RabaToken_flat.sol\":19953:19972  uint256 amountToBuy */\n      0x00\n        /* \"RabaToken_flat.sol\":19987:19991  rate */\n      sload(0x06)\n        /* \"RabaToken_flat.sol\":19975:19984  msg.value */\n      callvalue\n        /* \"RabaToken_flat.sol\":19975:19991  msg.value * rate */\n      tag_151\n      swap2\n      swap1\n      tag_152\n      jump\t// in\n    tag_151:\n        /* \"RabaToken_flat.sol\":19953:19991  uint256 amountToBuy = msg.value * rate */\n      swap1\n      pop\n        /* \"RabaToken_flat.sol\":20037:20048  amountToBuy */\n      dup1\n        /* \"RabaToken_flat.sol\":20021:20034  totalSupply() */\n      tag_153\n        /* \"RabaToken_flat.sol\":10077:10089  _totalSupply */\n      sload(0x02)\n      swap1\n        /* \"RabaToken_flat.sol\":9990:10096  function totalSupply() public view virtual override returns (uint256) {... */\n      jump\n        /* \"RabaToken_flat.sol\":20021:20034  totalSupply() */\n    tag_153:\n        /* \"RabaToken_flat.sol\":20021:20048  totalSupply() + amountToBuy */\n      tag_154\n      swap2\n      swap1\n      tag_128\n      jump\t// in\n    tag_154:\n        /* \"RabaToken_flat.sol\":20005:20016  FixedSupply */\n      sload(0x07)\n        /* \"RabaToken_flat.sol\":20005:20049  FixedSupply >= (totalSupply() + amountToBuy) */\n      lt\n      iszero\n        /* \"RabaToken_flat.sol\":19997:20080  require(FixedSupply >= (totalSupply() + amountToBuy), \"Cannot exceed fixed supply\") */\n      tag_132\n      jumpi\n      mload(0x40)\n      shl(0xe5, 0x461bcd)\n      dup2\n      mstore\n        /* \"#utility.yul\":4469:4471   */\n      0x20\n        /* \"RabaToken_flat.sol\":19997:20080  require(FixedSupply >= (totalSupply() + amountToBuy), \"Cannot exceed fixed supply\") */\n      0x04\n      dup3\n      add\n        /* \"#utility.yul\":4451:4472   */\n      mstore\n        /* \"#utility.yul\":4508:4510   */\n      0x1a\n        /* \"#utility.yul\":4488:4506   */\n      0x24\n      dup3\n      add\n        /* \"#utility.yul\":4481:4511   */\n      mstore\n        /* \"#utility.yul\":4547:4575   */\n      0x43616e6e6f742065786365656420666978656420737570706c79000000000000\n        /* \"#utility.yul\":4527:4545   */\n      0x44\n      dup3\n      add\n        /* \"#utility.yul\":4520:4576   */\n      mstore\n        /* \"#utility.yul\":4593:4611   */\n      0x64\n      add\n        /* \"RabaToken_flat.sol\":19997:20080  require(FixedSupply >= (totalSupply() + amountToBuy), \"Cannot exceed fixed supply\") */\n      tag_133\n        /* \"#utility.yul\":4441:4617   */\n      jump\n        /* \"RabaToken_flat.sol\":9113:9215  function symbol() public view virtual override returns (string memory) {... */\n    tag_82:\n        /* \"RabaToken_flat.sol\":9169:9182  string memory */\n      0x60\n        /* \"RabaToken_flat.sol\":9201:9208  _symbol */\n      0x04\n        /* \"RabaToken_flat.sol\":9194:9208  return _symbol */\n      dup1\n      sload\n      tag_105\n      swap1\n      tag_106\n      jump\t// in\n        /* \"RabaToken_flat.sol\":13342:13771  function decreaseAllowance(address spender, uint256 subtractedValue) public virtual returns (bool) {... */\n    tag_87:\n        /* \"RabaToken_flat.sol\":741:751  msg.sender */\n      caller\n        /* \"RabaToken_flat.sol\":13435:13439  bool */\n      0x00\n        /* \"RabaToken_flat.sol\":13516:13534  _allowances[owner] */\n      dup2\n      dup2\n      mstore\n        /* \"RabaToken_flat.sol\":13516:13527  _allowances */\n      0x01\n        /* \"RabaToken_flat.sol\":13516:13534  _allowances[owner] */\n      0x20\n      swap1\n      dup2\n      mstore\n      0x40\n      dup1\n      dup4\n      keccak256\n      sub(shl(0xa0, 0x01), 0x01)\n        /* \"RabaToken_flat.sol\":13516:13543  _allowances[owner][spender] */\n      dup8\n      and\n      dup5\n      mstore\n      swap1\n      swap2\n      mstore\n      dup2\n      keccak256\n      sload\n        /* \"RabaToken_flat.sol\":13435:13439  bool */\n      swap1\n      swap2\n        /* \"RabaToken_flat.sol\":741:751  msg.sender */\n      swap1\n        /* \"RabaToken_flat.sol\":13561:13596  currentAllowance >= subtractedValue */\n      dup4\n      dup2\n      lt\n      iszero\n        /* \"RabaToken_flat.sol\":13553:13638  require(currentAllowance >= subtractedValue, \"ERC20: decreased allowance below zero\") */\n      tag_168\n      jumpi\n      mload(0x40)\n      shl(0xe5, 0x461bcd)\n      dup2\n      mstore\n        /* \"#utility.yul\":5996:5998   */\n      0x20\n        /* \"RabaToken_flat.sol\":13553:13638  require(currentAllowance >= subtractedValue, \"ERC20: decreased allowance below zero\") */\n      0x04\n      dup3\n      add\n        /* \"#utility.yul\":5978:5999   */\n      mstore\n        /* \"#utility.yul\":6035:6037   */\n      0x25\n        /* \"#utility.yul\":6015:6033   */\n      0x24\n      dup3\n      add\n        /* \"#utility.yul\":6008:6038   */\n      mstore\n        /* \"#utility.yul\":6074:6108   */\n      0x45524332303a2064656372656173656420616c6c6f77616e63652062656c6f77\n        /* \"#utility.yul\":6054:6072   */\n      0x44\n      dup3\n      add\n        /* \"#utility.yul\":6047:6109   */\n      mstore\n      shl(0xd8, 0x207a65726f)\n        /* \"#utility.yul\":6125:6143   */\n      0x64\n      dup3\n      add\n        /* \"#utility.yul\":6118:6153   */\n      mstore\n        /* \"#utility.yul\":6170:6189   */\n      0x84\n      add\n        /* \"RabaToken_flat.sol\":13553:13638  require(currentAllowance >= subtractedValue, \"ERC20: decreased allowance below zero\") */\n      tag_133\n        /* \"#utility.yul\":5968:6195   */\n      jump\n        /* \"RabaToken_flat.sol\":13553:13638  require(currentAllowance >= subtractedValue, \"ERC20: decreased allowance below zero\") */\n    tag_168:\n        /* \"RabaToken_flat.sol\":13672:13732  _approve(owner, spender, currentAllowance - subtractedValue) */\n      tag_121\n        /* \"RabaToken_flat.sol\":13681:13686  owner */\n      dup3\n        /* \"RabaToken_flat.sol\":13688:13695  spender */\n      dup7\n        /* \"RabaToken_flat.sol\":13716:13731  subtractedValue */\n      dup7\n        /* \"RabaToken_flat.sol\":13697:13713  currentAllowance */\n      dup5\n        /* \"RabaToken_flat.sol\":13697:13731  currentAllowance - subtractedValue */\n      sub\n        /* \"RabaToken_flat.sol\":13672:13680  _approve */\n      tag_115\n        /* \"RabaToken_flat.sol\":13672:13732  _approve(owner, spender, currentAllowance - subtractedValue) */\n      jump\t// in\n        /* \"RabaToken_flat.sol\":10475:10664  function transfer(address to, uint256 amount) public virtual override returns (bool) {... */\n    tag_92:\n        /* \"RabaToken_flat.sol\":10554:10558  bool */\n      0x00\n        /* \"RabaToken_flat.sol\":741:751  msg.sender */\n      caller\n        /* \"RabaToken_flat.sol\":10608:10636  _transfer(owner, to, amount) */\n      tag_114\n        /* \"RabaToken_flat.sol\":741:751  msg.sender */\n      dup2\n        /* \"RabaToken_flat.sol\":10625:10627  to */\n      dup6\n        /* \"RabaToken_flat.sol\":10629:10635  amount */\n      dup6\n        /* \"RabaToken_flat.sol\":10608:10617  _transfer */\n      tag_122\n        /* \"RabaToken_flat.sol\":10608:10636  _transfer(owner, to, amount) */\n      jump\t// in\n        /* \"RabaToken_flat.sol\":2776:2974  function transferOwnership(address newOwner) public virtual onlyOwner {... */\n    tag_103:\n        /* \"RabaToken_flat.sol\":1966:1972  _owner */\n      and(sub(shl(0xa0, 0x01), 0x01), sload(0x05))\n        /* \"RabaToken_flat.sol\":741:751  msg.sender */\n      caller\n        /* \"RabaToken_flat.sol\":2106:2129  owner() == _msgSender() */\n      eq\n        /* \"RabaToken_flat.sol\":2098:2166  require(owner() == _msgSender(), \"Ownable: caller is not the owner\") */\n      tag_179\n      jumpi\n      mload(0x40)\n      shl(0xe5, 0x461bcd)\n      dup2\n      mstore\n      0x04\n      add\n      tag_133\n      swap1\n      tag_134\n      jump\t// in\n    tag_179:\n      sub(shl(0xa0, 0x01), 0x01)\n        /* \"RabaToken_flat.sol\":2864:2886  newOwner != address(0) */\n      dup2\n      and\n        /* \"RabaToken_flat.sol\":2856:2929  require(newOwner != address(0), \"Ownable: new owner is the zero address\") */\n      tag_182\n      jumpi\n      mload(0x40)\n      shl(0xe5, 0x461bcd)\n      dup2\n      mstore\n        /* \"#utility.yul\":2894:2896   */\n      0x20\n        /* \"RabaToken_flat.sol\":2856:2929  require(newOwner != address(0), \"Ownable: new owner is the zero address\") */\n      0x04\n      dup3\n      add\n        /* \"#utility.yul\":2876:2897   */\n      mstore\n        /* \"#utility.yul\":2933:2935   */\n      0x26\n        /* \"#utility.yul\":2913:2931   */\n      0x24\n      dup3\n      add\n        /* \"#utility.yul\":2906:2936   */\n      mstore\n        /* \"#utility.yul\":2972:3006   */\n      0x4f776e61626c653a206e6577206f776e657220697320746865207a65726f2061\n        /* \"#utility.yul\":2952:2970   */\n      0x44\n      dup3\n      add\n        /* \"#utility.yul\":2945:3007   */\n      mstore\n      shl(0xd0, 0x646472657373)\n        /* \"#utility.yul\":3023:3041   */\n      0x64\n      dup3\n      add\n        /* \"#utility.yul\":3016:3052   */\n      mstore\n        /* \"#utility.yul\":3069:3088   */\n      0x84\n      add\n        /* \"RabaToken_flat.sol\":2856:2929  require(newOwner != address(0), \"Ownable: new owner is the zero address\") */\n      tag_133\n        /* \"#utility.yul\":2866:3094   */\n      jump\n        /* \"RabaToken_flat.sol\":2856:2929  require(newOwner != address(0), \"Ownable: new owner is the zero address\") */\n    tag_182:\n        /* \"RabaToken_flat.sol\":2939:2967  _transferOwnership(newOwner) */\n      tag_185\n        /* \"RabaToken_flat.sol\":2958:2966  newOwner */\n      dup2\n        /* \"RabaToken_flat.sol\":2939:2957  _transferOwnership */\n      tag_146\n        /* \"RabaToken_flat.sol\":2939:2967  _transferOwnership(newOwner) */\n      jump\t// in\n    tag_185:\n        /* \"RabaToken_flat.sol\":2776:2974  function transferOwnership(address newOwner) public virtual onlyOwner {... */\n      pop\n      jump\t// out\n        /* \"RabaToken_flat.sol\":16869:17239  function _approve(... */\n    tag_115:\n      sub(shl(0xa0, 0x01), 0x01)\n        /* \"RabaToken_flat.sol\":17000:17019  owner != address(0) */\n      dup4\n      and\n        /* \"RabaToken_flat.sol\":16992:17060  require(owner != address(0), \"ERC20: approve from the zero address\") */\n      tag_188\n      jumpi\n      mload(0x40)\n      shl(0xe5, 0x461bcd)\n      dup2\n      mstore\n        /* \"#utility.yul\":5591:5593   */\n      0x20\n        /* \"RabaToken_flat.sol\":16992:17060  require(owner != address(0), \"ERC20: approve from the zero address\") */\n      0x04\n      dup3\n      add\n        /* \"#utility.yul\":5573:5594   */\n      mstore\n        /* \"#utility.yul\":5630:5632   */\n      0x24\n        /* \"#utility.yul\":5610:5628   */\n      dup1\n      dup3\n      add\n        /* \"#utility.yul\":5603:5633   */\n      mstore\n        /* \"#utility.yul\":5669:5703   */\n      0x45524332303a20617070726f76652066726f6d20746865207a65726f20616464\n        /* \"#utility.yul\":5649:5667   */\n      0x44\n      dup3\n      add\n        /* \"#utility.yul\":5642:5704   */\n      mstore\n      shl(0xe0, 0x72657373)\n        /* \"#utility.yul\":5720:5738   */\n      0x64\n      dup3\n      add\n        /* \"#utility.yul\":5713:5747   */\n      mstore\n        /* \"#utility.yul\":5764:5783   */\n      0x84\n      add\n        /* \"RabaToken_flat.sol\":16992:17060  require(owner != address(0), \"ERC20: approve from the zero address\") */\n      tag_133\n        /* \"#utility.yul\":5563:5789   */\n      jump\n        /* \"RabaToken_flat.sol\":16992:17060  require(owner != address(0), \"ERC20: approve from the zero address\") */\n    tag_188:\n      sub(shl(0xa0, 0x01), 0x01)\n        /* \"RabaToken_flat.sol\":17078:17099  spender != address(0) */\n      dup3\n      and\n        /* \"RabaToken_flat.sol\":17070:17138  require(spender != address(0), \"ERC20: approve to the zero address\") */\n      tag_191\n      jumpi\n      mload(0x40)\n      shl(0xe5, 0x461bcd)\n      dup2\n      mstore\n        /* \"#utility.yul\":3301:3303   */\n      0x20\n        /* \"RabaToken_flat.sol\":17070:17138  require(spender != address(0), \"ERC20: approve to the zero address\") */\n      0x04\n      dup3\n      add\n        /* \"#utility.yul\":3283:3304   */\n      mstore\n        /* \"#utility.yul\":3340:3342   */\n      0x22\n        /* \"#utility.yul\":3320:3338   */\n      0x24\n      dup3\n      add\n        /* \"#utility.yul\":3313:3343   */\n      mstore\n        /* \"#utility.yul\":3379:3413   */\n      0x45524332303a20617070726f766520746f20746865207a65726f206164647265\n        /* \"#utility.yul\":3359:3377   */\n      0x44\n      dup3\n      add\n        /* \"#utility.yul\":3352:3414   */\n      mstore\n      shl(0xf0, 0x7373)\n        /* \"#utility.yul\":3430:3448   */\n      0x64\n      dup3\n      add\n        /* \"#utility.yul\":3423:3455   */\n      mstore\n        /* \"#utility.yul\":3472:3491   */\n      0x84\n      add\n        /* \"RabaToken_flat.sol\":17070:17138  require(spender != address(0), \"ERC20: approve to the zero address\") */\n      tag_133\n        /* \"#utility.yul\":3273:3497   */\n      jump\n        /* \"RabaToken_flat.sol\":17070:17138  require(spender != address(0), \"ERC20: approve to the zero address\") */\n    tag_191:\n      sub(shl(0xa0, 0x01), 0x01)\n        /* \"RabaToken_flat.sol\":17149:17167  _allowances[owner] */\n      dup4\n      dup2\n      and\n      0x00\n      dup2\n      dup2\n      mstore\n        /* \"RabaToken_flat.sol\":17149:17160  _allowances */\n      0x01\n        /* \"RabaToken_flat.sol\":17149:17167  _allowances[owner] */\n      0x20\n      swap1\n      dup2\n      mstore\n      0x40\n      dup1\n      dup4\n      keccak256\n        /* \"RabaToken_flat.sol\":17149:17176  _allowances[owner][spender] */\n      swap5\n      dup8\n      and\n      dup1\n      dup5\n      mstore\n      swap5\n      dup3\n      mstore\n      swap2\n      dup3\n      swap1\n      keccak256\n        /* \"RabaToken_flat.sol\":17149:17185  _allowances[owner][spender] = amount */\n      dup6\n      swap1\n      sstore\n        /* \"RabaToken_flat.sol\":17200:17232  Approval(owner, spender, amount) */\n      swap1\n      mload\n        /* \"#utility.yul\":7065:7090   */\n      dup5\n      dup2\n      mstore\n        /* \"RabaToken_flat.sol\":17200:17232  Approval(owner, spender, amount) */\n      0x8c5be1e5ebec7d5bd14f71427d1e84f3dd0314c0f7b2291e5b200ac8c7c3b925\n      swap2\n        /* \"#utility.yul\":7038:7056   */\n      add\n        /* \"RabaToken_flat.sol\":17200:17232  Approval(owner, spender, amount) */\n      mload(0x40)\n      dup1\n      swap2\n      sub\n      swap1\n      log3\n        /* \"RabaToken_flat.sol\":16869:17239  function _approve(... */\n      pop\n      pop\n      pop\n      jump\t// out\n        /* \"RabaToken_flat.sol\":17516:17957  function _spendAllowance(... */\n    tag_120:\n      sub(shl(0xa0, 0x01), 0x01)\n        /* \"RabaToken_flat.sol\":10837:10855  _allowances[owner] */\n      dup4\n      dup2\n      and\n        /* \"RabaToken_flat.sol\":17646:17670  uint256 currentAllowance */\n      0x00\n        /* \"RabaToken_flat.sol\":10837:10855  _allowances[owner] */\n      swap1\n      dup2\n      mstore\n        /* \"RabaToken_flat.sol\":10837:10848  _allowances */\n      0x01\n        /* \"RabaToken_flat.sol\":10837:10855  _allowances[owner] */\n      0x20\n      swap1\n      dup2\n      mstore\n      0x40\n      dup1\n      dup4\n      keccak256\n        /* \"RabaToken_flat.sol\":10837:10864  _allowances[owner][spender] */\n      swap4\n      dup7\n      and\n      dup4\n      mstore\n      swap3\n      swap1\n      mstore\n      keccak256\n      sload\n      not(0x00)\n        /* \"RabaToken_flat.sol\":17712:17749  currentAllowance != type(uint256).max */\n      dup2\n      eq\n        /* \"RabaToken_flat.sol\":17708:17951  if (currentAllowance != type(uint256).max) {... */\n      tag_201\n      jumpi\n        /* \"RabaToken_flat.sol\":17793:17799  amount */\n      dup2\n        /* \"RabaToken_flat.sol\":17773:17789  currentAllowance */\n      dup2\n        /* \"RabaToken_flat.sol\":17773:17799  currentAllowance >= amount */\n      lt\n      iszero\n        /* \"RabaToken_flat.sol\":17765:17833  require(currentAllowance >= amount, \"ERC20: insufficient allowance\") */\n      tag_198\n      jumpi\n      mload(0x40)\n      shl(0xe5, 0x461bcd)\n      dup2\n      mstore\n        /* \"#utility.yul\":3704:3706   */\n      0x20\n        /* \"RabaToken_flat.sol\":17765:17833  require(currentAllowance >= amount, \"ERC20: insufficient allowance\") */\n      0x04\n      dup3\n      add\n        /* \"#utility.yul\":3686:3707   */\n      mstore\n        /* \"#utility.yul\":3743:3745   */\n      0x1d\n        /* \"#utility.yul\":3723:3741   */\n      0x24\n      dup3\n      add\n        /* \"#utility.yul\":3716:3746   */\n      mstore\n        /* \"#utility.yul\":3782:3813   */\n      0x45524332303a20696e73756666696369656e7420616c6c6f77616e6365000000\n        /* \"#utility.yul\":3762:3780   */\n      0x44\n      dup3\n      add\n        /* \"#utility.yul\":3755:3814   */\n      mstore\n        /* \"#utility.yul\":3831:3849   */\n      0x64\n      add\n        /* \"RabaToken_flat.sol\":17765:17833  require(currentAllowance >= amount, \"ERC20: insufficient allowance\") */\n      tag_133\n        /* \"#utility.yul\":3676:3855   */\n      jump\n        /* \"RabaToken_flat.sol\":17765:17833  require(currentAllowance >= amount, \"ERC20: insufficient allowance\") */\n    tag_198:\n        /* \"RabaToken_flat.sol\":17875:17926  _approve(owner, spender, currentAllowance - amount) */\n      tag_201\n        /* \"RabaToken_flat.sol\":17884:17889  owner */\n      dup5\n        /* \"RabaToken_flat.sol\":17891:17898  spender */\n      dup5\n        /* \"RabaToken_flat.sol\":17919:17925  amount */\n      dup5\n        /* \"RabaToken_flat.sol\":17900:17916  currentAllowance */\n      dup5\n        /* \"RabaToken_flat.sol\":17900:17925  currentAllowance - amount */\n      sub\n        /* \"RabaToken_flat.sol\":17875:17883  _approve */\n      tag_115\n        /* \"RabaToken_flat.sol\":17875:17926  _approve(owner, spender, currentAllowance - amount) */\n      jump\t// in\n    tag_201:\n        /* \"RabaToken_flat.sol\":17516:17957  function _spendAllowance(... */\n      pop\n      pop\n      pop\n      pop\n      jump\t// out\n        /* \"RabaToken_flat.sol\":14234:14885  function _transfer(... */\n    tag_122:\n      sub(shl(0xa0, 0x01), 0x01)\n        /* \"RabaToken_flat.sol\":14360:14378  from != address(0) */\n      dup4\n      and\n        /* \"RabaToken_flat.sol\":14352:14420  require(from != address(0), \"ERC20: transfer from the zero address\") */\n      tag_203\n      jumpi\n      mload(0x40)\n      shl(0xe5, 0x461bcd)\n      dup2\n      mstore\n        /* \"#utility.yul\":5185:5187   */\n      0x20\n        /* \"RabaToken_flat.sol\":14352:14420  require(from != address(0), \"ERC20: transfer from the zero address\") */\n      0x04\n      dup3\n      add\n        /* \"#utility.yul\":5167:5188   */\n      mstore\n        /* \"#utility.yul\":5224:5226   */\n      0x25\n        /* \"#utility.yul\":5204:5222   */\n      0x24\n      dup3\n      add\n        /* \"#utility.yul\":5197:5227   */\n      mstore\n        /* \"#utility.yul\":5263:5297   */\n      0x45524332303a207472616e736665722066726f6d20746865207a65726f206164\n        /* \"#utility.yul\":5243:5261   */\n      0x44\n      dup3\n      add\n        /* \"#utility.yul\":5236:5298   */\n      mstore\n      shl(0xd8, 0x6472657373)\n        /* \"#utility.yul\":5314:5332   */\n      0x64\n      dup3\n      add\n        /* \"#utility.yul\":5307:5342   */\n      mstore\n        /* \"#utility.yul\":5359:5378   */\n      0x84\n      add\n        /* \"RabaToken_flat.sol\":14352:14420  require(from != address(0), \"ERC20: transfer from the zero address\") */\n      tag_133\n        /* \"#utility.yul\":5157:5384   */\n      jump\n        /* \"RabaToken_flat.sol\":14352:14420  require(from != address(0), \"ERC20: transfer from the zero address\") */\n    tag_203:\n      sub(shl(0xa0, 0x01), 0x01)\n        /* \"RabaToken_flat.sol\":14438:14454  to != address(0) */\n      dup3\n      and\n        /* \"RabaToken_flat.sol\":14430:14494  require(to != address(0), \"ERC20: transfer to the zero address\") */\n      tag_206\n      jumpi\n      mload(0x40)\n      shl(0xe5, 0x461bcd)\n      dup2\n      mstore\n        /* \"#utility.yul\":2490:2492   */\n      0x20\n        /* \"RabaToken_flat.sol\":14430:14494  require(to != address(0), \"ERC20: transfer to the zero address\") */\n      0x04\n      dup3\n      add\n        /* \"#utility.yul\":2472:2493   */\n      mstore\n        /* \"#utility.yul\":2529:2531   */\n      0x23\n        /* \"#utility.yul\":2509:2527   */\n      0x24\n      dup3\n      add\n        /* \"#utility.yul\":2502:2532   */\n      mstore\n        /* \"#utility.yul\":2568:2602   */\n      0x45524332303a207472616e7366657220746f20746865207a65726f2061646472\n        /* \"#utility.yul\":2548:2566   */\n      0x44\n      dup3\n      add\n        /* \"#utility.yul\":2541:2603   */\n      mstore\n      shl(0xe8, 0x657373)\n        /* \"#utility.yul\":2619:2637   */\n      0x64\n      dup3\n      add\n        /* \"#utility.yul\":2612:2645   */\n      mstore\n        /* \"#utility.yul\":2662:2681   */\n      0x84\n      add\n        /* \"RabaToken_flat.sol\":14430:14494  require(to != address(0), \"ERC20: transfer to the zero address\") */\n      tag_133\n        /* \"#utility.yul\":2462:2687   */\n      jump\n        /* \"RabaToken_flat.sol\":14430:14494  require(to != address(0), \"ERC20: transfer to the zero address\") */\n    tag_206:\n      sub(shl(0xa0, 0x01), 0x01)\n        /* \"RabaToken_flat.sol\":14576:14591  _balances[from] */\n      dup4\n      and\n        /* \"RabaToken_flat.sol\":14554:14573  uint256 fromBalance */\n      0x00\n        /* \"RabaToken_flat.sol\":14576:14591  _balances[from] */\n      swap1\n      dup2\n      mstore\n      0x20\n      dup2\n      swap1\n      mstore\n      0x40\n      swap1\n      keccak256\n      sload\n        /* \"RabaToken_flat.sol\":14609:14630  fromBalance >= amount */\n      dup2\n      dup2\n      lt\n      iszero\n        /* \"RabaToken_flat.sol\":14601:14673  require(fromBalance >= amount, \"ERC20: transfer amount exceeds balance\") */\n      tag_211\n      jumpi\n      mload(0x40)\n      shl(0xe5, 0x461bcd)\n      dup2\n      mstore\n        /* \"#utility.yul\":4062:4064   */\n      0x20\n        /* \"RabaToken_flat.sol\":14601:14673  require(fromBalance >= amount, \"ERC20: transfer amount exceeds balance\") */\n      0x04\n      dup3\n      add\n        /* \"#utility.yul\":4044:4065   */\n      mstore\n        /* \"#utility.yul\":4101:4103   */\n      0x26\n        /* \"#utility.yul\":4081:4099   */\n      0x24\n      dup3\n      add\n        /* \"#utility.yul\":4074:4104   */\n      mstore\n        /* \"#utility.yul\":4140:4174   */\n      0x45524332303a207472616e7366657220616d6f756e7420657863656564732062\n        /* \"#utility.yul\":4120:4138   */\n      0x44\n      dup3\n      add\n        /* \"#utility.yul\":4113:4175   */\n      mstore\n      shl(0xd0, 0x616c616e6365)\n        /* \"#utility.yul\":4191:4209   */\n      0x64\n      dup3\n      add\n        /* \"#utility.yul\":4184:4220   */\n      mstore\n        /* \"#utility.yul\":4237:4256   */\n      0x84\n      add\n        /* \"RabaToken_flat.sol\":14601:14673  require(fromBalance >= amount, \"ERC20: transfer amount exceeds balance\") */\n      tag_133\n        /* \"#utility.yul\":4034:4262   */\n      jump\n        /* \"RabaToken_flat.sol\":14601:14673  require(fromBalance >= amount, \"ERC20: transfer amount exceeds balance\") */\n    tag_211:\n      sub(shl(0xa0, 0x01), 0x01)\n        /* \"RabaToken_flat.sol\":14707:14722  _balances[from] */\n      dup1\n      dup6\n      and\n        /* \"RabaToken_flat.sol\":14707:14716  _balances */\n      0x00\n        /* \"RabaToken_flat.sol\":14707:14722  _balances[from] */\n      swap1\n      dup2\n      mstore\n      0x20\n      dup2\n      swap1\n      mstore\n      0x40\n      dup1\n      dup3\n      keccak256\n        /* \"RabaToken_flat.sol\":14725:14745  fromBalance - amount */\n      dup6\n      dup6\n      sub\n        /* \"RabaToken_flat.sol\":14707:14745  _balances[from] = fromBalance - amount */\n      swap1\n      sstore\n        /* \"RabaToken_flat.sol\":14765:14778  _balances[to] */\n      swap2\n      dup6\n      and\n      dup2\n      mstore\n      swap1\n      dup2\n      keccak256\n        /* \"RabaToken_flat.sol\":14765:14788  _balances[to] += amount */\n      dup1\n      sload\n        /* \"RabaToken_flat.sol\":14739:14745  amount */\n      dup5\n      swap3\n        /* \"RabaToken_flat.sol\":14707:14716  _balances */\n      swap1\n        /* \"RabaToken_flat.sol\":14765:14788  _balances[to] += amount */\n      tag_214\n      swap1\n        /* \"RabaToken_flat.sol\":14739:14745  amount */\n      dup5\n      swap1\n        /* \"RabaToken_flat.sol\":14765:14788  _balances[to] += amount */\n      tag_128\n      jump\t// in\n    tag_214:\n      swap3\n      pop\n      pop\n      dup2\n      swap1\n      sstore\n      pop\n        /* \"RabaToken_flat.sol\":14819:14821  to */\n      dup3\n      sub(shl(0xa0, 0x01), 0x01)\n        /* \"RabaToken_flat.sol\":14804:14830  Transfer(from, to, amount) */\n      and\n        /* \"RabaToken_flat.sol\":14813:14817  from */\n      dup5\n      sub(shl(0xa0, 0x01), 0x01)\n        /* \"RabaToken_flat.sol\":14804:14830  Transfer(from, to, amount) */\n      and\n      0xddf252ad1be2c89b69c2b068fc378daa952ba7f163c4a11628f55a4df523b3ef\n        /* \"RabaToken_flat.sol\":14823:14829  amount */\n      dup5\n        /* \"RabaToken_flat.sol\":14804:14830  Transfer(from, to, amount) */\n      mload(0x40)\n      tag_215\n      swap2\n        /* \"#utility.yul\":7065:7090   */\n      dup2\n      mstore\n        /* \"#utility.yul\":7053:7055   */\n      0x20\n        /* \"#utility.yul\":7038:7056   */\n      add\n      swap1\n        /* \"#utility.yul\":7020:7096   */\n      jump\n        /* \"RabaToken_flat.sol\":14804:14830  Transfer(from, to, amount) */\n    tag_215:\n      mload(0x40)\n      dup1\n      swap2\n      sub\n      swap1\n      log3\n        /* \"RabaToken_flat.sol\":14841:14878  _afterTokenTransfer(from, to, amount) */\n      tag_201\n        /* \"RabaToken_flat.sol\":18541:18662  function _beforeTokenTransfer(... */\n      jump\n        /* \"RabaToken_flat.sol\":15161:15550  function _mint(address account, uint256 amount) internal virtual {... */\n    tag_137:\n      sub(shl(0xa0, 0x01), 0x01)\n        /* \"RabaToken_flat.sol\":15244:15265  account != address(0) */\n      dup3\n      and\n        /* \"RabaToken_flat.sol\":15236:15301  require(account != address(0), \"ERC20: mint to the zero address\") */\n      tag_219\n      jumpi\n      mload(0x40)\n      shl(0xe5, 0x461bcd)\n      dup2\n      mstore\n        /* \"#utility.yul\":6761:6763   */\n      0x20\n        /* \"RabaToken_flat.sol\":15236:15301  require(account != address(0), \"ERC20: mint to the zero address\") */\n      0x04\n      dup3\n      add\n        /* \"#utility.yul\":6743:6764   */\n      mstore\n        /* \"#utility.yul\":6800:6802   */\n      0x1f\n        /* \"#utility.yul\":6780:6798   */\n      0x24\n      dup3\n      add\n        /* \"#utility.yul\":6773:6803   */\n      mstore\n        /* \"#utility.yul\":6839:6872   */\n      0x45524332303a206d696e7420746f20746865207a65726f206164647265737300\n        /* \"#utility.yul\":6819:6837   */\n      0x44\n      dup3\n      add\n        /* \"#utility.yul\":6812:6873   */\n      mstore\n        /* \"#utility.yul\":6890:6908   */\n      0x64\n      add\n        /* \"RabaToken_flat.sol\":15236:15301  require(account != address(0), \"ERC20: mint to the zero address\") */\n      tag_133\n        /* \"#utility.yul\":6733:6914   */\n      jump\n        /* \"RabaToken_flat.sol\":15236:15301  require(account != address(0), \"ERC20: mint to the zero address\") */\n    tag_219:\n        /* \"RabaToken_flat.sol\":15388:15394  amount */\n      dup1\n        /* \"RabaToken_flat.sol\":15372:15384  _totalSupply */\n      0x02\n      0x00\n        /* \"RabaToken_flat.sol\":15372:15394  _totalSupply += amount */\n      dup3\n      dup3\n      sload\n      tag_223\n      swap2\n      swap1\n      tag_128\n      jump\t// in\n    tag_223:\n      swap1\n      swap2\n      sstore\n      pop\n      pop\n      sub(shl(0xa0, 0x01), 0x01)\n        /* \"RabaToken_flat.sol\":15404:15422  _balances[account] */\n      dup3\n      and\n        /* \"RabaToken_flat.sol\":15404:15413  _balances */\n      0x00\n        /* \"RabaToken_flat.sol\":15404:15422  _balances[account] */\n      swap1\n      dup2\n      mstore\n      0x20\n      dup2\n      swap1\n      mstore\n      0x40\n      dup2\n      keccak256\n        /* \"RabaToken_flat.sol\":15404:15432  _balances[account] += amount */\n      dup1\n      sload\n        /* \"RabaToken_flat.sol\":15426:15432  amount */\n      dup4\n      swap3\n        /* \"RabaToken_flat.sol\":15404:15413  _balances */\n      swap1\n        /* \"RabaToken_flat.sol\":15404:15432  _balances[account] += amount */\n      tag_224\n      swap1\n        /* \"RabaToken_flat.sol\":15426:15432  amount */\n      dup5\n      swap1\n        /* \"RabaToken_flat.sol\":15404:15432  _balances[account] += amount */\n      tag_128\n      jump\t// in\n    tag_224:\n      swap1\n      swap2\n      sstore\n      pop\n      pop\n        /* \"RabaToken_flat.sol\":15447:15484  Transfer(address(0), account, amount) */\n      mload(0x40)\n        /* \"#utility.yul\":7065:7090   */\n      dup2\n      dup2\n      mstore\n      sub(shl(0xa0, 0x01), 0x01)\n        /* \"RabaToken_flat.sol\":15447:15484  Transfer(address(0), account, amount) */\n      dup4\n      and\n      swap1\n        /* \"RabaToken_flat.sol\":15464:15465  0 */\n      0x00\n      swap1\n        /* \"RabaToken_flat.sol\":15447:15484  Transfer(address(0), account, amount) */\n      0xddf252ad1be2c89b69c2b068fc378daa952ba7f163c4a11628f55a4df523b3ef\n      swap1\n        /* \"#utility.yul\":7053:7055   */\n      0x20\n        /* \"#utility.yul\":7038:7056   */\n      add\n        /* \"RabaToken_flat.sol\":15447:15484  Transfer(address(0), account, amount) */\n      mload(0x40)\n      dup1\n      swap2\n      sub\n      swap1\n      log3\n        /* \"RabaToken_flat.sol\":19741:19834  function mint(address to, uint256 amount) public onlyOwner {... */\n      pop\n      pop\n      jump\t// out\n        /* \"RabaToken_flat.sol\":3128:3315  function _transferOwnership(address newOwner) internal virtual {... */\n    tag_146:\n        /* \"RabaToken_flat.sol\":3220:3226  _owner */\n      0x05\n      dup1\n      sload\n      sub(shl(0xa0, 0x01), 0x01)\n        /* \"RabaToken_flat.sol\":3236:3253  _owner = newOwner */\n      dup4\n      dup2\n      and\n      not(sub(shl(0xa0, 0x01), 0x01))\n      dup4\n      and\n      dup2\n      or\n      swap1\n      swap4\n      sstore\n        /* \"RabaToken_flat.sol\":3268:3308  OwnershipTransferred(oldOwner, newOwner) */\n      mload(0x40)\n        /* \"RabaToken_flat.sol\":3220:3226  _owner */\n      swap2\n      and\n      swap2\n        /* \"RabaToken_flat.sol\":3236:3253  _owner = newOwner */\n      swap1\n        /* \"RabaToken_flat.sol\":3220:3226  _owner */\n      dup3\n      swap1\n        /* \"RabaToken_flat.sol\":3268:3308  OwnershipTransferred(oldOwner, newOwner) */\n      0x8be0079c531659141344cd1fd0a4f28419497f9722a3daafe3b4186f6b6457e0\n      swap1\n        /* \"RabaToken_flat.sol\":3201:3217  address oldOwner */\n      0x00\n      swap1\n        /* \"RabaToken_flat.sol\":3268:3308  OwnershipTransferred(oldOwner, newOwner) */\n      log3\n        /* \"RabaToken_flat.sol\":3128:3315  function _transferOwnership(address newOwner) internal virtual {... */\n      pop\n      pop\n      jump\t// out\n        /* \"#utility.yul\":14:187   */\n    tag_231:\n        /* \"#utility.yul\":82:102   */\n      dup1\n      calldataload\n      sub(shl(0xa0, 0x01), 0x01)\n        /* \"#utility.yul\":131:162   */\n      dup2\n      and\n        /* \"#utility.yul\":121:163   */\n      dup2\n      eq\n        /* \"#utility.yul\":111:113   */\n      tag_233\n      jumpi\n        /* \"#utility.yul\":177:178   */\n      0x00\n        /* \"#utility.yul\":174:175   */\n      dup1\n        /* \"#utility.yul\":167:179   */\n      revert\n        /* \"#utility.yul\":111:113   */\n    tag_233:\n        /* \"#utility.yul\":63:187   */\n      swap2\n      swap1\n      pop\n      jump\t// out\n        /* \"#utility.yul\":192:388   */\n    tag_66:\n        /* \"#utility.yul\":251:257   */\n      0x00\n        /* \"#utility.yul\":304:306   */\n      0x20\n        /* \"#utility.yul\":292:301   */\n      dup3\n        /* \"#utility.yul\":283:290   */\n      dup5\n        /* \"#utility.yul\":279:302   */\n      sub\n        /* \"#utility.yul\":275:307   */\n      slt\n        /* \"#utility.yul\":272:274   */\n      iszero\n      tag_235\n      jumpi\n        /* \"#utility.yul\":325:331   */\n      dup1\n        /* \"#utility.yul\":317:323   */\n      dup2\n        /* \"#utility.yul\":310:332   */\n      revert\n        /* \"#utility.yul\":272:274   */\n    tag_235:\n        /* \"#utility.yul\":353:382   */\n      tag_236\n        /* \"#utility.yul\":372:381   */\n      dup3\n        /* \"#utility.yul\":353:382   */\n      tag_231\n      jump\t// in\n    tag_236:\n        /* \"#utility.yul\":343:382   */\n      swap4\n        /* \"#utility.yul\":262:388   */\n      swap3\n      pop\n      pop\n      pop\n      jump\t// out\n        /* \"#utility.yul\":393:663   */\n    tag_97:\n        /* \"#utility.yul\":461:467   */\n      0x00\n        /* \"#utility.yul\":469:475   */\n      dup1\n        /* \"#utility.yul\":522:524   */\n      0x40\n        /* \"#utility.yul\":510:519   */\n      dup4\n        /* \"#utility.yul\":501:508   */\n      dup6\n        /* \"#utility.yul\":497:520   */\n      sub\n        /* \"#utility.yul\":493:525   */\n      slt\n        /* \"#utility.yul\":490:492   */\n      iszero\n      tag_238\n      jumpi\n        /* \"#utility.yul\":543:549   */\n      dup1\n        /* \"#utility.yul\":535:541   */\n      dup2\n        /* \"#utility.yul\":528:550   */\n      revert\n        /* \"#utility.yul\":490:492   */\n    tag_238:\n        /* \"#utility.yul\":571:600   */\n      tag_239\n        /* \"#utility.yul\":590:599   */\n      dup4\n        /* \"#utility.yul\":571:600   */\n      tag_231\n      jump\t// in\n    tag_239:\n        /* \"#utility.yul\":561:600   */\n      swap2\n      pop\n        /* \"#utility.yul\":619:657   */\n      tag_240\n        /* \"#utility.yul\":653:655   */\n      0x20\n        /* \"#utility.yul\":642:651   */\n      dup5\n        /* \"#utility.yul\":638:656   */\n      add\n        /* \"#utility.yul\":619:657   */\n      tag_231\n      jump\t// in\n    tag_240:\n        /* \"#utility.yul\":609:657   */\n      swap1\n      pop\n        /* \"#utility.yul\":480:663   */\n      swap3\n      pop\n      swap3\n      swap1\n      pop\n      jump\t// out\n        /* \"#utility.yul\":668:1006   */\n    tag_42:\n        /* \"#utility.yul\":745:751   */\n      0x00\n        /* \"#utility.yul\":753:759   */\n      dup1\n        /* \"#utility.yul\":761:767   */\n      0x00\n        /* \"#utility.yul\":814:816   */\n      0x60\n        /* \"#utility.yul\":802:811   */\n      dup5\n        /* \"#utility.yul\":793:800   */\n      dup7\n        /* \"#utility.yul\":789:812   */\n      sub\n        /* \"#utility.yul\":785:817   */\n      slt\n        /* \"#utility.yul\":782:784   */\n      iszero\n      tag_242\n      jumpi\n        /* \"#utility.yul\":835:841   */\n      dup1\n        /* \"#utility.yul\":827:833   */\n      dup2\n        /* \"#utility.yul\":820:842   */\n      revert\n        /* \"#utility.yul\":782:784   */\n    tag_242:\n        /* \"#utility.yul\":863:892   */\n      tag_243\n        /* \"#utility.yul\":882:891   */\n      dup5\n        /* \"#utility.yul\":863:892   */\n      tag_231\n      jump\t// in\n    tag_243:\n        /* \"#utility.yul\":853:892   */\n      swap3\n      pop\n        /* \"#utility.yul\":911:949   */\n      tag_244\n        /* \"#utility.yul\":945:947   */\n      0x20\n        /* \"#utility.yul\":934:943   */\n      dup6\n        /* \"#utility.yul\":930:948   */\n      add\n        /* \"#utility.yul\":911:949   */\n      tag_231\n      jump\t// in\n    tag_244:\n        /* \"#utility.yul\":901:949   */\n      swap2\n      pop\n        /* \"#utility.yul\":996:998   */\n      0x40\n        /* \"#utility.yul\":985:994   */\n      dup5\n        /* \"#utility.yul\":981:999   */\n      add\n        /* \"#utility.yul\":968:1000   */\n      calldataload\n        /* \"#utility.yul\":958:1000   */\n      swap1\n      pop\n        /* \"#utility.yul\":772:1006   */\n      swap3\n      pop\n      swap3\n      pop\n      swap3\n      jump\t// out\n        /* \"#utility.yul\":1011:1275   */\n    tag_30:\n        /* \"#utility.yul\":1079:1085   */\n      0x00\n        /* \"#utility.yul\":1087:1093   */\n      dup1\n        /* \"#utility.yul\":1140:1142   */\n      0x40\n        /* \"#utility.yul\":1128:1137   */\n      dup4\n        /* \"#utility.yul\":1119:1126   */\n      dup6\n        /* \"#utility.yul\":1115:1138   */\n      sub\n        /* \"#utility.yul\":1111:1143   */\n      slt\n        /* \"#utility.yul\":1108:1110   */\n      iszero\n      tag_246\n      jumpi\n        /* \"#utility.yul\":1161:1167   */\n      dup2\n        /* \"#utility.yul\":1153:1159   */\n      dup3\n        /* \"#utility.yul\":1146:1168   */\n      revert\n        /* \"#utility.yul\":1108:1110   */\n    tag_246:\n        /* \"#utility.yul\":1189:1218   */\n      tag_247\n        /* \"#utility.yul\":1208:1217   */\n      dup4\n        /* \"#utility.yul\":1189:1218   */\n      tag_231\n      jump\t// in\n    tag_247:\n        /* \"#utility.yul\":1179:1218   */\n      swap5\n        /* \"#utility.yul\":1265:1267   */\n      0x20\n        /* \"#utility.yul\":1250:1268   */\n      swap4\n      swap1\n      swap4\n      add\n        /* \"#utility.yul\":1237:1269   */\n      calldataload\n      swap4\n      pop\n      pop\n      pop\n        /* \"#utility.yul\":1098:1275   */\n      jump\t// out\n        /* \"#utility.yul\":1680:2283   */\n    tag_26:\n        /* \"#utility.yul\":1792:1796   */\n      0x00\n        /* \"#utility.yul\":1821:1823   */\n      0x20\n        /* \"#utility.yul\":1850:1852   */\n      dup1\n        /* \"#utility.yul\":1839:1848   */\n      dup4\n        /* \"#utility.yul\":1832:1853   */\n      mstore\n        /* \"#utility.yul\":1882:1888   */\n      dup4\n        /* \"#utility.yul\":1876:1889   */\n      mload\n        /* \"#utility.yul\":1925:1931   */\n      dup1\n        /* \"#utility.yul\":1920:1922   */\n      dup3\n        /* \"#utility.yul\":1909:1918   */\n      dup6\n        /* \"#utility.yul\":1905:1923   */\n      add\n        /* \"#utility.yul\":1898:1932   */\n      mstore\n        /* \"#utility.yul\":1950:1954   */\n      dup3\n        /* \"#utility.yul\":1963:2103   */\n    tag_251:\n        /* \"#utility.yul\":1977:1983   */\n      dup2\n        /* \"#utility.yul\":1974:1975   */\n      dup2\n        /* \"#utility.yul\":1971:1984   */\n      lt\n        /* \"#utility.yul\":1963:2103   */\n      iszero\n      tag_253\n      jumpi\n        /* \"#utility.yul\":2072:2086   */\n      dup6\n      dup2\n      add\n        /* \"#utility.yul\":2068:2091   */\n      dup4\n      add\n        /* \"#utility.yul\":2062:2092   */\n      mload\n        /* \"#utility.yul\":2038:2055   */\n      dup6\n      dup3\n      add\n        /* \"#utility.yul\":2057:2059   */\n      0x40\n        /* \"#utility.yul\":2034:2060   */\n      add\n        /* \"#utility.yul\":2027:2093   */\n      mstore\n        /* \"#utility.yul\":1992:2002   */\n      dup3\n      add\n        /* \"#utility.yul\":1963:2103   */\n      jump(tag_251)\n    tag_253:\n        /* \"#utility.yul\":2121:2127   */\n      dup2\n        /* \"#utility.yul\":2118:2119   */\n      dup2\n        /* \"#utility.yul\":2115:2128   */\n      gt\n        /* \"#utility.yul\":2112:2114   */\n      iszero\n      tag_254\n      jumpi\n        /* \"#utility.yul\":2191:2195   */\n      dup4\n        /* \"#utility.yul\":2186:2188   */\n      0x40\n        /* \"#utility.yul\":2177:2183   */\n      dup4\n        /* \"#utility.yul\":2166:2175   */\n      dup8\n        /* \"#utility.yul\":2162:2184   */\n      add\n        /* \"#utility.yul\":2158:2189   */\n      add\n        /* \"#utility.yul\":2151:2196   */\n      mstore\n        /* \"#utility.yul\":2112:2114   */\n    tag_254:\n      pop\n        /* \"#utility.yul\":2267:2269   */\n      0x1f\n        /* \"#utility.yul\":2246:2261   */\n      add\n      not(0x1f)\n        /* \"#utility.yul\":2242:2271   */\n      and\n        /* \"#utility.yul\":2227:2272   */\n      swap3\n      swap1\n      swap3\n      add\n        /* \"#utility.yul\":2274:2276   */\n      0x40\n        /* \"#utility.yul\":2223:2277   */\n      add\n      swap4\n        /* \"#utility.yul\":1801:2283   */\n      swap3\n      pop\n      pop\n      pop\n      jump\t// out\n        /* \"#utility.yul\":4622:4978   */\n    tag_134:\n        /* \"#utility.yul\":4824:4826   */\n      0x20\n        /* \"#utility.yul\":4806:4827   */\n      dup1\n      dup3\n      mstore\n        /* \"#utility.yul\":4843:4861   */\n      dup2\n      dup2\n      add\n        /* \"#utility.yul\":4836:4866   */\n      mstore\n        /* \"#utility.yul\":4902:4936   */\n      0x4f776e61626c653a2063616c6c6572206973206e6f7420746865206f776e6572\n        /* \"#utility.yul\":4897:4899   */\n      0x40\n        /* \"#utility.yul\":4882:4900   */\n      dup3\n      add\n        /* \"#utility.yul\":4875:4937   */\n      mstore\n        /* \"#utility.yul\":4969:4971   */\n      0x60\n        /* \"#utility.yul\":4954:4972   */\n      add\n      swap1\n        /* \"#utility.yul\":4796:4978   */\n      jump\t// out\n        /* \"#utility.yul\":7290:7418   */\n    tag_128:\n        /* \"#utility.yul\":7330:7333   */\n      0x00\n        /* \"#utility.yul\":7361:7362   */\n      dup3\n        /* \"#utility.yul\":7357:7363   */\n      not\n        /* \"#utility.yul\":7354:7355   */\n      dup3\n        /* \"#utility.yul\":7351:7364   */\n      gt\n        /* \"#utility.yul\":7348:7350   */\n      iszero\n      tag_271\n      jumpi\n        /* \"#utility.yul\":7367:7385   */\n      tag_271\n      tag_272\n      jump\t// in\n    tag_271:\n      pop\n        /* \"#utility.yul\":7403:7412   */\n      add\n      swap1\n        /* \"#utility.yul\":7338:7418   */\n      jump\t// out\n        /* \"#utility.yul\":7423:7591   */\n    tag_152:\n        /* \"#utility.yul\":7463:7470   */\n      0x00\n        /* \"#utility.yul\":7529:7530   */\n      dup2\n        /* \"#utility.yul\":7525:7526   */\n      0x00\n        /* \"#utility.yul\":7521:7527   */\n      not\n        /* \"#utility.yul\":7517:7531   */\n      div\n        /* \"#utility.yul\":7514:7515   */\n      dup4\n        /* \"#utility.yul\":7511:7532   */\n      gt\n        /* \"#utility.yul\":7506:7507   */\n      dup3\n        /* \"#utility.yul\":7499:7508   */\n      iszero\n        /* \"#utility.yul\":7492:7509   */\n      iszero\n        /* \"#utility.yul\":7488:7533   */\n      and\n        /* \"#utility.yul\":7485:7487   */\n      iszero\n      tag_275\n      jumpi\n        /* \"#utility.yul\":7536:7554   */\n      tag_275\n      tag_272\n      jump\t// in\n    tag_275:\n      pop\n        /* \"#utility.yul\":7576:7585   */\n      mul\n      swap1\n        /* \"#utility.yul\":7475:7591   */\n      jump\t// out\n        /* \"#utility.yul\":7596:7976   */\n    tag_106:\n        /* \"#utility.yul\":7675:7676   */\n      0x01\n        /* \"#utility.yul\":7671:7683   */\n      dup2\n      dup2\n      shr\n      swap1\n        /* \"#utility.yul\":7718:7730   */\n      dup3\n      and\n      dup1\n        /* \"#utility.yul\":7739:7741   */\n      tag_277\n      jumpi\n        /* \"#utility.yul\":7793:7797   */\n      0x7f\n        /* \"#utility.yul\":7785:7791   */\n      dup3\n        /* \"#utility.yul\":7781:7798   */\n      and\n        /* \"#utility.yul\":7771:7798   */\n      swap2\n      pop\n        /* \"#utility.yul\":7739:7741   */\n    tag_277:\n        /* \"#utility.yul\":7846:7848   */\n      0x20\n        /* \"#utility.yul\":7838:7844   */\n      dup3\n        /* \"#utility.yul\":7835:7849   */\n      lt\n        /* \"#utility.yul\":7815:7833   */\n      dup2\n        /* \"#utility.yul\":7812:7850   */\n      eq\n        /* \"#utility.yul\":7809:7811   */\n      iszero\n      tag_278\n      jumpi\n        /* \"#utility.yul\":7892:7902   */\n      0x4e487b71\n        /* \"#utility.yul\":7887:7890   */\n      0xe0\n        /* \"#utility.yul\":7883:7903   */\n      shl\n        /* \"#utility.yul\":7880:7881   */\n      0x00\n        /* \"#utility.yul\":7873:7904   */\n      mstore\n        /* \"#utility.yul\":7927:7931   */\n      0x22\n        /* \"#utility.yul\":7924:7925   */\n      0x04\n        /* \"#utility.yul\":7917:7932   */\n      mstore\n        /* \"#utility.yul\":7955:7959   */\n      0x24\n        /* \"#utility.yul\":7952:7953   */\n      0x00\n        /* \"#utility.yul\":7945:7960   */\n      revert\n        /* \"#utility.yul\":7809:7811   */\n    tag_278:\n      pop\n        /* \"#utility.yul\":7651:7976   */\n      swap2\n      swap1\n      pop\n      jump\t// out\n        /* \"#utility.yul\":7981:8108   */\n    tag_272:\n        /* \"#utility.yul\":8042:8052   */\n      0x4e487b71\n        /* \"#utility.yul\":8037:8040   */\n      0xe0\n        /* \"#utility.yul\":8033:8053   */\n      shl\n        /* \"#utility.yul\":8030:8031   */\n      0x00\n        /* \"#utility.yul\":8023:8054   */\n      mstore\n        /* \"#utility.yul\":8073:8077   */\n      0x11\n        /* \"#utility.yul\":8070:8071   */\n      0x04\n        /* \"#utility.yul\":8063:8078   */\n      mstore\n        /* \"#utility.yul\":8097:8101   */\n      0x24\n        /* \"#utility.yul\":8094:8095   */\n      0x00\n        /* \"#utility.yul\":8087:8102   */\n      revert\n\n    auxdata: 0xa2646970667358221220bfd116215f5382bb60a9491e93d1fe2599231c2638a38bb40b2b26b56013219a64736f6c63430008040033\n}\n",
				"bytecode": {
					"linkReferences": {},
					"object": "60806040523480156200001157600080fd5b50604051806040016040528060098152602001682930b130aa37b5b2b760b91b8152506040518060400160405280600381526020016252544b60e81b8152508160039080519060200190620000689291906200022d565b5080516200007e9060049060208401906200022d565b5050506200009b62000095620000ef60201b60201c565b620000f3565b612710600655620000af6012600a62000337565b620000be90620f424062000405565b600755620000e933620000d46012600a62000337565b620000e390620f424062000405565b62000145565b6200047a565b3390565b600580546001600160a01b038381166001600160a01b0319831681179093556040519116919082907f8be0079c531659141344cd1fd0a4f28419497f9722a3daafe3b4186f6b6457e090600090a35050565b6001600160a01b038216620001a05760405162461bcd60e51b815260206004820152601f60248201527f45524332303a206d696e7420746f20746865207a65726f206164647265737300604482015260640160405180910390fd5b8060026000828254620001b49190620002d3565b90915550506001600160a01b03821660009081526020819052604081208054839290620001e3908490620002d3565b90915550506040518181526001600160a01b038316906000907fddf252ad1be2c89b69c2b068fc378daa952ba7f163c4a11628f55a4df523b3ef9060200160405180910390a35050565b8280546200023b9062000427565b90600052602060002090601f0160209004810192826200025f5760008555620002aa565b82601f106200027a57805160ff1916838001178555620002aa565b82800160010185558215620002aa579182015b82811115620002aa5782518255916020019190600101906200028d565b50620002b8929150620002bc565b5090565b5b80821115620002b85760008155600101620002bd565b60008219821115620002e957620002e962000464565b500190565b600181815b808511156200032f57816000190482111562000313576200031362000464565b808516156200032157918102915b93841c9390800290620002f3565b509250929050565b60006200034860ff8416836200034f565b9392505050565b6000826200036057506001620003ff565b816200036f57506000620003ff565b81600181146200038857600281146200039357620003b3565b6001915050620003ff565b60ff841115620003a757620003a762000464565b50506001821b620003ff565b5060208310610133831016604e8410600b8410161715620003d8575081810a620003ff565b620003e48383620002ee565b8060001904821115620003fb57620003fb62000464565b0290505b92915050565b600081600019048311821515161562000422576200042262000464565b500290565b600181811c908216806200043c57607f821691505b602082108114156200045e57634e487b7160e01b600052602260045260246000fd5b50919050565b634e487b7160e01b600052601160045260246000fd5b610d65806200048a6000396000f3fe6080604052600436106100fe5760003560e01c806370a082311161009557806395d89b411161006457806395d89b4114610297578063a457c2d7146102ac578063a9059cbb146102cc578063dd62ed3e146102ec578063f2fde38b1461033257600080fd5b806370a0823114610211578063715018a6146102475780637e72fb521461025c5780638da5cb5b1461026f57600080fd5b80632c4e722e116100d15780632c4e722e1461019d578063313ce567146101b357806339509351146101cf57806340c10f19146101ef57600080fd5b806306fdde0314610103578063095ea7b31461012e57806318160ddd1461015e57806323b872dd1461017d575b600080fd5b34801561010f57600080fd5b50610118610352565b6040516101259190610c1f565b60405180910390f35b34801561013a57600080fd5b5061014e610149366004610bf6565b6103e4565b6040519015158152602001610125565b34801561016a57600080fd5b506002545b604051908152602001610125565b34801561018957600080fd5b5061014e610198366004610bbb565b6103fc565b3480156101a957600080fd5b5061016f60065481565b3480156101bf57600080fd5b5060405160128152602001610125565b3480156101db57600080fd5b5061014e6101ea366004610bf6565b610420565b3480156101fb57600080fd5b5061020f61020a366004610bf6565b61045f565b005b34801561021d57600080fd5b5061016f61022c366004610b68565b6001600160a01b031660009081526020819052604090205490565b34801561025357600080fd5b5061020f6104a0565b61020f61026a366004610b68565b6104d6565b34801561027b57600080fd5b506005546040516001600160a01b039091168152602001610125565b3480156102a357600080fd5b5061011861054d565b3480156102b857600080fd5b5061014e6102c7366004610bf6565b61055c565b3480156102d857600080fd5b5061014e6102e7366004610bf6565b6105ee565b3480156102f857600080fd5b5061016f610307366004610b89565b6001600160a01b03918216600090815260016020908152604080832093909416825291909152205490565b34801561033e57600080fd5b5061020f61034d366004610b68565b6105fc565b60606003805461036190610cde565b80601f016020809104026020016040519081016040528092919081815260200182805461038d90610cde565b80156103da5780601f106103af576101008083540402835291602001916103da565b820191906000526020600020905b8154815290600101906020018083116103bd57829003601f168201915b5050505050905090565b6000336103f2818585610697565b5060019392505050565b60003361040a8582856107bb565b61041585858561084d565b506001949350505050565b3360008181526001602090815260408083206001600160a01b03871684529091528120549091906103f2908290869061045a908790610ca7565b610697565b6005546001600160a01b031633146104925760405162461bcd60e51b815260040161048990610c72565b60405180910390fd5b61049c8282610a1b565b5050565b6005546001600160a01b031633146104ca5760405162461bcd60e51b815260040161048990610c72565b6104d46000610afa565b565b6000600654346104e69190610cbf565b9050806104f260025490565b6104fc9190610ca7565b60075410156104925760405162461bcd60e51b815260206004820152601a60248201527f43616e6e6f742065786365656420666978656420737570706c790000000000006044820152606401610489565b60606004805461036190610cde565b3360008181526001602090815260408083206001600160a01b0387168452909152812054909190838110156105e15760405162461bcd60e51b815260206004820152602560248201527f45524332303a2064656372656173656420616c6c6f77616e63652062656c6f77604482015264207a65726f60d81b6064820152608401610489565b6104158286868403610697565b6000336103f281858561084d565b6005546001600160a01b031633146106265760405162461bcd60e51b815260040161048990610c72565b6001600160a01b03811661068b5760405162461bcd60e51b815260206004820152602660248201527f4f776e61626c653a206e6577206f776e657220697320746865207a65726f206160448201526564647265737360d01b6064820152608401610489565b61069481610afa565b50565b6001600160a01b0383166106f95760405162461bcd60e51b8152602060048201526024808201527f45524332303a20617070726f76652066726f6d20746865207a65726f206164646044820152637265737360e01b6064820152608401610489565b6001600160a01b03821661075a5760405162461bcd60e51b815260206004820152602260248201527f45524332303a20617070726f766520746f20746865207a65726f206164647265604482015261737360f01b6064820152608401610489565b6001600160a01b0383811660008181526001602090815260408083209487168084529482529182902085905590518481527f8c5be1e5ebec7d5bd14f71427d1e84f3dd0314c0f7b2291e5b200ac8c7c3b925910160405180910390a3505050565b6001600160a01b038381166000908152600160209081526040808320938616835292905220546000198114610847578181101561083a5760405162461bcd60e51b815260206004820152601d60248201527f45524332303a20696e73756666696369656e7420616c6c6f77616e63650000006044820152606401610489565b6108478484848403610697565b50505050565b6001600160a01b0383166108b15760405162461bcd60e51b815260206004820152602560248201527f45524332303a207472616e736665722066726f6d20746865207a65726f206164604482015264647265737360d81b6064820152608401610489565b6001600160a01b0382166109135760405162461bcd60e51b815260206004820152602360248201527f45524332303a207472616e7366657220746f20746865207a65726f206164647260448201526265737360e81b6064820152608401610489565b6001600160a01b0383166000908152602081905260409020548181101561098b5760405162461bcd60e51b815260206004820152602660248201527f45524332303a207472616e7366657220616d6f756e7420657863656564732062604482015265616c616e636560d01b6064820152608401610489565b6001600160a01b038085166000908152602081905260408082208585039055918516815290812080548492906109c2908490610ca7565b92505081905550826001600160a01b0316846001600160a01b03167fddf252ad1be2c89b69c2b068fc378daa952ba7f163c4a11628f55a4df523b3ef84604051610a0e91815260200190565b60405180910390a3610847565b6001600160a01b038216610a715760405162461bcd60e51b815260206004820152601f60248201527f45524332303a206d696e7420746f20746865207a65726f2061646472657373006044820152606401610489565b8060026000828254610a839190610ca7565b90915550506001600160a01b03821660009081526020819052604081208054839290610ab0908490610ca7565b90915550506040518181526001600160a01b038316906000907fddf252ad1be2c89b69c2b068fc378daa952ba7f163c4a11628f55a4df523b3ef9060200160405180910390a35050565b600580546001600160a01b038381166001600160a01b0319831681179093556040519116919082907f8be0079c531659141344cd1fd0a4f28419497f9722a3daafe3b4186f6b6457e090600090a35050565b80356001600160a01b0381168114610b6357600080fd5b919050565b600060208284031215610b79578081fd5b610b8282610b4c565b9392505050565b60008060408385031215610b9b578081fd5b610ba483610b4c565b9150610bb260208401610b4c565b90509250929050565b600080600060608486031215610bcf578081fd5b610bd884610b4c565b9250610be660208501610b4c565b9150604084013590509250925092565b60008060408385031215610c08578182fd5b610c1183610b4c565b946020939093013593505050565b6000602080835283518082850152825b81811015610c4b57858101830151858201604001528201610c2f565b81811115610c5c5783604083870101525b50601f01601f1916929092016040019392505050565b6020808252818101527f4f776e61626c653a2063616c6c6572206973206e6f7420746865206f776e6572604082015260600190565b60008219821115610cba57610cba610d19565b500190565b6000816000190483118215151615610cd957610cd9610d19565b500290565b600181811c90821680610cf257607f821691505b60208210811415610d1357634e487b7160e01b600052602260045260246000fd5b50919050565b634e487b7160e01b600052601160045260246000fdfea2646970667358221220bfd116215f5382bb60a9491e93d1fe2599231c2638a38bb40b2b26b56013219a64736f6c63430008040033",
					"opcodes": "PUSH1 0x80 PUSH1 0x40 MSTORE CALLVALUE DUP1 ISZERO PUSH3 0x11 JUMPI PUSH1 0x0 DUP1 REVERT JUMPDEST POP PUSH1 0x40 MLOAD DUP1 PUSH1 0x40 ADD PUSH1 0x40 MSTORE DUP1 PUSH1 0x9 DUP2 MSTORE PUSH1 0x20 ADD PUSH9 0x2930B130AA37B5B2B7 PUSH1 0xB9 SHL DUP2 MSTORE POP PUSH1 0x40 MLOAD DUP1 PUSH1 0x40 ADD PUSH1 0x40 MSTORE DUP1 PUSH1 0x3 DUP2 MSTORE PUSH1 0x20 ADD PUSH3 0x52544B PUSH1 0xE8 SHL DUP2 MSTORE POP DUP2 PUSH1 0x3 SWAP1 DUP1 MLOAD SWAP1 PUSH1 0x20 ADD SWAP1 PUSH3 0x68 SWAP3 SWAP2 SWAP1 PUSH3 0x22D JUMP JUMPDEST POP DUP1 MLOAD PUSH3 0x7E SWAP1 PUSH1 0x4 SWAP1 PUSH1 0x20 DUP5 ADD SWAP1 PUSH3 0x22D JUMP JUMPDEST POP POP POP PUSH3 0x9B PUSH3 0x95 PUSH3 0xEF PUSH1 0x20 SHL PUSH1 0x20 SHR JUMP JUMPDEST PUSH3 0xF3 JUMP JUMPDEST PUSH2 0x2710 PUSH1 0x6 SSTORE PUSH3 0xAF PUSH1 0x12 PUSH1 0xA PUSH3 0x337 JUMP JUMPDEST PUSH3 0xBE SWAP1 PUSH3 0xF4240 PUSH3 0x405 JUMP JUMPDEST PUSH1 0x7 SSTORE PUSH3 0xE9 CALLER PUSH3 0xD4 PUSH1 0x12 PUSH1 0xA PUSH3 0x337 JUMP JUMPDEST PUSH3 0xE3 SWAP1 PUSH3 0xF4240 PUSH3 0x405 JUMP JUMPDEST PUSH3 0x145 JUMP JUMPDEST PUSH3 0x47A JUMP JUMPDEST CALLER SWAP1 JUMP JUMPDEST PUSH1 0x5 DUP1 SLOAD PUSH1 0x1 PUSH1 0x1 PUSH1 0xA0 SHL SUB DUP4 DUP2 AND PUSH1 0x1 PUSH1 0x1 PUSH1 0xA0 SHL SUB NOT DUP4 AND DUP2 OR SWAP1 SWAP4 SSTORE PUSH1 0x40 MLOAD SWAP2 AND SWAP2 SWAP1 DUP3 SWAP1 PUSH32 0x8BE0079C531659141344CD1FD0A4F28419497F9722A3DAAFE3B4186F6B6457E0 SWAP1 PUSH1 0x0 SWAP1 LOG3 POP POP JUMP JUMPDEST PUSH1 0x1 PUSH1 0x1 PUSH1 0xA0 SHL SUB DUP3 AND PUSH3 0x1A0 JUMPI PUSH1 0x40 MLOAD PUSH3 0x461BCD PUSH1 0xE5 SHL DUP2 MSTORE PUSH1 0x20 PUSH1 0x4 DUP3 ADD MSTORE PUSH1 0x1F PUSH1 0x24 DUP3 ADD MSTORE PUSH32 0x45524332303A206D696E7420746F20746865207A65726F206164647265737300 PUSH1 0x44 DUP3 ADD MSTORE PUSH1 0x64 ADD PUSH1 0x40 MLOAD DUP1 SWAP2 SUB SWAP1 REVERT JUMPDEST DUP1 PUSH1 0x2 PUSH1 0x0 DUP3 DUP3 SLOAD PUSH3 0x1B4 SWAP2 SWAP1 PUSH3 0x2D3 JUMP JUMPDEST SWAP1 SWAP2 SSTORE POP POP PUSH1 0x1 PUSH1 0x1 PUSH1 0xA0 SHL SUB DUP3 AND PUSH1 0x0 SWAP1 DUP2 MSTORE PUSH1 0x20 DUP2 SWAP1 MSTORE PUSH1 0x40 DUP2 KECCAK256 DUP1 SLOAD DUP4 SWAP3 SWAP1 PUSH3 0x1E3 SWAP1 DUP5 SWAP1 PUSH3 0x2D3 JUMP JUMPDEST SWAP1 SWAP2 SSTORE POP POP PUSH1 0x40 MLOAD DUP2 DUP2 MSTORE PUSH1 0x1 PUSH1 0x1 PUSH1 0xA0 SHL SUB DUP4 AND SWAP1 PUSH1 0x0 SWAP1 PUSH32 0xDDF252AD1BE2C89B69C2B068FC378DAA952BA7F163C4A11628F55A4DF523B3EF SWAP1 PUSH1 0x20 ADD PUSH1 0x40 MLOAD DUP1 SWAP2 SUB SWAP1 LOG3 POP POP JUMP JUMPDEST DUP3 DUP1 SLOAD PUSH3 0x23B SWAP1 PUSH3 0x427 JUMP JUMPDEST SWAP1 PUSH1 0x0 MSTORE PUSH1 0x20 PUSH1 0x0 KECCAK256 SWAP1 PUSH1 0x1F ADD PUSH1 0x20 SWAP1 DIV DUP2 ADD SWAP3 DUP3 PUSH3 0x25F JUMPI PUSH1 0x0 DUP6 SSTORE PUSH3 0x2AA JUMP JUMPDEST DUP3 PUSH1 0x1F LT PUSH3 0x27A JUMPI DUP1 MLOAD PUSH1 0xFF NOT AND DUP4 DUP1 ADD OR DUP6 SSTORE PUSH3 0x2AA JUMP JUMPDEST DUP3 DUP1 ADD PUSH1 0x1 ADD DUP6 SSTORE DUP3 ISZERO PUSH3 0x2AA JUMPI SWAP2 DUP3 ADD JUMPDEST DUP3 DUP2 GT ISZERO PUSH3 0x2AA JUMPI DUP3 MLOAD DUP3 SSTORE SWAP2 PUSH1 0x20 ADD SWAP2 SWAP1 PUSH1 0x1 ADD SWAP1 PUSH3 0x28D JUMP JUMPDEST POP PUSH3 0x2B8 SWAP3 SWAP2 POP PUSH3 0x2BC JUMP JUMPDEST POP SWAP1 JUMP JUMPDEST JUMPDEST DUP1 DUP3 GT ISZERO PUSH3 0x2B8 JUMPI PUSH1 0x0 DUP2 SSTORE PUSH1 0x1 ADD PUSH3 0x2BD JUMP JUMPDEST PUSH1 0x0 DUP3 NOT DUP3 GT ISZERO PUSH3 0x2E9 JUMPI PUSH3 0x2E9 PUSH3 0x464 JUMP JUMPDEST POP ADD SWAP1 JUMP JUMPDEST PUSH1 0x1 DUP2 DUP2 JUMPDEST DUP1 DUP6 GT ISZERO PUSH3 0x32F JUMPI DUP2 PUSH1 0x0 NOT DIV DUP3 GT ISZERO PUSH3 0x313 JUMPI PUSH3 0x313 PUSH3 0x464 JUMP JUMPDEST DUP1 DUP6 AND ISZERO PUSH3 0x321 JUMPI SWAP2 DUP2 MUL SWAP2 JUMPDEST SWAP4 DUP5 SHR SWAP4 SWAP1 DUP1 MUL SWAP1 PUSH3 0x2F3 JUMP JUMPDEST POP SWAP3 POP SWAP3 SWAP1 POP JUMP JUMPDEST PUSH1 0x0 PUSH3 0x348 PUSH1 0xFF DUP5 AND DUP4 PUSH3 0x34F JUMP JUMPDEST SWAP4 SWAP3 POP POP POP JUMP JUMPDEST PUSH1 0x0 DUP3 PUSH3 0x360 JUMPI POP PUSH1 0x1 PUSH3 0x3FF JUMP JUMPDEST DUP2 PUSH3 0x36F JUMPI POP PUSH1 0x0 PUSH3 0x3FF JUMP JUMPDEST DUP2 PUSH1 0x1 DUP2 EQ PUSH3 0x388 JUMPI PUSH1 0x2 DUP2 EQ PUSH3 0x393 JUMPI PUSH3 0x3B3 JUMP JUMPDEST PUSH1 0x1 SWAP2 POP POP PUSH3 0x3FF JUMP JUMPDEST PUSH1 0xFF DUP5 GT ISZERO PUSH3 0x3A7 JUMPI PUSH3 0x3A7 PUSH3 0x464 JUMP JUMPDEST POP POP PUSH1 0x1 DUP3 SHL PUSH3 0x3FF JUMP JUMPDEST POP PUSH1 0x20 DUP4 LT PUSH2 0x133 DUP4 LT AND PUSH1 0x4E DUP5 LT PUSH1 0xB DUP5 LT AND OR ISZERO PUSH3 0x3D8 JUMPI POP DUP2 DUP2 EXP PUSH3 0x3FF JUMP JUMPDEST PUSH3 0x3E4 DUP4 DUP4 PUSH3 0x2EE JUMP JUMPDEST DUP1 PUSH1 0x0 NOT DIV DUP3 GT ISZERO PUSH3 0x3FB JUMPI PUSH3 0x3FB PUSH3 0x464 JUMP JUMPDEST MUL SWAP1 POP JUMPDEST SWAP3 SWAP2 POP POP JUMP JUMPDEST PUSH1 0x0 DUP2 PUSH1 0x0 NOT DIV DUP4 GT DUP3 ISZERO ISZERO AND ISZERO PUSH3 0x422 JUMPI PUSH3 0x422 PUSH3 0x464 JUMP JUMPDEST POP MUL SWAP1 JUMP JUMPDEST PUSH1 0x1 DUP2 DUP2 SHR SWAP1 DUP3 AND DUP1 PUSH3 0x43C JUMPI PUSH1 0x7F DUP3 AND SWAP2 POP JUMPDEST PUSH1 0x20 DUP3 LT DUP2 EQ ISZERO PUSH3 0x45E JUMPI PUSH4 0x4E487B71 PUSH1 0xE0 SHL PUSH1 0x0 MSTORE PUSH1 0x22 PUSH1 0x4 MSTORE PUSH1 0x24 PUSH1 0x0 REVERT JUMPDEST POP SWAP2 SWAP1 POP JUMP JUMPDEST PUSH4 0x4E487B71 PUSH1 0xE0 SHL PUSH1 0x0 MSTORE PUSH1 0x11 PUSH1 0x4 MSTORE PUSH1 0x24 PUSH1 0x0 REVERT JUMPDEST PUSH2 0xD65 DUP1 PUSH3 0x48A PUSH1 0x0 CODECOPY PUSH1 0x0 RETURN INVALID PUSH1 0x80 PUSH1 0x40 MSTORE PUSH1 0x4 CALLDATASIZE LT PUSH2 0xFE JUMPI PUSH1 0x0 CALLDATALOAD PUSH1 0xE0 SHR DUP1 PUSH4 0x70A08231 GT PUSH2 0x95 JUMPI DUP1 PUSH4 0x95D89B41 GT PUSH2 0x64 JUMPI DUP1 PUSH4 0x95D89B41 EQ PUSH2 0x297 JUMPI DUP1 PUSH4 0xA457C2D7 EQ PUSH2 0x2AC JUMPI DUP1 PUSH4 0xA9059CBB EQ PUSH2 0x2CC JUMPI DUP1 PUSH4 0xDD62ED3E EQ PUSH2 0x2EC JUMPI DUP1 PUSH4 0xF2FDE38B EQ PUSH2 0x332 JUMPI PUSH1 0x0 DUP1 REVERT JUMPDEST DUP1 PUSH4 0x70A08231 EQ PUSH2 0x211 JUMPI DUP1 PUSH4 0x715018A6 EQ PUSH2 0x247 JUMPI DUP1 PUSH4 0x7E72FB52 EQ PUSH2 0x25C JUMPI DUP1 PUSH4 0x8DA5CB5B EQ PUSH2 0x26F JUMPI PUSH1 0x0 DUP1 REVERT JUMPDEST DUP1 PUSH4 0x2C4E722E GT PUSH2 0xD1 JUMPI DUP1 PUSH4 0x2C4E722E EQ PUSH2 0x19D JUMPI DUP1 PUSH4 0x313CE567 EQ PUSH2 0x1B3 JUMPI DUP1 PUSH4 0x39509351 EQ PUSH2 0x1CF JUMPI DUP1 PUSH4 0x40C10F19 EQ PUSH2 0x1EF JUMPI PUSH1 0x0 DUP1 REVERT JUMPDEST DUP1 PUSH4 0x6FDDE03 EQ PUSH2 0x103 JUMPI DUP1 PUSH4 0x95EA7B3 EQ PUSH2 0x12E JUMPI DUP1 PUSH4 0x18160DDD EQ PUSH2 0x15E JUMPI DUP1 PUSH4 0x23B872DD EQ PUSH2 0x17D JUMPI JUMPDEST PUSH1 0x0 DUP1 REVERT JUMPDEST CALLVALUE DUP1 ISZERO PUSH2 0x10F JUMPI PUSH1 0x0 DUP1 REVERT JUMPDEST POP PUSH2 0x118 PUSH2 0x352 JUMP JUMPDEST PUSH1 0x40 MLOAD PUSH2 0x125 SWAP2 SWAP1 PUSH2 0xC1F JUMP JUMPDEST PUSH1 0x40 MLOAD DUP1 SWAP2 SUB SWAP1 RETURN JUMPDEST CALLVALUE DUP1 ISZERO PUSH2 0x13A JUMPI PUSH1 0x0 DUP1 REVERT JUMPDEST POP PUSH2 0x14E PUSH2 0x149 CALLDATASIZE PUSH1 0x4 PUSH2 0xBF6 JUMP JUMPDEST PUSH2 0x3E4 JUMP JUMPDEST PUSH1 0x40 MLOAD SWAP1 ISZERO ISZERO DUP2 MSTORE PUSH1 0x20 ADD PUSH2 0x125 JUMP JUMPDEST CALLVALUE DUP1 ISZERO PUSH2 0x16A JUMPI PUSH1 0x0 DUP1 REVERT JUMPDEST POP PUSH1 0x2 SLOAD JUMPDEST PUSH1 0x40 MLOAD SWAP1 DUP2 MSTORE PUSH1 0x20 ADD PUSH2 0x125 JUMP JUMPDEST CALLVALUE DUP1 ISZERO PUSH2 0x189 JUMPI PUSH1 0x0 DUP1 REVERT JUMPDEST POP PUSH2 0x14E PUSH2 0x198 CALLDATASIZE PUSH1 0x4 PUSH2 0xBBB JUMP JUMPDEST PUSH2 0x3FC JUMP JUMPDEST CALLVALUE DUP1 ISZERO PUSH2 0x1A9 JUMPI PUSH1 0x0 DUP1 REVERT JUMPDEST POP PUSH2 0x16F PUSH1 0x6 SLOAD DUP2 JUMP JUMPDEST CALLVALUE DUP1 ISZERO PUSH2 0x1BF JUMPI PUSH1 0x0 DUP1 REVERT JUMPDEST POP PUSH1 0x40 MLOAD PUSH1 0x12 DUP2 MSTORE PUSH1 0x20 ADD PUSH2 0x125 JUMP JUMPDEST CALLVALUE DUP1 ISZERO PUSH2 0x1DB JUMPI PUSH1 0x0 DUP1 REVERT JUMPDEST POP PUSH2 0x14E PUSH2 0x1EA CALLDATASIZE PUSH1 0x4 PUSH2 0xBF6 JUMP JUMPDEST PUSH2 0x420 JUMP JUMPDEST CALLVALUE DUP1 ISZERO PUSH2 0x1FB JUMPI PUSH1 0x0 DUP1 REVERT JUMPDEST POP PUSH2 0x20F PUSH2 0x20A CALLDATASIZE PUSH1 0x4 PUSH2 0xBF6 JUMP JUMPDEST PUSH2 0x45F JUMP JUMPDEST STOP JUMPDEST CALLVALUE DUP1 ISZERO PUSH2 0x21D JUMPI PUSH1 0x0 DUP1 REVERT JUMPDEST POP PUSH2 0x16F PUSH2 0x22C CALLDATASIZE PUSH1 0x4 PUSH2 0xB68 JUMP JUMPDEST PUSH1 0x1 PUSH1 0x1 PUSH1 0xA0 SHL SUB AND PUSH1 0x0 SWAP1 DUP2 MSTORE PUSH1 0x20 DUP2 SWAP1 MSTORE PUSH1 0x40 SWAP1 KECCAK256 SLOAD SWAP1 JUMP JUMPDEST CALLVALUE DUP1 ISZERO PUSH2 0x253 JUMPI PUSH1 0x0 DUP1 REVERT JUMPDEST POP PUSH2 0x20F PUSH2 0x4A0 JUMP JUMPDEST PUSH2 0x20F PUSH2 0x26A CALLDATASIZE PUSH1 0x4 PUSH2 0xB68 JUMP JUMPDEST PUSH2 0x4D6 JUMP JUMPDEST CALLVALUE DUP1 ISZERO PUSH2 0x27B JUMPI PUSH1 0x0 DUP1 REVERT JUMPDEST POP PUSH1 0x5 SLOAD PUSH1 0x40 MLOAD PUSH1 0x1 PUSH1 0x1 PUSH1 0xA0 SHL SUB SWAP1 SWAP2 AND DUP2 MSTORE PUSH1 0x20 ADD PUSH2 0x125 JUMP JUMPDEST CALLVALUE DUP1 ISZERO PUSH2 0x2A3 JUMPI PUSH1 0x0 DUP1 REVERT JUMPDEST POP PUSH2 0x118 PUSH2 0x54D JUMP JUMPDEST CALLVALUE DUP1 ISZERO PUSH2 0x2B8 JUMPI PUSH1 0x0 DUP1 REVERT JUMPDEST POP PUSH2 0x14E PUSH2 0x2C7 CALLDATASIZE PUSH1 0x4 PUSH2 0xBF6 JUMP JUMPDEST PUSH2 0x55C JUMP JUMPDEST CALLVALUE DUP1 ISZERO PUSH2 0x2D8 JUMPI PUSH1 0x0 DUP1 REVERT JUMPDEST POP PUSH2 0x14E PUSH2 0x2E7 CALLDATASIZE PUSH1 0x4 PUSH2 0xBF6 JUMP JUMPDEST PUSH2 0x5EE JUMP JUMPDEST CALLVALUE DUP1 ISZERO PUSH2 0x2F8 JUMPI PUSH1 0x0 DUP1 REVERT JUMPDEST POP PUSH2 0x16F PUSH2 0x307 CALLDATASIZE PUSH1 0x4 PUSH2 0xB89 JUMP JUMPDEST PUSH1 0x1 PUSH1 0x1 PUSH1 0xA0 SHL SUB SWAP2 DUP3 AND PUSH1 0x0 SWAP1 DUP2 MSTORE PUSH1 0x1 PUSH1 0x20 SWAP1 DUP2 MSTORE PUSH1 0x40 DUP1 DUP4 KECCAK256 SWAP4 SWAP1 SWAP5 AND DUP3 MSTORE SWAP2 SWAP1 SWAP2 MSTORE KECCAK256 SLOAD SWAP1 JUMP JUMPDEST CALLVALUE DUP1 ISZERO PUSH2 0x33E JUMPI PUSH1 0x0 DUP1 REVERT JUMPDEST POP PUSH2 0x20F PUSH2 0x34D CALLDATASIZE PUSH1 0x4 PUSH2 0xB68 JUMP JUMPDEST PUSH2 0x5FC JUMP JUMPDEST PUSH1 0x60 PUSH1 0x3 DUP1 SLOAD PUSH2 0x361 SWAP1 PUSH2 0xCDE JUMP JUMPDEST DUP1 PUSH1 0x1F ADD PUSH1 0x20 DUP1 SWAP2 DIV MUL PUSH1 0x20 ADD PUSH1 0x40 MLOAD SWAP1 DUP2 ADD PUSH1 0x40 MSTORE DUP1 SWAP3 SWAP2 SWAP1 DUP2 DUP2 MSTORE PUSH1 0x20 ADD DUP3 DUP1 SLOAD PUSH2 0x38D SWAP1 PUSH2 0xCDE JUMP JUMPDEST DUP1 ISZERO PUSH2 0x3DA JUMPI DUP1 PUSH1 0x1F LT PUSH2 0x3AF JUMPI PUSH2 0x100 DUP1 DUP4 SLOAD DIV MUL DUP4 MSTORE SWAP2 PUSH1 0x20 ADD SWAP2 PUSH2 0x3DA JUMP JUMPDEST DUP3 ADD SWAP2 SWAP1 PUSH1 0x0 MSTORE PUSH1 0x20 PUSH1 0x0 KECCAK256 SWAP1 JUMPDEST DUP2 SLOAD DUP2 MSTORE SWAP1 PUSH1 0x1 ADD SWAP1 PUSH1 0x20 ADD DUP1 DUP4 GT PUSH2 0x3BD JUMPI DUP3 SWAP1 SUB PUSH1 0x1F AND DUP3 ADD SWAP2 JUMPDEST POP POP POP POP POP SWAP1 POP SWAP1 JUMP JUMPDEST PUSH1 0x0 CALLER PUSH2 0x3F2 DUP2 DUP6 DUP6 PUSH2 0x697 JUMP JUMPDEST POP PUSH1 0x1 SWAP4 SWAP3 POP POP POP JUMP JUMPDEST PUSH1 0x0 CALLER PUSH2 0x40A DUP6 DUP3 DUP6 PUSH2 0x7BB JUMP JUMPDEST PUSH2 0x415 DUP6 DUP6 DUP6 PUSH2 0x84D JUMP JUMPDEST POP PUSH1 0x1 SWAP5 SWAP4 POP POP POP POP JUMP JUMPDEST CALLER PUSH1 0x0 DUP2 DUP2 MSTORE PUSH1 0x1 PUSH1 0x20 SWAP1 DUP2 MSTORE PUSH1 0x40 DUP1 DUP4 KECCAK256 PUSH1 0x1 PUSH1 0x1 PUSH1 0xA0 SHL SUB DUP8 AND DUP5 MSTORE SWAP1 SWAP2 MSTORE DUP2 KECCAK256 SLOAD SWAP1 SWAP2 SWAP1 PUSH2 0x3F2 SWAP1 DUP3 SWAP1 DUP7 SWAP1 PUSH2 0x45A SWAP1 DUP8 SWAP1 PUSH2 0xCA7 JUMP JUMPDEST PUSH2 0x697 JUMP JUMPDEST PUSH1 0x5 SLOAD PUSH1 0x1 PUSH1 0x1 PUSH1 0xA0 SHL SUB AND CALLER EQ PUSH2 0x492 JUMPI PUSH1 0x40 MLOAD PUSH3 0x461BCD PUSH1 0xE5 SHL DUP2 MSTORE PUSH1 0x4 ADD PUSH2 0x489 SWAP1 PUSH2 0xC72 JUMP JUMPDEST PUSH1 0x40 MLOAD DUP1 SWAP2 SUB SWAP1 REVERT JUMPDEST PUSH2 0x49C DUP3 DUP3 PUSH2 0xA1B JUMP JUMPDEST POP POP JUMP JUMPDEST PUSH1 0x5 SLOAD PUSH1 0x1 PUSH1 0x1 PUSH1 0xA0 SHL SUB AND CALLER EQ PUSH2 0x4CA JUMPI PUSH1 0x40 MLOAD PUSH3 0x461BCD PUSH1 0xE5 SHL DUP2 MSTORE PUSH1 0x4 ADD PUSH2 0x489 SWAP1 PUSH2 0xC72 JUMP JUMPDEST PUSH2 0x4D4 PUSH1 0x0 PUSH2 0xAFA JUMP JUMPDEST JUMP JUMPDEST PUSH1 0x0 PUSH1 0x6 SLOAD CALLVALUE PUSH2 0x4E6 SWAP2 SWAP1 PUSH2 0xCBF JUMP JUMPDEST SWAP1 POP DUP1 PUSH2 0x4F2 PUSH1 0x2 SLOAD SWAP1 JUMP JUMPDEST PUSH2 0x4FC SWAP2 SWAP1 PUSH2 0xCA7 JUMP JUMPDEST PUSH1 0x7 SLOAD LT ISZERO PUSH2 0x492 JUMPI PUSH1 0x40 MLOAD PUSH3 0x461BCD PUSH1 0xE5 SHL DUP2 MSTORE PUSH1 0x20 PUSH1 0x4 DUP3 ADD MSTORE PUSH1 0x1A PUSH1 0x24 DUP3 ADD MSTORE PUSH32 0x43616E6E6F742065786365656420666978656420737570706C79000000000000 PUSH1 0x44 DUP3 ADD MSTORE PUSH1 0x64 ADD PUSH2 0x489 JUMP JUMPDEST PUSH1 0x60 PUSH1 0x4 DUP1 SLOAD PUSH2 0x361 SWAP1 PUSH2 0xCDE JUMP JUMPDEST CALLER PUSH1 0x0 DUP2 DUP2 MSTORE PUSH1 0x1 PUSH1 0x20 SWAP1 DUP2 MSTORE PUSH1 0x40 DUP1 DUP4 KECCAK256 PUSH1 0x1 PUSH1 0x1 PUSH1 0xA0 SHL SUB DUP8 AND DUP5 MSTORE SWAP1 SWAP2 MSTORE DUP2 KECCAK256 SLOAD SWAP1 SWAP2 SWAP1 DUP4 DUP2 LT ISZERO PUSH2 0x5E1 JUMPI PUSH1 0x40 MLOAD PUSH3 0x461BCD PUSH1 0xE5 SHL DUP2 MSTORE PUSH1 0x20 PUSH1 0x4 DUP3 ADD MSTORE PUSH1 0x25 PUSH1 0x24 DUP3 ADD MSTORE PUSH32 0x45524332303A2064656372656173656420616C6C6F77616E63652062656C6F77 PUSH1 0x44 DUP3 ADD MSTORE PUSH5 0x207A65726F PUSH1 0xD8 SHL PUSH1 0x64 DUP3 ADD MSTORE PUSH1 0x84 ADD PUSH2 0x489 JUMP JUMPDEST PUSH2 0x415 DUP3 DUP7 DUP7 DUP5 SUB PUSH2 0x697 JUMP JUMPDEST PUSH1 0x0 CALLER PUSH2 0x3F2 DUP2 DUP6 DUP6 PUSH2 0x84D JUMP JUMPDEST PUSH1 0x5 SLOAD PUSH1 0x1 PUSH1 0x1 PUSH1 0xA0 SHL SUB AND CALLER EQ PUSH2 0x626 JUMPI PUSH1 0x40 MLOAD PUSH3 0x461BCD PUSH1 0xE5 SHL DUP2 MSTORE PUSH1 0x4 ADD PUSH2 0x489 SWAP1 PUSH2 0xC72 JUMP JUMPDEST PUSH1 0x1 PUSH1 0x1 PUSH1 0xA0 SHL SUB DUP2 AND PUSH2 0x68B JUMPI PUSH1 0x40 MLOAD PUSH3 0x461BCD PUSH1 0xE5 SHL DUP2 MSTORE PUSH1 0x20 PUSH1 0x4 DUP3 ADD MSTORE PUSH1 0x26 PUSH1 0x24 DUP3 ADD MSTORE PUSH32 0x4F776E61626C653A206E6577206F776E657220697320746865207A65726F2061 PUSH1 0x44 DUP3 ADD MSTORE PUSH6 0x646472657373 PUSH1 0xD0 SHL PUSH1 0x64 DUP3 ADD MSTORE PUSH1 0x84 ADD PUSH2 0x489 JUMP JUMPDEST PUSH2 0x694 DUP2 PUSH2 0xAFA JUMP JUMPDEST POP JUMP JUMPDEST PUSH1 0x1 PUSH1 0x1 PUSH1 0xA0 SHL SUB DUP4 AND PUSH2 0x6F9 JUMPI PUSH1 0x40 MLOAD PUSH3 0x461BCD PUSH1 0xE5 SHL DUP2 MSTORE PUSH1 0x20 PUSH1 0x4 DUP3 ADD MSTORE PUSH1 0x24 DUP1 DUP3 ADD MSTORE PUSH32 0x45524332303A20617070726F76652066726F6D20746865207A65726F20616464 PUSH1 0x44 DUP3 ADD MSTORE PUSH4 0x72657373 PUSH1 0xE0 SHL PUSH1 0x64 DUP3 ADD MSTORE PUSH1 0x84 ADD PUSH2 0x489 JUMP JUMPDEST PUSH1 0x1 PUSH1 0x1 PUSH1 0xA0 SHL SUB DUP3 AND PUSH2 0x75A JUMPI PUSH1 0x40 MLOAD PUSH3 0x461BCD PUSH1 0xE5 SHL DUP2 MSTORE PUSH1 0x20 PUSH1 0x4 DUP3 ADD MSTORE PUSH1 0x22 PUSH1 0x24 DUP3 ADD MSTORE PUSH32 0x45524332303A20617070726F766520746F20746865207A65726F206164647265 PUSH1 0x44 DUP3 ADD MSTORE PUSH2 0x7373 PUSH1 0xF0 SHL PUSH1 0x64 DUP3 ADD MSTORE PUSH1 0x84 ADD PUSH2 0x489 JUMP JUMPDEST PUSH1 0x1 PUSH1 0x1 PUSH1 0xA0 SHL SUB DUP4 DUP2 AND PUSH1 0x0 DUP2 DUP2 MSTORE PUSH1 0x1 PUSH1 0x20 SWAP1 DUP2 MSTORE PUSH1 0x40 DUP1 DUP4 KECCAK256 SWAP5 DUP8 AND DUP1 DUP5 MSTORE SWAP5 DUP3 MSTORE SWAP2 DUP3 SWAP1 KECCAK256 DUP6 SWAP1 SSTORE SWAP1 MLOAD DUP5 DUP2 MSTORE PUSH32 0x8C5BE1E5EBEC7D5BD14F71427D1E84F3DD0314C0F7B2291E5B200AC8C7C3B925 SWAP2 ADD PUSH1 0x40 MLOAD DUP1 SWAP2 SUB SWAP1 LOG3 POP POP POP JUMP JUMPDEST PUSH1 0x1 PUSH1 0x1 PUSH1 0xA0 SHL SUB DUP4 DUP2 AND PUSH1 0x0 SWAP1 DUP2 MSTORE PUSH1 0x1 PUSH1 0x20 SWAP1 DUP2 MSTORE PUSH1 0x40 DUP1 DUP4 KECCAK256 SWAP4 DUP7 AND DUP4 MSTORE SWAP3 SWAP1 MSTORE KECCAK256 SLOAD PUSH1 0x0 NOT DUP2 EQ PUSH2 0x847 JUMPI DUP2 DUP2 LT ISZERO PUSH2 0x83A JUMPI PUSH1 0x40 MLOAD PUSH3 0x461BCD PUSH1 0xE5 SHL DUP2 MSTORE PUSH1 0x20 PUSH1 0x4 DUP3 ADD MSTORE PUSH1 0x1D PUSH1 0x24 DUP3 ADD MSTORE PUSH32 0x45524332303A20696E73756666696369656E7420616C6C6F77616E6365000000 PUSH1 0x44 DUP3 ADD MSTORE PUSH1 0x64 ADD PUSH2 0x489 JUMP JUMPDEST PUSH2 0x847 DUP5 DUP5 DUP5 DUP5 SUB PUSH2 0x697 JUMP JUMPDEST POP POP POP POP JUMP JUMPDEST PUSH1 0x1 PUSH1 0x1 PUSH1 0xA0 SHL SUB DUP4 AND PUSH2 0x8B1 JUMPI PUSH1 0x40 MLOAD PUSH3 0x461BCD PUSH1 0xE5 SHL DUP2 MSTORE PUSH1 0x20 PUSH1 0x4 DUP3 ADD MSTORE PUSH1 0x25 PUSH1 0x24 DUP3 ADD MSTORE PUSH32 0x45524332303A207472616E736665722066726F6D20746865207A65726F206164 PUSH1 0x44 DUP3 ADD MSTORE PUSH5 0x6472657373 PUSH1 0xD8 SHL PUSH1 0x64 DUP3 ADD MSTORE PUSH1 0x84 ADD PUSH2 0x489 JUMP JUMPDEST PUSH1 0x1 PUSH1 0x1 PUSH1 0xA0 SHL SUB DUP3 AND PUSH2 0x913 JUMPI PUSH1 0x40 MLOAD PUSH3 0x461BCD PUSH1 0xE5 SHL DUP2 MSTORE PUSH1 0x20 PUSH1 0x4 DUP3 ADD MSTORE PUSH1 0x23 PUSH1 0x24 DUP3 ADD MSTORE PUSH32 0x45524332303A207472616E7366657220746F20746865207A65726F2061646472 PUSH1 0x44 DUP3 ADD MSTORE PUSH3 0x657373 PUSH1 0xE8 SHL PUSH1 0x64 DUP3 ADD MSTORE PUSH1 0x84 ADD PUSH2 0x489 JUMP JUMPDEST PUSH1 0x1 PUSH1 0x1 PUSH1 0xA0 SHL SUB DUP4 AND PUSH1 0x0 SWAP1 DUP2 MSTORE PUSH1 0x20 DUP2 SWAP1 MSTORE PUSH1 0x40 SWAP1 KECCAK256 SLOAD DUP2 DUP2 LT ISZERO PUSH2 0x98B JUMPI PUSH1 0x40 MLOAD PUSH3 0x461BCD PUSH1 0xE5 SHL DUP2 MSTORE PUSH1 0x20 PUSH1 0x4 DUP3 ADD MSTORE PUSH1 0x26 PUSH1 0x24 DUP3 ADD MSTORE PUSH32 0x45524332303A207472616E7366657220616D6F756E7420657863656564732062 PUSH1 0x44 DUP3 ADD MSTORE PUSH6 0x616C616E6365 PUSH1 0xD0 SHL PUSH1 0x64 DUP3 ADD MSTORE PUSH1 0x84 ADD PUSH2 0x489 JUMP JUMPDEST PUSH1 0x1 PUSH1 0x1 PUSH1 0xA0 SHL SUB DUP1 DUP6 AND PUSH1 0x0 SWAP1 DUP2 MSTORE PUSH1 0x20 DUP2 SWAP1 MSTORE PUSH1 0x40 DUP1 DUP3 KECCAK256 DUP6 DUP6 SUB SWAP1 SSTORE SWAP2 DUP6 AND DUP2 MSTORE SWAP1 DUP2 KECCAK256 DUP1 SLOAD DUP5 SWAP3 SWAP1 PUSH2 0x9C2 SWAP1 DUP5 SWAP1 PUSH2 0xCA7 JUMP JUMPDEST SWAP3 POP POP DUP2 SWAP1 SSTORE POP DUP3 PUSH1 0x1 PUSH1 0x1 PUSH1 0xA0 SHL SUB AND DUP5 PUSH1 0x1 PUSH1 0x1 PUSH1 0xA0 SHL SUB AND PUSH32 0xDDF252AD1BE2C89B69C2B068FC378DAA952BA7F163C4A11628F55A4DF523B3EF DUP5 PUSH1 0x40 MLOAD PUSH2 0xA0E SWAP2 DUP2 MSTORE PUSH1 0x20 ADD SWAP1 JUMP JUMPDEST PUSH1 0x40 MLOAD DUP1 SWAP2 SUB SWAP1 LOG3 PUSH2 0x847 JUMP JUMPDEST PUSH1 0x1 PUSH1 0x1 PUSH1 0xA0 SHL SUB DUP3 AND PUSH2 0xA71 JUMPI PUSH1 0x40 MLOAD PUSH3 0x461BCD PUSH1 0xE5 SHL DUP2 MSTORE PUSH1 0x20 PUSH1 0x4 DUP3 ADD MSTORE PUSH1 0x1F PUSH1 0x24 DUP3 ADD MSTORE PUSH32 0x45524332303A206D696E7420746F20746865207A65726F206164647265737300 PUSH1 0x44 DUP3 ADD MSTORE PUSH1 0x64 ADD PUSH2 0x489 JUMP JUMPDEST DUP1 PUSH1 0x2 PUSH1 0x0 DUP3 DUP3 SLOAD PUSH2 0xA83 SWAP2 SWAP1 PUSH2 0xCA7 JUMP JUMPDEST SWAP1 SWAP2 SSTORE POP POP PUSH1 0x1 PUSH1 0x1 PUSH1 0xA0 SHL SUB DUP3 AND PUSH1 0x0 SWAP1 DUP2 MSTORE PUSH1 0x20 DUP2 SWAP1 MSTORE PUSH1 0x40 DUP2 KECCAK256 DUP1 SLOAD DUP4 SWAP3 SWAP1 PUSH2 0xAB0 SWAP1 DUP5 SWAP1 PUSH2 0xCA7 JUMP JUMPDEST SWAP1 SWAP2 SSTORE POP POP PUSH1 0x40 MLOAD DUP2 DUP2 MSTORE PUSH1 0x1 PUSH1 0x1 PUSH1 0xA0 SHL SUB DUP4 AND SWAP1 PUSH1 0x0 SWAP1 PUSH32 0xDDF252AD1BE2C89B69C2B068FC378DAA952BA7F163C4A11628F55A4DF523B3EF SWAP1 PUSH1 0x20 ADD PUSH1 0x40 MLOAD DUP1 SWAP2 SUB SWAP1 LOG3 POP POP JUMP JUMPDEST PUSH1 0x5 DUP1 SLOAD PUSH1 0x1 PUSH1 0x1 PUSH1 0xA0 SHL SUB DUP4 DUP2 AND PUSH1 0x1 PUSH1 0x1 PUSH1 0xA0 SHL SUB NOT DUP4 AND DUP2 OR SWAP1 SWAP4 SSTORE PUSH1 0x40 MLOAD SWAP2 AND SWAP2 SWAP1 DUP3 SWAP1 PUSH32 0x8BE0079C531659141344CD1FD0A4F28419497F9722A3DAAFE3B4186F6B6457E0 SWAP1 PUSH1 0x0 SWAP1 LOG3 POP POP JUMP JUMPDEST DUP1 CALLDATALOAD PUSH1 0x1 PUSH1 0x1 PUSH1 0xA0 SHL SUB DUP2 AND DUP2 EQ PUSH2 0xB63 JUMPI PUSH1 0x0 DUP1 REVERT JUMPDEST SWAP2 SWAP1 POP JUMP JUMPDEST PUSH1 0x0 PUSH1 0x20 DUP3 DUP5 SUB SLT ISZERO PUSH2 0xB79 JUMPI DUP1 DUP2 REVERT JUMPDEST PUSH2 0xB82 DUP3 PUSH2 0xB4C JUMP JUMPDEST SWAP4 SWAP3 POP POP POP JUMP JUMPDEST PUSH1 0x0 DUP1 PUSH1 0x40 DUP4 DUP6 SUB SLT ISZERO PUSH2 0xB9B JUMPI DUP1 DUP2 REVERT JUMPDEST PUSH2 0xBA4 DUP4 PUSH2 0xB4C JUMP JUMPDEST SWAP2 POP PUSH2 0xBB2 PUSH1 0x20 DUP5 ADD PUSH2 0xB4C JUMP JUMPDEST SWAP1 POP SWAP3 POP SWAP3 SWAP1 POP JUMP JUMPDEST PUSH1 0x0 DUP1 PUSH1 0x0 PUSH1 0x60 DUP5 DUP7 SUB SLT ISZERO PUSH2 0xBCF JUMPI DUP1 DUP2 REVERT JUMPDEST PUSH2 0xBD8 DUP5 PUSH2 0xB4C JUMP JUMPDEST SWAP3 POP PUSH2 0xBE6 PUSH1 0x20 DUP6 ADD PUSH2 0xB4C JUMP JUMPDEST SWAP2 POP PUSH1 0x40 DUP5 ADD CALLDATALOAD SWAP1 POP SWAP3 POP SWAP3 POP SWAP3 JUMP JUMPDEST PUSH1 0x0 DUP1 PUSH1 0x40 DUP4 DUP6 SUB SLT ISZERO PUSH2 0xC08 JUMPI DUP2 DUP3 REVERT JUMPDEST PUSH2 0xC11 DUP4 PUSH2 0xB4C JUMP JUMPDEST SWAP5 PUSH1 0x20 SWAP4 SWAP1 SWAP4 ADD CALLDATALOAD SWAP4 POP POP POP JUMP JUMPDEST PUSH1 0x0 PUSH1 0x20 DUP1 DUP4 MSTORE DUP4 MLOAD DUP1 DUP3 DUP6 ADD MSTORE DUP3 JUMPDEST DUP2 DUP2 LT ISZERO PUSH2 0xC4B JUMPI DUP6 DUP2 ADD DUP4 ADD MLOAD DUP6 DUP3 ADD PUSH1 0x40 ADD MSTORE DUP3 ADD PUSH2 0xC2F JUMP JUMPDEST DUP2 DUP2 GT ISZERO PUSH2 0xC5C JUMPI DUP4 PUSH1 0x40 DUP4 DUP8 ADD ADD MSTORE JUMPDEST POP PUSH1 0x1F ADD PUSH1 0x1F NOT AND SWAP3 SWAP1 SWAP3 ADD PUSH1 0x40 ADD SWAP4 SWAP3 POP POP POP JUMP JUMPDEST PUSH1 0x20 DUP1 DUP3 MSTORE DUP2 DUP2 ADD MSTORE PUSH32 0x4F776E61626C653A2063616C6C6572206973206E6F7420746865206F776E6572 PUSH1 0x40 DUP3 ADD MSTORE PUSH1 0x60 ADD SWAP1 JUMP JUMPDEST PUSH1 0x0 DUP3 NOT DUP3 GT ISZERO PUSH2 0xCBA JUMPI PUSH2 0xCBA PUSH2 0xD19 JUMP JUMPDEST POP ADD SWAP1 JUMP JUMPDEST PUSH1 0x0 DUP2 PUSH1 0x0 NOT DIV DUP4 GT DUP3 ISZERO ISZERO AND ISZERO PUSH2 0xCD9 JUMPI PUSH2 0xCD9 PUSH2 0xD19 JUMP JUMPDEST POP MUL SWAP1 JUMP JUMPDEST PUSH1 0x1 DUP2 DUP2 SHR SWAP1 DUP3 AND DUP1 PUSH2 0xCF2 JUMPI PUSH1 0x7F DUP3 AND SWAP2 POP JUMPDEST PUSH1 0x20 DUP3 LT DUP2 EQ ISZERO PUSH2 0xD13 JUMPI PUSH4 0x4E487B71 PUSH1 0xE0 SHL PUSH1 0x0 MSTORE PUSH1 0x22 PUSH1 0x4 MSTORE PUSH1 0x24 PUSH1 0x0 REVERT JUMPDEST POP SWAP2 SWAP1 POP JUMP JUMPDEST PUSH4 0x4E487B71 PUSH1 0xE0 SHL PUSH1 0x0 MSTORE PUSH1 0x11 PUSH1 0x4 MSTORE PUSH1 0x24 PUSH1 0x0 REVERT INVALID LOG2 PUSH5 0x6970667358 0x22 SLT KECCAK256 0xBF 0xD1 AND 0x21 0x5F MSTORE8 DUP3 0xBB PUSH1 0xA9 0x49 0x1E SWAP4 0xD1 INVALID 0x25 SWAP10 0x23 SHR 0x26 CODESIZE LOG3 DUP12 0xB4 SIGNEXTEND 0x2B 0x26 0xB5 PUSH1 0x13 0x21 SWAP11 PUSH5 0x736F6C6343 STOP ADDMOD DIV STOP CALLER "
				},
				"gasEstimates": {
					"creation": {
						"codeDepositCost": "685800",
						"executionCost": "infinite",
						"totalCost": "infinite"
					},
					"external": {
						"allowance(address,address)": "infinite",
						"approve(address,uint256)": "22547",
						"balanceOf(address)": "1263",
						"buyToken(address)": "infinite",
						"decimals()": "222",
						"decreaseAllowance(address,uint256)": "23544",
						"increaseAllowance(address,uint256)": "23612",
						"mint(address,uint256)": "infinite",
						"name()": "infinite",
						"owner()": "1090",
						"rate()": "1018",
						"renounceOwnership()": "23462",
						"symbol()": "infinite",
						"totalSupply()": "1049",
						"transfer(address,uint256)": "44448",
						"transferFrom(address,address,uint256)": "infinite",
						"transferOwnership(address)": "23722"
					}
				},
				"methodIdentifiers": {
					"allowance(address,address)": "dd62ed3e",
					"approve(address,uint256)": "095ea7b3",
					"balanceOf(address)": "70a08231",
					"buyToken(address)": "7e72fb52",
					"decimals()": "313ce567",
					"decreaseAllowance(address,uint256)": "a457c2d7",
					"increaseAllowance(address,uint256)": "39509351",
					"mint(address,uint256)": "40c10f19",
					"name()": "06fdde03",
					"owner()": "8da5cb5b",
					"rate()": "2c4e722e",
					"renounceOwnership()": "715018a6",
					"symbol()": "95d89b41",
					"totalSupply()": "18160ddd",
					"transfer(address,uint256)": "a9059cbb",
					"transferFrom(address,address,uint256)": "23b872dd",
					"transferOwnership(address)": "f2fde38b"
				}
			},
			"userdoc": {
				"kind": "user",
				"methods": {},
				"version": 1
			}
		}
	}
}